:020000040000FA
:060000000FEF0AF01200F0
:0A000600030087140000E40000006E
:1000100002000000541400004B0F000033000000E9
:0C002000521400007E0F000002000000DF
:04002C000001ACC063
:1000300000F0ADC001F0AC07000EAD5B0050011048
:100040000EE00C01040E456F0C01455145070009F7
:10005000EDE04B0EE66E1DEC0AF0E552F5D712000E
:100060008A989E96AEC0C9FF9EA6FED7C9CF4BFC0C
:100070009E96C96A9EA6FED7C9CF4BFC9E96C96ABA
:100080009EA6FED7C9CF4BFC9E968A880C014B5189
:1000900012008A989E96AFC0C9FF9EA6FED7C9CF10
:1000A00046FC9E96C96A9EA6FED7C9CF46FC9E9680
:1000B0008A880C01465112008A989E96400E0001D3
:1000C000B011C96E9EA6FED7C9CF4BFC9E96B1C09B
:1000D000C9FF9EA6FED7C9CF4BFC9E968A88120008
:1000E0008A989E96800E0001B211C96E9EA6FED718
:1000F000C9CF4BFC9E96B3C0C9FF9EA6FED7C9CF01
:100100004BFC9E968A8812008A989E96A00E00014B
:10011000B411C96E9EA6FED7C9CF4BFC9E96B5C042
:10012000C9FF9EA6FED7C9CF4BFC9E968A881200B7
:100130000001030EB56F00011F0EB46FE5DFB7C0FD
:10014000B3F000011F0EB26F70EF00F00001140E4B
:10015000B66F020EB76FECDFB8C0B1F00001140E3D
:10016000B06FAADF0001010EB16F0001120EB06F77
:10017000A3DF00010A0EB66F030EB76FD9DF0001CF
:100180000A0EAE6F6DDF006E000100B0F8D70001FF
:10019000140EB66F020EB76FCBDF0001B16B00011A
:1001A000120EB06F89DF0001180EAE6F59DF006EBE
:1001B000E8CF48FC0001190EAE6F52DF006EE8CFA9
:1001C00049FC48CCF3FFF46E12000001140EB66F28
:1001D000020EB76FADDFB9C0B1F00001140EB06F01
:1001E0006BDFBAC0B1F00001160EB06F65DFBBC0A7
:1001F000B1F00001170EB06F5FDF00010A0EB66F9D
:10020000030EB76F95DF00010A0EAE6F29DF006E97
:10021000000100B0F8D712008A989E963A0EC96E77
:100220009EA6FED7C9CF00FC9E96C96A9EA6FED7A1
:10023000C9CF00FC9E968A880C01005112008A9852
:100240009E963A0EC96E0C01146B156B0001BC072B
:10025000000EBD5B9EA6FED7C9CF16FC9E96000180
:10026000BE510C01145D0001BF510C01155910E283
:10027000C96A142B000E15230001BC2BBD239EA6BA
:10028000FED7C950BCC0E9FFBDC0EAFFEF6EE6D79C
:100290008A8814CCF3FF15CCF4FF12008A989E963E
:1002A0007A0EC96E9EA6FED7C9CF00FC9E96C0C02E
:1002B000C9FF9EA6FED7C9CF00FC9E968A88120071
:1002C0008A989E967A0EC96E9EA6FED7C9CF46FC26
:1002D0009E960001C351C4110EE0C1C0E9FFC2C027
:1002E000EAFFEF50C96EC12B000EC223C307C45BE7
:1002F0009EA6FED7EBD78A8812000001010EB86FC8
:1003000025DFF350040B01E0010E12000001C5517E
:1003100009E000011F0EAF6FBCDEE850080B080AB1
:1003200029E0010CA551A45D0AE100011F0EAF6F89
:10033000B0DE0001E850080B080A1CE0010C0C01BB
:10034000010E476F070E475D14E24751050DF3CFCD
:10035000E9FFF4CFEAFF810EE926000EEA22040E3F
:10036000E926000EEA22EF50010B01E0010C472BB9
:10037000E9D7000E12000001C65109E000011F0E6E
:10038000AF6F87DEE850080B01E1000CFF0C0C0199
:10039000010E006F070E005D33E20051050DF3CF33
:1003A000E9FFF4CFEAFF810EE926000EEA22040EEF
:1003B000E926000EEA22EF50010B20E00051050D66
:1003C000F3CFE9FFF4CFEAFF810EE926000EEA221F
:1003D000040EE926000EEA22EF900051050DF3CF3E
:1003E000E9FFF4CFEAFF810EE926000EEA22040EAF
:1003F000E926000EEA22EF9200511200002BCAD724
:10040000FF0CC7C0A4F00001C751050DF3CFE9FFF1
:10041000F4CFEAFF810EE926000EEA22EECF00F0CB
:10042000EFCF01F0010E0026000E01220E0E002675
:10043000000E01220050C8270150C923020E0001FE
:10044000B66FB76B75DEC8C0B1F00001B06B34DEBB
:10045000C9C0B1F00001010EB06F2EDEC8C0B1F00E
:100460000001020EB06F28DEC9C0B1F00001030E1A
:10047000B06F5CEF00F00C01510E006F5D0E016F6C
:10048000020E0001B66FB76B53DE00CCB1F0000175
:10049000B06B12DE01CCB1F00001010EB06F0CDECA
:1004A00000CCB1F00001020EB06F06DE01CCB1F05D
:1004B0000001030EB06F5CEF00F00001CA51006E46
:1004C000016A070E005C000E015811E2CA51050DC9
:1004D000F3CFE9FFF4CFEAFF810EE926000EEA220E
:1004E000040EE926000EEA22EF80CAC0A4F0120032
:1004F000140E0001016AA825006EA95101220050C6
:10050000CB250C01006F01500001CC210C01016FC3
:1005100000CC00F0016E026A036AD880070E005416
:10052000100E0154000E0254000E035404E2080E93
:10053000005F100E015B0001B66BB76BF9DD00CCFC
:10054000B1F00001B06BB8DD01CCB1F00001010EDB
:10055000B06FB2DD00CCB1F00001020EB06FACDDC7
:1005600001CCB1F00001030EB06F5CEF00F00001B0
:10057000190EB66F010EB76FDBDD0001190EAF6FFC
:1005800088DD006EE8CF00FC0E0E0001B66FB76B81
:10059000CFDD00010E0EAF6F7CDD006EE8CF02FCF8
:1005A00000010F0EAF6F75DD006EE8CF03FC000198
:1005B000190EB66F010EB76FBBDD0001190EAF6FDC
:1005C00068DD006E0C0100510001005CD6E10C0EEC
:1005D0000001B66FB76BACDD00010C0EAF6F59DDDB
:1005E000006EE8CF00FC00010D0EAF6F52DD006E13
:1005F000E8CF01FC0C010251005D035101591BE2DF
:10060000070E046E100E056E066A076A0051025D41
:10061000086E03510155096E0A6A0B6A0850045CA2
:10062000006E09500558016E0A500658026E0B50B4
:100630000758036E14D00051021908E10151031943
:1006400005E1070EF36E100EF46E12000251005D0C
:10065000006E01510355016E0006000E015A00C0E4
:10066000F3FF01C0F4FF12000001AA5101E01200E3
:10067000010EAA6FA6C014FCA7C015FC0C01145FE4
:10068000000E155B14CC00F015CC01F0026A036A71
:10069000D880070E0054100E0154000E0254000EB4
:1006A000035404E2070E146F100E156F0001400E84
:1006B000B36F00011E0EB26F13DD0C0E0001B66F9A
:1006C000B76B36DD14CCB1F000010C0EB06FF4DC6A
:1006D00015CCB1F000010D0EB06F5CEF00F0000121
:1006E000190EB66F010EB76F23DD0001190EAF6F43
:1006F000D0DC006E0001005002E1000E90D000013D
:10070000AA5103E1B1DF000E8AD0A6C0A8F0A7C0AD
:10071000A9F00001B66BB76B0BDDA6C0B1F000010C
:10072000B06BCADCA7C0B1F00001010EB06FC4DC31
:10073000140E0001BE6FBF6B0001000EBC6F0C0EEB
:10074000BD6F7DDD12CCDEF013CCDFF00FEC09F0D5
:10075000F3CF12FCF4CF13FC00CC00F001CC01F07D
:10076000026A036AD880070E0054100E0154000E6E
:100770000254000E03541BE30C010C010051010B49
:1007800016E10C010C010551800B11E10C010C016B
:100790000451100B0CE10C01EE0ED8800255050E31
:1007A000035505E30C010C010451800B01E1FF002E
:1007B00000CCA6F001CCA7F0060EE66EE66A0C0EA1
:1007C000E66E0C0EE66ECDC0E9FFCEC0EAFFE9CFC3
:1007D00000F0EACF01F000C0E6FF01C0E6FFD4EC74
:1007E00009F0026E060EE15E0250CFC0E9FFD0C0F4
:1007F000EAFFEF68080E0C01135D0DE10C011251C8
:1008000004E0060E0C01125D06E1CFC0E9FFD0C086
:10081000EAFF12CCEFFF0001AA6B010E00D012001C
:10082000040E0001B66FB76B83DC0001A451050D07
:10083000F3CFE9FFF4CFEAFF810EE926000EEA22AA
:10084000EFCFB1F00001040EB06F36DC0001A4510F
:10085000050DF3CFE9FFF4CFEAFF810EE926000E84
:10086000EA22010EE926000EEA22EFCFB1F00001E4
:10087000050EB06F21DC0001A451050DF3CFE9FF97
:10088000F4CFEAFF810EE926000EEA22020EE926E5
:10089000000EEA22EFCFB1F00001060EB06F5CEC63
:1008A00000F00001A451050DF3CFE9FFF4CFEAFFFA
:1008B000810EE926000EEA22020EE926000EEA2247
:1008C000010EE926000EEA22EFCFB1F00001070E7B
:1008D000B06F5CEC00F0A4C0A5F00001A451050DC0
:1008E000F3CFE9FFF4CFEAFF810EE926000EEA22FA
:1008F000040EE926000EEA22EF8200011C0EAF6F03
:1009000049EC00F0006E000100A210D00001800E42
:10091000B36F00011F0EB26F70EC00F00001800E8B
:10092000B56F00011F0EB46F84EC00F000010A0ED9
:10093000B56F00011C0EB46F84EC00F00001080ECE
:10094000B36F00011F0EB26F70EC00F0050E0001D6
:10095000AB5D01E0C7D000011C0EAF6F49EC00F0A9
:10096000006E0A0E00010014F6E000011C0EAF6FCD
:1009700049EC00F0006E000100A2B4D00001080EA6
:10098000B56F00011F0EB46F84EC00F00001B66B70
:10099000B76B98EC00F00001AF6B49EC00F0006E13
:1009A000E8CF00FC0001010EAF6F49EC00F0006ED3
:1009B000E8CF01FC0001060EAF6F49EC00F0006EBD
:1009C000E8CF02FC0001070EAF6F49EC00F0006EAB
:1009D000E8CF03FC0C01022B000E032302CCB1F084
:1009E0000001B06B5CEC00F003CCB1F00001010E33
:1009F000B06F5CEC00F0070E0001BE6FBF6B000132
:100A0000040EBC6F0C0EBD6F1ADC0C010B6B100ECC
:100A10000B5D5BE200011C0EAF6F49EC00F0006E55
:100A20000001E850020B51E00C010751200B4DE092
:100A30000001800EB36F00011F0EB26F70EC00F06A
:100A40000001800EB56F00011F0EB46F84EC00F042
:100A500000010A0EB56F00011C0EB46F84EC00F0AB
:100A60000001080EB36F00011F0EB26F70EC00F0B2
:100A700000011C0EAF6F49EC00F0006E0A0E000181
:100A80000014F6E00001080EB56F00011F0EB46FF0
:100A900084EC00F002CCB1F00001B06B5CEC00F033
:100AA00003CCB1F00001010EB06F5CEC00F0070E5A
:100AB0000001BE6FBF6B0001040EBC6F0C0EBD6F5A
:100AC0001FEC01F00C010B2BA2D700CCB1F0000100
:100AD000B06B5CEC00F001CCB1F00001010EB06F26
:100AE0005CEC00F012000001200EB56F00011E0E3C
:100AF000B46F84EC00F000011D0EAF6F49EC00F004
:100B0000006E000100A0F7D70001040EB36F0001D2
:100B10001F0EB26F70EF00F00001040EB56F000100
:100B20001F0EB46F84EC00F000011D0EAF6F49EC96
:100B300000F0006E000100B4F7D700011F0EAF6F88
:100B400049EC00F0006E000100B6F7D70001200E5E
:100B5000B36F00011E0EB26F70EF00F000010C0EBB
:100B6000B56F00011F0EB46F84EC00F00001B86B8C
:100B7000A6EC00F0F3CF46FCF4CF47FC020E0001D8
:100B8000D15D06E10C014751010B0001D16F0DD081
:100B9000D1510C014791E8B0478146CCBAF047CC1F
:100BA000BBF00001B96BE5EC00F00001020EB66F7E
:100BB000B76F98EC00F00001020EAE6F30EC00F061
:100BC0000C01456F0001D1510C014591E8B0458100
:100BD00045CCB1F00001020EB06F5CEC00F00001FA
:100BE000D15102E0150E01D0120E0001B16F0001CB
:100BF000040EB06F5CEC00F00001040EB36F000156
:100C00001F0EB26F70EF00F00001150EB66F030EED
:100C1000B76F98EC00F0D2C0B1F00001150EB06FC4
:100C20005CEC00F00001B66BB76B98EF00F00001D0
:100C3000150EB66F030EB76F98EC00F00001150E9D
:100C4000AF6F49EC00F0006EE8CF00FC0001B66B1E
:100C5000B76B98EC00F00C01005112008A989E9638
:100C6000C9689EA6FED7C9CF45FC9E968A88120009
:100C7000896A010E926E100E8A6E010E936EC00E7E
:100C80008B6E900E946EF19ED08EF28EF28C200EB2
:100C9000C66E400EC76E12000C01306931693269B0
:100CA000336934693569366B040E376FA30E386FBC
:100CB000396B020E3A6F3B6B060EE66EE66A300E3B
:100CC000E66E0C0EE66E220EE66E0C0EE66ED4ECB0
:100CD00009F0006E060EE15E0050060EE66EE66A52
:100CE000360EE66E0C0EE66E280EE66E0C0EE66E06
:100CF000D4EC09F0006E060EE15E00500001DE6BE0
:100D0000080EDF6F0FEC09F0F3CF2EFCF4CF2FFCB1
:100D10000E0EE66EE66A220EE66E0C0EE66E20CC35
:100D2000E6FF21CCE6FFD4EC09F0006E060EE15E92
:100D3000005041CFE6FF42CFE6FF3FCFE6FF40CF76
:100D4000E6FF0E0E0C01016A2025006E21510122E2
:100D500000C0E6FF01C0E6FFD4EC09F0026E060E0B
:100D6000E15E0250020E0001E26FE36B20CCE0F086
:100D700021CCE1F014EF09F00C01C00E166FA80EA3
:100D8000176F010E186F0C0E196F1A691B691C6919
:100D90001D69450E026F036B220E0001DE6FDF6BD3
:100DA0000FEC09F0F3CF04FCF4CF05FC170E0001A3
:100DB000DE6FDF6B0FEC09F0F3CF06FCF4CF07FC1E
:100DC0000001DE6BDF6B0FEC09F0F3CF08FCF4CF12
:100DD00009FC0C01640E0A6F110E0B6F0001DE6B33
:100DE000950EDF6F0FEC09F0F3CF0CFCF4CF0DFC88
:100DF000040EE66EE66A160EE66E0C0EE66E0E0E3B
:100E0000E66E0C0EE66ED4EC09F0006E060EE15EA6
:100E10000050040EE66EE66A1A0EE66E0C0EE66EE2
:100E2000120EE66E0C0EE66ED4EC09F0006E060EA5
:100E3000E15E0050140EE66EE66A020EE66E0C0EDF
:100E4000E66E0F0EE66E0F0EE66ED4EC09F0006E45
:100E5000060EE15E005045CFE6FF46CFE6FF43CFEA
:100E6000E6FF44CFE6FF230EE66E0F0EE66ED4ECEF
:100E700009F0006E060EE15E0050140E0F014525CC
:100E80000F01416F000E0F0146210F01426F0F014C
:100E9000010E3F6F0F0E406F4CEF06F000012C0E5D
:100EA000DE6F0B0EDF6F0FEC09F0F3CF3EFCF4CFDB
:100EB0003FFC00015F0EDE6F760EDF6F0FEC09F076
:100EC000F3CF40FCF4CF41FC0E0E0001DE6FDF6B70
:100ED0000FEC09F0F3CF42FCF4CF43FC0001DE6BD2
:100EE000DF6B0FEC09F0F3CF44FCF4CF45FC080EA8
:100EF000E66EE66A3E0EE66E0C0EE66E230EE66EBB
:100F00000F0EE66ED4EC09F0006E060EE15E0050A6
:100F100049CFE6FF4ACFE6FF47CFE6FF48CFE6FFDF
:100F20002B0EE66E0F0EE66ED4EC09F0006E060E88
:100F3000E15E0050080E0F0149250F01456F000EBC
:100F40000F014A210F01466F0F01010E436F0F0E73
:100F5000446FBCEF06F00C01006B01690269036984
:100F6000046905690669076B040E086FA30E096F13
:100F70000A6B020E0B6F0C6B080E0D6F0E6B450E9D
:100F80000F6F106B116B220E126F050E136F550E43
:100F9000146F156B166B640E176F110E186F8F0E92
:100FA000196FC20E1A6FC00E1B6FA80E1C6F010EB8
:100FB0001D6F0C0E1E6F1F692069216922690B0EBF
:100FC000236F2C0E246F760E256F5F0E266F276B16
:100FD0000E0E286F296B2A6B430E2B6F6F0E2C6F32
:100FE000620E2D6F720E2E6F610E2F6F780E306FA6
:100FF000316B326B336B346B356B366B376B386BF5
:10100000396B3A6B3B6B3C6B060E3D6F3E6B430E90
:101010003F6F6F0E406F620E416F720E426F610E36
:10102000436F780E446F24DE22EC08F03D0E000181
:10103000E26FE36B0001000EE06F0C0EE16F14EC49
:0410400009F0F4D7E8
:0C1044009E9600011D0EAF6F49EC00F0FD
:10105000006EE8CF4AFC080E0C014A15F4E14A1D67
:10106000010BF1E12EEC06F0010E0001AC6FAD6B4F
:1010700016EC00F00001B16B0001080EB06F5CECE3
:1010800000F00001B16B0001090EB06F5CEC00F0E4
:101090000001070EB16F00010C0EB06F5CEC00F0A8
:1010A0000001100EB16F00010D0EB06F5CEC00F08E
:1010B0000001070EB16F00010A0EB06F5CEC00F08A
:1010C0000001100EB16F00010B0EB06F5CEC00F070
:1010D0000001080EB16F0001040EB06F5CEC00F06F
:1010E0000001100EB16F0001050EB06F5CEC00F056
:1010F0000001B66B020EB76F98EC00F000010D0E08
:10110000B16F0001B06B5CEC00F00001320EB16F0A
:101110000001020EB06F5CEC00F00001400EB16FF8
:101120000001030EB06F5CEC00F000013F0EB16FE8
:101130000001090EB06F5CEC00F00001120EB16FFF
:101140000001060EB06F5CEC00F000010C0EB16FF8
:101150000001070EB06F5CEC00F00001EE0EB16F05
:1011600000010A0EB06F5CEC00F00001050EB16FDB
:1011700000010B0EB06F5CEC00F00001040EB66FC6
:10118000030EB76F98EC00F00001B16B0001040E84
:10119000B06F5CEC00F00001040EB16F0001050EB1
:1011A000B06F5CEC00F00001A30EB16F0001020E05
:1011B000B06F5CEC00F00001B16B0001030EB06F8A
:1011C0005CEC00F00001020EB16F0001B06B5CEC52
:1011D00000F00001B16B0001010EB06F5CEC00F09B
:1011E0000001BA6B010EBB6F0001100EB96FE5EC88
:1011F00000F00001720EBA6F040EBB6F0001140EF6
:10120000B96FE5EC00F00001D16BAEEC05F0000128
:10121000040EB36F00011F0EB26F70EF00F0DFC05D
:10122000F3FFDEC0F4FF12000001010EC56F86EC73
:1012300001F00009F9E0020E0001B66FB76B98ECFF
:1012400000F00001B16B0001020EB06F5CEC00F029
:101250000001B16B0001030EB06F5CEC00F0E2C066
:10126000C3F0E3C0C4F0E0C0C1F0E1C0C2F060EC84
:1012700001F0040E0001B66FB76B98EC00F00001AE
:10128000B16B0001040EB06F5CEC00F00001B16BBB
:101290000001050EB06F5CEC00F00001310EB16F83
:1012A0000001060EB06F5CEC00F00001B16B0001B4
:1012B000070EB06F5CEC00F000011C0EAF6F49EC44
:1012C00000F0006E000100A210D00001800EB36F8C
:1012D00000011F0EB26F70EC00F00001800EB56FC0
:1012E00000011F0EB46F84EC00F000010A0EB56F10
:1012F00000011C0EB46F84EC00F00001080EB36F07
:0A13000000011F0EB26F70EF00F045
:06130A00060EF66E000E57
:10131000F76E000EF86E00010900F550D86F090055
:10132000F550D96F03E1D86701D03DD00900F550E1
:10133000D36F0900F550D46F0900F550D56F09003F
:101340000900F550E96E0900F550EA6E0900090040
:101350000900F550D66F0900F550D76F0900090054
:10136000F6CFDAF0F7CFDBF0F8CFDCF0D3C0F6FF42
:10137000D4C0F7FFD5C0F8FF0001D65302E1D75320
:1013800007E00900F550EE6ED607F8E2D707F9D767
:10139000DAC0F6FFDBC0F7FFDCC0F8FF0001D807BA
:0813A000000ED95BBFD712005B
:0813A800D9CFE6FFDACFE6FF22
:1013B000FA0EE3CFD9FFFB0EE3CFDAFFFC0EE3CF4B
:1013C000E9FFFD0EE3CFEAFFE9CFF3FFEACFF4FF39
:1013D000F80EE35003E1F90EE35008E0F80EE306DF
:1013E00002E2F90EE306DECFEEFFF2D7FF0EE3CF07
:0E13F000DAFFE552FF0EE3CFD9FFE5521200FF
:0213FE00800E5F
:10140000F36E00EE00F00F0E01D81200EA6002D079
:0E141000EE6AFCD7F350E9601200EE6AFCD7DA
:02141E001DEEC1
:1014200000F02DEE00F0F86A0D9C85EC09F028EC38
:0A1430000AF0ABEC07F0FBD7120046
:06143A00FF0EE350E84E36
:101440001200000000D000D000D0E82EFAD7120021
:02145000120088
:02145200000098
:0C1454000000C0A8010C0004A30002006E
:10146000FFFFFF00C0A80101C0A8010101000000AA
:10147000000000000000000000000000000000006C
:071480000000000000000065
:02148700000063
:020000040030CA
:0100010004FA
:0100020018E5
:010003001EDE
:0100050001F9
:010006008178
:00000001FF
