:020000040000FA
:060000007AEF08F0120087
:020006000000F8
:080008000001ABC000F0ACC028
:1000100001F0AB07000EAC5B005001100EE00D01CB
:10002000040E006F0D01005100070009EDE04B0EBA
:10003000E66E88EC08F0E552F5D712008A989E9695
:10004000ADC0C9FF9EA6FED7C9CF06FD9E96C96A60
:100050009EA6FED7C9CF06FD9E96C96A9EA6FED76C
:10006000C9CF06FD9E968A880D01065112008A9816
:100070009E96AEC0C9FF9EA6FED7C9CF49FD9E96EB
:10008000C96A9EA6FED7C9CF49FD9E968A880D01F2
:10009000495112008A989E96400E0001AF11C96E18
:1000A0009EA6FED7C9CF49FD9E96B0C0C9FF9EA6A9
:1000B000FED7C9CF49FD9E968A8812008A989E96DF
:1000C000800E0001B111C96E9EA6FED7C9CF49FDB1
:1000D0009E96B2C0C9FF9EA6FED7C9CF49FD9E9687
:1000E0008A8812008A989E96A00E0001B311C96EEC
:1000F0009EA6FED7C9CF49FD9E96B4C0C9FF9EA655
:10010000FED7C9CF49FD9E968A8812000001030ED2
:10011000B46F00011F0EB36FE5DFB6C0B2F000018F
:100120001F0EB16F5EEF00F00001140EB56F020EEE
:10013000B66FECDFB7C0B0F00001140EAF6FAADFEE
:100140000001010EB06F0001120EAF6FA3DF0001BE
:100150000A0EB56F030EB66FD9DF00010A0EAD6F40
:100160006DDF006E000100B0F8D70001140EB56F0E
:10017000020EB66FCBDF0001B06B0001120EAF6F45
:1001800089DF0001180EAD6F59DF006EE8CF03FD67
:100190000001190EAD6F52DF006EE8CF04FD03CDF4
:1001A000F3FFF46E12000001140EB56F020EB66F6D
:1001B000ADDFB8C0B0F00001140EAF6F6BDFB9C097
:1001C000B0F00001160EAF6F65DFBAC0B0F00001ED
:1001D000170EAF6F5FDF00010A0EB56F030EB66F2B
:1001E00095DF00010A0EAD6F29DF006E000100B03F
:1001F000F8D712008A989E963A0EC96E9EA6FED730
:10020000C9CF00FD9E96C96A9EA6FED7C9CF00FD44
:100210009E968A880D01005112008A989E963A0E89
:10022000C96E0D01496B4A6B0001BB07000EBC5B38
:100230009EA6FED7C9CF4BFD9E960001BD510D0174
:10024000495D0001BE510D014A5910E2C96A492BAE
:10025000000E4A230001BB2BBC239EA6FED7C9502B
:10026000BBC0E9FFBCC0EAFFEF6EE6D78A8849CD84
:10027000F3FF4ACDF4FF12008A989E967A0EC96E5B
:100280009EA6FED7C9CF00FD9E96BFC0C9FF9EA601
:10029000FED7C9CF00FD9E968A8812008A989E9646
:1002A0007A0EC96E9EA6FED7C9CF3DFD9E9600016F
:1002B000C251C3110EE0C0C0E9FFC1C0EAFFEF5058
:1002C000C96EC02B000EC123C207C35B9EA6FED71A
:1002D000EBD78A8812000001010EB76F25DFF350BB
:1002E000040B01E0010E12000001C45109E00001FD
:1002F0001F0EAE6FBCDEE850080B080A29E0010CA7
:10030000A451A35D0AE100011F0EAE6FB0DE000133
:10031000E850080B080A1CE0010C0D01010E3D6FAE
:10032000070E3D5D14E23D51050DF3CFE9FFF4CF1B
:10033000EAFF800EE926000EEA22040EE926000EEE
:10034000EA22EF50010B01E0010C3D2BE9D7000E32
:1003500012000001C55109E000011F0EAE6F87DEDB
:10036000E850080B01E1000CFF0C0D01010E006FBD
:10037000070E005D33E20051050DF3CFE9FFF4CF26
:10038000EAFF800EE926000EEA22040EE926000E9E
:10039000EA22EF50010B20E00051050DF3CFE9FFF9
:1003A000F4CFEAFF800EE926000EEA22040EE926C9
:1003B000000EEA22EF900051050DF3CFE9FFF4CFD4
:1003C000EAFF800EE926000EEA22040EE926000E5E
:1003D000EA22EF9200511200002BCAD7FF0CC6C0D0
:1003E000A3F00001C651050DF3CFE9FFF4CFEAFFFA
:1003F000800EE926000EEA22EECF00F0EFCF01F0EA
:10040000010E0026000E01220E0E0026000E012213
:100410000050C7270150C823020E0001B56FB66B0C
:1004200075DEC7C0B0F00001AF6B34DEC8C0B0F0FD
:100430000001010EAF6F2EDEC7C0B0F00001020E4A
:10044000AF6F28DEC8C0B0F00001030EAF6F4AEFF7
:1004500000F00D01510E006F5D0E016F020E0001E4
:10046000B56FB66B53DE00CDB0F00001AF6B12DE9E
:1004700001CDB0F00001010EAF6F0CDE00CDB0F089
:100480000001020EAF6F06DE01CDB0F00001030ED9
:10049000AF6F4AEF00F00001C951006E016A070E0C
:1004A000005C000E015811E2C951050DF3CFE9FFC0
:1004B000F4CFEAFF800EE926000EEA22040EE926B8
:1004C000000EEA22EF80C9C0A3F01200140E000152
:1004D000016AA725006EA85101220050CA250D010E
:1004E000006F01500001CB210D01016F00CD00F024
:1004F000016E026A036AD880070E0054100E015480
:10050000000E0254000E035404E2080E005F100EA9
:10051000015B0001B56BB66BF9DD00CDB0F00001F9
:10052000AF6BB8DD01CDB0F00001010EAF6FB2DDF1
:1005300000CDB0F00001020EAF6FACDD01CDB0F028
:100540000001030EAF6F4AEF00F00001190EB56F06
:10055000010EB66FDBDD0001190EAE6F88DD006E97
:10056000E8CF00FD0E0E0001B56FB66BCFDD0001C8
:100570000E0EAE6F7CDD006EE8CF02FD00010F0EA7
:10058000AE6F75DD006EE8CF03FD0001190EB56F8B
:10059000010EB66FBBDD0001190EAE6F68DD006E97
:1005A0000D0100510001005CD6E10C0E0001B56F99
:1005B000B66BACDD00010C0EAE6F59DD006EE8CFFE
:1005C00000FD00010D0EAE6F52DD006EE8CF01FDA3
:1005D0000D010251005D035101591BE2070E046E2B
:1005E000100E056E066A076A0051025D086E03511F
:1005F0000155096E0A6A0B6A0850045C006E0950C6
:100600000558016E0A500658026E0B500758036ECB
:1006100014D00051021908E10151031905E1070E38
:10062000F36E100EF46E12000251005D006E015167
:100630000355016E0006000E015A00C0F3FF01C011
:10064000F4FF12000001A95101E01200010EA96F90
:10065000A5C014FDA6C015FD0D01145F000E155BAD
:1006600014CD00F015CD01F0026A036AD880070EA0
:100670000054100E0154000E0254000E035404E204
:10068000070E146F100E156F0001400EB26F0001BF
:100690001E0EB16F13DD0C0E0001B56FB66B36DDAB
:1006A00014CDB0F000010C0EAF6FF4DC15CDB0F03E
:1006B00000010D0EAF6F4AEF00F00001190EB56F8B
:1006C000010EB66F23DD0001190EAE6FD0DC006E97
:1006D0000001005002E1000E90D00001A95103E199
:1006E000B1DF000E8AD0A5C0A7F0A6C0A8F0000117
:1006F000B56BB66B0BDDA5C0B0F00001AF6BCADC0B
:10070000A6C0B0F00001010EAF6FC4DC140E0001F2
:10071000BD6FBE6B0001000EBB6F0D0EBC6F7DDDAB
:1007200012CDE2F013CDE3F0D5EC06F0F3CF12FDDD
:10073000F4CF13FD00CD00F001CD01F0026A036A91
:10074000D880070E0054100E0154000E0254000E03
:1007500003541BE30D010D010051010B16E10D01C6
:100760000D010551800B11E10D010D010451100B1C
:100770000CE10D01EE0ED8800255050E035505E380
:100780000D010D010451800B01E1FF0000CDA5F02A
:1007900001CDA6F0060EE66EE66A0C0EE66E0D0EB4
:1007A000E66ECCC0E9FFCDC0EAFFE9CF00F0EACFAA
:1007B00001F000C0E6FF01C0E6FF3FEC08F0026E6A
:1007C000060EE15E0250CEC0E9FFCFC0EAFFEF683F
:1007D000080E0D01135D0DE10D01125104E0060E2E
:1007E0000D01125D06E1CEC0E9FFCFC0EAFF12CDD8
:1007F000EFFF0001A96B010E00D01200040E0001F2
:10080000B56FB66B83DC0001A351050DF3CFE9FF93
:10081000F4CFEAFF800EE926000EEA22EFCFB0F017
:100820000001040EAF6F36DC0001A351050DF3CFBC
:10083000E9FFF4CFEAFF800EE926000EEA22010E5E
:10084000E926000EEA22EFCFB0F00001050EAF6FEF
:1008500021DC0001A351050DF3CFE9FFF4CFEAFF3E
:10086000800EE926000EEA22020EE926000EEA2298
:10087000EFCFB0F00001060EAF6F4AEC00F00001C0
:10088000A351050DF3CFE9FFF4CFEAFF800EE9266F
:10089000000EEA22020EE926000EEA22010EE926E7
:1008A000000EEA22EFCFB0F00001070EAF6F4AEC66
:1008B00000F0A3C0A4F00001A351050DF3CFE9FFA0
:1008C000F4CFEAFF800EE926000EEA22040EE926A4
:1008D000000EEA22EF8200011C0EAE6F37EC00F032
:1008E000006E000100A210D00001800EB26F000166
:1008F0001F0EB16F5EEC00F00001800EB46F0001BE
:100900001F0EB36F72EC00F000010A0EB46F00010D
:100910001C0EB36F72EC00F00001080EB26F000104
:100920001F0EB16F5EEC00F0050E0001AA5D01E044
:10093000C7D000011C0EAE6F37EC00F0006E0A0E3F
:1009400000010014F6E000011C0EAE6F37EC00F061
:10095000006E000100A2B4D00001080EB46F0001C7
:100960001F0EB36F72EC00F00001B56BB66B86EC36
:1009700000F00001AE6B37EC00F0006EE8CF3DFDFB
:100980000001010EAE6F37EC00F0006EE8CF3EFDC7
:100990000001060EAE6F37EC00F0006EE8CF3FFDB1
:1009A0000001070EAE6F37EC00F0006EE8CF40FD9F
:1009B0000D013F2B000E40233FCDB0F00001AF6B87
:1009C0004AEC00F040CDB0F00001010EAF6F4AECF0
:1009D00000F0070E0001BD6FBE6B0001410EBB6F42
:1009E0000D0EBC6F1ADC0D01486B100E485D5BE20A
:1009F00000011C0EAE6F37EC00F0006E0001E850F5
:100A0000020B51E00D014451200B4DE00001800E1E
:100A1000B26F00011F0EB16F5EEC00F00001800E9E
:100A2000B46F00011F0EB36F72EC00F000010A0EEC
:100A3000B46F00011C0EB36F72EC00F00001080EE1
:100A4000B26F00011F0EB16F5EEC00F000011C0ED2
:100A5000AE6F37EC00F0006E0A0E00010014F6E0F5
:100A60000001080EB46F00011F0EB36F72EC00F0AE
:100A70003FCDB0F00001AF6B4AEC00F040CDB0F0DC
:100A80000001010EAF6F4AEC00F0070E0001BD6FD0
:100A9000BE6B0001410EBB6F0D0EBC6F0DEC01F083
:100AA0000D01482BA2D73DCDB0F00001AF6B4AEC51
:100AB00000F03ECDB0F00001010EAF6F4AEC00F047
:100AC00012000001200EB46F00011E0EB36F72EC15
:100AD00000F000011D0EAE6F37EC00F0006E00015B
:100AE00000A0F7D70001040EB26F00011F0EB16F16
:100AF0005EEF00F00001040EB46F00011F0EB36F33
:100B000072EC00F000011D0EAE6F37EC00F0006ECD
:100B1000000100B4F7D700011F0EAE6F37EC00F0F4
:100B2000006E000100B6F7D70001200EB26F000181
:100B30001E0EB16F5EEF00F000010C0EB46F0001ED
:100B40001F0EB36F72EC00F00001B76B94EC00F075
:100B5000F3CF01FDF4CF02FD020E0001D05D06E1EE
:100B60000D010251010B0001D06F0DD0D0510D01CC
:100B70000291E8B0028101CDB9F002CDBAF00001D6
:100B8000B86BD3EC00F00001020EB56FB66F86ECC7
:100B900000F00001020EAD6F1EEC00F00D01006FC1
:100BA0000001D0510D010091E8B0008100CDB0F0FE
:100BB0000001020EAF6F4AEC00F00001D05102E0DC
:100BC000150E01D0120E0001B06F0001040EAF6FC0
:100BD0004AEC00F00001040EB26F00011F0EB16F6D
:100BE0005EEF00F00001150EB56F030EB66F86ECD8
:100BF00000F0D1C0B0F00001150EAF6F4AEC00F06C
:100C00000001B56BB66B86EF00F00001150EB56FF5
:100C1000030EB66F86EC00F00001150EAE6F37ECD8
:100C200000F0006EE8CF00FD0001B56BB66B86ECFE
:100C300000F00D01005112008A989E96C9689EA688
:0C0C4000FED7C9CF00FD9E968A881200E6
:040C4C009E9600016F
:100C50001D0EAE6F37EC00F0006EE8CF05FD080EFC
:100C60000D010515F4E1051D010BF1E11CEC06F089
:100C7000010E0001AB6FAC6B04EC00F00001B56B32
:100C8000020EB66F86EC00F000010D0EB06F000191
:100C9000AF6B4AEC00F00001320EB06F0001020EA3
:100CA000AF6F4AEC00F00001400EB06F0001030E80
:100CB000AF6F4AEC00F000013F0EB06F0001090E6B
:100CC000AF6F4AEC00F00001120EB06F0001060E8B
:100CD000AF6F4AEC00F000010C0EB06F0001070E80
:100CE000AF6F4AEC00F00001EE0EB06F00010A0E8B
:100CF000AF6F4AEC00F00001050EB06F00010B0E63
:100D0000AF6F4AEC00F00001040EB56F030EB66F32
:100D100086EC00F00001B06B0001040EAF6F4AECEE
:100D200000F00001040EB06F0001050EAF6F4AEC39
:100D300000F00001A30EB06F0001020EAF6F4AEC8D
:100D400000F00001B06B0001030EAF6F4AEC00F041
:100D50000001020EB06F0001AF6B4AEC00F0000121
:100D6000B06B0001010EAF6F4AEC00F00001B96BEF
:100D7000010EBA6F0001100EB86FD3EC00F0000145
:100D8000720EB96F040EBA6F0001140EB86FD3EC77
:100D900000F00001D06B9CEC05F00001040EB26F76
:100DA00000011F0EB16F5EEF00F0E3C0F3FFE2C081
:100DB000F4FF12000D01006B016902690369046907
:100DC00005690669076B040E086FA30E096F0A6BAD
:100DD000020E0B6F0C6B080E0D6F0E6B450E0F6F36
:100DE000106B116B220E126F050E136F550E146FE0
:100DF000156B166B640E176F110E186F8F0E196F2F
:100E0000C20E1A6FC00E1B6FA80E1C6F010E1D6F55
:100E10000C0E1E6F1F692069216922690B0E236F5A
:100E20002C0E246F760E256F5F0E266F276B0E0E2D
:100E3000286F296B2A6B430E2B6F6F0E2C6F620E7F
:100E40002D6F720E2E6F610E2F6F780E306F316B1B
:100E5000326B336B346B356B366B376B386B396B8E
:100E60003A6B3B6B3C6B0001010EC46F74EC01F0FC
:100E70000009F9E0020E0001B56FB66B86EC00F0D8
:100E80000001080EB06F0001020EAF6F4AEC00F0D7
:100E90000001100EB06F0001030EAF6F4AEC00F0BE
:100EA0003D0E0001C26FC36B0001000EC06F0D0E3E
:0A0EB000C16F4EEC01F0FEEF03F0FD
:060EBA00896A010E926E30
:100EC000100E8A6E010E936EC00E8B6E900E946E95
:100ED000F19ED08EF28EF28C200EC66E400EC76E42
:100EE00012000D012A692B692C692D692E692F6961
:100EF000306B040E316FA30E326F336B020E346F02
:100F0000356B060EE66EE66A2A0EE66E0D0EE66E8E
:100F1000000EE66E0D0EE66E3FEC08F0006E060E5B
:100F2000E15E0050060EE66EE66A300EE66E0D0ECD
:100F3000E66E060EE66E0D0EE66E3FEC08F0006EF5
:100F4000060EE15E0050120012000D01140E156F26
:100F50000D0E166F780E176F0A0E186F5F0E196F51
:100F6000760E1A6F0E0E1B6F1C6B1D6B1E6B080E20
:100F7000E66EE66A170EE66E0D0EE66E15CDE6FF1E
:100F800016CDE6FF3FEC08F0006E060EE15E005065
:100F9000020EE66EE66AE0C0E6FFE1C0E6FF080E7C
:100FA0000D01016A1525006E1651012200C0E6FFF1
:100FB00001C0E6FF3FEC08F0026E060EE15E025053
:100FC0000A0E0001DE6FDF6B15CDDCF016CDDDF013
:100FD000A4EF07F072DF26EC06F0DAEC06F0FDD79E
:100FE000060EF66E000EF76E000EF86E0001090098
:100FF000F550D76F0900F550D86F03E1D76701D0DE
:101000003DD00900F550D26F0900F550D36F0900AB
:10101000F550D46F09000900F550E96E0900F5504C
:10102000EA6E090009000900F550D56F0900F55076
:10103000D66F09000900F6CFD9F0F7CFDAF0F8CF74
:10104000DBF0D2C0F6FFD3C0F7FFD4C0F8FF000139
:10105000D55302E1D65307E00900F550EE6ED507EF
:10106000F8E2D607F9D7D9C0F6FFDAC0F7FFDBC040
:0E107000F8FF0001D707000ED85BBFD71200B3
:02107E00D9CFC8
:10108000E6FFDACFE6FFFA0EE3CFD9FFFB0EE3CFA0
:10109000DAFFFC0EE3CFE9FFFD0EE3CFEAFFE9CF75
:1010A000F3FFEACFF4FFF80EE35003E1F90EE3504B
:1010B00008E0F80EE30602E2F90EE306DECFEEFFEB
:1010C000F2D7FF0EE3CFDAFFE552FF0EE3CFD9FFF1
:0410D000E5521200D3
:0C10D400800EF36E00EE00F00F0E01D84D
:1010E0001200EA6002D0EE6AFCD7F350E960120009
:0410F000EE6AFCD7D1
:0C10F4001EEE00F02EEE00F0F86A0D9CDD
:10110000F0EC07F093EC08F0EAEC07F0FBD71200E4
:10111000FF0EE350E84E1200000000D000D000D0D7
:06112000E82EFAD71200D0
:021126001200B5
:020000040030CA
:0100010004FA
:0100020018E5
:010003001EDE
:0100050001F9
:010006008178
:00000001FF
