:1000000019C033C032C031C030C02FC02EC02DC087
:100010002CC02BC02AC029C028C027C026C025C09C
:1000200024C023C022C021C020C01FC01EC01DC0CC
:100030001CC01BC011241FBECFEFD4E0DEBFCDBF5C
:1000400011E0A0E0B1E0EAE1F9E002C005900D9214
:10005000AE33B107D9F712E0AEE3B1E001C01D92B3
:10006000A634B107E1F70ED056C4CACFBC0186E36F
:1000700091E045E050E041D49C0180E0232B09F45D
:1000800081E00895AEE1B0E0E7E4F0E003C480E889
:1000900080936100109261008AE090E0D8D3209AAA
:1000A000529828988AE090E0D2D3289A88EC90E081
:1000B000CED38CE291E040D384E190E0C8D3219A82
:1000C000299A579A5F9884E166E774E089D284E1BF
:1000D00090E0BDD329988CE291E062E371E0F3D027
:1000E000DD24D3947E010894E11CF11C8AEF90E09A
:1000F0006EE371E0C0D28C010097C1F3DD2019F0EE
:10010000299ADD2403C02998DD24D3948EE391E05D
:10011000602FF9D0882329F08EE391E0602FB1D1D0
:10012000E5CF8EE391E0602F09D18823F9F2809129
:100130005501813049F4809160018830B9F68EE331
:1001400091E0602F84D1D2CF813181F6809162011C
:10015000843061F680916301803B41F61091650126
:10016000185088E691E082DF882359F43CC09F5FF5
:10017000E92FF0E0E25CFE4F82A58C3219F49F5F1C
:1001800003C090E0911798F3923068F0E92FF0E007
:10019000812F90E00297E817F9072CF4E25CFE4FFC
:1001A00083A58D3321F0C70160E071E01FC082A5F7
:1001B0008437A9F4E4A5E13311F45F9A08C0E03371
:1001C00011F45F9808C0EF3351F45F9B04C0C7017E
:1001D00069E071E00BC0C7016DE071E007C0C701C5
:1001E00061E171E003C0C7016FE171E07FD3F70106
:1001F00001900020E9F73197EE19FF098EE391E0B5
:10020000B7014E2F20EB34E0E2D070CFEF92FF9297
:100210000F931F93CF93DF937C01413061F46850BB
:1002200070409B0140E050E0685F7F4F2F5E3F4F82
:100230004F4F5F4F12C0423029F020E030E040E0E5
:1002400050E00BC0685070409B0140E050E0685F98
:100250007F4F2A5F3F4F4F4F5F4FE7018B010FC02A
:10026000F881E0E0898190E08E2B9F2BA0E0B0E048
:10027000280F391F4A1F5B1F229602501040023080
:10028000110570F7FB01EE7FEE0DFF1D60FF0DC045
:10029000908180E0AA2797FDA095BA2F02C04070F8
:1002A0005070280F391F4A1F5B1FCA01AA27BB279E
:1002B0000097A105B10599F720953095C901CDB7F3
:1002C000DEB7E6E004C3AC0120E030E0F901E15C18
:1002D000FD4FDB01A20FB31F8C9180832F5F3F4F37
:1002E0002430310599F720E030E0F901E75CFD4F5B
:1002F000DA01A20FB31F8C9180832F5F3F4F26300E
:10030000310599F70895FC016932B0F08485883091
:1003100099F48585863081F4DF019696EFE3F2E06B
:100320009C918081981741F41196319682E0E334D4
:10033000F807B1F781E0089580E00895FC016A3282
:10034000B8F084858830A1F48585882389F4DF019D
:10035000EFE3F2E05E969C915E978081981741F4FE
:100360001196319682E0E334F807A1F781E0089511
:1003700080E00895FC01A9E3B2E0868180838D913D
:100380008683319682E0AF33B807B9F70895CF93EB
:10039000DF93EC01FC01AFE3B2E0828D868F8D919B
:1003A000828F319682E0A334B807B9F7188E198E80
:1003B00080E48C8B1D8A8E8BCE010E9664E170E0FA
:1003C00040E024DF988F898FDF91CF910895A0E0DE
:1003D000B0E0ECEEF1E05EC2EC017B01142FD22E16
:1003E000032FC8DF1D3D08F01CED188A145E198B21
:1003F000CE01CDDF8AA18CA38BA18DA30AA3DBA2A2
:100400001EA214511FA3185018A619A6DE019A9611
:1004100020E030E007C0F701E20FF31F80818D93E9
:100420002F5F3F4F2117B8F3012F10E0005F1F4FE0
:10043000CE014A96B80141E0E9DE98A789A7C80134
:100440004A96BE01EAD0CDB7DEB7E7E03FC21F93C0
:10045000CF93DF93EC01162F8DDFCE0198DF1AA228
:100460008CA1883F18F08DA18F5F8DA38CA1885F30
:100470008CA3812F90E0BE01D0D0DF91CF911F914E
:100480000895CF93DF93EC0175DF1C8A82E08D8B9A
:10049000FE01A9E3B2E0868980A38D91868B319617
:1004A00082E0AF33B807B9F7FE017C96AFE3B2E064
:1004B000808182878D91819382E0A334B807C1F750
:1004C0008AE290E0BE01A9D0DF91CF9108952A98E9
:1004D000962F9F71982B9EBD0DB407FEFDCF1EBCBD
:1004E0000DB407FEFDCF67FF04C01EBC0DB407FEB0
:1004F000FDCF2A9A8EB508952A986F71682B6EBD2C
:100500000DB407FEFDCF4EBD0DB407FEFDCF2A9AF8
:100510000895AC01FB012A988AE38EBD0DB407FE55
:10052000FDCF9A01DF0108C01EBC0DB407FEFDCF50
:10053000215030408EB58D9321153105A9F7E40F78
:10054000F51F10822A9A08959C01FB012A988AE7D8
:100550008EBD0DB407FEFDCF08C080818EBD0DB4E9
:1005600007FEFDCF21503040319621153105A9F706
:100570002A9A08951F93CF93DF93182FC82FD0E0A6
:10058000C076D0708091430290E0C817D90781F0FF
:1005900080EA6FE143E0B0DF85E0D595C7958A95A5
:1005A000E1F780E86FE14C2FA7DF1076109343024C
:1005B000DF91CF911F9108951F93182FDBDF80E00B
:1005C000612F85DF1F9108950F931F93182F062F1A
:1005D000D1DF80E4612F402F8FDF1F910F910895AD
:1005E0000F931F93982F162F072F84ED692FECDFA1
:1005F00086ED612FE9DF87ED602FE6DF18E203C0AB
:10060000812F8A95F1F78AEED7DF80FDF9CF1F9110
:100610000F91089582E7D0DF0895EF92FF920F9334
:100620001F938C017B0182E06FEFCEDF83E069E1F5
:10063000CBDF602F615086E0C7DF98012150364E36
:1006400087E0632FC1DF8AE760E040E055DFC80143
:10065000B7017ADF80E86FE148E04EDF8CE1ACDF84
:1006600081FF04C080EA6FE148E046DF1F910F91EF
:10067000FF90EF900895A0E0B0E0E0E4F3E007C160
:100680006C015B0189E398DF882319F400E010E036
:100690004EC0609144021091450280E095DF81E0F8
:1006A000612F92DF8AE360E012DF182F8AE360E0B7
:1006B0000EDF382F20E0C12FD0E0C22BD32BD093F8
:1006C0004502C09344028AE360E001DFE82E8AE33A
:1006D00060E0FDDEF82E8AE360E0F9DE082F10E02E
:1006E0008AE360E0F4DE382F20E0202B312B27FD59
:1006F00003C000E010E011C00E2D10E09F2D80E03F
:10070000082B192BC6010197045010408017910740
:1007100008F48C01C801B501FCDE8CE06C2F54DFBD
:100720008DE06D2F51DF80E86EE140E4E5DEC80129
:10073000CDB7DEB7EAE0C7C00F931F938C01229AB2
:100740002A9A84B18C6284B924982A9A2B982D987D
:1007500080E58CBD8DB581608DBD8FEF60E04FEF82
:10076000CBDE82E390E073D01092450210924402F7
:1007700088E060E029DF89E060E026DF8CE060E06F
:1007800023DF8DE060E020DF8AE06EEF1DDF8BE08D
:1007900069E11ADF84E06FEF17DF85E069E114DFBC
:1007A00086E06FEF11DF87E06FE10EDF88E360EB3B
:1007B0000BDF88E26FE308DF89E260E305DF80E3B7
:1007C00069EF02DF81E367EFFFDE80EC6DE0FCDEC6
:1007D00081EC60E0F9DE80E862EC42E38DDE86ECDD
:1007E00062E1F2DE87EC6CE0EFDE84EC62E1ECDEED
:1007F0008AEC64EFE9DE8BEC61E0E6DE84EEF80182
:100800006081E2DE85EEF8016181DEDE82EEF801D4
:100810006281DADE83EEF8016381D6DE80EEF801D4
:100820006481D2DE81EEF8016581CEDE80E160E098
:1008300071E0D6DE8FE19EDE80E86BE140EC5CDEAD
:1008400080E86FE144E058DE1F910F91089520E8A1
:1008500037E004C0F9013197F1F701970097D1F71C
:1008600008952FE088E190E00FB6F894A895809362
:1008700060000FBE209360000895A89508952F9200
:100880003F924F925F926F927F928F929F92AF9220
:10089000BF92CF92DF92EF92FF920F931F93CF936D
:1008A000DF93CDB7DEB7CA1BDB0B0FB6F894DEBF04
:1008B0000FBECDBF09942A88398848885F846E842A
:1008C0007D848C849B84AA84B984C884DF80EE8074
:1008D000FD800C811B81AA81B981CE0FD11D0FB67D
:1008E000F894DEBF0FBECDBFED010895FB01DC0122
:1008F00001900D920020E1F70895FB01DC014150C9
:10090000504030F08D910190801919F40020B9F712
:0A091000881B990B0895F894FFCF9F
:10091A00653D6E6F5F636D6400743D3100743D30F8
:10092A0000653D6E6F5F737563685F636D64006534
:10093A003D696E76616C69645F7077005455581032
:0E094A0000240A0000187365637265740000D3
:00000001FF
