:1000000019C033C032C031C030C02FC02EC02DC087
:100010002CC02BC02AC029C028C027C026C025C09C
:1000200024C023C022C021C020C01FC01EC01DC0CC
:100030001CC01BC011241FBECFEFD4E0DEBFCDBF5C
:1000400011E0A0E0B1E0E2E2F8E002C005900D921C
:10005000A031B107D9F712E0A0E1B1E001C01D92D3
:10006000A831B107E1F702D0DAC3CACF0F931F93CB
:10007000CF93DF9380E88093610010926100209A13
:10008000289884E190E01BD2289A84E690E017D269
:10009000219A299A86E091E087D184E190E00FD2FD
:1000A00084E166E774E0D4D084E190E008D2299836
:1000B00086E091E06CE071E077D211E08AEF90E0A9
:1000C00060E171E010D1EC010097C1F3082F80E1ED
:1000D00091E06C2F89D2882329F080E191E06C2F88
:1000E00041D3ECCF80E191E06C2F99D2882331F39A
:1000F000112319F0299A10E002C0299811E080918B
:100100002701813049F4809132018830B9F680E1CD
:1001100091E0602F0DD3D2CF813181F690913701DC
:1001200080913A01843751F69D3041F680E191E0AB
:1001300060E071E046E020EB34E0BAD2BFCF2A980D
:10014000962F9F71982B9EBD0DB407FEFDCF1EBC50
:100150000DB407FEFDCF67FF04C01EBC0DB407FE43
:10016000FDCF2A9A8EB508952A986F71682B6EBDBF
:100170000DB407FEFDCF4EBD0DB407FEFDCF2A9A8C
:100180000895AC01FB012A988AE38EBD0DB407FEE9
:10019000FDCF9A01DF0108C01EBC0DB407FEFDCFE4
:1001A000215030408EB58D9321153105A9F7E40F0C
:1001B000F51F10822A9A08959C01FB012A988AE76C
:1001C0008EBD0DB407FEFDCF08C080818EBD0DB47D
:1001D00007FEFDCF21503040319621153105A9F79A
:1001E0002A9A08951F93CF93DF93182FC82FD0E03A
:1001F000C076D07080910B0290E0C817D90781F0CB
:1002000080EA6FE143E0B0DF85E0D595C7958A9538
:10021000E1F780E86FE14C2FA7DF107610930B0217
:10022000DF91CF911F9108951F93182FDBDF80E09E
:10023000612F85DF1F9108950F931F93182F062FAD
:10024000D1DF80E4612F402F8FDF1F910F91089540
:100250000F931F93982F162F072F84ED692FECDF34
:1002600086ED612FE9DF87ED602FE6DF18E203C03E
:10027000812F8A95F1F78AEED7DF80FDF9CF1F91A4
:100280000F91089582E7D0DF0895EF92FF920F93C8
:100290001F938C017B0182E06FEFCEDF83E069E189
:1002A000CBDF602F615086E0C7DF98012150364ECA
:1002B00087E0632FC1DF8AE760E040E055DFC801D7
:1002C000B7017ADF80E86FE148E04EDF8CE1ACDF18
:1002D00081FF04C080EA6FE148E046DF1F910F9183
:1002E000FF90EF900895A0E0B0E0E8E7F1E068C289
:1002F0006C015B0189E398DF882319F400E010E0CA
:100300004EC060910C0210910D0280E095DF81E0FB
:10031000612F92DF8AE360E012DF182F8AE360E04A
:100320000EDF382F20E0C12FD0E0C22BD32BD0938B
:100330000D02C0930C028AE360E001DFE82E8AE33D
:1003400060E0FDDEF82E8AE360E0F9DE082F10E0C1
:100350008AE360E0F4DE382F20E0202B312B27FDEC
:1003600003C000E010E011C00E2D10E09F2D80E0D2
:10037000082B192BC60101970450104080179107D4
:1003800008F48C01C801B501FCDE8CE06C2F54DF51
:100390008DE06D2F51DF80E86EE140E4E5DEC801BD
:1003A000CDB7DEB7EAE028C20F931F938C01229AE3
:1003B0002A9A84B18C6284B924982A9A2B982D9811
:1003C00080E58CBD8DB581608DBD8FEF60E04FEF16
:1003D000CBDE82E390E073D010920D0210920C02FB
:1003E00088E060E029DF89E060E026DF8CE060E003
:1003F00023DF8DE060E020DF8AE06EEF1DDF8BE021
:1004000069E11ADF84E06FEF17DF85E069E114DF4F
:1004100086E06FEF11DF87E06FE10EDF88E360EBCE
:100420000BDF88E26FE308DF89E260E305DF80E34A
:1004300069EF02DF81E367EFFFDE80EC6DE0FCDE59
:1004400081EC60E0F9DE80E862EC42E38DDE86EC70
:1004500062E1F2DE87EC6CE0EFDE84EC62E1ECDE80
:100460008AEC64EFE9DE8BEC61E0E6DE84EEF80115
:100470006081E2DE85EEF8016181DEDE82EEF80168
:100480006281DADE83EEF8016381D6DE80EEF80168
:100490006481D2DE81EEF8016581CEDE80E160E02C
:1004A00071E0D6DE8FE19EDE80E86BE140EC5CDE41
:1004B00080E86FE144E058DE1F910F91089520E835
:1004C00037E004C0F9013197F1F701970097D1F7B0
:1004D00008952FE088E190E00FB6F894A8958093F6
:1004E00060000FBE209360000895A8950895EF92D4
:1004F000FF920F931F93CF93DF937C01413061F400
:10050000685070409B0140E050E0685F7F4F2F5E75
:100510003F4F4F4F5F4F12C0423029F020E030E094
:1005200040E050E00BC0685070409B0140E050E05C
:10053000685F7F4F2A5F3F4F4F4F5F4FE7018B014F
:100540000FC0F881E0E0898190E08E2B9F2BA0E026
:10055000B0E0280F391F4A1F5B1F2296025010403F
:100560000230110570F7FB01EE7FEE0DFF1D60FFFD
:100570000DC0908180E0AA2797FDA095BA2F02C0F8
:1005800040705070280F391F4A1F5B1FCA01AA27ED
:10059000BB270097A105B10599F720953095C901B2
:1005A000CDB7DEB7E6E02CC1AC0120E030E0F901C8
:1005B000EC5EFD4FDB01A20FB31F8C9180832F5F98
:1005C0003F4F2430310599F720E030E0F901E25F38
:1005D000FD4FDA01A20FB31F8C9180832F5F3F4F35
:1005E0002630310599F70895FC016932B0F0848511
:1005F000883099F48585863081F4DF019696E4E1B0
:10060000F2E09C918081981741F41196319682E036
:10061000E831F807B1F781E0089580E00895FC0122
:100620006A32B8F084858830A1F48585882389F4FE
:10063000DF01E4E1F2E05E969C915E97808198177D
:1006400041F41196319682E0E831F807A1F781E094
:10065000089580E00895FC01AEE0B2E086818083D9
:100660008D918683319682E0A431B807B9F7089559
:10067000CF93DF93EC01FC01A4E1B2E0828D868F81
:100680008D91828F319682E0A831B807B9F7188E24
:10069000198E80E48C8B1D8A8E8BCE010E9664E1C0
:1006A00070E040E024DF988F898FDF91CF9108952B
:1006B000A0E0B0E0EDE5F3E086C0EC017B01142F93
:1006C000D22E032FC8DF1D3D08F01CED188A145EE2
:1006D000198BCE01CDDF8AA18CA38BA18DA30AA398
:1006E000DBA21EA214511FA3185018A619A6DE01E2
:1006F0009A9620E030E007C0F701E20FF31F8081F7
:100700008D932F5F3F4F2117B8F3012F10E0005F4B
:100710001F4FCE014A96B80141E0E9DE98A789A7AC
:10072000C8014A96BE01B1DDCDB7DEB7E7E067C0CC
:100730001F93CF93DF93EC01162F8DDFCE0198DF4F
:100740001AA28CA1883F18F08DA18F5F8DA38CA178
:10075000885F8CA3812F90E0BE0197DDDF91CF9160
:100760001F910895CF93DF93EC0175DF1C8A82E01F
:100770008D8BFE01AEE0B2E0868980A38D91868BE1
:10078000319682E0A431B807B9F7FE017C96A4E166
:10079000B2E0808182878D91819382E0A831B80791
:1007A000C1F78AE290E0BE0170DDDF91CF9108953C
:1007B0002F923F924F925F926F927F928F929F9271
:1007C000AF92BF92CF92DF92EF92FF920F931F935F
:1007D000CF93DF93CDB7DEB7CA1BDB0B0FB6F89410
:1007E000DEBF0FBECDBF09942A88398848885F8450
:1007F0006E847D848C849B84AA84B984C884DF80C1
:10080000EE80FD800C811B81AA81B981CE0FD11DA4
:100810000FB6F894DEBF0FBECDBFED010895F8947A
:02082000FFCF08
:1008220068656C6C6F005455581000240A0000185B
:00000001FF
