:020000040000FA
:06000000D9EF3CF01200F4
:060018003FEF29F0120089
:06002A000700E77800006A
:100030004E030000010000002E7A0000460300007D
:10004000040000002A7A0000FC0200000400000006
:10005000207A00003C0300000A000000EA7900005A
:100060007602000036000000D93600004D03000083
:1000700001000000E6790000FC010000040000001F
:1000800000C2E9FF01C2EAFFEECFF4F0EDCFF5F0D8
:10009000F3EC35F0F3CF00F0F4CF01F000C2E9FF4C
:1000A00001C2EAFFF3CFEEFF01C0EDFF00C2E9FF9E
:1000B00001C2EAFF020EE926000EEA22EECFF4F0BA
:1000C000EDCFF5F0F3EC35F0F3CF00F0F4CF01F025
:1000D00000C2E9FF01C2EAFF020EF3CFEBFF030EFD
:1000E00001C0EBFF00C2E9FF01C2EAFF040EE926EE
:1000F000000EEA22EECFF6F0EECFF7F0EECFF8F0FA
:10010000EFCFF9F0F8EC35F014C000F015C001F0B5
:1001100016C002F017C003F000C2E9FF01C2EAFFF7
:10012000040EE926000EEA2214C0EEFF01C0EEFF25
:1001300002C0EEFF03C0EEFF00C2E9FF01C2EAFF0A
:10014000080EE926000EEA22EECFF6F0EECFF7F029
:10015000EECFF8F0EFCFF9F0F8EC35F014C000F086
:1001600015C001F016C002F017C003F000C2E9FF8D
:1001700001C2EAFF080EE926000EEA2214C0EEFFD3
:1001800001C0EEFF02C0EEFF03C0EEFF00C2E9FFB8
:1001900001C2EAFF0E0EE926000EEA22EECFF4F0CD
:1001A000EDCFF5F0F3EC35F0F3CF00F0F4CF01F044
:1001B00000C2E9FF01C2EAFF0E0EF3CFEBFF0F0E04
:1001C00001C0EBFF00C2E9FF01C2EAFF100EE92601
:1001D000000EEA22EECFF4F0EDCFF5F0F3EC35F0BF
:1001E000F3CF00F0F4CF01F000C2E9FF01C2EAFF53
:1001F000100EF3CFEBFF110E01C0EBFF00C2E9FFC1
:1002000001C2EAFF120EE926000EEA22EECFF4F058
:10021000EDCFF5F0F3EC35F0F3CF00F0F4CF01F0D3
:1002200000C2E9FF01C2EAFF120EF3CFEBFF130E8B
:1002300001C0EBFF12000D01006B060E005D70E2C5
:100240000051280DF3CF01FDF4CF02FD000E012770
:10025000010E022301CDE9FF02CDEAFFEF500A08AB
:100260005DE101CDE9FF02CDEAFFEF6A01CDE9FFD3
:1002700002CDEAFF0B0E02C2EBFF0C0E03C2EBFF36
:1002800001CDE9FF02CDEAFF0D0EEB6A0E0EEB6A1F
:1002900001CDE9FF02CDEAFFEE52060EE926000E7F
:1002A000EA22EE6AEE6AEE6AEE6A01CDE9FF02CD5D
:1002B000EAFF270EE926000EEA22EF8001CDE9FFD2
:1002C00002CDEAFF270EE926000EEA22EF9601CDC5
:1002D000E9FF02CDEAFF0F0EEB50FF0813E001CD5E
:1002E000E9FF02CDEAFF0F0EEB500F01476F55EC0F
:1002F00010F001CDE9FF02CDEAFF0F0EE926000E56
:10030000EA22EF6801CDE9FF02CDEAFF270EE926D8
:10031000000EEA22EF820D0100511200002B8DD752
:10032000FE0C04C2E9FF05C2EAFF0F0EEB50FF0806
:100330001CE004C2E9FF05C2EAFF0F0EEB500F01FB
:10034000476F55EC10F004C2E9FF05C2EAFF0F0E3B
:10035000E926000EEA22EF6804C2E9FF05C2EAFFBF
:10036000270EE926000EEA22EF8204C2E9FF05C249
:10037000EAFFEE52060EE926000EEA22EE6AEE6A67
:10038000EE6AEE6A04C2E9FF05C2EAFF0D0EEB6AEF
:100390000E0EEB6A04C2E9FF05C2EAFF270EE9264A
:1003A000000EEA22EF50080B02E02CEC11F004C220
:1003B000E9FF05C2EAFF270EE926000EEA22EF96C2
:1003C00004C2E9FF05C2EAFF230EE926000EEA2275
:1003D0002C0EEE6E010EEE6EEE6AEE6A04C2E9FFBE
:1003E00005C2EAFF270EE926000EEA22EF9804C2B2
:1003F000E9FF05C2EAFF270EE926000EEA22EF50C8
:10040000010B06E004C2E9FF05C2EAFFEF6A06D06D
:1004100004C2E9FF05C2EAFF0A0EEF6E04C2E9FF5B
:1004200005C2EAFF100EEB6A110EEB6A12000F0113
:10043000010E426FA0EC0FF00009F9E0FF0E02017F
:10044000155D07E10F01010E436FD5EC0FF00201BE
:10045000156FFF0E155D01E11200140E0F01456FBF
:10046000466B15C244FF1BEC10F008C287FD09C2A1
:1004700088FD0AC289FD0BC28AFD0CC28BFD0DC22C
:100480008CFD0EC28DFD0FC28EFD10C28FFD11C2FC
:1004900090FD12C291FD13C292FD0D0193919393B1
:1004A0009395939714C294FDAFEC10F0F3CF95FDA4
:1004B000F4CF96FD0D01400EF35C020EF45805E3F7
:1004C000400E956F020E966F0DD0360ED880955562
:1004D000000E965505E2360E955F000E965B02D033
:1004E000956B966B976B986B996B9A6B0201870E65
:1004F000006F0D0E016FC4DD140E02011627000EF1
:10050000172314A310D0040E1627000E17230D0175
:10051000020E9B6F040E9C6F020E9D6F400E9E6F2D
:100520009399938B03D00D019389939B938D939F04
:1005300076C29FFD77C2A0FD78C2A1FD79C2A2FD5F
:1005400006C2E9FF07C2EAFF060EE926000EEA220C
:10055000EECFA3FDEECFA4FDEECFA5FDEFCFA6FD20
:10056000A76B060EA86F16C2A9FD17C2AAFD16C278
:10057000F4F017C2F5F0F3EC35F0F3CFA9FDF4CFAA
:10058000AAFD0C0E0001FC6FFD6B00019F0EFA6FBF
:100590000D0EFB6F53EC36F0F3CF97FDF4CF98FDC3
:1005A0000D01971F981F97CD85FD98CD86FD16C22A
:1005B00024F317C225F30301060E236F06C221F3AD
:1005C00007C222F336EC35F0140E0F01406F416B79
:1005D0000F01870E3E6F0D0E3F6F7AEC0FF0020198
:1005E00014A30BD0040E0F01406F416B0F019B0E43
:1005F0003E6F0D0E3F6F7AEC0FF0140E0F01456F3A
:10060000466B15C244FF1BEC10F016C2FEF017C279
:10061000FFF0C9EC36F0F3CF85FDF4CF86FD240E54
:100620000F01456F466B15C244FF1BEC10F086CDE1
:100630003DFF68EC0FF085CD3DFF68EC0FF00F013A
:10064000456B466B15C244FF1BEC10F080EC12F0BA
:100650000F01010E426FA0EC0FF00009F9E080EFEE
:1006600012F002011851280DF3CFE9FFF4CFEAFF91
:10067000000EE926010EEA22EF50030801E0000C0B
:10068000010C02011951280DF3CFE9FDF4CFEAFD69
:10069000000E0D01E927010EEA23E9CDE9FFEACDBD
:1006A000EAFFEF5003080DE0E9CDE9FFEACDEAFFEC
:1006B000EF50020806E0E9CD04F2EACD05F291EF31
:1006C00001F019C21EF2BCD90201166B176B0201B0
:1006D00015690201110E146FE9CDE9FFEACDEAFFB9
:1006E0001A0EE926000EEA22EECF10F2EECF11F23A
:1006F000EECF12F2EFCF13F2E9CDE9FFEACDEAFF38
:10070000160EE926000EEA22EECF0CF2EECF0DF225
:10071000EECF0EF2EFCF0FF2E9CDE9FFEACDEAFF1F
:100720000D0EE926000EEA22EECF0AF2EDCF0BF213
:10073000E9CDE9FFEACDEAFF0B0EE926000EEA2239
:10074000EECF08F2EDCF09F2E9CDE9FFEACDEAFFFD
:10075000EE52E9CF06F2EACF07F269DEE9CDE9FF12
:10076000EACDEAFF160EE926000EEA22EE2AEE2274
:10077000EE22EE22E9CDE9FFEACDEAFF040EEF6EAC
:10078000120002011A51280DF3CFF1FDF4CFF2FD52
:10079000000E0D01F127010EF223F1CDE9FFF2CD9C
:1007A000EAFF0F0EEB50FF0801E1000CF1CDE9FF6D
:1007B000F2CDEAFF270EE926000EEA22EF50020BE7
:1007C00001E1000CF1CDE9FFF2CDEAFF100EE926C0
:1007D000000EEA22EECF16F2EDCF17F2F1CDE9FFCF
:1007E000F2CDEAFF0F0EEB500201156F0201180E59
:1007F000146F1A0EE926000EEA22EECF10F2EECFA9
:1008000011F2EECF12F2EFCF13F2F1CDE9FFF2CDFC
:10081000EAFF160EE926000EEA22EECF0CF2EECF2A
:100820000DF2EECF0EF2EFCF0FF2F1CDE9FFF2CDE8
:10083000EAFF0D0EE926000EEA22EECF0AF2EDCF16
:100840000BF2F1CDE9FFF2CDEAFF0B0EE926000E27
:10085000EA22EECF08F2EDCF09F2F1CDE9FFF2CDB9
:10086000EAFFEE52E9CF06F2EACF07F2E0DDF1CD82
:10087000E9FFF2CDEAFF100EE926000EEA22EECFE4
:1008800000F0EFCF01F0026A036AF1CDE9FFF2CD8B
:10089000EAFF160EE926000EEA220050EE2601506D
:1008A000EE220250EE220350EE22F1CDE9FFF2CD0E
:1008B000EAFF270EE926000EEA22EF92F1CDE9FFCA
:1008C000F2CDEAFF270EE926000EEA22EF98010C8E
:1008D00002011B51280DF3CFE9FFF4CFEAFF000E10
:1008E000E926010EEA22140EE926000EEA22EE5055
:1008F000ED1001E1000C1B51280DF3CFE9FFF4CFFF
:10090000EAFF000EE926010EEA220F0EE926000E8C
:10091000EA22EF50FF0804E10F01426BA0EF0FF055
:100920001B51280DF3CFE9FFF4CFEAFF000EE926B3
:10093000010EEA22270EE926000EEA22EF50020BF2
:1009400001E0010E120002011C51280DF3CFEFFD52
:10095000F4CFF0FD000E0D01EF27010EF023EFCDD7
:10096000E9FFF0CDEAFF140EE926000EEA22EE5070
:10097000ED1001E1000CEFCDE9FFF0CDEAFF0F0E25
:10098000EB50FF082FE10F01436BD5EC0FF0E66E43
:10099000EFCDE9FFF0CDEAFF0F0EE926000EEA22C7
:1009A000E552E750EF6EEFCDE9FFF0CDEAFF0F0E15
:1009B000EB50FF0801E1000CEFCDE9FFF0CDEAFFBD
:1009C000100EEB6A110EEB6A280E0F01456F466B95
:1009D000EFCDE9FFF0CDEAFF0F0EEB500F01446FB2
:1009E0001BEC10F0EFCDE9FFF0CDEAFF270EE92672
:1009F000000EEA22EF881DC23DFF68EC0FF0EFCD3C
:100A0000E9FFF0CDEAFF140EE926000EEA22EE0619
:100A1000EF5AEFCDE9FFF0CDEAFF100EE926000E08
:100A2000EA22EE2AED22EECF00F0EDCF01F00A0E21
:100A3000005C020E015803E31CC21AF2A2DE010C94
:100A400002011E51280DF3CF85FDF4CF86FD000E67
:100A50000D018527010E862385CDE9FF86CDEAFFAE
:100A6000270EE926000EEA22EF50080B01E1000CE8
:100A70002CEC11F085CDE9FF86CDEAFF270EE926A3
:100A8000000EEA22EF96010C02011F51280DF3CF50
:100A900089FDF4CF8AFD000E0D018927010E8A23FE
:100AA0000C0E0301266F276BAFEC35F026EC0FF030
:100AB000E840E8403F0B3C0B0D01856F0F01486B90
:100AC000496B70EC10F026EC0FF00F0B040DF3CF18
:100AD00086FD020E0F01486F496B70EC10F026EC9A
:100AE0000FF00D01886F26EC0FF00D01876F865116
:100AF00085250201036A2025026E215103220D0182
:100B00000250875D006E03508859016E89CDE9FF60
:100B10008ACDEAFF120E00C0EBFF130E01C0EBFFFF
:100B20008551020120250301266F000E02012121BB
:100B30000301276FAFEF35F002012251280DF3CFEB
:100B400000FDF4CF01FD000E0D010027010E012371
:100B500000CDE9FF01CDEAFF270EE926000EEA22CB
:100B6000EF50080B2DE000CDE9FF01CDEAFF270E85
:100B7000E926000EEA22EF50040B0FE00201206B81
:100B8000216B22C21FF280DF00CDE9FF01CDEAFF19
:100B9000270EE926000EEA22EF9400CDE9FF01CDF1
:100BA000EAFF270EE926000EEA22EF8825C23BFF66
:100BB00026C23CFF23C239FF24C23AFF39EF0FF0AF
:100BC000F36AF46A120002012751280DF3CF8BFD5E
:100BD000F4CF8CFD000E0D018B27010E8C238BCDE5
:100BE000E9FF8CCDEAFF270EE926000EEA22EF503E
:100BF000080B43E08BCDE9FF8CCDEAFF270EE926F9
:100C0000000EEA22EF50040B0FE00201206B216B73
:100C100027C21FF239DF8BCDE9FF8CCDEAFF270E0B
:100C2000E926000EEA22EF948BCDE9FF8CCDEAFF96
:100C3000120EE926000EEA22EE50ED100CE12CEC2B
:100C400011F08BCDE9FF8CCDEAFF270EE926000ECF
:100C5000EA22EF96000C8BCDE9FF8CCDEAFF120E55
:100C6000E926000EEA22EE06EF5A26EC0FF028C223
:100C7000E9FF29C2EAFFEF6E010C000C02012A51C4
:100C8000280DF3CFE9FFF4CFEAFF000EE926010EAD
:100C9000EA22270EE926000EEA22EF50080B01E0B7
:100CA000010E12000D010F6B006B060E005D01E3DB
:100CB000CAD10051280DF3CF09FDF4CF0AFD000E73
:100CC0000927010E0A2309CDE9FF0ACDEAFF270E05
:100CD000E926000EEA22EF50080B01E0B1D109CD60
:100CE000E9FF0ACDEAFF270EE926000EEA22EF50BF
:100CF000100B01E0A5D109CDE9FF0ACDEAFFEF50C5
:100D00000A0801E19DD109CDE9FF0ACDEAFFEF50C4
:100D100000090CE109CDE9FF0ACDEAFF270EE9261B
:100D2000000EEA22EF50010B01E08AD17EEC3CF08C
:100D300014C005FD15C006FD16C007FD17C008FD4F
:100D400009CDE9FF0ACDEAFF1F0EE926000EEA22CF
:100D5000EE500D01145C016FEE501558026FEE500D
:100D60001658036FEE501758046F09CDE9FF0ACDEE
:100D7000EAFF230EE926000EEA220151EE5C025141
:100D8000EE580351EE580451EE5801E359D10F01CA
:100D9000010E426FA0EC0FF0000901E112007EECA1
:100DA0003CF014C000F015C001F016C002F017C0EE
:100DB00003F009CDE9FF0ACDEAFF1F0EE926000E78
:100DC000EA2214C0EEFF01C0EEFF02C0EEFF03C036
:100DD000EEFF09CDE9FF0ACDEAFF230EE926000E5A
:100DE000EA22D890EF36010EEB36020EEB36030EF8
:100DF000EB3609CDE9FF0ACDEAFF1E0EE926000E0B
:100E0000EA22EF2A09CDE9FF0ACDEAFFEF50090AED
:100E100001E198D0010A01E18BD00F0A01E19ED0D7
:100E2000020A01E19BD0030A01E198D0020A01E124
:100E300076D0070A2DE0010A06E0030A01E094D00B
:100E40000D01020E89D009CDE9FF0ACDEAFF1E0E81
:100E5000EB50030803E30D01120E7ED009CDE9FF2C
:100E60000ACDEAFF270EE926000EEA22EF50010B19
:100E700006E009CDE9FF0ACDEAFFEF6A75D00D0162
:100E8000020E0F6F09CDE9FF0ACDEAFF010E58D01F
:100E900009CDE9FF0ACDEAFF1E0EEB5003081BE364
:100EA00009CDE9FF0ACDEAFF0F0EEB50FF0810E075
:100EB0000F01456B466B09CDE9FF0ACDEAFF0F0E26
:100EC000EB500F01446F1BEC10F080EC12F04CD093
:100ED0000D01100E41D009CDE9FF0ACDEAFF0F0E3A
:100EE000EB50FF0813E009CDE9FF0ACDEAFF0F0E32
:100EF000EB500F01476F55EC10F009CDE9FF0ACD1B
:100F0000EAFF0F0EE926000EEA22EF680D01110E2E
:100F10000F6F09CDE9FF0ACDEAFF040E11D009CD0C
:100F2000E9FF0ACDEAFF1E0EEB50030817E312D0CB
:100F30000D01010E0F6F09CDE9FF0ACDEAFF090E81
:100F4000EF6E12D009CDE9FF0ACDEAFF1E0EEB507D
:100F5000030804E30D01010E0F6F06D009CD04F262
:100F60000ACD05F291EC01F00D010F5169E00FA9D6
:100F700011D009CDE9FF0ACDEAFF160EE926000ED1
:100F8000EA22EECF0BFDEECF0CFDEECF0DFDEFCF45
:100F90000EFD14D009CDE9FF0ACDEAFF160EE926B1
:100FA000000EEA22EFCF0BFDEE2AEFCF0CFDEE2272
:100FB000EFCF0DFDEE22EFCF0EFDEF220201166BFB
:100FC000176B020115690FCD14F209CDE9FF0ACDA7
:100FD000EAFF1A0EE926000EEA22EECF10F2EECF5B
:100FE00011F2EECF12F2EFCF13F20BCD0CF20CCDCB
:100FF0000DF20DCD0EF20ECD0FF209CDE9FF0ACDA7
:10100000EAFF0D0EE926000EEA22EECF0AF2EDCF3E
:101010000BF209CDE9FF0ACDEAFF0B0EE926000E1F
:10102000EA22EECF08F2EDCF09F209CDE9FF0ACDB1
:10103000EAFFEE52E9CF06F2EACF07F217EC02F030
:101040000D01002B32D612000D01FE0E296F286B08
:10105000060E285D01E37FD02851280DF3CF26FD31
:10106000F4CF27FD000E2627010E272326CDE9FF0A
:1010700027CDEAFFEF500A086BE026CDE9FF27CD28
:10108000EAFF0B0EE926000EEA22EECF00F0EFCFCA
:1010900001F02BC2E9FF2CC2EAFF020EE926000E86
:1010A000EA22EECF02F0EFCF03F00250001850E139
:1010B000035001184DE126CDE9FF27CDEAFFEF509F
:1010C000000902E128CD29FD26CDE9FF27CDEAFF61
:1010D0000D0EE926000EEA22EECF00F0EFCF01F070
:1010E0002BC2E9FF2CC2EAFFEECF02F0EFCF03F0F4
:1010F000025000182DE1035001182AE12DC2E9FF2A
:101100002EC2EAFF060EE926000EEA22EECF04F018
:10111000EECF05F0EECF06F0EFCF07F026CDE9FFDA
:1011200027CDEAFFEE52060EE926000EEA22EE5027
:10113000000104180DE1EE5005180AE1EE50061802
:1011400007E1EE50071804E103E10D0128511200F8
:101150000D01282B7DD7FE0E295D01E1FE0C2951E2
:10116000280DF3CF26FDF4CF27FD000E2627010E14
:1011700027230A0EE66EE66A2DC2E6FF2EC2E6FFC0
:1011800026CDE9FF27CDEAFFEE52E9CF00F0EACF06
:1011900001F0E9CFE6FFEACFE6FF74EC39F0026E2A
:1011A000060EE15E02502BC2E9FF2CC2EAFFEECF31
:1011B00000F0EFCF01F026CDE9FF27CDEAFF0D0EBD
:1011C00000C0EBFF0E0E01C0EBFF26CDE9FF27CDDF
:1011D000EAFF270EE926000EEA22EF9626CDE9FF68
:1011E00027CDEAFF0F0EEB50FF0813E026CDE9FFF5
:1011F00027CDEAFF0F0EEB500F01476F55EC10F0B3
:1012000026CDE9FF27CDEAFF0F0EE926000EEA22E0
:10121000EF6826CDE9FF27CDEAFF270EE926000E6D
:10122000EA22EF820D012951120002012F51280DEF
:10123000F3CF36FDF4CF37FD000E0D013627010E3A
:101240003723386B36CDE9FF37CDEAFF1E0EE9268E
:10125000000EEA22EF6A7EEC3CF014C000F015C0EC
:1012600001F016C002F017C003F036CDE9FF37CD0C
:10127000EAFF1F0EE926000EEA2214C0EEFF01C0AD
:10128000EEFF02C0EEFF03C0EEFF36CDE9FF37CD23
:10129000EAFF230EE926000EEA222C0EEE6E010E66
:1012A000EE6EEE6AEE6A32C2E9FF33C2EAFF0D0E5D
:1012B000E926000EEA22EF50040B19E02CEC11F0A5
:1012C00036CDE9FF37CDEAFF270EE926000EEA22E8
:1012D000EF50010B02E0000E01D0010EE66E36CD9C
:1012E000E9FF37CDEAFFE552E750EF6E120036CD49
:1012F000E9FF37CDEAFF160EE926000EEA22EECF0F
:101300002AFDEECF2BFDEECF2CFDEFCF2DFD32C20F
:10131000E9FF33C2EAFF0E0EE926000EEA22EECF05
:1013200004F0EFCF05F0066A076A32C2E9FF33C264
:10133000EAFF080EE926000EEA22EE500D012A5DB2
:10134000086EEE502B59096EEE502C590A6EEE5075
:101350002D590B6E0850045C006E09500558016E43
:101360000A500658026E0B500758036E36CDE9FF3F
:1013700037CDEAFF100EE926000EEA22EECF0CF080
:10138000EFCF0DF00E6A0F6A0C50005C266F0D5007
:101390000158276F0E500258286F0F500358296FBD
:1013A000800E291509E036CDE9FF37CDEAFF140E8E
:1013B000EB6A150EEB6A0AD036CDE9FF37CDEAFFAE
:1013C000140E26CDEBFF150E27CDEBFF36CDE9FF32
:1013D00037CDEAFFEF50000901E0AFD02CEC11F05F
:1013E00032C2E9FF33C2EAFF0D0EE926000EEA22FF
:1013F000EF50020B03E10D01040E9DD034C204F046
:1014000035C205F0066A076A32C2E9FF33C2EAFF55
:10141000040EE926000EEA22EE500424006EEE507F
:101420000520016EEE500620026EEE500720036E7E
:10143000002A000E01220222032236CDE9FF37CD19
:10144000EAFF1A0EE926000EEA2200C0EEFF01C0F4
:10145000EEFF02C0EEFF03C0EEFF32C2E9FF33C26F
:10146000EAFF0E0EE926000EEA22EECF00F0EFCFE3
:1014700001F036CDE9FF37CDEAFF140E00C0EBFFD7
:10148000150E01C0EBFF0A0EE66EE66A30C2E6FFFB
:1014900031C2E6FF36CDE9FF37CDEAFFEE52E9CFA4
:1014A00000F0EACF01F0E9CFE6FFEACFE6FF74EC07
:1014B00039F0026E060EE15E025032C2E9FF33C21D
:1014C000EAFFEECF00F0EFCF01F036CDE9FF37CDE8
:1014D000EAFF0D0E00C0EBFF0E0E01C0EBFF36CD94
:1014E000E9FF37CDEAFF020EEF6E36CDE9FF37CDCB
:1014F000EAFF160EE926000EEA22EFCF2AFDEE2AB9
:10150000EFCF2BFDEE22EFCF2CFDEE22EFCF2DFD06
:10151000EF2236CDE9FF37CDEAFF1A0EE926000E9D
:10152000EA22EECF26FDEECF27FDEECF28FDEFCF4E
:1015300029FD0D01120E386F47D236CDE9FF37CDA8
:10154000EAFF1A0EE926000EEA22EECF2EFDEECFBC
:101550002FFDEECF30FDEFCF31FD36CDE9FF37CD9A
:10156000EAFF160EE926000EEA22EECF32FDEECF9C
:1015700033FDEECF34FDEFCF35FD32C2E9FF33C28C
:10158000EAFF040EE926000EEA22EECF26FDEECF9A
:1015900027FDEECF28FDEFCF29FD020134510D01CB
:1015A0002627020135510D012723000E2823292368
:1015B00036CDE9FF37CDEAFF160EE926000EEA2206
:1015C000EECF2AFDEECF2BFDEECF2CFDEFCF2DFD84
:1015D00032C2E9FF33C2EAFF040EE926000EEA2216
:1015E000EE502E1901E0E3D1EE502F1901E0DFD1CA
:1015F000EE50301901E0DBD1EE50311901E0D7D1C6
:1016000001E0D5D136CDE9FF37CDEAFFEF50020832
:1016100044E132C2E9FF33C2EAFF0D0EE926000EB3
:10162000EA22EF50100B01E114D136CDE9FF37CD9E
:10163000EAFF1A0EE926000EEA2226CDEEFF27CD9C
:10164000EEFF28CDEEFF29CDEEFF36CDE9FF37CDF9
:10165000EAFF030EEF6E02013451351101E1F9D0BA
:1016600036CDE9FF37CDEAFF270EE926000EEA2244
:10167000EF8636CDE9FF37CDEAFF120E34C2EBFF1D
:10168000130E35C2EBFF36CDE9FF37CDEAFF270E4B
:10169000E926000EEA22EF8497D136CDE9FF37CD57
:1016A000EAFF1A0EE926000EEA2226CDEEFF27CD2C
:1016B000EEFF28CDEEFF29CDEEFF36CDE9FF37CD89
:1016C000EAFFEF50030801E0C7D032C2E9FF33C29E
:1016D000EAFF0D0EE926000EEA22EF50100B2FE074
:1016E00036CDE9FF37CDEAFF270EE926000EEA22C4
:1016F000EF50020B24E136CDE9FF37CDEAFF0F0EA4
:10170000EB50FF081CE036CDE9FF37CDEAFF0F0EA6
:10171000EB500F01476F55EC10F036CDE9FF37CD98
:10172000EAFF0F0EE926000EEA22EF6836CDE9FF48
:1017300037CDEAFF270EE926000EEA22EF8232C2F9
:10174000E9FF33C2EAFF0D0EE926000EEA22EF5050
:10175000010B31E00D01110E386F36CDE9FF37CDA9
:10176000EAFF160EE926000EEA22EFCF2AFDEE2A46
:10177000EFCF2BFDEE22EFCF2CFDEE22EFCF2DFD94
:10178000EF2236CDE9FF37CDEAFF1A0EE926000E2B
:10179000EA22EF2AEECF26FDEF22EECF27FDEF2241
:1017A000EECF28FDEF22EFCF29FD36CDE9FF37CD73
:1017B000EAFF090EEF6E0201345135114AE036CDD1
:1017C000E9FF37CDEAFF270EE926000EEA22EF50A7
:1017D000080B1FE136CDE9FF37CDEAFF270EE926DA
:1017E000000EEA22EF8636CDE9FF37CDEAFF120E72
:1017F00034C2EBFF130E35C2EBFF36CDE9FF37CD18
:10180000EAFF270EE926000EEA22EF840D0138894F
:10181000DBD036CDE9FF37CDEAFF160EE926000E04
:10182000EA2232CDEEFF33CDEEFF34CDEEFF35CDE3
:10183000EEFF36CDE9FF37CDEAFF1A0EE926000E9E
:10184000EA222ECDEEFF2FCDEEFF30CDEEFF31CDD3
:10185000EEFF2CEC11F0B8D036CDE9FF37CDEAFF22
:10186000EF5009080FE12CEC11F032C2E9FF33C24E
:10187000EAFF0D0EE926000EEA22EF50100B01E1FF
:10188000A3D08ED036CDE9FF37CDEAFFEF50040864
:1018900047E12CEC11F032C2E9FF33C2EAFF0D0E32
:1018A000E926000EEA22EF50010B28E00D01100E90
:1018B000386F36CDE9FF37CDEAFF1A0EE926000E64
:1018C000EA22EF2AEECF26FDEF22EECF27FDEF2210
:1018D000EECF28FDEF22EFCF29FD32C2E9FF33C260
:1018E000EAFF0D0EE926000EEA22EF50100B58E138
:1018F00036CDE9FF37CDEAFF060E10D032C2E9FF40
:1019000033C2EAFF0D0EE926000EEA22EF50100B5B
:101910005BE036CDE9FF37CDEAFF050EEF6E54D020
:1019200036CDE9FF37CDEAFFEF50050825E12CEC75
:1019300011F032C2E9FF33C2EAFF0D0EE926000EB4
:10194000EA22EF50010B40E00D01100E386F36CD4A
:10195000E9FF37CDEAFF1A0EE926000EEA22EF2A48
:10196000EECF26FDEF22EECF27FDEF22EECF28FDB2
:10197000EF22EFCF29FD14D036CDE9FF37CDEAFFB6
:10198000EF50060821E12CEC11F032C2E9FF33C21E
:10199000EAFF0D0EE926000EEA22EF50100B14E0CC
:1019A00036CD04F237CD05F291EC01F00DD02CECE0
:1019B00011F00D01100E386F2ECD26FD2FCD27FD15
:1019C00030CD28FD31CD29FD0D01385131E0020126
:1019D000166B176B0201156938CD14F226CD10F283
:1019E00027CD11F228CD12F229CD13F22ACD0CF217
:1019F0002BCD0DF22CCD0EF22DCD0FF232C2E9FF20
:101A000033C2EAFFEECF0AF2EDCF0BF232C2E9FFAA
:101A100033C2EAFF020EE926000EEA22EECF08F2F8
:101A2000EDCF09F230C206F231C207F217EC02F034
:101A3000120036C2E9FF37C2EAFF060EE926000EA1
:101A4000EA22EECF14FDEECF15FDEECF16FDEFCF5F
:101A500017FD38C2E9FF39C2EAFFEECF18FDEECF1D
:101A600019FDEECF1AFDEFCF1BFD0D011C6B060E0D
:101A70001D6F3AC21EFD3BC21FFD3AC2F4F03BC2CD
:101A8000F5F0F3EC35F0F3CF1EFDF4CF1FFD0C0E97
:101A90000001FC6FFD6B0001140EFA6F0D0EFB6F61
:101AA00053EC36F0F3CF21FDF4CF22FD0D01211FC1
:101AB000221F3AC2FEF03BC2FFF0C9EC36F0F3CF72
:101AC00023FDF4CF24FD0D01F450215D69E1235184
:101AD000225D66E10301266B276BAFEC35F0140E37
:101AE0000F013B6F3C6B0F01000E396F0D0E3A6F0B
:101AF00039EC0FF00201000E006F0D0E016F40EC8B
:101B000000F00D010C51F00BE842E842E842E842D7
:101B1000040DF350006E016A140E005E000E015AAF
:101B200000C025FD0050006E016AE85002013A5DD8
:101B30003A6F01503B593B6F140E3A5F000E3B5B0E
:101B40000D010C51F00BE842E842E842E842040D76
:101B5000F3500301266F276BAFEC35F036C22DF240
:101B600037C22EF20201000E2B6F0D0E2C6F24ECEB
:101B700008F00D01206FFE0E205D12E03AC234F233
:101B80003BC235F20201000E326F0D0E336F36C2CA
:101B900030F237C231F220CD2FF215EC09F0010CF2
:101BA0002CEC11F0010C0D01006B060E005D71E2D2
:101BB0000051280DF3CF01FDF4CF02FD000E0127E7
:101BC000010E022301CDE9FF02CDEAFF0A0EEF6EFE
:101BD00001CDE9FF02CDEAFF270EE926000EEA2239
:101BE000EF9001CDE9FF02CDEAFF270EE926000EB6
:101BF000EA22EF8201CDE9FF02CDEAFF270EE926B6
:101C0000000EEA22EF8401CDE9FF02CDEAFF270EA4
:101C1000E926000EEA22EF9801CDE9FF02CDEAFFA6
:101C2000270EE926000EEA22EF9601CDE9FF02CD4C
:101C3000EAFF0F0EEB50FF0813E001CDE9FF02CDE4
:101C4000EAFF0F0EEB500F01476F55EC10F001CD7E
:101C5000E9FF02CDEAFF0F0EE926000EEA22EF6847
:101C600001CDE9FF02CDEAFF230EE926000EEA22AC
:101C70002C0EEE6E010EEE6EEE6AEE6A01CDE9FFFD
:101C800002CDEAFF100EEB6A110EEB6A0D01002B7C
:041C90008CD71200DB
:0C1C94008A989E962BCFC9FF9EA6FED713
:101CA000C9CF05FD9E96C96A9EA6FED7C9CF05FD80
:101CB0009E96C96A9EA6FED7C9CF05FD9E968A88C4
:101CC0000D01055112008A989E962CCFC9FF9EA641
:101CD000FED7C9CFD5FD9E96C96A9EA6FED7C9CFAD
:101CE000D5FD9E968A880D01D55112008A989E9640
:101CF000400E0F012D11C96E9EA6FED7C9CFDDFD86
:101D00009E962ECFC9FF9EA6FED7C9CFDDFD9E961B
:101D10008A8812008A989E96800E0F012F11C96E34
:101D20009EA6FED7C9CFDDFD9E9630CFC9FF9EA6E9
:101D3000FED7C9CFDDFD9E968A8812008A989E96AE
:101D4000A00E0F013111C96E9EA6FED7C9CFDDFDD1
:101D50009E9632CFC9FF9EA6FED7C9CFDDFD9E96C7
:101D60008A8812000F01030E326F0F011F0E316FB0
:101D7000E5DF34CF30FF0F011F0E2F6F8AEF0EF01B
:101D80000F01140E336F020E346FECDF35CF2EFFD0
:101D90000F01140E2D6FAADF0F01010E2E6F0F0120
:101DA000120E2D6FA3DF0F010A0E336F030E346F77
:101DB000D9DF0F010A0E2B6F6DDF006E000100B03E
:101DC000F8D70F01140E336F020E346FCBDF0F0103
:101DD0002E6B0F01120E2D6F89DF0F01180E2B6F66
:101DE00059DF006EE8CF03FD0F01190E2B6F52DF94
:101DF000006EE8CF04FD03CDF3FFF46E12000F0177
:101E0000140E336F020E346FADDF36CF2EFF0F018D
:101E1000140E2D6F6BDF37CF2EFF0F01160E2D6FB7
:101E200065DF38CF2EFF0F01170E2D6F5FDF0F011B
:101E30000A0E336F030E346F95DF0F010A0E2B6FFE
:101E400029DF006E000100B0F8D712008A989E9634
:101E50003A0EC96E9EA6FED7C9CFCDFD9E96C96A21
:101E60009EA6FED7C9CFCDFD9E968A880D01CD5185
:101E700012008A989E963A0EC96E0D01D56BD66BEC
:101E80000F013907000E3A5B9EA6FED7C9CFD7FDDA
:101E90009E960F013B510D01D55D0F013C510D0187
:101EA000D65910E2C96AD52B000ED6230F01392B63
:101EB0003A239EA6FED7C95039CFE9FF3ACFEAFFB1
:101EC000EF6EE6D78A88D5CDF3FFD6CDF4FF1200AA
:101ED0008A989E967A0EC96E9EA6FED7C9CFDDFD62
:101EE0009E963DCFC9FF9EA6FED7C9CFDDFD9E962B
:101EF0008A8812008A989E967A0EC96E9EA6FED790
:101F0000C9CFDDFD9E960F01405141110EE03ECF3D
:101F1000E9FF3FCFEAFFEF50C96E3E2B000E3F2393
:101F20004007415B9EA6FED7EBD78A8812000F01BF
:101F3000010E356F25DFF350040B01E0010E120096
:101F40000F01425109E00F011F0E2C6FBCDEE8505B
:101F5000080B080A29E0010C2451235D0AE10F0156
:101F60001F0E2C6FB0DE0001E850080B080A1CE0C1
:101F7000010C0D01010EC96F070EC95D14E2C951B4
:101F8000050DF3CFE9FFF4CFEAFF000EE9260F0EAF
:101F9000EA22040EE926000EEA22EF50010B01E0CE
:101FA000010CC92BE9D7000E12000F01435109E0C3
:101FB0000F011F0E2C6F87DEE850080B01E1000CAB
:101FC000FF0C0D01010EC96F070EC95D33E2C95147
:101FD000050DF3CFE9FFF4CFEAFF000EE9260F0E5F
:101FE000EA22040EE926000EEA22EF50010B20E05F
:101FF000C951050DF3CFE9FFF4CFEAFF000EE92642
:102000000F0EEA22040EE926000EEA22EF90C951D3
:10201000050DF3CFE9FFF4CFEAFF000EE9260F0E1E
:10202000EA22040EE926000EEA22EF92C9511200BC
:10203000C92BCAD7FF0C44CF23FF0F014451050D14
:10204000F3CFE9FFF4CFEAFF000EE9260F0EEA22F4
:10205000EECF00F0EFCF01F0010E0026000E0122BE
:102060000E0E0026000E0122005045270150462387
:10207000020E0F01336F346B75DE45CF2EFF0F015B
:102080002D6B34DE46CF2EFF0F01010E2D6F2EDE9D
:1020900045CF2EFF0F01020E2D6F28DE46CF2EFFFB
:1020A0000F01030E2D6F76EF0EF00F014751006EFA
:1020B000016A070E005C000E015811E24751050D40
:1020C000F3CFE9FFF4CFEAFF000EE9260F0EEA2274
:1020D000040EE926000EEA22EF8047CF23FF12000C
:1020E000140E0F01016A2725006E285101220050AD
:1020F00048250D018D6F01500F0149210D018E6F93
:102100008DCD00F0016E026A036AD880070E00547C
:10211000100E0154000E0254000E035404E2080E87
:102120008D5F100E8E5B0F01336B346B1BDE8DCD1C
:102130002EFF0F012D6BDADD8ECD2EFF0F01010E6C
:102140002D6FD4DD8DCD2EFF0F01020E2D6FCEDD54
:102150008ECD2EFF0F01030E2D6F76EF0EF00F01C7
:10216000190E336F010E346FFDDD0F01190E2C6F48
:10217000AADD006EE8CFC9FD0E0E0F01336F346B80
:10218000F1DD0F010E0E2C6F9EDD006EE8CFCBFD52
:102190000F010F0E2C6F97DD006EE8CFCCFD0F0105
:1021A000190E336F010E346FDDDD0F01190E2C6F28
:1021B0008ADD006E0D01C9510001005CD6E10C0EF4
:1021C0000F01336F346BCEDD0F010C0E2C6F7BDDF6
:1021D000006EE8CFC9FD0F010D0E2C6F74DD006E8F
:1021E000E8CFCAFD0D01CB51C95DCC51CA591BE2E4
:1021F000070E046E100E056E066A076AC951CB5DA4
:10220000086ECC51CA55096E0A6A0B6A0850045C04
:10221000006E09500558016E0A500658026E0B50A8
:102220000758036E14D0C951CB1908E1CA51CC1913
:1022300005E1070EF36E100EF46E1200CB51C95D6E
:10224000006ECA51CC55016E0006000E015A00C046
:10225000F3FF01C0F4FF12000F01295101E0120049
:10226000010E296F25CF87FD26CF88FD0D01875FE1
:10227000000E885B87CD00F088CD01F0026A036A0A
:10228000D880070E0054100E0154000E0254000EA8
:10229000035404E2070E876F100E886F0F01400E83
:1022A000306F0F011E0E2F6F35DD0C0E0F01336FD7
:1022B000346B58DD87CD2EFF0F010C0E2D6F16DD10
:1022C00088CD2EFF0F010D0E2D6F76EF0EF00F0152
:1022D000190E336F010E346F45DD0F01190E2C6F8F
:1022E000F2DC006E0001005002E1000E90D00F0100
:1022F000295103E1B1DF000E8AD025CF27FF26CF79
:1023000028FF0F01336B346B2DDD25CF2EFF0F011E
:102310002D6BECDC26CF2EFF0F01010E2D6FE6DCBE
:10232000140E0F013B6F3C6B0F01000E396F0D0E49
:102330003A6F9FDD12CDF4F013CDF5F0F3EC35F0EC
:10234000F3CF12FDF4CF13FD00CD00F001CD01F06D
:10235000026A036AD880070E0054100E0154000E62
:102360000254000E03541BE30D010D010051010B3B
:1023700016E10D010D010551800B11E10D010D015B
:102380000451100B0CE10D01EE0ED8800255050E24
:10239000035505E30D010D010451800B01E1FF0020
:1023A00000CD25FF01CD26FF060EE66EE66A0C0E77
:1023B000E66E0D0EE66E4ACFE9FF4BCFEAFFE9CF9E
:1023C00000F0EACF01F000C0E6FF01C0E6FF74ECC8
:1023D00039F0026E060EE15E02504CCFE9FF4DCFA0
:1023E000EAFFEF68080E0D01135D0DE10D011251BA
:1023F00004E0060E0D01125D06E14CCFE9FF4DCF62
:10240000EAFF12CDEFFF0F01296B010E00D0120081
:10241000020E0F01336F346BA5DC0F012351050D44
:10242000F3CFE9FFF4CFEAFF000EE9260F0EEA2210
:10243000EFCF2EFF0F01020E2D6F58DC0F0123513D
:10244000050DF3CFE9FFF4CFEAFF000EE9260F0EEA
:10245000EA22010EE926000EEA22EFCF2EFF0F013D
:10246000030E2D6F43DC0F012351050DF3CFE9FF60
:10247000F4CFEAFF000EE9260F0EEA22EECF00F0BD
:10248000EFCF01F00E0E0026000E01220050512762
:10249000015052232351050DF3CFE9FFF4CFEAFF9A
:1024A000000EE9260F0EEA22020EE926000EEA22AD
:1024B00051CFEEFF52CFEDFF0F013D6B09DD060E50
:1024C0000F01406F416B4ECF3EFF4FCF3FFF12DDFC
:1024D000060E0F01406F416B0F017A0E3E6F020E28
:1024E0003F6F08DD0F01080E3D6FF2DC0F01505108
:1024F00002E1000E01D0060E0F013D6F68EF0FF0F4
:10250000040E0F01336F346B2DDC0F012351050DC9
:10251000F3CFE9FFF4CFEAFF000EE9260F0EEA221F
:10252000EFCF2EFF0F01040E2D6F76EC0EF00F0192
:102530002351050DF3CFE9FFF4CFEAFF000EE926A2
:102540000F0EEA22010EE926000EEA22EFCF2EFF3F
:102550000F01050E2D6F76EC0EF00F012351050DC6
:10256000F3CFE9FFF4CFEAFF000EE9260F0EEA22CF
:10257000020EE926000EEA22EFCF2EFF0F01060E13
:102580002D6F76EC0EF00F012351050DF3CFE9FF0F
:10259000F4CFEAFF000EE9260F0EEA22020EE9262A
:1025A000000EEA22010EE926000EEA22EFCF2EFFEE
:1025B0000F01070E2D6F76EC0EF023CF24FF0F01D5
:1025C0002351050DF3CFE9FFF4CFEAFF000EE92612
:1025D0000F0EEA22040EE926000EEA22EF820F0116
:1025E0001C0E2C6F63EC0EF0006E000100A210D0E8
:1025F0000F01800E306F0F011F0E2F6F8AEC0EF04F
:102600000F01800E326F0F011F0E316F9EEC0EF026
:102610000F010A0E326F0F011C0E316F9EEC0EF08F
:102620000F01080E306F0F011F0E2F6F8AEC0EF096
:10263000050E0F012A5D01E0C8D00F011C0E2C6FA2
:1026400063EC0EF0006E0A0E00010014F6E00F01BC
:102650001C0E2C6F63EC0EF0006E000100A2B5D0D2
:102660000F01080E326F0F011F0E316F9EEC0EF03E
:102670000F01336B346BB2EC0EF00F012C6B63EC7B
:102680000EF0006EE8CFC9FD0F01010E2C6F63EC58
:102690000EF0006EE8CFCAFD0F01060E2C6F63EC42
:1026A0000EF0006EE8CFCBFD0F01070E2C6F63EC30
:1026B0000EF0006EE8CFCCFD0D01CB2B000ECC232D
:1026C000CBCD2EFF0F012D6B76EC0EF0CCCD2EFF77
:1026D0000F01010E2D6F76EC0EF0070E0F013B6F10
:1026E0003C6B0F01CD0E396F0D0E3A6F39EC0FF0C8
:1026F0000D01D46B100ED45D5BE20F011C0E2C6F2C
:1027000063EC0EF0006E0001E850020B51E00D0189
:10271000D051200B4DE00F01800E306F0F011F0EC6
:102720002F6F8AEC0EF00F01800E326F0F011F0E1B
:10273000316F9EEC0EF00F010A0E326F0F011C0E6E
:10274000316F9EEC0EF00F01080E306F0F011F0E5F
:102750002F6F8AEC0EF00F011C0E2C6F63EC0EF045
:10276000006E0A0E00010014F6E00F01080E326F31
:102770000F011F0E316F9EEC0EF0CBCD2EFF0F011F
:102780002D6B76EC0EF0CCCD2EFF0F01010E2D6FD0
:1027900076EC0EF0070E0F013B6F3C6B0F01CD0E78
:1027A000396F0D0E3A6F39EC0FF00D01D42BA2D713
:1027B000C9CD2EFF0F012D6B76EC0EF0CACD2EFF8A
:1027C0000F01010E2D6F76EC0EF012000F01200E9E
:1027D000326F0F011E0E316F9EEC0EF00F011D0EB9
:1027E0002C6F63EC0EF0006E000100A0F7D70F0114
:1027F000040E306F0F011F0E2F6F8AEF0EF00F01C6
:10280000040E326F0F011F0E316F9EEC0EF00F01A0
:102810001D0E2C6F63EC0EF0006E000100B4F7D7B4
:102820000F011F0E2C6F63EC0EF0006E000100B65E
:10283000F7D70F01200E306F0F011E0E2F6F8AEF9A
:102840000EF00F010C0E326F0F011F0E316F9EEC58
:102850000EF00F01356BC0EC0EF0F3CF01FDF4CF9D
:1028600002FD020E0F01535D06E10D010251010B45
:102870000F01536F0DD053510D010291E8B0028149
:1028800001CD37FF02CD38FF0F01366BFFEC0EF0A4
:102890000F01020E336F346FB2EC0EF00F01020E17
:1028A0002B6F4AEC0EF00D01006F0F0153510D011B
:1028B0000091E8B0008100CD2EFF0F01020E2D6FB8
:1028C00076EC0EF00F01535102E0150E01D0120EFE
:1028D0000F012E6F0F01040E2D6F76EC0EF00F011D
:1028E000040E306F0F011F0E2F6F8AEF0EF00F01D5
:1028F000150E336F030E346FB2EC0EF054CF2EFF73
:102900000F01150E2D6F76EC0EF00F01336B346B4B
:10291000B2EF0EF00F01150E336F030E346FB2ECF1
:102920000EF00F01150E2C6F63EC0EF0006EE8CF69
:1029300000FD0F01336B346BB2EC0EF00D01005152
:1029400012008A989E96C9689EA6FED7C9CF00FD40
:102950009E968A8812009E960F011D0E2C6F63ECC6
:102960000EF0006EE8CF06FD080E0D010615F4E12D
:10297000061D010BF1E1E5DF010E03014A6F4B6B10
:102980009EEC3CF00D01066B070E065D39E2065128
:10299000006E016A480E0102F3CF01F0020E000240
:1029A000F3500126480E0002F3CF00F0F450012648
:1029B000026A036A080E0026100E0122000E02228F
:1029C00003220651050DF3CFE9FFF4CFEAFF000E15
:1029D000E9260F0EEA2200C0EEFF01C0EDFF06510E
:1029E000050DF3CFE9FFF4CFEAFF000EE9260F0E45
:1029F000EA22040EE926000EEA22EF80062BC4D755
:102A00000F01236B010E296F256B266B0F012E6BB7
:102A10000F01080E2D6F76EC0EF00F012E6B0F01DB
:102A2000090E2D6F76EC0EF00F01070E2E6F0F01C1
:102A30000C0E2D6F76EC0EF00F01100E2E6F0F01A5
:102A40000D0E2D6F76EC0EF00F01070E2E6F0F019D
:102A50000A0E2D6F76EC0EF00F01100E2E6F0F0187
:102A60000B0E2D6F76EC0EF00F01080E2E6F0F017E
:102A7000040E2D6F76EC0EF00F01100E2E6F0F016D
:102A8000050E2D6F76EC0EF00F01336B020E346FD6
:102A9000B2EC0EF00F010D0E2E6F0F012D6B76ECC8
:102AA0000EF00F01320E2E6F0F01020E2D6F76EC1D
:102AB0000EF00F01400E2E6F0F01030E2D6F76ECFE
:102AC0000EF00F013F0E2E6F0F01090E2D6F76ECE9
:102AD0000EF00F01120E2E6F0F01060E2D6F76EC09
:102AE0000EF00F010C0E2E6F0F01070E2D6F76ECFE
:102AF0000EF00F01EE0E2E6F0F010A0E2D6F76EC09
:102B00000EF00F01050E2E6F0F010B0E2D6F76ECE0
:102B10000EF00F01040E336F030E346FB2EC0EF0A3
:102B20007AC22EFF0F01040E2D6F76EC0EF07BC2E1
:102B30002EFF0F01050E2D6F76EC0EF07CC22EFFDE
:102B40000F01020E2D6F76EC0EF07DC22EFF0F01ED
:102B5000030E2D6F76EC0EF07EC22EFF0F012D6B53
:102B600076EC0EF07FC22EFF0F01010E2D6F76EC7A
:102B70000EF00F01120E2C6F63EC0EF0006EE8CF1A
:102B80002AFF0F01376B010E386F0F01100E366FE1
:102B9000FFEC0EF00F01720E376F040E386F0F014D
:102BA000140E366FFFEC0EF00F01536B4ADE0F016F
:0E2BB000040E306F0F011F0E2F6F8AEF0EF014
:022BBE003C6871
:102BC000746D6C3E3C686561643E3C7469746C6510
:102BD0003E436F6272613C2F7469746C653E3C7356
:102BE0006372697074206C616E67756167653D2200
:102BF0004A617661536372697074223E766172092C
:102C0000786D6C487474703B766172204F626A41D3
:102C100072726179203D206E657720417272617910
:102C20003B66756E6374696F6E20476574586D6C92
:102C3000487474704F626A6563742868616E646C6E
:102C40006572297B20766172206F626A586D6C48CC
:102C5000747470203D206E756C6C3B206966286E24
:102C60006176696761746F722E757365724167650D
:102C70006E742E696E6465784F6628224D534945FF
:102C800022293E3D3029207B202076617220436C32
:102C90006173734E616D65203D20224D73786D6CBC
:102CA000322E584D4C48545450223B2020696628FF
:102CB0006E6176696761746F722E617070566572AD
:102CC00073696F6E2E696E6465784F6628224D5366
:102CD000494520352E3522293E3D302920207B20B4
:102CE0002020436C6173734E616D65203D20224D41
:102CF0006963726F736F66742E584D4C485454500C
:102D0000223B20207D202074727920207B202020EF
:102D10006F626A586D6C48747470203D206E6577E0
:102D200020416374697665584F626A65637428430D
:102D30006C6173734E616D65293B2020206F626A60
:102D4000586D6C487474702E6F6E7265616479731F
:102D5000746174656368616E6765203D2068616EAB
:102D6000646C65723B20202072657475726E206FF2
:102D7000626A586D6C487474703B20207D2020631B
:102D80006174636828652920207B202020616C65A0
:102D9000727428224572726F723A204163746976A8
:102DA000655820736372697074696E67206D61790C
:102DB0002062652064697361626C65642E22293B20
:102DC00020202072657475726E3B20207D207D204E
:102DD000656C7365207B202074727920207B202015
:102DE000206F626A586D6C48747470203D206E6567
:102DF0007720584D4C4874747052657175657374C2
:102E000028293B2020206F626A586D6C48747470CA
:102E10002E6F6E6C6F6164203D2068616E646C651E
:102E2000723B2020206F626A586D6C487474702E5B
:102E30006F6E6572726F72203D2068616E646C65A2
:102E4000723B20202072657475726E206F626A5822
:102E50006D6C487474703B20207D20206361746326
:102E60006828652920207B202020616C65727428E9
:102E7000224572726F723A2042726F7773657220C8
:102E80006D6179206E6F7420626520737570706F4C
:102E900072746564206F722062726F77736572203E
:102EA000736563757269747920726573747269638E
:102EB00074696F6E732061726520746F6F2068692A
:102EC00067682E22293B20207D207D7D66756E63FC
:102ED00074696F6E2053746174654368616E6765D1
:102EE0006428297B20696628786D6C487474702E7C
:102EF00072656164795374617465203D3D203420AE
:102F00007C7C20786D6C487474702E726561647975
:102F10005374617465203D3D2022636F6D706C6554
:102F200074652229207B2020646F63756D656E7443
:102F30002E676574456C656D656E744279496428C9
:102F4000227478744175746F55706461746553743C
:102F50006174757322292E696E6E657248544D4CEA
:102F60003D786D6C487474702E726573706F6E73FB
:102F700065546578743B2020786D6C4874747020BB
:102F80003D206E756C6C3B202055706461746553F8
:102F9000746174757328293B207D7D66756E63743A
:102FA000696F6E20557064617465537461747573D4
:102FB00028297B20786D6C48747470203D2047650B
:102FC00074586D6C487474704F626A6563742853EA
:102FD000746174654368616E676564293B20786D30
:102FE0006C487474702E6F70656E282247455422A9
:102FF0002C20227374617475732E63676922202CF0
:103000002074727565293B20786D6C487474702E3D
:1030100073656E64286E756C6C293B7D66756E6396
:1030200074696F6E20476574536572766572466980
:103030006C652846696C654E616D652C2041737323
:1030400069676E546F297B20766172204E696674C1
:10305000794F626A203D206E6577204F626A656312
:103060007428293B204E696674794F626A2E584D48
:103070004C446576696365203D206E657720476521
:1030800074586D6C487474704F626A656374285329
:10309000746174654368616E67656432293B204ED4
:1030A000696674794F626A2E584D4C44657669633F
:1030B000652E6F70656E2822474554222C20466984
:1030C0006C654E616D652C2074727565293B204ED0
:1030D000696674794F626A2E584D4C44657669630F
:1030E000652E73656E64286E756C6C293B204E6985
:1030F0006674794F626A2E54657874203D2041735E
:103100007369676E546F3B204F626A4172726179D6
:103110002E70757368284E696674794F626A293B10
:103120007D66756E6374696F6E2053746174654358
:1031300068616E6765643228297B20666F72286932
:1031400020696E204F626A417272617929207B206A
:10315000206966284F626A41727261795B695D2EEF
:10316000584D4C4465766963652E72656164795388
:1031700074617465203D3D2034207C7C204F626A60
:1031800041727261795B695D2E584D4C4465766978
:1031900063652E72656164795374617465203D3D89
:1031A0002022636F6D706C657465222920207B205E
:1031B00020206966284F626A41727261795B695D9D
:1031C0002E5465787420213D202222292020207B46
:1031D00020202020646F63756D656E742E676574A2
:1031E000456C656D656E7442794964284F626A4129
:1031F000727261795B695D2E54657874292E696EEF
:103200006E657248544D4C3D4F626A4172726179ED
:103210005B695D2E584D4C4465766963652E726519
:1032200073706F6E7365546578743B2020207D2029
:1032300020206966284F626A41727261795B695D1C
:103240002E54657874203D3D202274787441757445
:103250006F557064617465537461747573222920AD
:1032600020207B202020204765745365727665728C
:1032700046696C6528227374617475732E6367697F
:10328000222C20227478744175746F5570646174B7
:103290006553746174757322293B2020207D2020A2
:1032A0002064656C657465204F626A417272617951
:1032B0005B695D2E584D4C4465766963653B202003
:1032C0002064656C657465204F626A417272617931
:1032D0005B695D3B20207D207D7D3C2F736372699F
:1032E00070743E3C2F686561643E3C626F64792077
:1032F0006F6E6C6F61643D225570646174655374C8
:103300006174757328293B2047657453657276652F
:103310007246696C65282776657273696F6E2E63D5
:103320006769272C27747874537461636B566572D0
:1033300073696F6E27293B20476574536572766504
:103340007246696C65282762646174652E636769DB
:10335000272C277478744275696C644461746527FE
:10336000293B223E3C703E546F67676C65204C459C
:10337000447320266E6273703B266E6273703B3C12
:10338000696E70757420747970653D22627574740D
:103390006F6E222076616C75653D224C454431226A
:1033A000206F6E636C69636B3D2247657453657271
:1033B00076657246696C652827303F303D4C454440
:1033C00031272C272729223E3C2F696E7075743EC9
:1033D0003C696E70757420747970653D22627574F5
:1033E000746F6E222076616C75653D224C454432C7
:1033F00022206F6E636C69636B3D22476574536571
:103400007276657246696C652827303F313D4C45C0
:103410004432272C272729223E3C2F696E70757471
:103420003E3C62723E3C62723E3C2F666F6E743E62
:103430003C74722076616C69676E3D746F703E3CBF
:10344000464F524D204D4554484F443D474554202A
:10345000616374696F6E3D506F7765722E63676943
:103460003E3C7461626C653E3C74723E3C74643EEA
:10347000506F776572204C6576656C3A3C2F7464AA
:103480003E3C74643E3C696E70757420747970655E
:103490003D746578742073697A653D32206D61787A
:1034A0006C656E6774683D31206E616D653D5020BE
:1034B00076616C75653D2530373E3C2F74643E3C2B
:1034C0002F74723E3C74723E3C74643E4C6F7720A5
:1034D000506F7765722053657474696E673A3C2F3C
:1034E00074643E3C74643E3C696E707574207479FB
:1034F00070653D746578742073697A653D32206D1E
:1035000061786C656E6774683D31206E616D653DF4
:103510004C2076616C75653D2530383E3C2F7464D7
:103520003E3C2F74723E3C74723E3C74643E48696B
:10353000676820506F7765722053657474696E6791
:103540003A3C2F74643E3C74643E3C696E70757402
:1035500020747970653D746578742073697A653D6F
:1035600032206D61786C656E6774683D31206E61E4
:103570006D653D482076616C75653D2530393E3C72
:103580002F74643E3C2F74723E3C74723E3C7464F3
:103590003E3C696E70757420747970653D73756218
:1035A0006D6974206E616D653D422076616C756554
:1035B0003D4170706C793E3C2F74643E3C2F7472B8
:1035C0003E3C2F7461626C653E3C623E5374617494
:1035D00075733C2F623E3C62723E3C7370616E209C
:1035E00069643D227478744175746F5570646174B8
:1035F00065537461747573223E4C6F6164696E67C4
:103600002E2E2E3C2F7370616E3E3C62723E3C2F1C
:10361000626F64793E3C2F68746D6C3E04FFFFFF5F
:103620003C62723E414E303A20202530323C62727C
:103630003E427574746F6E733A2020253046202503
:10364000304520253044202530343C62723E4C45C4
:1036500044733A202025313520253134202531335B
:1036600020253132202531312025313020253031BF
:10367000202530303C62723E3C623E495020506111
:10368000636B657420436F756E746572733C2F6253
:103690003E3C62723E54783A20202532303C6272C1
:1036A0003E52783A2025323104FFFFFF00BE2B49FD
:1036B0004E4445582E48544D202020002036535467
:1036C000415455532E434749202004FFFF454E44A3
:0936D000204F4620464154202001
:0136D90000F0
:0636DA0073CFE9FF74CF7D
:1036E000EAFFEE52EECFF2F1EDCFF3F173CFE9FF47
:1036F00074CFEAFF070EEB50000901E1CED073CF83
:10370000E9FF74CFEAFFEF5002011B6F68EC04F091
:10371000000901E1ECD00D01E96B73CFE9FF74CF33
:10372000EAFF040EEB5008080AE0CDEC3AF00D0178
:10373000EA6F0101F21D03E1F31D01E1C2D073CF75
:10374000E9FF74CFEAFF040EEB50080A52E00E0ABC
:1037500029E0030A14E0060A01E08FD0250E0D01CE
:10376000EA5D0AE173CFE9FF74CFEAFF040EE926B0
:10377000000EEA22050E80D0010EE96F7ED0250EE4
:103780000D01EA5D03E1010EE96F6DD0EACDECFDBC
:1037900073CFE9FF74CFEAFF040EE926000EEA2298
:1037A000060E6AD0EACDEBFDEACDF0F0ECCDF1F0FB
:1037B000BBEC35F0E66E73CFE9FF74CFEAFF080E7D
:1037C000E926000EEA22E552E750EF6E73CFE9FFDB
:1037D00074CFEAFF040EE926000EEA22080EEF6E0F
:1037E00073CFE9FF74CFEAFF050EEB6A060EEB6AB2
:1037F00044D00201EA0E546F0D0E556F73CFE9FFEE
:1038000074CFEAFF050EE926000EEA22EECF52F24F
:10381000EDCF53F273CFE9FF74CFEAFF080EEB5000
:103820000201516F21EC2BF0F3CF00F0F4CF01F047
:1038300073CFE9FF74CFEAFF050EF3CFEBFF060E5F
:1038400001C0EBFF0D01010EE96F73CFE9FF74CFEB
:10385000EAFF050EE926000EEA22FF0EEE180DE142
:10386000FF0EED180AE173CFE9FF74CFEAFF040EF3
:10387000E926000EEA22030EEF6E0D01E95101E187
:103880003ED7EACD1DF273CFE9FF74CFEAFFEF50C8
:1038900002011C6FA3EC04F032D773CFE9FF74CFA1
:1038A000EAFFEF5002011B6F68EC04F000091FE013
:1038B000CDEC3AF00D01EA6F0101F21D0CE1F31DB0
:1038C0000AE173CFE9FF74CFEAFFEF5002011A6FEC
:1038D000C1EC03F0010CEACD1DF273CFE9FF74CF08
:1038E000EAFFEF5002011C6FA3EC04F0D6D773CFB0
:1038F000E9FF74CFEAFF010EF2C1EBFF020EF3C144
:10390000EBFF000C0D01866B876B886B856B030EDC
:10391000E66EE66ACC0E006E770E016E026A00C09B
:10392000E6FFE66E02C0E6FF75CFE6FF76CFE6FF64
:1039300055EC39F0036E070EE15E0350000908E113
:10394000040E0F017527000E76230D018A6B01D03E
:10395000020C75CFE9FF76CFEAFFEF50200805E1B2
:103960000F01752B000E7623F4D775CFE9FF76CFC4
:10397000EAFFEFCF89FD200E0D01895D01E195D0B1
:10398000895101E192D00D0E895D01E18ED00A0EC0
:10399000895D01E18AD079CFE9FF7ACFEAFFEF5064
:1039A000855D01E382D08651020A30E0030A1DE002
:1039B000010A76E18551020D0F017751F324E96E7A
:1039C0007851F420EA6E75CFEEFF76CFEDFF75CF1C
:1039D000E9FF76CFEAFFEFCF89FD2F0E0D01895D5C
:1039E00041E05C0E895D5CE13DD08551852B020D87
:1039F0000F017751F324E96E7851F420EA6E75CF08
:103A0000EEFF76CFEDFF0D01020E866F75CFE9FF59
:103A100076CFEAFFEFCF89FD3F0E895D1EE0260ECF
:103A2000895D1BE02B0E895D07E1200E75CFE9FF54
:103A300076CFEAFFEF6E34D02E0E895D0BE185055F
:103A400009E10F01752B000E762375CF87FD76CF28
:103A500088FD26D03D0E895D08E175CFE9FF76CF60
:103A6000EAFFEF6A010E866F1BD02F0E895D03E01F
:103A70005C0E895D15E1010E0F01016A7525006E6E
:103A8000765101220D018505020D0F017751F324B6
:103A9000E96E7851F420EA6E00C0EEFF01C0EDFF40
:103AA0000F01752B000E762360D775CFE9FF76CF17
:103AB000EAFFEF6A090E7BCFE9FF7CCFEAFFEF6EEA
:103AC0008751881142E087CDE6FF88CDE6FF23ECE1
:103AD0003AF0E552E552F3CF87FDF4CF88FD0D01B2
:103AE000320E8B6F760E8C6F896B8951006E016A76
:103AF0000A0E005C000E015828E2030EE66EE66A2C
:103B00008BCD00F08CCD01F0026A8BCDE6FF8CCD21
:103B1000E6FF02C0E6FF87CDE6FF88CDE6FF55EC65
:103B200039F0036E070EE15E0350000907E17BCF19
:103B3000E9FF7CCFEAFF89CDEFFF07D0040E0D012E
:103B40008B27000E8C23892BD0D70D01855130E1B6
:103B5000090EE66EE66AD00E006E770E016E026AFE
:103B600000C0E6FFE66E02C0E6FF77CFE9FF78CF40
:103B7000EAFFEECFE6FFEFCFE6FF9FEC39F0036EF2
:103B8000070EE15E035077CFE9FF78CFEAFFEE50F2
:103B9000EFCFEAFFE96E090EE926000EEA22EF6A8E
:103BA000010E7BCFE9FF7CCFEAFFEF6E0D01852B85
:103BB00079CFE9FF7ACFEAFF85CDEFFF8A51120076
:103BC0000F017D510A0DF3CF81FDF4CF82FD550E1B
:103BD0000D0181270F0E8223806B81CDE9FF82CDFD
:103BE000EAFFEF500201186F31EC03F000090AE11F
:103BF00081CDE9FF82CDEAFF030EE926000EEA221D
:103C0000EF6A120081CDE9FF82CDEAFF030EEB508F
:103C1000090A01E10BD2080A01E1E0D10A0A01E137
:103C20001AD1090A01E1D5D0020A01E028D281CDDA
:103C3000E9FF82CDEAFFEF5002012A6F3EEC06F069
:103C4000000901E11CD20D01010E806F7E6B7F6BBC
:103C50000D01640E7E5D000E7F5917E27ECD28F2C5
:103C60007FCD29F27E2B000E7F23000E0201282734
:103C70000D0E292381CDE9FF82CDEAFFEF5002012D
:103C8000276FE3EC05F00009E3E1000E0D017E254E
:103C9000E96E0D0E7F21EA6EEF6A81CDE9FF82CDDC
:103CA000EAFFEF5002011E6F20EC05F081CDE9FF25
:103CB00082CDEAFF030EE926000EEA22020EEF6E25
:103CC0000D010B0E7B6F81CDE9FF82CDEAFF090E5E
:103CD000E926000EEA22E9CF7BFFEACF7CFF0F0145
:103CE0007B0E796F0D0E7A6F0F01650E776F0D0EDB
:103CF000786F0F01000E756F0D0E766F03DE0D01EC
:103D00007D6FE85001E0BBD17B51010813E27BCD10
:103D100050F20201650E4E6F0D0E4F6FBEEC2AF091
:103D200081CDE9FF82CDEAFF090EE926000EEA22E5
:103D3000020EEF6E65CDF7F166CDF8F13CEC3AF08E
:103D4000F3CF00F0F4CF01F081CDE9FF82CDEAFF9F
:103D5000010EF3CFEBFF020E01C0EBFF81CDE9FFB7
:103D600082CDEAFFEE52FF0EEE180DE1FF0EED18C8
:103D70000AE181CDE9FF82CDEAFF080EE926000EB7
:103D8000EA22EF6A12D081CDE9FF82CDEAFFEE523E
:103D9000EE50ED1014E181CDE9FF82CDEAFF080E6F
:103DA000E926000EEA22010EEF6E81CDE9FF82CDF9
:103DB000EAFF030EE926000EEA22020E5FD181CD52
:103DC000E9FF82CDEAFF030EE926000EEA220B0E80
:103DD00055D181CDE9FF82CDEAFFEF5002011B6F83
:103DE00068EC04F0000901E14AD181CDE9FF82CD00
:103DF000EAFF080EEB50E96EEA6AD890E936EA3637
:103E0000FC0EE926020EEA22EECF83FDEDCF84FD03
:103E10000D0183CDF6FF84CDF7FF832B000E8423A5
:103E20000800F5CF7CFDF5500CE07CCD1DF281CD76
:103E3000E9FF82CDEAFFEF5002011C6FA3EC04F012
:103E4000E7D781CDE9FF82CDEAFFEF5002011A6F7B
:103E5000C1EC03F0E1D081CDE9FF82CDEAFFEF5064
:103E600002011B6F68EC04F0000901E108D10D01AB
:103E7000010E806F81CDE9FF82CDEAFF090EEB5084
:103E8000020828E181CDE9FF82CDEAFF070EE9268D
:103E9000000EEA22010EEF6E7C6B7C51006E016A0F
:103EA000840E005C000E01583CE27C51F76A420F20
:103EB000F66E770EF7220800F5CF1DF281CDE9FFEF
:103EC00082CDEAFFEF5002011C6FA3EC04F00D015C
:103ED0007C2BE3D781CDE9FF82CDEAFF070EE926EF
:103EE000000EEA22EF6A7C6B7C51006E016A1F0EA5
:103EF000005C000E015815E27C51F76A220FF66E45
:103F0000770EF7220800F5CF1DF281CDE9FF82CDB3
:103F1000EAFFEF5002011C6FA3EC04F00D017C2BB3
:103F2000E3D781CDE9FF82CDEAFF090EEB50140DF6
:103F3000F3CFF6FFF4CFF7FF5A0EF626760EF722F0
:103F4000F6CF83FDF7CF84FD0D0183CDF6FF84CD41
:103F5000F7FF832B000E84230800F5CF7CFDF5507E
:103F60000CE07CCD1DF281CDE9FF82CDEAFFEF5060
:103F700002011C6FA3EC04F0E7D77C6B7C51006E50
:103F8000016A040E005C000E015815E27C51F76ACC
:103F9000C70FF66E770EF7220800F5CF1DF281CD20
:103FA000E9FF82CDEAFFEF5002011C6FA3EC04F0A1
:103FB0000D017C2BE3D781CDE9FF82CDEAFF040E12
:103FC000E926000EEA22030EEF6E81CDE9FF82CDD5
:103FD000EAFFE926000EEA22010E50D081CDE9FF6A
:103FE00082CDEAFFEF5002012A6F3EEC06F0000995
:103FF00009E081CDE9FF82CDEAFFEF5002011E6F9B
:1040000020EC05F081CD73FF82CD74FF6DEC1BF0C9
:10401000000935E0C6EC3AF081CDE9FF82CDEAFF38
:10402000030EE926000EEA22090E28D081CDE9FF11
:1040300082CDEAFFEF500201186F31EC03F0000966
:104040001EE081CDE9FF82CDEAFFEF5002011B6F38
:1040500068EC04F0000913E081CDE9FF82CDEAFFAE
:10406000EF500201196F41EC03F081CDE9FF82CDE1
:10407000EAFF030EE926000EEA220A0EEF6E0D019A
:10408000805101E0A9D512000D01F36B030EF35D21
:1040900006E2F3CD7DFF94DD0D01F32BF7D712007F
:1040A0000D01036B030E035D26E2500E0201026F49
:1040B000036B1BEC01F0E66E0D0103510A0DF3CF0B
:1040C000E9FFF4CFEAFF550EE9260F0EEA22E5528A
:1040D000E750EF6E03510A0DF3CFE9FFF4CFEAFF8B
:1040E000550EE9260F0EEA22030EE926000EEA22FB
:0840F000EF6A032BD7D7120081
:0840F800080E0301465D01E121
:104100001200FF0E475D04E047C3DFF07FEC25F0AF
:1041100003014769466B496B489112000001010E8B
:10412000E06FB2EC25F00001010EE06FB2EC25F07B
:104130000001060EE06FB2EC25F00001E06BB2EC7E
:1041400025F00001120EE06FB2EC25F00001230E05
:10415000E06FB2EC25F00001340EE06FB2EC25F018
:104160000001560EE06FB2EC25F00001E06BB2ECFE
:1041700025F00001E06BB2EC25F00001800EE06F4D
:10418000B2EC25F00001E06BB2EC25F00001E06B31
:10419000B2EC25F00001E06BB2EC25F00001E06B21
:1041A000B2EC25F00001E06BB2EC25F00D010F6BD5
:1041B0000C0E0F5D07E20001E06BB2EC25F00D0183
:1041C0000F2BF6D77AC2E0F0B2EC25F07BC2E0F01C
:1041D000B2EC25F07CC2E0F0B2EC25F07DC2E0F05C
:1041E000B2EC25F07EC2E0F0B2EC25F07FC2E0F048
:1041F000B2EC25F00D010F6BCA0E0F5D07E2000156
:10420000E06BB2EC25F00D010F2BF6D70001630E29
:10421000E06FB2EC25F00001820EE06FB2EC25F009
:104220000001530EE06FB2EC25F00001630EE06F69
:10423000B2EC25F00001350EE06FB2EC25F0000184
:10424000010EE06FB2EC25F0F2C2E0F0B2EC25F026
:104250000201F20502E1030148930201F2051FE0A9
:10426000E651E711E811E9111AE00001360EE06F9E
:10427000B2EC25F00001040EE06FB2EC25F0E1C2D3
:10428000E0F0B2EC25F0E0C2E0F0B2EC25F0DFC2E5
:10429000E0F0B2EC25F0DEC2E0F0B2EC25F0000177
:1042A000370EE06FB2EC25F00001040EE06FB2ECC7
:1042B00025F00001010EE06FB2EC25F00001030EC5
:1042C000E06FB2EC25F00001060EE06FB2EC25F0D5
:1042D00000010C0EE06FB2EC25F0030E0201F25D5E
:1042E0001AE10001320EE06FB2EC25F00001040E7D
:1042F000E06FB2EC25F0E6C2E0F0B2EC25F0E7C2E8
:10430000E0F0B2EC25F0E8C2E0F0B2EC25F0E9C252
:10431000E0F0B2EC25F00001E069B2EC25F03AEFF4
:1043200026F00D01126B00010F0EE26F0D0EE36F10
:10433000E4EC26F0020E0D010F5D01E0C9D1106B17
:104340000F0E105D0AE200010F0EE26F0D0EE36F1B
:10435000E4EC26F00D01102BF3D7030148A30FD096
:104360000D01106B040E105D28E200010F0EE26FCC
:104370000D0EE36FE4EC26F00D01102BF3D70001D6
:10438000E60EE26F020EE36FE4EC26F00001E70EAA
:10439000E26F020EE36FE4EC26F00001E80EE26F3C
:1043A000020EE36FE4EC26F00001E90EE26F020E6C
:1043B000E36FE4EC26F00201DD810D01106B080EC5
:1043C000105D0AE200010F0EE26F0D0EE36FE4ECE8
:1043D00026F00D01102BF3D7106B060E105D14E2C2
:1043E00000010F0EE26F0D0EE36FE4EC26F00D01FD
:1043F0001051EA6A7A0FE96E020EEA22EF500F5D61
:1044000001E08AD1102BE9D7106BCE0E105D0AE2C5
:1044100000010F0EE26F0D0EE36FE4EC26F00D01CC
:10442000102BF3D7176B00010F0EE26F0D0EE36F29
:10443000E4EC26F0000904E10D01010E176F48D1EC
:104440000D010F51330A01E1E1D0CC0A01E1DBD0CB
:10445000C90A01E1AFD0350A60E0020A20E0340A5F
:1044600001E021D100010F0EE26F0D0EE36FE4ECCD
:1044700026F00D010F0501E04FD10001120EE26F91
:104480000D0EE36FE4EC26F003014851020B01E14D
:104490001BD1020E0D01125D01E016D13DD10001CC
:1044A0000F0EE26F0D0EE36FE4EC26F0040E0D012B
:1044B0000F5D01E031D1030148A310D00D01106B55
:1044C000040E105D01E300D100010F0EE26F0D0E2E
:1044D000E36FE4EC26F00D01102BF2D70001EE0E95
:1044E000E26F020EE36FE4EC26F00001EF0EE26FE4
:1044F000020EE36FE4EC26F00001F00EE26F020E14
:10450000E36FE4EC26F00001F10EE26F020EE36FC0
:10451000E4EC26F00201DD85D7D00001110EE26F38
:104520000D0EE36FE4EC26F0040E0D01115D01E2C7
:10453000F3D0030148A30FD00D01106B040E105DE2
:1045400028E200010F0EE26F0D0EE36FE4EC26F09F
:104550000D01102BF3D70001EA0EE26F020EE36F9C
:10456000E4EC26F00001EB0EE26F020EE36FE4ECE8
:1045700026F00001EC0EE26F020EE36FE4EC26F091
:104580000001ED0EE26F020EE36FE4EC26F0020193
:10459000DD83040E0D01115F0D011151110700099A
:1045A00001E192D000010F0EE26F0D0EE36FE4EC1B
:1045B00026F0F2D700010F0EE26F0D0EE36FE4EC70
:1045C00026F0040E0D010F5D01E0A6D00001160ECD
:1045D000E26F0D0EE36FE4EC26F00001150EE26FC2
:1045E0000D0EE36FE4EC26F00001140EE26F0D0EE9
:1045F000E36FE4EC26F00001130EE26F0D0EE36FA3
:10460000E4EC26F061D0010E176F5ED000010F0EB2
:10461000E26F0D0EE36FE4EC26F0040E0D010F5D6A
:1046200001E07AD0030148A30FD00D01106B040EF6
:10463000105D4AE200010F0EE26F0D0EE36FE4EC35
:1046400026F00D01102BF3D70001E50EE26F020EEC
:10465000E36FE4EC26F00001E40EE26F020EE36F7C
:10466000E4EC26F00001E30EE26F020EE36FE4ECEF
:1046700026F00001E20EE26F020EE36FE4EC26F09A
:10468000D880080E0201E255070EE355000EE455EE
:10469000000EE55519E2080EE25F070EE35B000E1F
:1046A000E45BE55B11D00001110EE26F0D0EE36FCC
:1046B000E4EC26F00D0111511107000905E000019D
:1046C0000F0EE26F0D0EF3D70D01175101E1ABD6BE
:1046D000020E125D0BE113CDDEF214CDDFF215CD2B
:1046E000E0F216CDE1F20301488311D0DE0EE96E4F
:1046F000020EEA6EEE50131908E1EE50141905E1AE
:10470000EE50151902E1EE50161901E0126B49EC5A
:1047100027F00D011251120049EC27F0000C0301A3
:104720004651070A01E12CD1010A01E1C6D0030A72
:1047300001E1A7D0010A01E17BD0070A51E0010A9B
:1047400033E0030A08E0010A01E012000201E66B0F
:10475000E76BE86BE96B0D010069016902690369A8
:10476000046905690669076908690969430E00015A
:10477000DD6FDE6B0001000EDB6F0D0EDC6F440E93
:104780000001D96FDA6B16EC25F00301476F7EEC60
:104790003CF014C0F3F215C0F4F216C0F5F217C0E5
:1047A000F6F20301020E466F7EEC3CF00201F3517B
:1047B000145C006EF4511558016EF5511658026ED6
:1047C000F6511758036E140E005C000E0158000ECF
:1047D0000258000E035801E228D10301030E6BD0EA
:1047E00002013C0EE26FE36BE46BE56B030148A151
:1047F00002D0050E60D047C3D8F00F01010E426F02
:10480000A0EC0FF0000901E110D10201010EF26FDE
:1048100085DC0201DD6B7EEC3CF014C0F3F215C0C8
:10482000F4F216C0F5F217C0F6F20301040E43D0FD
:104830007EEC3CF00201F351145C006EF45115580B
:10484000016EF5511658026EF6511758036EC80ED8
:10485000005C000E0158000E0258000E035803E3DE
:104860000301030E466F47C3E1F0CCEC26F00009CC
:1048700001E1DBD056DD020801E0D7D00301050ECF
:10488000466F47C3D8F00F01010E426FA0EC0FF046
:10489000000901E1CAD00201030EF26F3FDC7EEC99
:1048A0003CF014C0F3F215C0F4F216C0F5F217C0D4
:1048B000F6F20301060E466F120047C3E1F0CCEC9E
:1048C00026F0000941E02DDD0D010A6F060E0A5D9C
:1048D00002E17CEF20F0050E0A5D51E147C3DFF0F5
:1048E0007FEC25F0030147697EEC3CF014C0F3F245
:1048F00015C0F4F216C0F5F217C0F6F20301070E68
:10490000466F0201DDA108D0E6C276F2E7C277F277
:10491000E8C278F2E9C279F2DDA508D0EEC280F2F1
:10492000EFC281F2F0C282F2F1C283F2DDA308D0BD
:10493000EAC284F2EBC285F2ECC286F2EDC287F2E3
:1049400003014881492B12007EEC3CF00201F35137
:10495000145C006EF4511558016EF5511658026E34
:10496000F6511758036EC80E005C000E0158000E79
:104970000258000E035859E30301030E466F12005C
:104980007EEC3CF00201F351145C0D010B6F02014F
:10499000F45115580D010C6F0201F55116580D0117
:1049A0000D6F0201F65117580D010E6F640E0B5D6D
:1049B000000E0C59000E0D59000E0E5936E302017F
:1049C000E207000EE35BE45BE55B640E0D010B5F49
:1049D000000E0C5B0D5B0E5B0201E251E311E41172
:1049E000E51103E10301010E466F640E0D010B5D3D
:1049F000000E0C59000E0D59000E0E59E0E27EEC2F
:104A00003CF00D010B51145C0201F36F0D010C51D0
:104A100015580201F46F0D010D5116580201F56F82
:0C4A20000D010E5117580201F66F120034
:044A2C000D01800EEA
:104A3000226F000E236F216B040E215D5FE222CDF9
:104A4000E9FF23CDEAFF0C0EE926000EEA22EECFA5
:104A500000F0EFCF01F0026A036A0050011002106B
:104A6000031046E122CDE9FF23CDEAFF0C0ED9C0A9
:104A7000EBFF0D0EDAC0EBFF0001DB51DC1119E09A
:104A80000A0EE66EE66ADBC0E6FFDCC0E6FF22CD7A
:104A9000E9FF23CDEAFF22CD00F023CD01F022CDA6
:104AA000E6FF23CDE6FF74EC39F0026E060EE15E00
:104AB000025022CDE9FF23CDEAFF0A0EDDC0EBFF55
:104AC0000B0EDEC0EBFF22CDE9FF23CDEAFF0E0E79
:104AD000EB6A0F0EEB6A22CDE9FF23CDEAFF100E41
:104AE000EB6A110EEB6A21CDD8F00D0121511200B5
:104AF000160E2227000E2323212B9ED7FF0C000128
:104B0000DF51160DF3CFE9FFF4CFEAFF800EE9265F
:104B1000000EEA220C0EE926000EEA22EE6AED6A89
:104B2000DF51160DF3CFE9FFF4CFEAFF800EE9263F
:104B3000000EEA22060EE926000EEA22EE6AEE6A6E
:104B4000EE6AEE6ADF51160DF3CFE9FFF4CFEAFF0C
:104B5000800EE926000EEA22150EE926000EEA2252
:104B6000EF9012000001D851160DF3CF2BFDF4CFBA
:104B70002CFD800E0D012B27000E2C232BCDE9FFE1
:104B80002CCDEAFF0E0EE926000EEA22EE50ED10C3
:104B900030E10F01010E436FD5EC0FF0E66E2BCD27
:104BA000E9FF2CCDEAFF120EE926000EEA22E552BB
:104BB000E750EF6E2BCDE9FF2CCDEAFF120EEB5044
:104BC000FF0801E1000C1C0E0F01456F466B2BCD59
:104BD000E9FF2CCDEAFF120EEB500F01446F1BECE6
:104BE00010F02BCDE9FF2CCDEAFF130EEB6A140E6B
:104BF000EB6AE0C03DFF68EC0FF02BCDE9FF2CCD58
:104C0000EAFF130EE926000EEA22EECF00F0EDCF08
:104C100001F0EE2AEF222BCDE9FF2CCDEAFF0E0E9C
:104C2000E926000EEA22EECF02F0EFCF03F00250A9
:104C3000005C035001580AE32BCDE9FF2CCDEAFFBD
:104C40000E0EE926000EEA22EE2AEF222BCDE9FF16
:104C50002CCDEAFF0E0EE926000EEA22EECF2DFD46
:104C6000EDCF2EFD0D01160E2D5D020E2E5901E326
:104C700001D8010C0F01010E426FA0EC0FF00009EA
:104C8000F9E00001D851160DF3CF29FDF4CF2AFD2C
:104C9000800E0D012927000E2A2329CDE9FF2ACDF8
:104CA000EAFF0C0EE926000EEA22EECFF4F0EDCF7B
:104CB000F5F0F3EC35F0F3CF21FDF4CF22FD29CD53
:104CC000E9FF2ACDEAFF0A0EE926000EEA22EECF1E
:104CD000F4F0EDCFF5F0F3EC35F0F3CF23FDF4CFA6
:104CE00024FD29CDE9FF2ACDEAFF0E0EE926000EAC
:104CF000EA22EECF25FDEFCF26FD080E0D01252778
:104D0000000E2623276B286B140E0F01456F466B90
:104D100029CDE9FF2ACDEAFF120EEB500F01446FB7
:104D20001BEC10F025CD24F326CD25F30301110E45
:104D3000236F29CDE9FF2ACDEAFF29CD21F32ACD22
:104D400022F336EC35F025CDF4F026CDF5F0F3EC7A
:104D500035F0F3CF25FDF4CF26FD080E0F01406F8F
:104D6000416B0F01210E3E6F0D0E3F6F7AEC0FF07D
:104D700080EC12F029CDE9FF2ACDEAFF120EE926D8
:104D8000000EEA22EF6829CDE9FF2ACDEAFF0E0ED8
:104D9000EB6A0F0EEB6A1200E1C0D8F00001D851A7
:104DA000160DF3CFE9FFF4CFEAFF800EE926000EDF
:104DB000EA22100EE926000EEA22D880EE54000EF8
:104DC000ED5401E3000C010C0001D851160DF3CF96
:104DD000E9FFF4CFEAFF800EE926000EEA22100E6A
:104DE000E926000EEA22EE50ED1001E1000CD85148
:104DF000160DF3CFE9FFF4CFEAFF800EE926000E8F
:104E0000EA22150EE926000EEA22EF50010B15E00A
:104E1000D851160DF3CFE9FFF4CFEAFF800EE92653
:104E2000000EEA22150EE926000EEA22EF90080E87
:104E30000301266F276BAFEC35F026EC0FF0E2C0D4
:104E4000E9FFE3C0EAFFEF6E0001D851160DF3CF82
:104E5000E9FFF4CFEAFF800EE926000EEA22100EE9
:104E6000E926000EEA22EE06EF5AD851160DF3CFCE
:104E7000E9FFF4CFEAFF800EE926000EEA22100EC9
:104E8000E926000EEA22EE50ED1002E12CEC11F0C2
:104E9000010C0001D851160DF3CFE9FFF4CFEAFF62
:104EA000800EE926000EEA22100EE926000EEA2204
:104EB000EE50ED1002E02CEC11F00001D851160D6F
:104EC000F3CFE9FFF4CFEAFF800EE926000EEA22D5
:104ED000100EE926000EEA22EE6AED6A12000D01BC
:104EE0001869800E196F000E1A6F176B040E175D8C
:104EF00001E38CD019CDE9FF1ACDEAFF0C0EE926AB
:104F0000000EEA22EECF00F0EFCF01F0E4C0E9FF9F
:104F1000E5C0EAFF020EE926000EEA22EECF02F01B
:104F2000EFCF03F0025000186AE10350011867E167
:104F300019CDE9FF1ACDEAFF0A0EE926000EEA2292
:104F4000EECF00F0EFCF01F0E4C0E9FFE5C0EAFFEB
:104F5000EECF02F0EFCF03F0025000184EE1035005
:104F600001184BE119CDE9FF1ACDEAFF100EE92631
:104F7000000EEA22EECF04F0EFCF05F0066A076AD2
:104F8000045005100610071038E1E6C0E9FFE7C03D
:104F9000EAFF060EE926000EEA22EECF00F0EECF81
:104FA00001F0EECF02F0EFCF03F019CDE9FF1ACDFB
:104FB000EAFF060EE926000EEA22EE500001001874
:104FC00008E1EE50011805E1EE50021802E1EE5042
:104FD000031810E0E8C0E9FFE9C0EAFFE868EE184E
:104FE0000CE1E868EE1809E1E868EE1806E1E86807
:104FF000EE1803E10D011751120017CD18FD0D0138
:10500000160E1927000E1A23172B70D7FF0E185DE6
:1050100035E01851160DF3CF19FDF4CF1AFD800EAF
:105020001927000E1A230A0EE66EE66AE6C0E6FFAE
:10503000E7C0E6FF19CDE9FF1ACDEAFF19CD00F070
:105040001ACD01F019CDE6FF1ACDE6FF74EC39F068
:10505000026E060EE15E0250E4C0E9FFE5C0EAFF21
:10506000EECF00F0EFCF01F019CDE9FF1ACDEAFF46
:105070000A0E00C0EBFF0B0E01C0EBFF0D01185133
:105080001200080E0F013B6F3C6B0F01000E396FD1
:105090000D0E3A6F39EC0FF000CDF4F001CDF5F0C4
:1050A000F3EC35F0F3CF00FDF4CF01FD02CDF4F0C9
:1050B00003CDF5F0F3EC35F0F3CF02FDF4CF03FDB3
:1050C00004CDF4F005CDF5F0F3EC35F0F3CF04FDAD
:1050D000F4CF05FD0D01080E045F000E055B0651BF
:1050E000071101E188D006CDF4F007CDF5F0F3EC1F
:1050F00035F0F3CF06FDF4CF07FDEAC0E9FFEBC0C2
:10510000EAFF060EE926000EEA22EECF09FDEECFF9
:105110000AFDEECF0BFDEFCF0CFDECC0E9FFEDC0BB
:10512000EAFFEFCF0DFD010EE926000EEA22EFCFD8
:105130000EFDECC0E9FFEDC0EAFF020EE926000E0D
:10514000EA22EFCF0FFDECC0E9FFEDC0EAFF030E4E
:10515000E926000EEA22EFCF10FD0D01116B110EB2
:10516000126FEEC013FDEFC014FDEEC0F4F0EFC0FF
:10517000F5F0F3EC35F0F3CF13FDF4CF14FD0C0E86
:105180000001FC6FFD6B0001090EFA6F0D0EFB6F45
:1051900053EC36F0F3CF15FDF4CF16FD0D01151FBE
:1051A000161F060E0301266F276BAFEC35F015CDE9
:1051B0003DFF68EC0FF0070E0301266F276BAFEC85
:1051C00035F016CD3DFF68EC0FF00301266B276B21
:1051D000AFEC35F0EEC0FEF0EFC0FFF0C9EC36F0FA
:1051E000F3CF15FDF4CF16FD0D010651F31816E1AE
:1051F0000751161913E1ECC0E8F0EDC0E9F0EAC080
:10520000E6F0EBC0E7F00001000EE46F0D0EE56F75
:1052100066DE0D01086FFF0E085D03E12CEC11F056
:10522000010C0851160DF3CFE9FFF4CFEAFF800E11
:10523000E926000EEA22100EE926000EEA2204CD2D
:10524000EEFF05CDEDFF0851160DF3CFE9FFF4CFCA
:10525000EAFF800EE926000EEA22150EE926000E6E
:10526000EA22EF80010C0D01006B040E005D06E2E6
:0E52700000CDDFF044DC0D01002BF7D712005B
:02527E00D8CF87
:10528000E4FFE0CFE4FFE46EDACFE4FFE2CFDAFF41
:10529000E9CFE4FFEACFE4FFF6CFE4FFF7CFE4FF86
:1052A000F5CFE4FFF3CFE4FFF4CFE4FFFACFE4FF60
:1052B00000EE10F00B0EE80403E3EECFE4FFFBD7A3
:1052C00000EE00F0100EE80403E3EECFE4FFFBD79E
:1052D000E65287EC3CF0E55200EE0FF0100EE804C9
:1052E00003E3E5CFEDFFFBD700EE1AF00B0EE80469
:1052F00003E3E5CFEDFFFBD7E5CFFAFFE5CFF4FF02
:10530000E5CFF3FFE5CFF5FFE5CFF7FFE5CFF6FFFC
:10531000E5CFEAFFE5CFE9FFE5CFDAFFE550E5CFDE
:10532000E0FFE5CFD8FF10000D01016B44C202FD84
:1053300045C203FD44C2E9FF45C2EAFFEFCF00FDCD
:10534000EF5038E02E0E0D01005D28E1020144C24D
:10535000E9FF45C2EAFF442B000E4523EF6A02CD68
:10536000E6FF03CDE6FF1DEC2DF0E552E552F350CC
:10537000E66E46C200F047C201F00D010151012B5B
:105380000F010024E96E000E0120EA6EE552E7509D
:10539000EF6E44C202FD45C203FD07D0300E005D32
:1053A00003E30051390801E2000C0201442B000E16
:1053B0004523C0D702CDE6FF03CDE6FF1DEC2DF05F
:1053C000E552E552F350E66E46C200F047C201F0E6
:1053D0000D0101510F010024E96E000E0120EA6E5B
:1053E000E552E750EF6E030E0D01015D01E0000C88
:1053F000010C4AC2E6FF4BC2E6FF48C2E9FF49C2C0
:10540000EAFFEF50E66EE66A92EC2DF0E552E552C7
:10541000E552E5524AC2E6FF4BC2E6FF15EC3AF010
:10542000E552E552F35002014A27F4504B234AC299
:10543000E9FF4BC2EAFF4A2B000E4B232E0EEF6E04
:105440004AC2E6FF4BC2E6FF48C2E9FF49C2EAFF93
:10545000010EE926000EEA22EF50E66EE66A92ECB3
:105460002DF0E552E552E552E5524AC2E6FF4BC245
:10547000E6FF15EC3AF0E552E552F35002014A27F7
:10548000F4504B234AC2E9FF4BC2EAFF4A2B000EFD
:105490004B232E0EEF6E4AC2E6FF4BC2E6FF48C218
:1054A000E9FF49C2EAFF020EE926000EEA22EF50A8
:1054B000E66EE66A92EC2DF0E552E552E552E552D1
:1054C0004AC2E6FF4BC2E6FF15EC3AF0E552E55260
:1054D000F35002014A27F4504B234AC2E9FF4BC262
:1054E000EAFF4A2B000E4B232E0EEF6E4AC2E6FF58
:1054F0004BC2E6FF48C2E9FF49C2EAFF030EE926B4
:10550000000EEA22EF50E66EE66A92EC2DF0E552CC
:10551000E552E552E55212000D01006B0F0E02013B
:10552000EA6A4C25E96E4D51EA22EF6A4CC2E6FF69
:105530004DC2E6FF23EC3AF0E552E5520F0E0D01A5
:10554000005D1BE200510201EA6A4C25E96E4D51F3
:10555000EA22EF500FE10F0E0D01005D0EE2005147
:10556000002B0201EA6A4C25E96E4D51EA22200E19
:10557000EF6EF1D70D01002BE1D712004EC2E9FF0B
:105580004FC2EAFFEE50EFCFEAFFE96EEF50D00FC7
:105590000D01856FE85039E1020E0201EA6A4E25DD
:1055A000E96E4F51EA22EE50EFCFEAFFE96EEF507D
:1055B000D00F0D01866F020E0201EA6A4E25E96ED8
:1055C0004F51EA22EE50EFCFEAFFE96E010EE926D5
:1055D000000EEA22EF5019E10D018651090A15E08B
:1055E000010A13E00F0A11E0010A0FE0030A0DE0BF
:1055F000010A0BE0070A09E0010A07E0030A04E0D8
:10560000010A03E1897801D0897A0A0EE66EE66A1A
:10561000730E006E790E016E026A00C0E6FFE66E40
:1056200002C0E6FF4EC2E9FF4FC2EAFFEECFE6FF3F
:10563000EFCFE6FF9FEC39F0036E070EE15E0350FB
:10564000120002015151220A01E140D1010A01E197
:105650003DD1020A01E104D1010A01E1CBD0370AB0
:1056600001E18ED0010A52E0190A44E0010A3DE04E
:10567000030A37E0090A31E0110A2BE0010A25E0AC
:10568000070A1FE0010A19E0030A13E0010A0DE00E
:10569000110A07E0010A01E03FD18950080B2DE112
:1056A00027D08950100B24E028D08950200B20E00F
:1056B00024D08950200B1CE020D08950200B18E00A
:1056C0001CD08950200B14E018D08950200B10E01A
:1056D00014D08950200B0CE010D08050010B08E052
:1056E0000CD08150010B04E008D08150010B05E182
:1056F000300E06D08150010B02E0310E01D0300E89
:1057000054C2E9FF55C2EAFFEF6E06D15251531160
:1057100014E1E00E006E780E016E026A00C0E6FF32
:10572000E66E02C0E6FF560EE66E020EE66EFCEC7A
:1057300039F0036E050EE15E035002015251EA6A30
:10574000560FE96E020EEA22EF5054C2E9FF55C22D
:10575000EAFFEF6E5251EA6A560FE96E020EEA2234
:10576000EF5001E1D9D0522B000E53235251EA6A77
:10577000560FE96E020EEA22EF5001E0C8D0CCD0FD
:105780005251531114E1CB0E006E780E016E026A75
:1057900000C0E6FFE66E02C0E6FF560EE66E020EA1
:1057A000E66EFCEC39F0036E050EE15E035002017B
:1057B0005251EA6A560FE96E020EEA22EF5054C2C5
:1057C000E9FF55C2EAFFEF6E5251EA6A560FE96EE1
:1057D000020EEA22EF5001E19FD0522B000E53231C
:1057E0005251EA6A560FE96E020EEA22EF5001E0CA
:1057F0008ED092D05251531112E1560EE66E020E27
:10580000E66E42C3E6FF43C3E6FF44C3E6FF45C37B
:10581000E6FF2CEC2EF0006E060EE15E0050020159
:105820005251EA6A560FE96E020EEA22EF5054C254
:10583000E9FF55C2EAFFEF6E5251EA6A560FE96E70
:10584000020EEA22EF5068E0522B000E5323525111
:10585000EA6A560FE96E020EEA22EF5058E15CD078
:105860005251531112E1560EE66E020EE66E3EC321
:10587000E6FF3FC3E6FF40C3E6FF41C3E6FF2CEC73
:105880002EF0006E060EE15E005002015251EA6AEF
:10589000560FE96E020EEA22EF5054C2E9FF55C2DC
:1058A000EAFFEF6E5251EA6A560FE96E020EEA22E3
:1058B000EF5032E0522B000E53235251EA6A560F3A
:1058C000E96E020EEA22EF5022E126D05251531126
:1058D0005251EA6A560FE96E020EEA22EF5054C2A4
:1058E000E9FF55C2EAFFEF6E5251EA6A560FE96EC0
:1058F000020EEA22EF5010E0522B000E53235251B9
:10590000EA6A560FE96E020EEA22EF5005E052C233
:10591000F3FF53C2F4FF1200F368F4681200896ABF
:10592000010E926E100E8A6E010E936EC00E8B6E7B
:10593000900E946E200EAC6E900EAB6EAC84270E63
:10594000AF6EC26A0F0EC16EF19ED08EF28EF28CD7
:10595000200EC66E400EC76E120002018C8112002E
:10596000DEDF74EC3CF038EC3AF0100EE66EE66ADE
:10597000C50E006E780E016E026A00C0E6FFE66E8C
:1059800002C0E6FF970EE66E020EE66E9FEC39F05F
:10599000036E070EE15E03500201970E4C6F020E7C
:1059A0004D6FBADDDADF46EC38F050EC20F0020142
:1059B0008CB105D0010EA76F0301080E466F7EEC77
:1059C0003CF00201A851145C006EA9511558016EFB
:1059D000AA511658026EAB511758036E320E005C76
:1059E000000E0158000E0258000E03580BE37EEC27
:1059F0003CF014C0A8F215C0A9F216C0AAF217C054
:105A0000ABF2897652EC38F044EC20F0BBEC31F08C
:105A10000201A7510301495DD2E049C3A7F2020187
:105A2000AB0E4A6F0D0E4B6F0201760E486F020EE1
:0A5A3000496FDFDCB4EC30F0C2D7A0
:065A3A00FF0EE3CFEAFFBE
:105A4000E552FF0EE3CFE9FFE552E66AE66AD9CFF9
:105A5000E6FFDACFE6FFFC0EE124D96EFF0EE2206E
:105A6000DA6EE66AE66AE66A200EEF5C06E0090E88
:105A7000EF5C03E0EF6603D03FD0EE50F5D72D0E7C
:105A8000EF5C03E1FF0EE32A03D02B0EEF5C01E194
:105A9000EE502F0EEF6424D03A0EEF6021D0D89054
:105AA000F90EE336FA0EE336FD0EDECFE3FFFE0E0F
:105AB000DDCFE3FFD890F90EE336FA0EE336D89047
:105AC000F90EE336FA0EE336FD0EE350DE26FE0E47
