:020000040000FA
:06000000E3EF37F01200EF
:0600180091EF0AF0120056
:06002A000A00D570000081
:100030004404000001000000B170000078030000DB
:1000400024000000AD7000003B040000040000002C
:10005000A37000002C0400000A000000587000008B
:10006000000200004B000000DB4D000043040000D4
:1000700001000000487000001004000010000000A3
:1000800046700000410400000200000042700000C1
:10009000FC020000040000001870000000030000D3
:0400A0002A00000032
:0C00A40007EC0AF0A2EC08F0F3CFEEFF2E
:1000B00011C0EDFF07EC0AF0020E3EEC0AF0020E52
:1000C000F3CFEBFF030E5CEC09F0040E94EC08F0A8
:1000D000E3EC08F0040E34EC0AF007EC0AF0080E2A
:1000E00094EC08F0E3EC08F0080E34EC0AF007ECAE
:1000F0000AF00E0E3EEC0AF00E0EF3CFEBFF0F0EE1
:100100005CEC09F0100E3EEC0AF0100EF3CFEBFFA2
:10011000110E5CEC09F0120E3EEC0AF0120EF3CF59
:10012000EBFF130E11C0EBFF12000D01006B060E6A
:10013000005D42E20051280DF3CF01FDF4CF02FD36
:10014000000E0127010E022305EC09F0EF500A080A
:1001500031E105EC09F0EF6A05EC09F00B0E4DC238
:10016000EBFF0C0E4EC2EBFF05EC09F00D0EEB6A37
:100170000E0EEB6A05EC09F0EE5248EC0AF0AAEC20
:1001800009F071EC0AF0EF8071EC0AF0EF9605ECE3
:1001900009F052EC09F008E005EC09F0FFEC08F07A
:1001A00005EC09F00CEC0AF071EC0AF0EF820D019D
:1001B00000511200002BBBD7FE0CC2EC08F052EC31
:1001C00009F00BE0C2EC08F0FFEC08F0C2EC08F01C
:1001D0000CEC0AF085EC0AF0EF82C2EC08F0EE526B
:1001E00048EC0AF0AAEC09F0C2EC08F00D0EEB6A3C
:1001F0000E0EEB6AC2EC08F061EC0AF0080B02E0AC
:1002000039EC1AF085EC0AF0EF96C2EC08F037EC06
:100210000AF085EC0AF0EF98C2EC08F061EC0AF005
:10022000010B04E0C2EC08F0EF6A04D0C2EC08F065
:100230000A0EEF6EC2EC08F0AFEF09F067EC09F0C0
:10024000FDE0FF0E0201605D07E10301010E636F37
:10025000ACEC19F00201606FFF0E605D01E112006D
:10026000140E40EC09F053C287FD54C288FD55C2FC
:1002700089FD56C28AFD57C28BFD58C28CFD59C2FA
:100280008DFD5AC28EFD5BC28FFD5CC290FD5DC2CA
:1002900091FD5EC292FD0D01939193939395939777
:1002A0005FC294FD4FEC1AF0F3CF95FDF4CF96FDAD
:1002B0000D01000EF35C040EF45804E3956B040E7C
:1002C000966F0DD0360ED8809555000E965505E2E6
:1002D000360E955F000E965B02D0956B966B976B12
:1002E000986B996B9A6B0201870E4B6F0D0E4C6FDA
:1002F000D9DE140E02016127000E62235FA30ED027
:10030000040E6127000E62230D01020E9B6F040E86
:100310009C6F9D6F9E6B9399938B03D00D01938976
:10032000939B938D939F00C29FFD01C2A0FD02C2CB
:10033000A1FD03C2A2FD51C2E9FF52C2EAFF48EC8F
:100340000AF0EECFA3FDEECFA4FDEECFA5FDEFCFDB
:10035000A6FDA76B060EA86F61C2A9FD62C2AAFD29
:1003600061C204F462C205F479EC2CF0F3CFA9FD6C
:10037000F4CFAAFD0C0E04010C6F0D6B04019F0E4F
:100380000A6F0D0E0B6FADEC2CF0F3CF97FDF4CF91
:1003900098FD0D01971F981F97CD85FD98CD86FD7F
:1003A00061C2F1F362C2F2F30301060EF06F51C2B3
:1003B000EEF352C2EFF3BCEC27F0140E0301676FAB
:1003C000686B0301870E656F0D0E666FB6EC19F052
:1003D00002015FA30BD0040E0301676F686B03017A
:1003E0009B0E656F0D0E666FB6EC19F0140E40ECA7
:1003F00009F061C20EF462C20FF423EC2DF0F3CFCA
:1004000085FDF4CF86FD240E40EC09F086CD64F323
:10041000ADEC19F085CD64F3ADEC19F00301606B20
:10042000616B60C25FF3F9EC18F059EC1BF067ECFC
:1004300009F0FDE059EF1BF00D010A6B076B060E8A
:10044000075D14E20751280DF3CF08FDF4CF09FD35
:10045000000E0827010E0923BDEC08F0EF500A0832
:1004600003E1010E0A6F02D0072BE9D70A5101E11F
:10047000FE0C0401412B000E4223BDEC08F00B0ED4
:1004800041C4EBFF0C0E42C4EBFF880E415D130E1E
:10049000425903E34169030E426FBDEC08F0C3EC1F
:1004A00009F0EF90BDEC08F00D0E65C2EBFF0E0EEB
:1004B00066C2EBFF3BEC0AF0B4EC09F0BDEC08F0CF
:1004C0001A0E94EC08F0AAEC09F00A0EE66EE66A41
:1004D00063C2E6FF64C2E6FFBDEC08F0C7EC08F0BB
:1004E0004CEC09F00201020E5F6FBDEC08F016EC57
:1004F0000AF03BEC0AF029EC09F0BDEC08F01AEC2C
:100500000AF0BDEC08F01EEC0AF0BDEC08F022EC9D
:1005100009F0BDEC08F0010EEF6E3BEC0AF0B4EC14
:1005200009F005EC37F02DEC0AF0BDEC08F01F0ED9
:1005300034EC0AF00D010751120002016751B3ECCF
:1005400008F0EF50030801E0000C010C02016851B3
:10055000280DF3CF00FCF4CF01FC000E0C010027A6
:10056000010E012318EC09F0EF5003080BE018EC22
:1005700009F0EF50020806E000CC4FF201CC50F237
:10058000DDEF00F068C26DF2FDD84CEC09F002011D
:10059000110E5F6F18EC09F016EC0AF018EC09F078
:1005A00068EC0AF029EC09F018EC09F01AEC0AF0F2
:1005B00018EC09F01EEC0AF018EC09F022EC09F036
:1005C00018EC09F068EC0AF0B4EC09F018EC09F04A
:1005D000040EEF6E120002016951280DF3CF00FCEA
:1005E000F4CF01FC000E0C010027010E0123D9EC11
:1005F00008F052EC09F001E1000CD9EC08F061ECD4
:100600000AF0020B01E1000CD9EC08F0100E94EC9A
:1006100008F0EECF61F2EDCF62F2D9EC08F00F0EE8
:10062000EB500201606F0201180E5F6F16EC0AF0CA
:10063000D9EC08F068EC0AF029EC09F0D9EC08F0E4
:100640001AEC0AF0D9EC08F01EEC0AF0D9EC08F02C
:1006500022EC09F0D9EC08F0100E74EC0AF0126AE2
:10066000136AD9EC08F068EC0AF01050EE2611502D
:10067000EE221250EE221350EE22D9EC08F0C3EC19
:1006800009F0EF92D9EC08F0C3EC09F0EF98010CF7
:1006900002016A51B3EC08F0140E4EEC0AF001E1CD
:1006A000000C6A51B3EC08F00F0E94EC08F0EF5018
:1006B000FF0804E10301626BA5EF19F06A51B3EC86
:1006C00008F061EC0AF0020B01E0010E12000201D9
:1006D0006B51280DF3CFBBFDF4CFBCFD000E0D0117
:1006E000BB27010EBC231DEC09F0140E4EEC0AF0E2
:1006F00001E1000C1DEC09F052EC09F01FE10301CF
:10070000636BACEC19F0E66E1DEC09F00F0E94EC87
:1007100008F0E552E750EF6E1DEC09F052EC09F0DD
:1007200001E1000C1DEC09F0AFEC09F0280E03010B
:10073000606F616B1DEC09F08FEC09F01DEC09F0A6
:10074000C3EC09F0EF886CC264F3ADEC19F01DEC5A
:1007500009F0140E94EC08F0EE06EF5A1DEC09F0C7
:10076000100E94EC08F0EE2AED22EECF10F0EDCF53
:1007700011F0CA0E105C030E115803E36BC269F24C
:100780002ADF010C02016D51280DF3CF02FCF4CFDA
:1007900003FC000E0C010227010E032302CCE9FF2B
:1007A00003CCEAFF61EC0AF0080B01E1000C39EC24
:1007B0001AF002CCE9FF03CCEAFFC3EC09F0EF9694
:1007C000010C02016E51280DF3CF89FDF4CF8AFD93
:1007D000000E0D018927010E8A230C0E0301F36F11
:1007E000F46B32EC28F0F0EC19F0E840E8403F0BF5
:1007F0003C0B0D01856F03015D6B5E6BE6EC18F041
:10080000F0EC19F00F0B040DF3CF86FD020E03017F
:100810005D6F5E6BE6EC18F0F0EC19F00D01886F7F
:10082000F0EC19F00D01876F865185250201136ADE
:100830006F25126E705113220D011250875D106EDC
:1008400013508859116E89CDE9FF8ACDEAFF120E47
:1008500010C0EBFF130E11C0EBFF855102016F2595
:100860000301F36F000E020170210301F46F32EFF8
:1008700028F002017151280DF3CF00FDF4CF01FDE6
:10088000000E0D010027010E01237AEC0AF061EC45
:100890000AF0080B20E07AEC0AF061EC0AF0040B95
:1008A0000BE002016F6B706B71C26EF28ADF7AEC43
:1008B0000AF0C3EC09F0EF947AEC0AF0C3EC09F00B
:1008C000EF8874C26BF375C26CF372C269F373C2C2
:1008D0006AF3F7EF19F0F36AF46A12000201765135
:1008E000280DF3CF8BFDF4CF8CFD000E0D018B276F
:1008F000010E8C2347EC09F061EC0AF0080B2EE0A6
:1009000047EC09F061EC0AF0040B0BE002016F6B9D
:10091000706B76C26EF255DF47EC09F0C3EC09F05C
:10092000EF9447EC09F0120E4EEC0AF008E139ECB6
:100930001AF047EC09F0C3EC09F0EF96000C47EC15
:1009400009F0120E94EC08F0EE06EF5AF0EC19F0F4
:1009500077C2E9FF78C2EAFFEF6E010C000C0201DA
:100960007951B3EC08F061EC0AF0080B01E0010EDC
:1009700012000D010F6B006B060E005D01E3FED04F
:100980000051280DF3CF09FDF4CF0AFD000E092711
:10099000010E0A237FEC0AF0080B01E0ECD07FEC9B
:1009A0000AF0100B01E0E7D0C8DBEF500A0801E1C4
:1009B000E2D0C3DBEF50000905E17FEC0AF0010B48
:1009C00001E0D9D005EC37F006C005FD07C006FDF3
:1009D00008C007FD09C008FDB0DB1F0E77EC0AF068
:1009E0000D01065C016FEE500758026FEE5008587B
:1009F000036FEE500958046FA0DB230E95DB015105
:100A0000EE5C0251EE580351EE580451EE5801E3EA
:100A1000B2D067EC09F001E1120056EC09F08DDB71
:100A20001F0E34EC0AF089DB230E7EDBD890EF3604
:100A3000010EEB36020EEB36030EEB367EDB1E0E9E
:100A400073DBEF2A7ADBEF50090A52E0010A49E032
:100A50000F0A55E0020A53E0030A51E0020A3DE0A2
:100A6000070A1AE0010A05E0030A4FE10D01020E30
:100A700044D022EC0AF003E30D01120E3ED07FECCD
:100A80000AF0010B03E059DBEF6A3FD00D01020EC3
:100A90000F6F53DB010E2AD022EC0AF010E34DDB7E
:100AA00052EC09F009E00301606B616B46DB8FECEF
:100AB00009F059EC1BF029D00D01100E1ED03DDBC2
:100AC000F1DB05E03ADB9BDB38DB0CEC0AF00D01D7
:100AD000110E0F6F32DB040E09D022EC0AF00FE387
:100AE0000AD00D01010E0F6F28DB090EEF6E0DD03D
:100AF00022EC0AF004E30D01010E0F6F06D009CDC0
:100B00004FF20ACD50F2DDEC00F00D010F5133E051
:100B10000FA90CD012DB68EC0AF0EECF0BFDEECF84
:100B20000CFDEECF0DFDEFCF0EFD0FD006DB68EC18
:100B30000AF0EFCF0BFDEE2AEFCF0CFDEE22EFCF48
:100B40000DFDEE22EFCF0EFDEF22A6DB0FCD5FF203
:100B5000F4DA16EC0AF00BCD57F20CCD58F20DCDAD
:100B600059F20ECD5AF2E9DA1AEC0AF0E6DA1EEC86
:100B70000AF0E3DA67DB0D01002BFED612000D014F
:100B8000FE0E296F286B060E285D46E22851B0DB69
:100B900015DBEF500A083DE011DB0B0E4BEC0AF0C1
:100BA000020EC2DAC2DB35E11350111832E106DB66
:100BB000EF50000902E128CD29FD00DB0D0E4BECC2
:100BC0000AF0B3DB26E11350111823E17CC2E9FFE0
:100BD0007DC2EAFF48EC0AF0EECF14F0EECF15F03C
:100BE000EECF16F0EFCF17F0E9DAEE5248EC0AF04C
:100BF000EE50000114180DE1EE5015180AE1EE5008
:100C0000161807E1EE50171804E103E10D01285111
:100C100012000D01282BB7D7FE0E295D01E1FE0C55
:100C2000295166DB0A0EE66EE66A7CC2E6FF7DC2EB
:100C3000E6FFC4DAACDA12509CDB1DDBBFDA7CDBEA
:100C4000BDDAA1DBEF96BADA2DDB04E0B7DAD7DA4A
:100C5000B5DAE2DBB3DA97DBEF820D01295112003E
:100C600002017E51280DF3CF36FDF4CF37FD000E83
:100C70000D013627010E3723386B5ADA1E0E54DA6F
:100C8000EF6A14DB55DA1F0EEFDB52DAF0DB76DBAE
:100C9000040B0FE039EC1AF088EC0AF0010B02E0CB
:100CA000000E01D0010EE66E43DAE552E750EF6E1A
:100CB000120097DB0E0E38DAEECF14F0EFCF15F0FE
:100CC000166A176A4BDA080E77EC0AF00D012A5DF6
:100CD000186EEE502B59196EEE502C591A6EEE50BC
:100CE0002D591B6E1850145C106E19501558116E4A
:100CF0001A501658126E1B501758136E19DA100E30
:100D000013DAEECF1CF0EFCF1DF01E6A1F6A1C50E5
:100D1000105C266F1D501158276F1E501258286FF7
:100D20001F501358296F800E291506E001DA140EA2
:100D3000EB6A150EEB6A07D0FBD9140E26CDEBFF3C
:100D4000150E27CDEBFFCADB01081EE117DB020BF6
:100D500005E1BADB100B01E116D11CD017DBA1DBDA
:100D600081DADCDB06E1E4D9020EEF6E39EC1AF031
:100D700029D0DED9030EEF6E100E386F51DB020161
:100D80008351841164E19FD0A9DB00091FE19CDB42
:100D9000020B03E10D01040E17D0F8DA41DB0A0E55
:100DA000E66EE66A7FC2E6FF80C2E6FFC1D9EFD9F0
:100DB0001250D4D960DABCD9BFDABAD9020EEF6EBC
:100DC00001DB50DA0D01120E386FBBD06ADBEECFBB
:100DD0002EFDEECF2FFDEECF30FDEFCF31FD92DBBC
:100DE000EECF32FDEECF33FDEECF34FDEFCF35FD4C
:100DF000B5D9040E99D936DA020183510D0126279F
:100E0000020184510D012723000E28232923E9DA4A
:100E1000040E6DDB2E1901E087D0EE502F1901E092
:100E200083D0EE50301901E07FD0EE50311901E04F
:100E30007BD001E079D052DB02080BE16FDB43E0AD
:100E4000DBDA030EEF6E0201835184113CE02DDBEF
:100E500078D0D2DAEF50030839E160DB0CE058DBE0
:100E6000020B09E165D91EDA06E062D9C8D960D95A
:100E7000D3DA51DBEF8282DA010B08E00D01110EAB
:100E8000386FA0DAAFD954D9090EEF6E0201835141
:100E9000841119E03DDB080B04E107DB0D01388903
:100EA00050D030DB32CDEEFF33CDEEFF34CDEEFF50
:100EB00035CDEEFFF6DA2ECDEEFF2FCDEEFF30CDA5
:100EC000EEFF31CDEEFF39EC1AF03BD007DB09081D
:100ED00004E1FADA100B35E020D000DB04080FE162
:100EE000F3DA010B06E0B3DA19DB17E121D9060EBC
:100EF00004D014DB26E01CD9050EEF6E22D0EEDA0A
:100F0000050805E1E1DA010B1CE0A1DA06D0E6DA1A
:100F1000060817E1D9DA100B14E036CD4FF237CDC1
:100F200050F2DDEC00F00DD039EC1AF00D01100E8E
:100F3000386F2ECD26FD2FCD27FD30CD28FD31CDAC
:100F400029FD0D0138511FE0A7D938CD5FF226CD1C
:100F50005BF227CD5CF228CD5DF229CD5EF22ACD81
:100F600057F22BCD58F22CCD59F22DCD5AF2F6D89E
:100F7000B5D9F4D8020ED8D8B6D97FC251F280C202
:100F800052F21EEC01F0120085C2E9FF86C2EAFFB0
:100F90007FDAEECF14FDEECF15FDEECF16FDEFCFCD
:100FA00017FD87C2E9FF88C2EAFFEECF18FDEECF3A
:100FB00019FDEECF1AFDEFCF1BFD0D011C6B060EC8
:100FC0001D6F89C21EFD8AC21FFD89C204F48AC238
:100FD00005F479EC2CF0F3CF1EFDF4CF1FFD0C0EC1
:100FE00004010C6F0D6B0401140E0A6F0D0E0B6FD4
:100FF000ADEC2CF0F3CF21FDF4CF22FD0D01211F2C
:10100000221F89C20EF48AC20FF423EC2DF0F3CF15
:1010100023FDF4CF24FD0D01F450215D57E1235150
:10102000225D54E10301F36BF46B32EC28F0140EF3
:1010300003016B6F6C6B0301000E696F0D0E6A6F1D
:10104000F7EC19F00201000E4B6F0D0E4C6F52ECD5
:1010500000F058D9106E116A140E105E000E115A6D
:1010600010C025FD1050106E116AE8500201895D14
:10107000896F11508A598A6F140E895F000E8A5B3E
:1010800041D90301F36FF46B32EC28F085C27CF296
:1010900086C27DF20201000E7A6F0D0E7B6F6FDD4E
:1010A0000D01206FFE0E205D11E089C283F28AC21D
:1010B00084F20201000E816F0D0E826F85C27FF2F5
:1010C00086C280F220CD7EF2CBDD010C39EC1AF025
:1010D000010C0D01006B060E005D25E20051280D8C
:1010E000F3CF01FDF4CF02FD000E0127010E022314
:1010F00091D80A0EEF6EEFD9EF90EDD9EF82EBD9D0
:10110000EF84E9D9EF98E7D9EF9684D8CBD804E0FB
:1011100081D875D87FD880D97DD8A9D97BD81FD957
:101120000D01002BD8D71200E926000EEA2212008A
:1011300036CDE9FF37CDEAFF120009CDE9FF0ACD30
:10114000EAFF1200EECF04F4EDCF05F479EC2CF0B9
:10115000F3CF10F0F4CF11F007EF0AF081C2E9FFEE
:1011600082C2EAFF1200280DF3CFE9FFF4CFEAFFB5
:10117000000EE926010EEA22120008CDE9FF09CD92
:10118000EAFF12004FC2E9FF50C2EAFF1200EE521E
:10119000E9CF10F0EACF11F0E9CFE6FFEACFE6FFA2
:1011A000F5EC30F0126E060EE15E120006C0EEFFA6
:1011B00068D100CCE9FF01CCEAFF120026CDE9FF9F
:1011C00027CDEAFF1200EECF06F4EECF07F4EECF04
:1011D00008F4EFCF09F47EEC2CF006C010F03DD9F6
:1011E00007EF0AF0EF2AEECF26FDEF22EECF27FD24
:1011F000EF22EECF28FDEF22EFCF29FD12000F0ED8
:10120000EB5003016E6F30EF1AF001CDE9FF02CD14
:10121000EAFF120001CDE9FF02CDEAFF1200EECF96
:101220005BF2EECF5CF2EECF5DF2EFCF5EF212003A
:1012300000CCE9FF01CCEAFF1200BBCDE9FFBCCD39
:10124000EAFF1200EE52E9CF51F2EACF52F21EEF5E
:1012500001F0EECF57F2EECF58F2EECF59F2EFCFCA
:101260005AF21200EECF26FDEECF27FDEECF28FD7D
:10127000EFCF29FD1200EECF10F0EFCF11F01200EA
:101280000301606F616B60C25FF3F9EF18F08BCD03
:10129000E9FF8CCDEAFF12000201616B626B020173
:1012A000606912000F0EEB50FF08120005EC37F0DA
:1012B00006C010F02DEF0AF011C0EBFF07EF0AF0A7
:1012C0002C0EEE6E010EEE6EEE6AEE6A1200030157
:1012D000010E626FA5EC19F000091200EECF55F275
:1012E000EDCF56F21200EECF53F2EDCF54F21200D2
:1012F000280DF3CF26FDF4CF27FD000E2627010E83
:10130000272312000D010C51F00BE842E842E8429D
:10131000E842040DF350120010C0EEFFB2D00F0EE1
:10132000EB5003015F6FF9EF18F0EECF12F0EFCF43
:1013300013F01250101812000D0E10C0EBFF0E0E1D
:1013400011C0EBFF1200140E10C0EBFF150E11C000
:10135000EBFF1200EE6AEE6AEE6AEE6A1200100E01
:10136000EB6A110EEB6A1200EE2AEE22EE22EE225A
:1013700012007AC2E9FF7BC2EAFF1200EFDE0D0E17
:10138000D3DEEF501200270E94EF08F083C214F062
:1013900084C215F0166A176AE1DE040EA8D8142478
:1013A000106EEE501520116EEE501620126EEE509B
:1013B0001720136E102A000E11221222132271D848
:1013C0008CEF09F09FD8EFCF2AFDEE2AEFCF2BFD4F
:1013D000EE22EFCF2CFDEE22EFCF2DFDEF2251EFCD
:1013E0000AF090D8EECF2AFDEECF2BFDEECF2CFDEC
:1013F000EFCF2DFDAEEF08F054D826CDEEFF27CD70
:10140000EEFF28CDEEFF29CDEEFF98EF08F04BC29E
:10141000E9FF4CC2EAFF12000F0E86DEEF681200F1
:101420009DDE0E0E61D884DEA3EF09F01A0E7CDE7D
:101430000FEF09F00D0E78DE6EEF09F00B0E74DE83
:1014400073EF09F07ADE1E0EEB50030812000D0157
:10145000100E386F26D8F2EF08F007C011F008C060
:1014600012F009C013F012005FDED6EF08F0230E71
:101470005BDE60EF09F081DE68EF0AF055DEA2EF77
:1014800008F011C0EEFF12C0EEFF13C0EEFF120015
:10149000060E94EF08F028D8B9EF09F028D8ED101F
:1014A000120046DE1A0E94EF08F035D8EF8640DEC3
:1014B000120E83C2EBFF130E84C2EBFF2CD8EF8415
:1014C000120061DFEF50120039EC1AF0BEEF09F0A4
:1014D000160E94EF08F09EDEC3EF09F029DEEF5000
:1014E000120093DEC3EF09F01FDE3BEF09F01CDEB4
:1014F000EE50120000CDE9FF01CDEAFF12001DDE23
:1015000061EF0AF015DE68EF0AF03CDEC3EF09F088
:101510000FDE61EF0AF00CDEC3EF09F02FDF100BD6
:021520001200B7
:0E152200D8CFE4FFE0CFE4FFE46EDACFE4FFC1
:10153000E2CFDAFFE9CFE4FFEACFE4FFF6CFE4FF42
:10154000F7CFE4FFF5CFE4FFF3CFE4FFF4CFE4FF00
:10155000FACFE4FF00EE00F0100EE80403E3EECF54
:10156000E4FFFBD700EE10F0100EE80403E3EECF2B
:10157000E4FFFBD7E6520EEC37F0E55200EE1FF029
:10158000100EE80403E3E5CFEDFFFBD700EE0FF00C
:10159000100EE80403E3E5CFEDFFFBD7E5CFFAFF3C
:1015A000E5CFF4FFE5CFF3FFE5CFF5FFE5CFF7FF9C
:1015B000E5CFF6FFE5CFEAFFE5CFE9FFE5CFDAFFBC
:1015C000E550E5CFE0FFE5CFD8FF10000D01016B3E
:1015D00093C202FD94C203FD93C2E9FF94C2EAFFE5
:1015E000EFCF00FDEF5023E02E0E0D01005D13E163
:1015F000020193C2E9FF94C2EAFF932B000E9423E9
:10160000EF6A32EC10F0012B92EC10F093C202FD65
:1016100094C203FD07D0300E005D03E3005139088A
:1016200001E2000C0201932B000E9423D5D732EC7B
:1016300010F092EC10F0030E0D01015D01E0000CC2
:10164000010CF0EC10F0EEEC0FF0010EE926000EAC
:10165000EA22EEEC0FF0020EE926000EEA22EEEC92
:101660000FF0030EE926000EEA22EF50E66EE66A5E
:10167000E5EF10F00F017A6B8DEC2AF00F01010EEF
:101680007A6F8DEC2AF0320E106E4C0ED1EC10F009
:101690002E0E106E4C0EF9EC10F0540EE66E0F0E7E
:1016A00054EC10F0640EE66E0F0E5EEF10F078EC66
:1016B0002AF00A0E0201325D32E20201610E996FD8
:1016C0000F0E9CEC10F00FEC11F006C000FD07C0EF
:1016D00001FD08C002FD09C003FD43EC10F0040E3B
:1016E000BE6F0D0EBF6FF7EC11F06FEC2DF000091F
:1016F00006E11F0E106E4C0ED1EC10F014D0030159
:10170000070ECC6F0301510ECA6F0F0ECB6F030192
:10171000040EC86F0D0EC96FEBEC12F004D01E0E54
:10172000325D04E2A7DF0201322B01D0326B54EFAD
:101730002AF00C01016B0F0E86EC10F0EF6A9BC2D1
:10174000E6FF9CC2E6FFD2EC31F0E552E5520F0E07
:101750000C01015D13E2015186EC10F0EF500BE13A
:101760000F0E0C01015D0AE20151012B86EC10F015
:10177000200EEF6EF5D70C01012BE9D712000D01F9
:10178000000E016F020E026F0101F36BF46B010199
:10179000A00EF26F0AEC32F00101550EF86F6DECFD
:1017A00032F00D01006B0051B1EC10F00EE201CDF2
:1017B000E9FF02CDEAFF012B000E0223EFCFF8F183
:1017C0006DEC32F00D01002BEED781EF32F00D0100
:1017D000866B006B2CEC2FF0F3CF84FDF4CF85FDEE
:1017E00070EC10F005EC37F006C08BFD07C08CFDE7
:1017F00008C08DFD09C08EFD870EE96E0D0EEA6EE4
:10180000EE500D01065C106EEE500758116EEE5052
:101810000858126EEE507BEC10F00CE370EC10F0F8
:10182000E9EC35F00009FCE10401150E236F00EC32
:1018300036F08974F5EC35F00009D4E00D018651DD
:1018400001E07FD0F5EC35F00009F8E08974FEEC9A
:1018500035F00D01016F0051030A2DE0010A28E067
:10186000030A21E0010502E1010E23D0040E015D0F
:1018700010E1898415EC2FF0E9EC35F00009FCE16A
:101880000401060E236F00EC36F00D01010E866F89
:10189000D5D7E9EC35F00009FCE10401150E236F02
:1018A00000EC36F0CBD7060E036F026B020E01D0B0
:1018B000030E006FC3D70251022BEA6A040FE96ED0
:1018C0000D0EEA2201CDEFFF0251106E116A1134A4
:1018D000B5E210508008000E1154B0E284CDFEF045
:1018E00085CDFFF08FEC2FF00D01060E036F016B1D
:1018F0000151106E116AD890115004E6800E105CF0
:10190000000E11580DE20151EA6A040FE96E0D0E46
:10191000EA22EFCFF9F032EC2FF00D01012BE8D7DE
:1019200054EC2FF0F3CF84FDF4CF85FDE9EC35F0D6
:101930000009FCE103CD23F400EC36F00D01006B4F
:101940007DD7010CF5EC35F0000965E181BA62D074
:1019500005EC37F006C001FD07C002FD08C003FD1D
:1019600009C004FD81BA56D005EC37F00D010151D4
:10197000065C106E0D0102510758116E0D010351E6
:101980000858126E0D0104510958136ED880900E3C
:101990001054010E1154000E1254000E135439E26B
:1019A0000101F36BF46B0101A00EF26F0AEC32F04F
:1019B0000101F86B6DEC32F081EC32F00401D80ECD
:1019C000296F4A0E2A6F04012B6B32EC36F089889E
:1019D0008986898405EC37F00D010151065C106E93
:1019E0000D0102510758116E0D0103510858126E76
:1019F0000D0104510958136ED880200E1054030EA7
:101A00001154000E1254000E135401E3E3D7FF00EB
:101A100001D0A8D797D7FEEC35F00D01006F300E3E
:101A20000D01005D08E33A0E0D01005D04E20D01B9
:101A3000005103D002D03A0E00D0120085DB300EE8
:101A400002019D5DE96EEA6AD890E936EA36330E06
:101A5000E926020EEA22EECF29F4EFCF2AF40401A0
:101A60002B6B32EC36F002019D51300A01E1A0D01F
:101A7000090A01E19BD0010A01E195D00F0A01E1B9
:101A80008FD0010A52E0030A4BE0010A44E0070A42
:101A90003DE0010A21E0030A01E012007DDB17C2EC
:101AA000E6FF18C2E6FF91DB04018F0E276F0D0ED3
:101AB000CFDA140E0DDB000901E17BD06DDB75EC94
:101AC00023F0E552E552F3CF17F2F4CF18F2F4CF3A
:101AD00008F2F3CF09F212000401210E276F020E63
:101AE000B7DA100EF5DA0D018F5163E0100EE66ED5
:101AF000E66A52DB210EE66E020EE66EF5EC30F081
:101B0000106E060EE15E1050AAEF10F00D01000EEF
:101B1000BB6F020E0ED00D010E0EBB6F020E09D070
:101B20000D010A0EBB6F020E04D00D01120EBB6F29
:101B3000020EBC6F0201A30E996F0D0E9A6FBBCD02
:101B400097F2BCCD98F27DDD0401A30E276F0D0E38
:101B50007FDA140EBDDA0201B70E956F0D0E966F87
:101B600002018F0E936F0D0E946F30DD00090BE1B3
:101B70000401870E296F670E2FDBF5EC35F00009A5
:101B8000FCE0FEEF35F0BBCDE9FFBCCDEAFFB7CD01
:101B9000EEFFB8CDEEFFB9CDEEFFBACDEEFF1200ED
:101BA000020116811200020116911200E7EF0BF0FC
:101BB000E6DD12000401300E296F660E0DDBC2DE79
:101BC0000C01006F3A0E005D03E000CC9DF236DFA1
:101BD000300E0C01005DEEE112009EC2E9FF9FC2D3
:101BE000EAFFC6DA0C01006FE85012E1020E0201B2
:101BF000EA6A9E25E96E9F51EA22BADA0C01016F6A
:101C0000E850010A04E0010A03E1897601D08974F1
:101C10000A0EE66EE66ACD0E106E670E04DA9EC2FC
:101C2000E9FF9FC2EAFFEECFE6FFEFCFE6FFBFEF8F
:101C300010F00201A151220A01E18ED0010A01E156
:101C40008BD0020A01E17CD0010A6EE0370A60E025
:101C5000010A52E0190A44E0010A3DE0030A37E0B4
:101C6000090A31E0110A2BE0010A25E0070A1FE00A
:101C7000010A19E0030A13E0010A0DE0110A07E066
:101C8000010A01E0ADD08950100B2DE127D0895019
:101C9000080B24E028D08950040B20E024D0895080
:101CA000040B1CE020D08950040B18E01CD0895094
:101CB000040B14E018D08950040B10E014D08950A4
:101CC000040B0CE010D08150200B08E00CD08150A8
:101CD000020B04E008D08150020B05E1300E06D063
:101CE0008150020B02E0310E01D0300EA4C2E9FF98
:101CF000A5C2EAFFEF6E74D0A251A31104E1CD0E8C
:101D0000106E4A0E54DA86D96BE09DD964E168D032
:101D1000A251A31104E1B80E106E4A0E48DA7AD926
:101D20005FE091D958E15CD0A251A31104E1A60E65
:101D3000E66E020EB9D96ED953E085D94CE150D088
:101D4000A251A31104E1A60EE66E020EB7D962D924
:101D500047E079D940E144D0A251A31138E16FECBA
:101D60002DF000090DE1220E0201A15D04E1AF0E8C
:101D7000106E4A0E03D0A90E106E4A0E18DA27D044
:101D80000FEC11F006C093FD07C094FD08C095FD4F
:101D900009C096FD78D9970EBE6F0D0EBF6FF7EC98
:101DA00011F0220E0201A15D03E10301030E02D036
:101DB0000301060ECC6F0301A60ECA6F020ECB6F95
:101DC0000301970EC86F0D0EC96FEBEC12F022D90C
:101DD00007E039D905E0A2C2F3FFA3C2F4FF120065
:101DE000F368F4681200896A030E926E200E8A6E00
:101DF000936EE00E8B6E840E946E8C6A956A030E61
:101E00008D6E966A200EAC6E900EAB6EAC843E0E5C
:101E1000AF6E010EC26E0D0EC16EF19ED08EF28EAF
:101E2000F28C1200020116910D01000E046F020ED9
:101E3000056F0101F66BAAD98BEC32F00D01036F2F
:101E400094EC32F0550E0D01035D1BE1010E010112
:101E5000F66F9CD90D01036B035183D910E28BEC13
:101E600032F0E66E0D0104CDE9FF05CDEAFF042B4B
:101E7000000E0523E552E750EF6E032BEDD794EFEC
:101E800032F0BFEF0BF00D01BD6BADDFC3EC2AF0FC
:101E9000320E04013F6F406BB3EC37F00F01EC0ED4
:101EA0007C6F650E7D6F0F01010E37D9F40E7C6FCC
:101EB000650E7D6F0F01020E30D9FC0E7C6F650E32
:101EC0007D6F0F01030E29D9040E7C6F660E7D6FA6
:101ED0000F01040E22D90C0E7C6F660E7D6F0F0170
:101EE000050E1BD9140E7C6F660E7D6F0F01060E5A
:101EF0007B6FA2EC2AF0980E106E4A0E52D98C0E0F
:101F0000106E4A0E76D954EC2AF0FA0E04013F6F97
:101F1000406BB3EC37F00301800EB66F0B0EB76F5A
:101F20002B0EB86F0D0EB96F06EC11F0F7EC36F012
:101F30009BEC2EF0100EE66EE66A820E106E4A0ED4
:101F400072D8210EE66E020EE66E19D903D96ADF49
:101F500081AA30DEF6EC33F0F5EC17F053EC21F00B
:101F600005EC37F002014751065C106E48510758E6
:101F7000116E49510858126E4A51BDD80DE305EC57
:101F800037F006C047F207C048F208C049F209C05E
:101F90004AF2897857EC0BF000EC34F0E9EC17F0DA
:101FA00084EC20F07BEC2BF0FF0E0201315DD8E0D9
:101FB000316904011C0E296F660E0ED90201CC0E88
:101FC000996F0D0EB9D80401CC0E276F0D0E286F36
:101FD0001DEC36F0B9D806EC2BF0C2D7EF50E66E08
:101FE000E66AF3D899C2E6FF9AC2E6FF96EC31F0B2
:101FF000E552E552F35002019927F4509A2399C211
:10200000E9FF9AC2EAFF992B000E9A232E0EEF6E7B
:10201000F0EF10F00201D1D8A4C2E9FFA5C2EAFF97
:10202000EF6EDDEF10F0116E126A10C0E6FFE66E83
:1020300012C0E6FF1200E66E7DEC31F0136E050E65
:10204000E15E13501200A22B000EA323DDEF10F06F
:10205000286F1DEC36F00401D40E296F4A0EBCD84F
:102060000401120002CDE6FF03CDE6FF75EC23F07C
:10207000E552E552F350E66E95C210F096C211F0AB
:102080000D01015112000301B00EC46FB90EC56FEE
:10209000C669C76906C0C0F307C0C1F308C0C2F370
:1020A00009C0C3F303011200E66E32C4E6FF33C475
:1020B000E6FF34C4E6FF35C4E6FFA1D0E66E2EC4C9
:1020C000E6FF2FC4E6FF30C4E6FF31C4E6FF97D039
:1020D000226F04018F0E206F0D0E216FC2EF35F0BD
:1020E00005EC37F006C087FD07C088FD08C089FDF4
:1020F00009C08AFD12000958136E320E105C000EE2
:102100001158000E1258000E135812000201EA6A0C
:102110009B25E96E9C51EA2212007B6FA2EC2AF00B
:102120000F0112000F011024E96E000E1120EA6E5B
:10213000E552E750EF6E12009A6F0201000E976FA2
:10214000020E986F21EF0BF004012D0E296F660E21
:10215000ECEF10F00201210E9B6F020E9C6F99EFC5
:102160000BF0106E116A310E105C000E1158120047
:10217000EE50EFCFEAFFE96EEF50D00F120020ECE7
:1021800031F0136E070EE15E13501200F76B010180
:10219000A00EF56F40EF32F08F0EE66E0D0EE66E7C
:1021A000120041DF510EE66E0F0E1BEF10F03BDF09
:1021B000A60EE66E020E1BEF10F0A251EA6AA60F01
:1021C000E96E020EEA22EF501200EAEC23F0E5522B
:1021D000E552E552E55212002A6F2B6B32EF36F0D2
:1021E00099C2E6FF9AC2E6FF97C2E9FF98C2EAFFEA
:1021F000120019DF610EE66E0F0E1BEF10F084EC7B
:0C22000024F0106E060EE15E105012007B
:04220C00B6C326F33C
:10221000B7C327F3B8C328F3B9C329F3120026C301
:1022200006F027C307F028C308F029C309F01200FD
:10223000BAC310F0BBC311F0040E0D6E0E6A50DB72
:1022400004C010F005C011F0045005101FE1BAC31E
:1022500012F0BBC313F0640E0D6E0E6A41DB04C0B6
:1022600012F005C013F00450051012E1BAC314F0C7
:10227000BBC315F0900E0D6E010E0E6E31DB04C067
:1022800014F005C015F00450051002E0000E01D056
:10229000010E0C01006FE850106E116AF36E11C050
:1022A000F4FF12000D01006B016B026B036BD00E8B
:1022B000046F070E056F2EDBEECF10F0EFCF11F09D
:1022C00005511118E8AE02D0113404D01050045D4D
:1022D0001150055920E204CDBAF305CDBBF3A8DFB8
:1022E00030DB02E06E0E01D06D0E106E010E116E2D
:1022F000126A136A11AE02D01268136810500D01F1
:102300000027115001231250022313500323042BE2
:10231000000E0523D0D7046B056B55DB040EEB5084
:1023200005AF02D0D89003D0045D000E05592CE211
:10233000F1DAEECFBAF3EDCFBBF37ADFF3CF11F0E2
:10234000F4CF12F00C0E1202F3CF12F01102F3CF01
:1023500011F0F45012262A0E11266F0E122211507F
:102360000D010425F66E12500521F76E0800F5CF19
:1023700010F0000110500D010027000E0123022370
:102380000323042B0523C9D71EDB030EEB5064DAAD
:10239000036F0007000E015B025B035B19DBD8DAF9
:1023A00003CD09F039EC37F002C000FD03C001FD98
:1023B00004C002FD05C003FD06DB020EEB50066EF5
:1023C000076A086A096A100E0B6E0E0E0C6E1BDA95
:1023D000010EEB50066E076A086A096A3C0E0B6E26
:1023E0000C6A11DAEF5038DAB3DA096E1200030121
:1023F000C451C027C551C123C651C223C751C323ED
:10240000C0C385FDC1C386FDC2C387FDC3C388FDAC
:1024100037DA06C085FD07C086FD08C087FD09C004
:1024200088FDC0C389FDC1C38AFDC2C38BFDC3C380
:102430008CFD26DA30DADBDA74EC36F00650E66E24
:102440003BDA020E8CDAD3DA6BDA74EC36F023DA8C
:102450003C0E4CDA0650E66E2FDAEE52E552E750AB
:10246000EF6E5EDA3C0ECADAE552E750EF6E85CDCC
:1024700006F086CD07F087CD08F088CD09F0060E6E
:102480000626000E072208220922070EB7DA070ED9
:1024900066DA0D01D00E8D6F070E8E6F2DDAF3CF39
:1024A00010F0F4CF11F0F350F41003E00D016E0EB4
:1024B00002D00D016D0E896F010E8A6F8B6B8C6BD4
:1024C0008AAF02D08B698C69850EE96E0D0EEA6EBB
:1024D000030EEB508C19E8AE02D08C3508D0895130
:1024E000EE5C8A51EE588B51EE588C51EE580CE34D
:1024F0008D2B000E8E238951855F8A51865B8B510F
:10250000875B8C51885BCAD7800E88151CE08D07CD
:10251000000E8E5BF1D915DA02E06E0E01D06D0E61
:10252000106E010E116E126A136A11AE02D012689B
:10253000136810500D0185271150862312508723F0
:1025400013508823E1D7B8D9050E8DCDEBFF060EC9
:102550008ECDEBFFB1D9080E85CDEBFF090E86CDF0
:10256000EBFFCAD9F3CF8DFDF4CF8EFD0D018F6B3C
:10257000906B2BD988511318E8AE02D0133408D0D1
:102580001050855D11508659125087591350885943
:102590000CE31BD91050855F1150865B1250875B8E
:1025A0001350885B8F2B9023E4D786D9040E8FCDF0
:1025B000EBFF85CD10F086CD11F087CD12F088CDE0
:1025C00013F0102A000E11221222132275D9030EC5
:1025D00010C0EBFF12000D01856B866B040E865D4B
:1025E00001E3C6D023D903E10D018507C1D01ED96F
:1025F000060A01E19FD0030A52E0010A4CE0070AF3
:1026000028E0010A0BE0030A01E0ACD092D9070EE2
:10261000ADD9180EE926030EB9D8A2D08AD9040E76
:10262000A5D9000EE926030EB1D80D0185278551E5
:10263000852BB2D9200E66D9852B9DD8030EE8D9FB
:10264000A2D9030EEB50090801E38CD00D01852BB4
:1026500089D05CD904E291D9020EDAD903D098D995
:10266000020EA1D98BD836D904E287D9010ED0D970
:1026700003D08ED9010E97D981D83A0EEF6E83D947
:10268000EF50106E0A0E105C03E277D9EF5061D064
:102690007FD9EF5063D07CD914D9040E61D073D99F
:1026A000040EEB50106E090E105C06E266D9040EA3
:1026B000EB50010F68D808D06BD9040EEB50010F16
:1026C00062D8020E0D01852759D82F0EEF6E5BD907
:1026D000030E99D904E251D9030E9AD903D058D9DF
:1026E000030E61D94BD82F0E0DD945D8EAD8020E6A
:1026F000E66EE66A0D0185255BD90D018551030162
:10270000136ACA25126ECB51132212C0E6FF13C002
:10271000E6FFF5EC30F0146E060EE15E020E0D01E0
:1027200085270CD9200EEF6E0D01852935D9200E95
:10273000EF6E18D0EBD804E220D9020E69D903D08D
:1027400027D9020E30D91AD8C5D805E216D9010EFC
:10275000EB5019D807D01CD9010EEB5014D8020E3B
:102760000D0185270BD8200EEF6E0D01862B36D775
:10277000E5D8EF6A12001CD9C3EF14F00D018551A2
:10278000852BCCEF14F0E66EE66A2AD1EA22EECF72
:1027900010F0EFCF11F0126A10C0E6FF11C0E6FF93
:1027A00012C0E6FF0D0185510301146ACA25136E9C
:1027B000CB51142213C0E6FF14C0E6FF20EC31F029
:1027C000156E070EE15E030E12008DCD14F08ECD56
:1027D00015F00C0E1502F3CF15F01402F3CF14F020
:1027E000F45015262A0E14266F0E152214508F252C
:1027F000F66E15509021F76E0800F5CF10F0116AB3
:10280000126A136A12000D6A0E6A39EC37F00D0174
:1028100000510224006F01510320016F0251042076
:10282000026F03510520036FE3EF14F00301CC5155
:10283000040DF3CF10F0F4CF11F0420E10266F0EFE
:1028400011220D0186510F011024F66E000E112089
:10285000F76E0800F5501200106E116A126A136AC2
:10286000000EE96E0D0EEA6EEE501024006FEE5071
:102870001120016FEE501220026FEE501320120053
:10288000A7D8C0C306F0C1C307F0C2C308F0C3C3D2
:1028900009F071EF37F002C089FD03C08AFD04C062
:1028A0008BFD05C08CFD02C006F003C007F004C01C
:1028B00008F005C009F01200BEC3E9FFBFC3EAFF7C
:1028C0001200050EE926000EEA22EECFE6FFEFCF5A
:1028D000E6FF86D03A0EEF6E56D8010E03EF15F0E4
:1028E000BAC308F0BBC309F04EEF36F00B6E0C6AAA
:1028F0000D6A0E6A74EF36F08DCDBAF38ECDBBF350
:1029000018EF11F0EF6E0D01855112003CD8020E48
:1029100003EF15F058D8050EE926000EEA22120042
:1029200089CD06F08ACD07F08BCD08F08CCD09F06B
:102930001200030EE66EE66AC3EF14F08551CCEF89
:1029400014F0F3CF14F0F4CF15F0F350F41012009C
:1029500000CD06F001CD07F002CD08F01200E92607
:10296000000EEA22E552E750EF6E1200EB50E96EDE
:10297000EA6AD890E936EA36120000DF300EC2DF8C
:10298000852BBBEF13F0C8C3E9FFC9C3EAFF1200F0
:102990000D018551BBEF13F00301EA6ACA25E96E08
:1029A000CB51EA22120034D8020E0D018527120005
:1029B0000301116ACA25106ECB51112210C0E6FF27
:1029C00011C0E6FF1200BCC3E9FFBDC3EAFF12005D
:1029D000800E0B6E510E0C6E010E0D6E0E6A120003
:1029E000EAEC23F0E552E552E552E5521200100EF2
:1029F0000B6E0E0E0C6E0D6A0E6A120077DF02501F
:102A0000E66E5CEF14F0EB50106E0A0E105C1200D4
:062A1000EB50C3EF13F0D0
:0A2A160006DBEE52EECFFCF0EDCF30
:102A2000FDF07BEC2FF0FEDA070EEB50000901E120
:102A300077D0F8DA05DB01E185D00D01B76BF2DA6A
:102A4000040EEB50080804E038DB02E1F31D6FE0F0
:102A5000E9DA040EEB50080A34E00E0A1AE0030A21
:102A60000CE0060A58E1250E0D01B85D03E15DDBBF
:102A7000050E50D0010EB76F4ED0250E0D01B85D7A
:102A800003E1010EB76F44D0B8CDBAFD4EDB060EA0
:102A900041D0B8CDB9FDB8CD00F4BACD01F441ECC8
:102AA0002CF0E66EBFDA080EC2DAE552E750EF6EA0
:102AB0003CDB080EEF6EB6DA050EEB6A060EEB6A2B
:102AC0002AD00201B80EA46F0D0EA56FABDA050E69
:102AD000AEDAEECFA2F2EDCFA3F2A4DA080EEB50FD
:102AE0000201A16F19EC0EF004DB9CDA050EF3CFA6
:102AF000EBFF060E11C0EBFF0D01010EB76F92DA6E
:102B0000050E95DAFF0EEE1806E1FF0EED1803E153
:102B10000CDB030EEF6E0D01B7518BE010DB89D794
:102B200081DA8EDA0FE0C9DA0BE1F31D09E18CECF2
:102B30002FF078DAEF500201696FEBEC02F0010C34
:102B4000FEDAEED78CEC2FF0D4DA6CDABDDA000CBA
:102B50000D01866B876B886B856B030EE66EE66AEC
:102B6000760E106E6B0EA1DA4AC3E6FF4BC3E6FF8A
:102B700094DA08E1040E03014A27000E4B230D01ED
:102B80008A6B01D0020C6CDAEF50200802E1B6DA51
:102B9000FAD7E5DA200E0D01895D5EE089515CE02F
:102BA0000D0E895D59E00A0E895D56E04EC3E9FFBE
:102BB0004FC3EAFFEF50855D4FE28651020A15E0F0
:102BC000030A0DE0010A46E18551BEDAC8DA2F0E8C
:102BD0000D01895D28E05C0E895D3CE124D08551C2
:102BE000852BB2DA0D01020E866FB9DA3F0E895DD0
:102BF00018E0260E895D15E02B0E895D04E1200E9C
:102C00002FDAEF6E27D02E0E895D08E1850506E1EB
:102C100075DA4AC387FD4BC388FD1CD03D0E895D24
:102C200005E11EDAEF6A010E866F14D02F0E895D62
:102C300003E05C0E895D0EE1010E0301116A4A2575
:102C4000106E4B5111220D01850501DA10C0EEFF07
:102C500011C0EDFF53DA9DD703DAEF6A090E53DA9C
:102C6000EF6E8751881139E087CDE6FF88CDE6FF0A
:102C7000D2EC31F0E552E552F3CF87FDF4CF88FD79
:102C80000D01DC0E8B6F690E8C6F896B8951106E94
:102C9000116A0A0E105C000E11581FE2030EE66E58
:102CA000E66A8BCD10F08CCD11F0126A8BCDE6FF69
:102CB0008CCDE6FF12C0E6FF87CDE6FF88CDE6FFAC
:102CC000ECD904E120DA89CDEFFF07D0040E0D0125
:102CD0008B27000E8C23892BD9D70D01855125E137
:102CE000090EE66EE66A7A0E106E6B0EDED94CC3E4
:102CF000E9FF4DC3EAFFEECFE6FFEFCFE6FF20ECA2
:102D000031F0136E070EE15E13504CC3E9FF4DC363
:102D1000EAFFEE50EFCFEAFFE96E090E88D9EF6ABD
:102D2000010EF1D9EF6E0D01852B4EC3E9FF4FC3A4
:102D3000EAFF85CDEFFF8A511200030152510A0DBF
:102D4000F3CF81FDF4CF82FD2A0E0D018127030E02
:102D50008223806B62D9BFD903E1E3D9EF6A120005
:102D60005CD9030EEB50090A01E120D1080A01E108
:102D70000DD10A0A01E1A9D0090A01E188D0020AAD
:102D800001E022D14AD9AED901E11ED10D01010ED7
:102D9000806F7E6B7F6B0D01640E7E5D000E7F5930
:102DA00014E27ECD77F27FCD78F27E2B000E7F236A
:102DB000000E020177270D0E78232FD9EF50020164
:102DC000766F6EEC04F00009E6E1000E0D017E2541
:102DD000E96E0D0E7F21EA6EEF6AABD9A2D9020E21
:102DE000EF6E0D010B0E7B6F18D9090E20D9E9CFBC
:102DF00050F3EACF51F303017B0E4E6F0D0E4F6F70
:102E00000301650E4C6F0D0E4D6F0301000E4A6FEE
:102E10000D0E4B6F9DDE0D017D6FE85001E0D4D0AB
:102E20007B5101080EE27BCDA0F20201650E9E6F80
:102E30000D0E9F6FEDEC0DF0F0D8090EF8D8020ED4
:102E4000EF6E65CDF7F066CDF8F0A4EC2EF051D919
:102E5000E4D83AD9E2D8EE52FF0EEE1808E1FF0EA0
:102E6000ED1805E1DAD8080EE2D8EF6A0AD0D5D815
:102E7000EE52EE50ED1008E1D0D8080ED8D8010E71
:102E8000EF6E4FD9020E9FD04CD90B0E9CD06BD950
:102E900001E19AD0C2D8080EEB50E96EEA6AD890E8
:102EA000E936EA363B0EE926040EEA22EECF83FD30
:102EB000EDCF84FDDAD802E04DD9FCD7AED8EF5083
:102EC0000201696FEBEC02F06ED04DD901E17CD0CC
:102ED0000D01010E806FA1D8090EEB50020815E11B
:102EE0009CD8070EA4D8010EEF6E7C6B7C51106E3F
:102EF000116A840E105C000E11581BE27C51F76AB7
:102F0000EC0FF66E6A0E04D9F1D787D8070E8FD86A
:102F1000EF6A7C6B7C51106E116A1F0E105C000E04
:102F2000115807E27C51F76ACC0FF66E6A0EF0D8A2
:102F3000F1D773D8090EEB50140DF3CFF6FFF4CF91
:102F4000F7FF040EF6266A0EF722F6CF83FDF7CFC1
:102F500084FD8BD802E0FED8FCD77C6B7C51106ED0
:102F6000116A040E105C000E115807E27C51F76ADA
:102F7000710FF66E6B0ECCD8F1D74FD8040E57D820
:102F8000030EEF6E4AD853D8010E1DD046D8AAD8EA
:102F900001E0CFD881CD48F382CD49F33CDD000973
:102FA00013E015EC2FF0BDD8090E0DD036D893D80C
:102FB0000BE0D9D809E031D8EF500201686FA6ECD8
:102FC00002F0AFD80A0EEF6E0D01805101E0C1D6BC
:102FD00012000C01066B030E065D06E206CC52F3EE
:102FE000ACDE0C01062BF7D712000C01006B030EB0
:102FF000005D12E2500E02014D6F4E6B95EC00F039
:10300000E66E0C013FD8E552E750EF6E3BD8030E59
:103010000ED8EF6A002BEBD7120081CDE9FF82CDED
:10302000EAFF120048C3E9FF49C3EAFF1200E9269C
:10303000000EEA221200EF5002016B6F67EF03F0FF
:10304000EF5002016A6F48EC03F000091200020D14
:1030500003014C51F324E96E4D51F420EA6E120045
:103060004AC3E9FF4BC3EAFF12000D0183CDF6FF0F
:1030700084CDF7FF832B000E84230800F5CF7CFD61
:10308000F550120000510A0DF3CFE9FFF4CFEAFF2B
:103090002A0EE926030EEA221200D6EC30F0136E57
:1030A000070EE15E135000091200116E126A10C083
:1030B000E6FFE66E12C0E6FF12001CEC2FF00D01D9
:1030C000B86F0001F21D1200010EF3CFEBFF020EEC
:1030D00011C0EBFF1200EF500201676F9DEC02F090
:1030E00000091200EF500201796FAFEC04F0000903
:1030F0001200F3CF10F0F4CF11F0120003014A2BAD
:10310000000E4B23120050C3E9FF51C3EAFF120027
:10311000F7220800F5CF6CF280DF8DDF0D017C2BEC
:1031200012007BDF030E17EF18F07CDF040E17EFA1
:1031300018F073DFEF5002016D6FC2EF03F0B8CDEE
:103140006CF270DF1BEF18F082DF4AC3EEFF4BC357
:10315000EDFF12007CCD6CF260DF1BEF18F080DF1A
:0C316000EFCF89FD120059DF20EF18F0BE
:04316C0095688A6A6E
:10317000F19E8D828D808D84040EE66EF1EC37F029
:10318000E5528D94120058C38AFF59C383FF956A94
:103190008D928D829568120095685AC38AFF8D9032
:1031A00083CF02FC8D800C01025112005BC302FC34
:1031B0005CC303FCEDDA02CC59F30301080E9BDA81
:1031C00003CC59F30301090E7BEF1BF056C301FC3E
:1031D0000C01120E006F03015D510C010027030169
:1031E0005E510C01012300CC5BF301CC5CF3D6EF04
:1031F00018F05FC357F3D0DAEFCF05FC0C010E0EC9
:10320000046F030160510C010427030161510C019B
:10321000052304CC5BF305CC5CF3D6EF18F0030177
:10322000090E9BDA0C01016F0301080E96DAF36EAA
:1032300001CCF4FF12000C01006B00516CDA15E2B6
:103240000051040DF3CF10F0F4CF11F0400E102612
:10325000000E1122005140DA10C0EFFF00513CDA9D
:10326000EE52010EEF6E002BE8D70301576B7EDFA5
:10327000020E44DA03011F0E70DA0301596F0301D5
:103280001F0E39DA020E3ADA3EDA800B5DE00301F6
:10329000210E2CDA020E32DA0301480E596F0301B7
:1032A0000E0E7EDA3FDA040E596F03010C0E67DA58
:1032B00057DA42DA440E596F0301010E60DA5F0EED
:1032C000596F0301020E5BDA5E0E596F54DA3FDA72
:1032D0000F0E55DA610E0ADA04C259F30301010E2A
:1032E0000ADA05C259F30301020E05DA06C259F3E0
:1032F00042DA07C259F30301040EFDD908C259F39B
:103300000301050EF8D909C259F30301060EF3D9DA
:103310000C01006B080E005D0AE203015969080EFA
:103320000C0100250301E7D90C01002BF3D70301A1
:10333000440EFDD90301440E556F0301220ED6D968
:10334000E6D90D0E586F1FDF120003015A6B24DF00
:10335000040B01E0000C010C000C14DA120EC6D9AB
:1033600064C359F30301100E7BEF1BF0010E030140
:103370006715106E116A675110240C01026F03016A
:10338000685111200C01036F03DA02CC59F30301D9
:103390000A0EB1D903CC59F303010B0EF0D9120E6A
:1033A000596F0301586BEFDE0C0102CC10F003CC17
:1033B00011F00207000E035BD8801054000E115468
:1033C0000EE2030165C3E9FF66C3EAFF652B000E49
:1033D0006623EFCF59F30301100E586FE4D71200A4
:1033E000D1D90A0E83D90301100EADEF1BF06BC3C8
:1033F00000FC6CC301FCCCD900CC59F303010A0ECC
:103400007AD901CC59F303010B0EB9D90A0E6ED942
:1034100003016BC310F06CC311F06B07000E6C5B03
:10342000D8801054000E115410E20301100E95D9EB
:10343000E66E030169C3E9FF6AC3EAFF692B000E68
:103440006A23E552E750EF6EE3D700CCF3FF01CCDF
:10345000F4FF120003016D513FD9EE52EF6A1200E2
:1034600003016E5139D9EE52010EEF6E6EC357F360
:103470001200030155050C01046FE850106E116A2B
:10348000D890115004E6440E105C000E115802E270
:103490005E0E046F58D904CC59F3BBEF1BF066D90C
:1034A0000D01AB6F50D9030156510D01AB5D07E221
:1034B0005F0E0301D88056550D01AB2504D00301E2
:1034C00056510D01AB5DAC6FE850106E116A1B0ECA
:1034D000D8801056000E115610C0ACFD10C0AEFDC5
:1034E000AD6BADCDF3FF10C0F4FF12000301E00E91
:1034F000FDD80301030E31D90C01006F24D90C0152
:103500000051040B01E0000C010C71C3E9FF72C310
:10351000EAFFEF68F8D8100B16E00301210EE6D899
:103520000D01156B0A0E155D05E2140EE7D80D01AD
:10353000152BF8D7ECD8F6D813D905D99ADF07D9C7
:103540000D0ED9D8000C12D90D01126FFCD8030151
:1035500055510D01125D58E055C314FD136B13CD89
:103560005BF355C35CF322DE120E03016B6F6C6BD1
:103570000301000E696F0D0E6A6F39DF0D010051F6
:10358000010B3DE0400E025D000E035938E3EE0EE4
:10359000D8800255050E035532E310CD04F411CD49
:1035A00005F479EC2CF0F3CF10FDF4CF11FD060EED
:1035B000E66EE66A0A0EE66E0D0EE66E6FC3E9FF72
:1035C00070C3EAFF6FC310F070C311F06FC3E6FF62
:1035D00070C3E6FFF5EC30F0126E060EE15E12509D
:1035E000080E0D01115D0BE1105103E0060E105D98
:1035F00006E171C3E9FF72C3EAFF10CDEFFF55C3C7
:1036000056F301CD55F3010C000C03010A0E8FD8BF
:10361000C3D8EFCFACFD0D01AB6BABCD5BF3ACCD45
:103620005CF3C4DD060E0301676F686B73C365F35B
:1036300074C366F39BDE04C264F38FDE05C264F3D9
:103640008CDE06C264F389DE07C264F386DE08C23C
:1036500064F383DE09C264F380DE0301755103E184
:103660000D01AD6B03D00D01060EAD6F0301080E09
:10367000646F73DEADCD64F370DE0E0E030176274A
:10368000000E77233C0E765D000E775903E2400E64
:10369000766F776B76C3ABFD77C3ACFD76C359F31A
:1036A0000301050E28D8ACCD59F30301060E7BEFBC
:1036B0001BF042D8240E1AD80C01026B02512BD8F1
:1036C0000AE2025109D8EE52EF5003E002CC57F360
:1036D0001200022BF3D71200E96EEA6AD890E9369D
:1036E000EA36530EE926030EEA221200596F03014F
:1036F000586BC3EF18F0586FC3EF18F004013F6F19
:10370000406BB3EF37F00301070EADEF1BF0030181
:10371000596B03011200106E116A010E105C000E4D
:10372000115812000A0E3CD80B0EBFEF1BF0596F58
:103730000301070E7BEF1BF02FD8EFCF59F30301E6
:10374000040EBFEF1BF00301200E76EF1BF0030108
:1037500059690301070ED0EF1BF05A6FCCEF18F038
:10376000020E596F03010D0E7BEF1BF00301600E7B
:10377000BDDF83EF1BF00301030E7BEF1BF0BBDF0C
:10378000030112000301010E596F030192EF1BF0B8
:103790000301400E97EF1BF0030157516CEF1BF034
:0637A000AADF87EF1BF019
:0A37A6000D01800E226F000E236F4C
:1037B000216B040E215D44E2BADA0C0EFADAEFCF87
:1037C00011F0126A136A105011101210131032E126
:1037D000AEDA0C0ED9C0EBFF0D0EDAC0EBFF000124
:1037E000DB51DC1111E00A0EE66EE66ADBC0E6FF93
:1037F000DCC0E6FF9CDA22CD10F023CD11F022CD03
:10380000E6FF23CDE6FFB1DA92DA0A0EDDC0EBFF68
:103810000B0EDEC0EBFF8BDA0E0EEB6A0F0EEB6ABF
:1038200086DA100EEB6A110EEB6A21CDD8F00D018D
:1038300021511200160E2227000E2323212BB9D767
:10384000FF0C0001DF515BDA0C0E63DAEE6AED6A01
:10385000DF5155DA060E5DDAEE6AEE6AEE6AEE6A5E
:10386000DF519FDAEF9012000001D851160DF3CF0F
:1038700030FDF4CF31FD800E0D013027000E3123D5
:1038800094DAEE50ED101DE10301010E636FACEC14
:1038900019F0E66E42DA120E3CDAE552E750EF6EAE
:1038A0003CDA120EEB50FF0801E1000C1C0E030184
:1038B000606F616B32DA60DA30DA130EEB6A140E85
:1038C000EB6AE0C064F3ADEC19F027DA130E71DA9D
:1038D000EDCF11F0EE2AEF2268DA3CDA105C1350DB
:1038E000115803E362DAEE2AEF225FDAEECF32FDFF
:1038F000EDCF33FD0D01D60E325D030E335901E3DA
:1039000001D8010C0301010E626FA5EC19F000094A
:10391000F9E00001D851160DF3CF29FDF4CF2AFDAF
:10392000800E0D012927000E2A23FCD90C0EF1D997
:1039300029DAF3CF21FDF4CF22FDF4D90A0EE9D91B
:1039400021DAF3CF23FDF4CF24FDECD90E0EE1D91B
:10395000EECF25FDEFCF26FD080E0D012527000E29
:103960002623276B286B140E0301606F616BDAD975
:1039700003DA25CDF1F326CDF2F30301110EF06F3A
:10398000D1D929CDEEF32ACDEFF3BCEC27F025CD2C
:1039900004F426CD05F479EC2CF0F3CF25FDF4CF1B
:1039A00026FD080E0301676F686B0301210E656F2A
:1039B0000D0E666FB6EC19F059EC1BF0B3D9120E70
:1039C000A8D9EF68AFD90E0EEB6A0F0EEB6A1200A2
:1039D000E1C0D8F0E2D9D880EE54000EED5401E3F6
:1039E000000C010CDAD9EE50ED1001E1000CD851B9
:1039F000D8D9EF50010B05E0D851D3D9EF90080E7C
:103A0000AFD9F0EC19F0E2C0E9FFE3C0EAFFEF6ED6
:103A1000C4D9EE06EF5AD851D0D9EE50ED1002E1DC
:103A200039EC1AF0010CB9D9EE50ED1002E039EC86
:103A30001AF0B3D9EE6AED6A12000D011869800E12
:103A4000196F000E1A6F176B040E175D5CE274D9C4
:103A50000C0E5FD976D9020E5CD97CD910184CE1D6
:103A60001350111849E168D90A0E53D96AD972D98D
:103A7000101840E1135011183DE15ED9100E49D9DC
:103A8000EECF14F0EFCF15F0166A176A1450151028
:103A9000161017102FE1E6C0E9FFE7C0EAFF060E97
:103AA00088D9EECF11F0EECF12F0EFCF13F044D95A
:103AB000060E2FD9EE500001101808E1EE50111833
:103AC00005E1EE50121802E1EE50131810E0E8C0C4
:103AD000E9FFE9C0EAFFE868EE180CE1E868EE18D3
:103AE00009E1E868EE1806E1E868EE1803E10D0167
:103AF0001751120017CD18FD0D01160E1927000ED3
:103B00001A23172BA1D7FF0E185D2AE01851160DA6
:103B1000F3CF19FDF4CF1AFD800E1927000E1A23DA
:103B20000A0EE66EE66AE6C0E6FFE7C0E6FF04D9E5
:103B300019CD10F01ACD11F019CDE6FF1ACDE6FF20
:103B400014D9E4C0E9FFE5C0EAFFEECF10F0EFCFF3
:103B500011F0F2D80A0E10C0EBFF0B0E11C0EBFFF4
:103B60000D0118511200080E03016B6F6C6B0301FD
:103B7000000E696F0D0E6A6FF7EC19F000CD04F4BA
:103B800001CD05F479EC2CF0F3CF00FDF4CF01FD6D
:103B900002CD04F403CD05F479EC2CF0F3CF02FD53
:103BA000F4CF03FD04CD04F405CD05F479EC2CF03D
:103BB000F3CF04FDF4CF05FD0D01080E045F000EE8
:103BC000055B065107116FE006CD04F407CD05F43F
:103BD00079EC2CF0F3CF06FDF4CF07FDEAC0E9FF46
:103BE000EBC0EAFF060E95D8EECF09FDEECF0AFD39
:103BF000EECF0BFDEFCF0CFDCBD8EFCF0DFD010EBF
:103C000088D8EFCF0EFDC4D8020E83D8EFCF0FFDBA
:103C1000BFD8030E7ED8EFCF10FD0D01116B110E32
:103C2000126FEEC013FDEFC014FDEEC004F4EFC040
:103C300005F479EC2CF0F3CF13FDF4CF14FD0C0E4A
:103C400004010C6F0D6B0401090E0A6F0D0E0B6F52
:103C5000ADEC2CF0F3CF15FDF4CF16FD0D01151FC3
:103C6000161F060E7DD815CD64F3ADEC19F0070EC6
:103C700077D816CD64F3ADEC19F00301F36BF46B58
:103C800032EC28F0EEC00EF4EFC00FF423EC2DF070
:103C9000F3CF15FDF4CF16FD0D010651F31816E113
:103CA0000751161913E1ECC0E8F0EDC0E9F0EAC0E5
:103CB000E6F0EBC0E7F00001000EE46F0D0EE56FDB
:103CC000BCDE0D01086FFF0E085D03E139EC1AF050
:103CD000010C085172D804CDEEFF05CDEDFF08515F
:103CE00060D8EF80010C0C01006B040E005D06E251
:103CF00000CCDFF0A6DD0C01002BF7D71200160D6B
:103D0000F3CFE9FFF4CFEAFF800EE926000EEA22A6
:103D10001200E926000EEA22120030CDE9FF31CD73
:103D2000EAFF120029CDE9FF2ACDEAFF120022CDD9
:103D3000E9FF23CDEAFF120019CDE9FF1ACDEAFF12
:103D40001200EECF10F0EFCF11F0E4C0E9FFE5C0B4
:103D5000EAFF1200EECF12F0EFCF13F01250120074
:103D60000301F36FF46B32EF28F0F5EC30F0126ED4
:103D7000060EE15E12501200120EEB5003015F6F4F
:103D8000F9EF18F0EECF04F4EDCF05F479EF2CF055
:103D9000ECC0E9FFEDC0EAFF12000001D851DDEFF1
:103DA0001EF0ADDF150E89EF1EF0B7DF0E0E89EFA6
:103DB0001EF0AFDFEECF10F01200A1DF100E89EF82
:023DC0001EF0F3
:0E3DC200030EE66EE66AF80E106E6F0E9EDAC5
:103DD0004ACFE6FF4BCFE6FF80DA0EE1090EE66E32
:103DE000E66AFC0E106E6F0E91DA4CCFE6FF4DCFF7
:103DF000E6FF73DA01E1010C000C0D010A6B130EF2
:103E0000076F0F0E086F7DDAEF50200804E1072BD3
:103E1000000E0823F8D707CD35FF08CD36FF0F0178
:103E2000010E436F6EDAEFCF09FDEF5033E00D0165
:103E30000A51010A16E0010A29E1200E095D03E09A
:103E40002C0E095D05E15DDAEF6A010E0A6F1ED0E6
:103E50000D0E095D03E00A0E095D18E152DAEF6A02
:103E600015D0200E095D12E00F014351432BE96E7E
:103E7000EA6AD890E936EA36350EE9260F0EEA22CC
:103E800007CDEEFF08CDEDFF0D010A6B072B000EED
:103E90000823C8D712000F010651030A18E0020ACE
:103EA0000FE0010A20E1020E065D02E115EC2FF0A1
:103EB000FE0E0F01025D06E031DA0F01010E05D0A2
:103EC00014DA11E10F01030E086F066F000C13DA0C
:103ED0000AE001CF67F29DEC02F0000904E001CF97
:103EE00068F2A6EC02F0000C0F010651020A37E05E
:103EF000030A26E0010A73E100B302D0060E6DD07A
:103F0000070E086F03CF65F204CF66F20151280D4A
:103F1000F3CFE9FFF4CFEAFF000EE926010EEA2213
:103F2000EE52E9CF63F2EACF64F21CEC02F00F012B
:103F3000026FFE0E025D02E0010E0FD00A0E4DD0A0
:103F4000D4D94DE00001F1514AE12CEC2FF0F3CF30
:103F500048FFF4CF49FF0F01020E066F000C02CF9D
:103F600079F2AFEC04F000092FE0ACD948CFFEF0B5
:103F700049CFFFF08FEC2FF00201060E776F0C0E89
:103F8000786F02CF76F26EEC04F0000905E006CC03
:103F9000F9F032EC2FF0F0D754EC2FF0F3CF48FFCC
:103FA000F4CF49FF02CF6DF2C2EC03F0A4D917E0C1
:103FB0000201230E6C6F01CF6BF267EC03F001CFAF
:103FC00069F2EBEC02F0000C90D909E154EC2FF00F
:103FD000A5D90F01FE0E026F090E086F010C000C2F
:103FE0000F014E51050A50E0060A4CE0070A33E083
:103FF000060A2FE0030A18E0010A50E1008100934D
:10400000010E086F0A0EE66EE66A37CFE6FF38CF7C
:10401000E6FF090EE66E0F0EE66EA4EC31F0106EB0
:10402000060EE15E1050010C00A111D037CF4CFFFD
:1040300038CF4DFF0F01090E4A6F0F0E4B6FC1DED7
:10404000000904E00F010083020E29D00F01060EC3
:1040500026D04BEF1FF03FCFE6FF40CFE6FF75ECD9
:1040600023F0E552E552F3CF04FF41CFE6FF42CF04
:10407000E6FF75EC23F0E552E552F3CF03FF0F01A5
:104080000B0E0DD074EF1FF00B0E086FFE0E025DCD
:1040900007E002CF68F2A6EC02F0010C050E086FF3
:1040A000010C0C01006B060EE76E0019E8AE02D0A1
:1040B000E73402D0E750005D26E2040EE66EE66AC1
:1040C00000CCE9FFEA6AE9BEEA68D890E936EA3648
:1040D000780EE926030EEA22EECF10F0EFCF11F0B2
:1040E000126A10C0E6FF11C0E6FF12C0E6FF4FCF14
:1040F000E6FF50CFE6FFF1D803E10C0100511200BA
:104100000C01002BD0D7060C01CF67F29DEC02F01A
:10411000000908E10F01346B070E076F056B006B98
:10412000066B010C01CF79F2AFEC04F0000935E029
:10413000C9D80201000E776F0D0E786F01CF76F2AD
:104140006EEC04F000090FE00F013451342BEA6AE1
:10415000130FE96E0F0EEA2200CDEFFF1F0E345D44
:10416000E8E1346BE6D701CF6DF2C2EC03F00A0E42
:104170000D01005D3FE10F013451EA6A130FE96E52
:104180000F0EEA22EF6A346B38DE35CF4FFF36CFA1
:1041900050FF87DF0F01076F2DD00F0105512AE077
:1041A00005EC37F006C001FD07C002FD08C003FDA5
:1041B00009C004FD440EE96E0F0EEA6EEE500D01CB
:1041C000065C016FEE500758026FEE500858036FFF
:1041D000EE500958046F500E015D460E0259000E54
:1041E0000359000E045906E36DD80F01020E076F44
:1041F000010E056F0F010551010A36E0050A04E0C2
:10420000040A50E1086B5ED876D801E1010C08CFB2
:10421000E9FFEA6AE9BEEA68D890E936EA36840E30
:10422000E926030EEA22EECF05FDEDCF06FD0D01D6
:1042300005CDF6FF06CDF7FF052B000E062308007F
:10424000F5CF00FDF55007E000CD6CF201CF6BF229
:1042500067EC03F0ECD701CF69F2EBEC02F00F0151
:104260000C0E086F010E056F070E075D1BE007CFF0
:104270004EFFB6DE00090FE00C0E0F01085D03E0F3
:10428000040E056F04D0020E075D01E1056B070EF9
:10429000076F066B010C0C0E0F01085D03E0040EA6
:1042A000056FB2D7010C150E02014D6F4E6B95ECE8
:1042B00000F00F01016F056B346B006B140E036F80
:1042C000046B120005EC37F006C044FF07C045FF41
:1042D00008C046FF09C047FF1200D6EC30F0136E4D
:1042E000070EE15E13500009120002CF67F29DEC49
:1042F00002F00009120001CF6AF248EC03F0000955
:10430000120007CDE9FF08CDEAFF1200116E126A14
:1043100010C0E6FFE66E12C0E6FF120015EC2FF0AB
:0843200002CF68F2A6EF02F0E3
:08432800D6D9BED9F3CFEEFF98
:1043300011C0EDFFD0D9020EE926000EEA22B4D951
:10434000020EF3CFEBFF030E11C0EBFFC4D9C8D9A7
:10435000ABD9060EF3CFEBFF070E11C0EBFF120037
:104360001C0E03016B6F6C6B0301000E696F0D0E69
:104370006A6FF7EC19F039EC1AF00301000EA76F21
:104380000D0EA86FD1DF0D01010E001912E10151D0
:1043900010E10451106E116A060E10180AE1115056
:1043A00008E10551126E136A040E121801E1135050
:1043B00001E0000C020E061905E1075103E186D960
:1043C000EF6A0DD0010E061906E1075104E1010E56
:1043D0007DD9EF6E04D0020E79D9EF6E000C180E65
:1043E000E96E0D0EEA6EEE500201001928E1EE5062
:1043F000011925E1EE50021922E1EE5003191FE1E7
:104400001EE1A9C3E9FFAAC3EAFF08CDEEFF09CD6B
:10441000EEFF0ACDEEFF0BCDEEFF0CCDEEFF0DCD86
:10442000EEFFA9C3E9FFAAC3EAFF5AD90ECDEEFFFA
:104430000FCDEEFF10CDEEFF11CDEEFF010C000C05
:104440000301010E636FACEC19F00D011C6FFF0E40
:104450001C5D01E1000C0301606B616B1CCD5FF31F
:10446000F9EC18F0010E0D01006F016B026B080EE4
:10447000036F060E046F040E056F0301AF050BE119
:10448000010E0D01066F076B126913691469156936
:104490001669176914D0020E0D01066F076BADC3C4
:1044A000E9FFAEC3EAFFEECF12FDEECF13FDEECF74
:1044B00014FDEECF15FDEECF16FDEFCF17FD04C2B4
:1044C00008FD05C209FD06C20AFD07C20BFD08C2B0
:1044D0000CFD09C20DFD00C20EFD01C20FFD02C29E
:1044E00010FD03C211FDECD80E51EE18106E0F51E5
:1044F000EE18116E1051EE18126E1151EE18136E67
:1045000002010A5110160B5111160C5112160D51C1
:104510001316105011101210131009E00EC218FDDE
:104520000FC219FD10C21AFD11C21BFD09D0C8D857
:10453000EECF18FDEECF19FDEECF1AFDEFCF1BFD2C
:104540000301000EA76F0D0EA86FEEDE1C0E030117
:10455000766F776B0301060E756F0301120E736F92
:104560000D0E746F05EC1BF01C0E0301676F686B7A
:104570000301000E656F0D0E666FB6EC19F059EC75
:104580001BF0010C03019C5128E10301270EAB6FC6
:104590000D0EAC6F03011D0EA96F0D0EAA6FE0DEAC
:1045A000000929E00D01275115E11DCD9DF31ECD18
:1045B0009EF31FCD9FF320CDA0F321CDA1F322CDFB
:1045C000A2F323CDA3F324CDA4F325CDA5F326CDCB
:1045D000A6F3010C0301010E9C6F0301AF6B0301F5
:1045E0001D0EAD6F0D0EAE6F2BDF000903E0030152
:1045F0009C6B010C000C010CB0C3E9FFB1C3EAFFD6
:10460000EECF23FDEECF24FDEECF25FDEFCF26FD2F
:104610000301010EAF6F03011D0EAD6F0D0EAE6FE6
:1046200020EF22F0B2C3E9FFB3C3EAFF0301A351B5
:10463000EE1808E1A451EE1805E1A551EE1802E1CB
:10464000A651EE1812E0A30EE96E030EEA6EEE50CC
:1046500002010E191BE1EE500F1918E1EE5010196E
:1046600015E1EE50111912E111E1B4C3E9FFB5C330
:10467000EAFF9DC3EEFF9EC3EEFF9FC3EEFFA0C304
:10468000EEFFA1C3EEFFA2C3EEFF010C000C03017D
:104690009C6B9D699E699F69A069A169A269A36BD2
:1046A000A46BA56BA66B1200EECF04F4EDCF05F45E
:1046B00079EC2CF0F3CF10F0F4CF11F06BEF23F086
:1046C000ADC3E9FFAEC3EAFF70EF23F0ABC3E9FF70
:1046D000ACC3EAFF1200A7C3E9FFA8C3EAFF1200B8
:0A46E000060EE926000EEA22120081
:0646EA00FF0EE3CFEAFF22
:1046F000E552FF0EE3CFE9FFE552E66AE66AD9CF5D
:10470000E6FFDACFE6FFFC0EE124D96EFF0EE220D1
:10471000DA6EE66AE66AE66A200EEF5C06E0090EEB
:10472000EF5C03E0EF6603D03FD0EE50F5D72D0EDF
:10473000EF5C03E1FF0EE32A03D02B0EEF5C01E1F7
:10474000EE502F0EEF6424D03A0EEF6021D0D890B7
:10475000F90EE336FA0EE336FD0EDECFE3FFFE0E72
:10476000DDCFE3FFD890F90EE336FA0EE336D890AA
:10477000F90EE336FA0EE336FD0EE350DE26FE0EAA
:10478000E350DD22300EEE5CDE26000EDD22D9D7AE
:10479000FF0EE3CFE8FFE85207E0F90EE31EE32A3D
:1047A000FA0ED8B4E306E31EE552E552E552FF0ED9
:1047B000E3CFDAFFE552FF0EE3CFD9FFE552E1CFB9
:1047C000E9FFE2CFEAFFED52ED52EECFF3FFEFCF7C
:1047D000F4FF1200D9CFE6FFDACFE6FFFA0EE3CFFF
:1047E000D9FFFB0EE3CFDAFFFD0EE35209E72D0EF2
:1047F000DE6EFC0EE31EE32AFD0ED8B4E306E31ED4
:10480000E652E652E652FD0EE124E76EFF0EE2208C
:10481000E46EE652F70EE3CFE6FFF70EE3CFE6FFD6
:104820005AEC24F0F90EE124E96EFF0EE220EA6E64
:104830004AEC24F00AE147EC24F009E14AEC24F0C8
:1048400008E147EC24F007E108D055EC24F050ECE7
:1048500024F055EC24F050EC24F055EC24F0DE6A02
:10486000F90EE126FF0EE222FF0EE3CFDAFFE5525A
:10487000FF0EE3CFD9FFE552FC0EE124E96EFF0EF7
:10488000E220EA6EEECFF3FFEFCFF4FF1200EF3835
:104890000F0B1200EF500F0B02E1EE52D884120002
:1048A000EF380F0B300FDE6E1200EE500F0B300F93
:1048B000DE6E1200FC0EE3CFE9FFFD0EE3CFEAFF50
:1048C000100EE66EEE6AEE6AEF6AD890FD0EE336E1
:1048D000FE0EE336ED36ED36EF36FF0EE30609E069
:1048E0007BEC24F0EE527BEC24F0EE527BEC24F0D7
:1048F000EDD7E56E1200030EEF24E8B6EF6E300E32
:10490000EF24E8BEEF6E000CD9CFE6FFDACFE6FF6A
:10491000F80EE3CFD9FFF90EE3CFDAFFE652E65205
:10492000E652E652E652FB0EE124E76EFF0EE2206D
:10493000E46EE652F30EE3CFE6FFF30EE3CFE6FFBD
:10494000F30EE3CFE6FFF30EE3CFE6FF09EC25F02D
:10495000F50EE124E96EFF0EE220EA6EF6EC24F09B
:1049600019E1F9EC24F018E1F6EC24F017E1F9EC88
:1049700024F016E1F6EC24F015E1F9EC24F014E152
:10498000F6EC24F013E1F9EC24F012E1F6EC24F05B
:1049900011E112D0FFEC24F004EC25F0FFEC24F040
:1049A00004EC25F0FFEC24F004EC25F0FFEC24F0FF
:1049B00004EC25F0FFEC24F004EC25F0DE6AF50EA3
:1049C000E126FF0EE222FF0EE3CFDAFFE552FF0EF3
:1049D000E3CFD9FFE552FA0EE124E96EFF0EE220A3
:1049E000EA6EEECFF3FFEFCFF4FF1200EF380F0BBC
:1049F0001200EF500F0B02E1EE52D8841200EF3894
:104A00000F0B300FDE6E1200EE500F0B300FDE6E0C
:104A10001200FA0EE3CFE9FFFB0EE3CFEAFF200E10
:104A2000E66EEE6AEE6AEE6AEE6AEF6AD890FB0E08
:104A3000E336FC0EE336FD0EE336FE0EE336ED36CE
:104A4000ED36ED36ED36EF36FF0EE3060FE038ECCF
:104A500025F0EE5238EC25F0EE5238EC25F0EE520F
:104A600038EC25F0EE5238EC25F0E1D7E56E120077
:104A7000030EEF24E8B6EF6E300EEF24E8BEEF6EC3
:024A8000000C28
:0E4A82004D434850424F415244000405062067
:104A900076332E37352E36000102034D6963726F6F
:104AA0006368697020544350002D2D3A2D2D002D40
:104AB0002D2F2D2D2F2D2D004A756C2033302032B7
:104AC0003030372031303A30353A343100332E37F8
:104AD000352E3600293A20000D0A425554544F4EC7
:104AE000302068656C6420666F72206D6F7265207F
:104AF0007468616E2034207365636F6E64732E205A
:104B000020566563746F7220636F6E6669672069F3
:104B10006E20454550524F4D206572617365640D9E
:104B20000A0D0A000D0A526561647920746F2064D1
:104B30006F776E6C6F6164204D50465320696D61D4
:104B40006765202D2055736520586D6F64656D2055
:104B500070726F746F636F6C0D0A000D0A444843E6
:104B600050202620495020476C65616E696E672091
:104B700064697361626C65640D0A000D0A44484300
:104B800050202620495020476C65616E696E672071
:104B9000656E61626C65640D0A000D0A444E532017
:104BA0005365727665722041646472657373202860
:104BB000000D0A4E65746D61736B2028000D0A4765
:104BC000617465776179204164647265737320282C
:104BD000000D0A49502041646472657373202800F7
:104BE0000D0A486F7374204E616D652028000D0A10
:104BF00053657269616C204E756D62657220280084
:104C00000D0A4E6F772072756E6E696E6720617047
:104C1000706C69636174696F6E2E2E2E0D0A002D03
:104C20002D2F2D2D2F2D2D202D2D3A2D2D0052786D
:104C30003D0054783D00323030204F6B0D0A003477
:104C400032352043616E277420637265617465207C
:104C50006461746120736F636B65742E20496E63A9
:104C60007265617365204D41585F534F434B455406
:104C7000530D0A000D0A323236205472616E73668B
:104C8000657220436F6D706C6574650D0A0031327A
:104C90003520446F6E650D0A003135302054726145
:104CA0006E7366657272696E6720646174612E2E20
:104CB0002E0D0A00353330204C6F67696E20726507
:104CC0007175697265640D0A00353032204E6F745B
:104CD00020696D706C656D656E7465640D0A0035D4
:104CE0003030200D0A00323231204279650D0A0041
:104CF000323330204C6F6767656420696E0D0A009F
:104D00003333312050617373776F72642072657131
:104D100075697265640D0A00323230205265616433
:104D2000790D0A0041424F5200504F5254005354E3
:104D30004F5200515549540050415353005553456B
:104D40005200485454502F312E3020353033200D2E
:104D50000A0D0A5365727669636520556E61766146
:104D6000696C61626C650D0A00485454502F312EF5
:104D70003020343034204E6F7420666F756E640DB1
:104D80000A0D0A4E6F7420666F756E640D0A00532B
:104D90006174004672690054687500576564005478
:104DA0007565004D6F6E0053756E00446563004E6F
:104DB0006F76004F63740053657000417567004A59
:104DC000756C004A756E004D617900417072004D3E
:0B4DD000617200466562004A616E00DF
:014DDB0000D7
:044DDC0067D9020E83
:104DE0004DD9020EF3CFEBFF030E5CD9040E46D96A
:104DF000040EF3CFEBFF050E55D90A0E3FD90A0E6C
:104E0000F3CFEBFF0B0E11C0EBFF1200140E0301EA
:104E10006B6F6C6B0301020E696F0D0E6A6FF7EC1E
:104E200019F0F00E0D010215400801E0000C0F0E04
:104E30000215040DF350106E116A140E105E000E70
:104E4000115A10C01CFD1050280801E2000C1C5122
:104E500000080BE21C5103016B6F6C6B03011D0E0C
:104E6000696F0D0E6A6FF7EC19F00CCD16FD0DCDC4
:104E700017FD0D010C6B0D6B140E0FD9020E0A6F8E
:104E80000D0E0B6FADEC2CF0F3CF18FDF4CF19FD28
:104E90000D01181F191F1C51000810E21C51FDD8EC
:104EA0001D0E0A6F0D0E0B6FADEC2CF0F3CF1AFD3B
:104EB000F4CF1BFD0D011A1F1B1F02D01A6B1B6BB9
:104EC000040EEBD8180E0A6F0D0E0B6FADEC2CF024
:104ED000F3CF00FDF4CF01FD0D01F350161902E1EF
:104EE0000151171901E0000C0301020EE46F0D0ED1
:104EF000E56F74DF0301E651E7110CE0E6C3E9FF5B
:104F0000E7C3EAFF12CDEEFF13CDEEFF14CDEEFFA7
:104F100015CDEEFFE8C3E9FFE9C3EAFF060EE92677
:104F2000000EEA220ECDEEFF0FCDEEFF10CDEEFF0C
:104F300011CDEEFFEAC3E9FFEBC3EAFF0BCDEFFFB4
:104F40000D011C51126E136A1250045D106E135045
:104F50000559116E140E105E000E115AECC3E9FFD4
:104F6000EDC3EAFF10C0EEFF11C0EDFF04012E2BD0
:104F70002F2330233123010C0301140EE36F0D01A5
:104F8000450EEA6FEB6B140E0301F1250D01EC6F7A
:104F9000000E0301F2210D01ED6F04012C2B000E18
:104FA0002D232CC4EEFD2DC4EFFD0D01F06BF16B34
:104FB000640EF26FF0C3F3FDF46BF56B00C2F6FD07
:104FC00001C2F7FD02C2F8FD03C2F9FDEEC3E9FF1D
:104FD000EFC3EAFF060EE926000EEA22EECFFAFD45
:104FE000EECFFBFDEECFFCFDEFCFFDFD0301EA0EA2
:104FF000E46F0D0EE56FF2DE140E4FD8EA0E0A6F65
:105000000D0E0B6FADEC2CF0F3CFF4FDF4CFF5FDEE
:10501000140E0301F1250301766F000E0301F22146
:105020000301776F0301756BEEC3E9FFEFC3EAFF7E
:10503000EEC373F3EFC374F305EC1BF0140E03011E
:10504000676F686B0301EA0E656F0D0E666FB6EC55
:1050500019F00401322B000E332334233523F36A75
:10506000F46A12000301E351F32503015D6F000EA2
:105070000301F42103015E6FE6EF18F0E926000E4C
:10508000EA22EECF04F4EDCF05F479EC2CF0F3CF67
:1050900010F0F4CF11F056EF28F004010C6F0D6BF7
:1050A0000401120011C0EBFF56EF28F0E4C3E9FF42
:0650B000E5C3EAFF120057
:0A50B6000001200E50D90C01006B20
:1050C000100E005D19E2040136C4E9FF37C4EAFF9F
:1050D000362B000E3723EFCF01FC0C0101390F0BEB
:1050E000410F00013BD90F0E0C010115410F0001CA
:1050F00035D90C01002BE4D79AEF29F0040138517F
:10510000391111E10001210EE26F0D0EE36FF2EC97
:105110001CF00D0121512107000926E00001220E9B
:10512000E26F0D0EF3D70001210EE26F0D0EE36F5B
:10513000F2EC1CF00D0121512107000915E003D903
:105140002239F00B236F2107FED823512211E66E7E
:10515000040138C4E9FF39C4EAFF382B000E3923B3
:10516000E552E750EF6EE6D7120004014351020A00
:105170001BE0030A05E0010A01E01200432B1200C4
:10518000890E0001DD6FDE6B0001DB6BDC6B000163
:10519000D96FDA6BD3EC1BF004013A6FFF0E3A5D66
:1051A00001E112000401432B3AC4E1F0E8EC1CF0E9
:1051B000000901E112000001060EE26F0D0EBED8DB
:1051C000050EE26F0D0EBAD8080EE26F0D0EB6D8BE
:1051D000070EE26F0D0EB2D80A0EE26F0D0EAED8BA
:1051E000090EE26F0D0EAAD80C0EE26F0D0EA6D8B6
:1051F0000B0EE26F0D0EA2D80E0EE26F0D0E9ED8B2
:105200000D0EE26F0D0E9AD8100EE26F0D0E96D8AD
:105210000F0EE26F0D0EE36FF2EC1CF00D0109CDE5
:1052200010F00ACD11F00907000E0A5B10501110A2
:1052300001E17ED00401110E386F0D0E396F5EDF73
:105240000001000EE26F0D0E79D8020EE26F0D0E16
:1052500075D8010EE26F0D0E71D8040EE26F0D0EBF
:105260006DD8030EE26F0D0EE36FF2EC1CF00D0132
:10527000200E0119D3E10251D1E1010E0319CEE153
:105280000451CCE1210EE66E020EE66E110EE66EC2
:105290000D0EE66E5DEC31F0E552E552E552E55259
:1052A0000009BCE13AC4D8F00301010E626FA5EC1D
:1052B00019F00009F7E00D01076B840E086F06CDA9
:1052C000E0F034EC1CF005CDE0F034EC1CF008CD3F
:1052D000E0F034EC1CF007CDE0F034EC1CF02AD800
:1052E00029D83FD80401210E366F020E376FE3DE56
:1052F00021D80001200E32D834D81CD80001060E67
:105300002DD80001600E2AD815D800C2E0F034EC88
:105310001CF001C2E0F034EC1CF002C2E0F034EC0E
:105320001CF003C2E0F034EC1CF082EC1CF076D7E9
:1053300013EF1DF00001E06B34EF1CF0E36FF2ECB3
:105340001CF0000112000001220EE26F0D0EE36F4F
:10535000F2EC1CF0410E0D01225F1200E06F34EF01
:105360001CF0E8DF0001010EF9DFE4DFE3DFE2DF3C
:045370009AEF29F097
:0C537400010E0F017117959A8C9A0F0121
:10538000959095929594959695980F017151E8B0E6
:105390008C88E8A08C980F0172390F0B0F010F0B4E
:1053A000F36EF00E8C14F3108C6E00000000000001
:1053B0000000898A040EE66EF1EC37F0E552899A16
:1053C000040EE66EF1EC37F0E5520F0172510F0159
:1053D0000F0BF36EF00E8C14F3108C6E00000000B7
:1053E00000000000898A040EE66EF1EC37F0E55209
:1053F000899A040EE66EF1EC37F0E552140EE66E73
:10540000F1EC37F0E5521200020E0F01735D0FE26E
:10541000100E745D0CE27351F76A140FF66E700E85
:10542000F7220800F550742580090F01C4D8120036
:1054300075CFE9FF76CFEAFFEFCF00FCEF5008E031
:1054400000CC72FFC7D80F01752B000E7623F0D762
:10545000120077CFF6FF78CFF7FF0800F5CF00FCFA
:10546000F55008E000CC72FFB5D80F01772B000E85
:105470007823EFD712000F01010E9DD8020EF6EF30
:105480002AF0020E0F01795D0DE2B5D80C01006B18
:10549000100E005D07E20F01200E726F9BD80C0109
:1054A000002BF6D7FBEF2AF00D010F6B020E0F5DFC
:1054B0001EE20F01746B0FCD73FFA6DF0D010E6BA3
:1054C000100E0E5D12E20F517BD80E5188D8EFCF2F
:1054D00010FDEF5003E00D01105101D0200E0F011F
:1054E000726F78D80D010E2BEBD70F2BDFD7120080
:1054F0000C01016B020E015D0FE2006B100E005DEE
:1055000009E201515DD800516AD8200EEF6E0C01FE
:10551000002BF4D7012BEED71200020E0F017A5D9B
:1055200010E20C01006B100E005D0BE20F017A51CE
:1055300047D80C01005153D8200EEF6E0C01002B00
:10554000F2D71200080E0F017B5D19E27B51080DA6
:10555000F35040090F012FD80C01006B080E005DBD
:105560000EE200510F01F76A7C25F66E7D51F7229D
:105570000800F5CF72FF2ED80C01002BEFD70F01DA
:10558000800EDBEF2AF0B4DFC80E3BD8050E39D809
:105590003C0EE66EF1EC37F0E5520F01200E0BD811
:1055A0000F01280E08D80F01060E05D864DF0F0181
:1055B0000C0EDBEF2AF0726F0F01716BBAEF29F05E
:1055C000100DF3CF10F0F4CF11F0510E10260F0E86
:1055D000112212000F01010E716FBAEF29F00F01B5
:1055E0001024E96E000E1120EA6E120004013F6FD4
:1055F000406BB3EF37F00F01746B79CF73FF04EF9B
:0C5600002AF0F4DF0F01300EDBEF2AF07F
:04560C000A0EE66E2E
:10561000E66AE668010EE66E0D0EE66E43EC31F0CA
:10562000106E050EE15E10500AD9010EDB6F0D0EF3
:10563000DC6F00012C0ED96F0B0EDA6FD3EC1BF070
:105640000D01006FFF0E005D01E1120000CDD8F0EA
:10565000FDD8FCE00D010B6B0B51FFD805E20B519F
:10566000E5D80D010B2BF8D7FFD80D010B6B0D0101
:105670000B51C4D80D010B51CDD80D010B2B060ECB
:105680000B5D04E000012D0EF9D8F1D700010D0EDD
:10569000B2D80A0EB0D8440EAED8480EACD8430EDD
:1056A000AAD8500EA8D82F0EA6D8500EA4D86F0E88
:1056B000A2D8770EDFD8720E9ED8200EDBD8760ED9
:1056C000D9D86E0E98D8740E96D8200E94D86F0E36
:1056D00092D8630E90D8630E8ED8750E8CD8720E49
:1056E0008AD8720EC7D8640EC9D882EC1CF000CDDF
:1056F000DFF021EF1CF004014451030A01E17AD0EC
:10570000010A30E0030A16E0010A01E0120097D80E
:10571000DB6BDC6B00015F0ED96F760EDA6FD3ECBA
:105720001BF00301FF6FFF0EFF5D01E1120004019A
:10573000442B1200FFC3E1F0E8EC1CF0000901E18A
:1057400012000001060EE26F0C0EE36FF2EC1CF08B
:1057500013EC1DF0440E0C01065D01E01200040183
:10576000442B1200FFC3D8F071D801E112000C01E4
:10577000066B065172D805E2065158D80C01062B6B
:10578000F8D772D80C01066B0C01065137D80C0102
:10579000065140D80C01062B060E065D04E0000100
:1057A0002D0E6CD8F1D760D80A0EE66EE66AC70EE9
:1057B000E66E020EE66E0301FF51160DF3CFE9FF10
:1057C000F4CFEAFF800EE926000EEA22E9CF10F0BE
:1057D000EACF11F0E9CFE6FFEACFE6FFF5EC30F0D3
:1057E000126E060EE15E125082EC1CF00401010EF6
:1057F000446F1200120042D800011200EA6A040F3E
:10580000E96E020EEA22EFCF02F45EEC2CF000010A
:105810003EEF2CF0EA6A040FE96E020EEA22EFCFA7
:1058200003F46CEC2CF000013EEF2CF0EA6A210F3F
:10583000E96E020EEA22EFCFE0F034EF1CF0000137
:105840005F0EDD6F760EDE6F000112000301010EA8
:10585000626FA5EC19F000091200106E116A0F0EAC
:10586000105C000E1158120000010D0EC4DF0A0E6C
:105870003EEF2CF0C0DF650EFBEF2BF0E06F34EF56
:025880001CF01A
:0E58820004010151460802E2200E015F0051B0
:10589000460802E2200E005F0151390802E2370E8D
:1058A00001D0300E015F0051390802E2370E01D0FD
:1058B000300E005F0139F00B0011120004010239B3
:1058C0000F0B026FE850090804E2410E0225F60FA3
:1058D0001200300E022512000F0E040103170351AF
:1058E000090804E2410E0325F60F1200300E0325CD
:1058F000120005C4F3FF04C4F4FF120006C4ACFD9B
:1059000007C4ADFD08C4AEFD09C4AFFD0D01AC0E6A
:10591000B06F0D0EB16FB0CDE9FFEA6E030EDAD8AD
:10592000EF50E66E030ED0D8ABCDEFFFC4D8020E19
:10593000D1D8010EC5D8EF50E66EBDD8020EC4D83E
:10594000010EBED8ABCDEFFFACCD06F0ADCD07F06C
:10595000AECD08F0AFCD09F012000D01B36BB46B02
:10596000B56BB66B0CC4ABFD0DC4ACFDD890AC33BD
:10597000AB330AC4ADFD0BC4AEFDABCD10F0ACCD66
:1059800011F0AB07000EAC5B1050111018E0ADCD5C
:10599000E9FFAECDEAFF020EAD27000EAE23EECF3B
:1059A00010F0EFCF11F0000110500D01B3270001EE
:1059B00011500D01B423000EB523B623DED7040128
:1059C0000C51010B0EE0ADCDE9FFAECDEAFFEFCFFC
:1059D00010F0000110500D01B327000EB423B523C1
:1059E000B623B5CDB1FDB6CDB2FDB5CDABFDB6CDCF
:1059F000ACFD0D01B151B2111BE0B56BB66BB3CD6F
:105A000010F0B4CD11F0126A136AABCD14F0ACCD26
:105A100015F0166A176A10501424B36F1150152030
:105A2000B46F12501620B56F13501720B66FD9D728
:105A3000B3CD10F0B4CD11F0101E111E10C0F3FF45
:105A400011C0F4FF12000D01010EAB6FAC6BAD6B1A
:105A500004010EC410F00FC411F00E07000E0F5B0E
:105A60001050111020E0F0EC19F00D01AE6FAB51A9
:105A70000AE1AE51AC25AC6FAE51AC5D0DE2AD2B81
:105A80000BE1AC2B09D0AE51AD25AD6FAE51AD5D84
:105A900003E2AC2B01E1AD2BAB5102E0000E01D0D3
:105AA000010EAB6FD5D70D01AD1DAD6FAC1DF36E03
