:100000000C9481010C949E010C949E010C949E0111
:100010000C949E010C949E010C949E010C949E01E4
:100020000C949E010C949E010C949E010C949E01D4
:100030000C949E010C949E010C949E010C949E01C4
:100040000C949E010C949E010C949E010C949E01B4
:100050000C949E010C949E010C949E010C949E01A4
:100060000C949E010C949E01485454502F312E3014
:100070002034303120556E617574686F72697A650D
:10008000640D0A436F6E74656E742D547970653A11
:1000900020746578742F68746D6C0D0A0D0A3C68C5
:1000A000313E34303120556E617574686F72697AF3
:1000B00065643C2F68313E003C703E557361676556
:1000C0003A20687474703A2F2F686F73745F6F7280
:1000D0005F69702F70617373776F72643C2F703E2D
:1000E0000A00485454502F312E3020323030204FE7
:1000F0004B0D0A436F6E74656E742D547970653ABA
:1001000020746578742F68746D6C0D0A0D0A0048B0
:100110005454502F312E3020323030204F4B0D0AA6
:10012000436F6E74656E742D547970653A207465F2
:1001300078742F68746D6C0D0A0D0A3C68313E327C
:100140003030204F4B3C2F68313E003C2F63656EB2
:100150007465723E3C68723E3C62723E76657273B4
:10016000696F6E20322E31372C207475786772617A
:1001700070686963732E6F72670A002F31223E53D5
:100180007769746368206F6E3C2F613E3C703E005F
:100190002F30223E537769746368206F66663C2F68
:1001A000613E3C703E00203C736D616C6C3E3C6176
:1001B00020687265663D222E223E5B72656672651E
:1001C0007368207374617475735D3C2F613E3C2FBE
:1001D000736D616C6C3E3C2F703E0A3C703E3C611E
:1001E00020687265663D222E004F4646003C666FD1
:1001F0006E7420636F6C6F723D2223303046463040
:1002000030223E204F4E3C2F666F6E743E003C63A2
:10021000656E7465723E3C703E4F757470757420E7
:1002200069733A2000485454502F312E3020323018
:1002300030204F4B0D0A436F6E74656E742D5479E8
:1002400070653A20746578742F68746D6C0D0A506F
:100250007261676D613A206E6F2D63616368650D31
:100260000A0D0A00616464206120747261696C691E
:100270006E6720736C61736820746F2074686520EA
:1002800075726C0A003C68313E333031204D6F7618
:100290006564205065726D616E656E746C793C2F7B
:1002A00068313E0A002F0D0A436F6E74656E742D1F
:1002B000547970653A20746578742F68746D6C0D8C
:1002C0000A507261676D613A206E6F2D63616368D9
:1002D000650D0A0D0A00485454502F312E3020333A
:1002E0003031204D6F766564205065726D616E65AA
:1002F0006E746C790D0A4C6F636174696F6E3A208D
:10030000000011241FBECFEFD4E0DEBFCDBF11E04F
:10031000A0E0B1E0E6E9F1E102C005900D92A83459
:10032000B107D9F713E0A8E4B1E001C01D92A038ED
:10033000B107E1F70E9428020C94C9080C94000050
:10034000582F282F392FD90105C08E1711F08FEFA4
:1003500008951196EA2FE51BF0E0E25CFE4FE08184
:100360008C91EE2391F78F3211F08DEF0895119655
:100370008C9180538A3008F08EEF0895BC018EE393
:1003800091E045E050E00E94BB089C0180E0232BF7
:1003900009F481E008951F93CF93DF93EC01162FAA
:1003A00060E070E045E252E00E94F604BC01CE013C
:1003B0004EE052E00E94F604BC01112321F0CE0170
:1003C0004DEE51E003C0CE0149EE51E00E94F6042B
:1003D000BC01CE0146EA51E00E94F604BC011123A3
:1003E00021F0CE0140E951E003C0CE014BE751E0DE
:1003F0000E94F604BC01CE014BE451E00E94F604D9
:10040000DF91CF911F9108950F931F938C0160E0AE
:1004100070E046ED52E00E94F604BC01C8014EE3D4
:1004200051E00E940905BC01C80145EA52E00E9462
:10043000F604BC01C80145E852E00E94F604BC0184
:10044000C80144E652E00E94F6041F910F910895FE
:10045000AEE1B0E0EEE2F2E00C94880880E8809330
:1004600061001092610012E3812F8A95F1F7529892
:1004700084E391E00E94F30682E00E94ED06812F62
:100480008A95F1F7219A299A579A5F9884E166E74D
:1004900074E00E94CF061A95F1F7299884E391E061
:1004A0006AE371E040E50E94ED03DD24D3947E0110
:1004B0000894E11CF11C86E292E068E471E00E947D
:1004C000F6078C010097B9F388E491E0B8010E9427
:1004D0001304882329F088E491E00E94FF05EBCF04
:1004E00088E491E0B8010E942F04882321F3DD20E5
:1004F00019F0299ADD2403C02998DD24D394809132
:100500005F01813051F480916A018830A1F688E45E
:1005100091E0B8010E94E105CECF863009F080C09D
:1005200080916C01882339F680916D01803519F630
:100530008091770181FF05C088E491E00E947305F6
:10054000BACF84FFB8CF88E491E00E94D3040E9420
:10055000C2048C01009749F48091770180FFABCFF2
:1005600088E491E00E944505A6CFBC01685B7E4F00
:1005700080E091E044E050E00E94BB08009739F031
:1005800088E491E060E070E04FE051E026C0B801FF
:10059000645B7E4F85E091E042E050E00E94BB0842
:1005A000009771F488E491E060E070E042EE50E082
:1005B0000E94F604BC0188E491E048EB50E00DC0D5
:1005C000C801835B9E4F0E94A0018F3F49F488E4DD
:1005D00091E060E070E048E650E00E94F60415C04B
:1005E000813011F45F9A0BC0882311F45F9807C023
:1005F0008D3F29F488E491E00E94040206C06BB1AB
:10060000607888E491E00E94CB018C0188E491E05D
:100610000E94450588E491E0B8010E941B054BCF7C
:10062000813109F048CF80916C01843009F043CFCB
:1006300080916D01803B09F03ECF10916F01185001
:1006400082E791E00E94BE01882359F43CC09F5F7D
:10065000E92FF0E0E85BFE4F82A58C3219F49F5F32
:1006600003C090E0911798F3923068F0E92FF0E022
:10067000812F90E00297E817F9072CF4E85BFE4F12
:1006800083A58D3321F0C70168E071E01FC082A50A
:100690008437A9F4E4A5E13311F45F9A08C0E0338C
:1006A00011F45F9808C0EF3351F45F9B04C0C70199
:1006B00061E171E00BC0C70165E171E007C0C701EE
:1006C00069E171E003C0C70167E271E00E94B4080C
:1006D000F70101900020E9F73197EE19FF0988E44E
:1006E00091E0B7014E2F20EB34E00E949B05E3CE52
:1006F000A0E0B0E0EEE7F3E00C9487086C01413035
:1007000081F4685070407B0100E010E0685F7F4F2B
:1007100021E130E040E050E0E20EF31E041F151F1F
:1007200015C0423021F0EE24FF2487010FC068502D
:1007300070407B0100E010E0685F7F4F86E090E052
:10074000A0E0B0E0E80EF91E0A1F1B1FF601EB0146
:1007500016C0808190E0A0E0B0E0BA2FA92F982FBA
:100760008827218130E040E050E0822B932BA42B9E
:10077000B52BE80EF91E0A1F1B1F32962297C230B6
:10078000D10538F7FB01EE7FEC0DFD1D60FF15C0B4
:10079000808190E0A0E0B0E0BA2FA92F982F8827A1
:1007A00008C02FEF3FEF40E050E0E222F3220423A5
:1007B0001523E80EF91E0A1F1B1FC801AA27BB2715
:1007C0000097A105B10569F7970120953095C901FA
:1007D000CDB7DEB7E8E00C94A308CF93DF93EC012C
:1007E0004093450120E030E0F901E758FC4FDB0180
:1007F000A20FB31F8C9180832F5F3F4F24303105B0
:1008000099F720E030E0F901ED58FC4FDE01A20F2E
:10081000B31F8C9180832F5F3F4F2630310599F7AE
:10082000DF91CF910895FC0169327105B0F08485A4
:10083000883099F48585863081F4DF019696E9E762
:10084000F3E09C918081981741F41196319683E0F2
:10085000ED37F807B1F781E0089580E00895FC01D5
:100860006A327105D0F084858830B9F48585882393
:10087000A1F48685853489F4DF01E9E7F3E05E962B
:100880009C915E978081981741F41196319683E090
:10089000ED37F807A1F781E0089580E00895FC01A5
:1008A000A3E7B3E0868180838D918683319683E0D0
:1008B000A937B807B9F708950F931F938C01FC016E
:1008C000108E118E80E4848B158A868BC8010E965B
:1008D00064E170E040E00E947803F801908F818F1E
:1008E0001F910F910895AC01FC01A9E7B3E0828D3F
:1008F000868F8D91828F319683E0AD37B807B9F737
:10090000CA010E945C040895FC0182A184A312A282
:1009100083A185A313A28091450183A3DF0199964A
:1009200094E08C91680F711D14968C911497149615
:100930006C931497222311F08C9301C01C92915058
:100940001197992319F0672F7727EBCF222349F4CA
:1009500016A217A28091460180A711A68E5F8093F0
:10096000460112AA13AA442351F082E086AB84E028
:1009700087AB85E080AF80E881AF80E601C080E58D
:1009800086A7089580916F0390917003892B19F4C5
:1009900020E030E006C020917103309172032E5D9B
:1009A0003F4FC9010895FC01908980E0218930E022
:1009B000282B392B86A582958F7090E0880F991F80
:1009C000880F991F909372038093710324513040D4
:1009D000281B390B3093700320936F0312161306F4
:1009E00024F01092700310926F0308956A5C7F4F99
:1009F000DC01A60FB71F6653704003C08D936F5F75
:100A00007F4FFA014F5F5F4F84918823B9F7CB0185
:100A10000895FA016A5C7F4FDC01A60FB71F665389
:100A2000704004C08D936F5F7F4F31968081882323
:100A3000C9F7CB010895EF92FF920F931F938C019A
:100A40007B0189E1F80187A7CB018896908B818B88
:100A5000C8010E945C04F80112AA13AA8CE190E07C
:100A6000E80EF91EC8014A96B70142E00E947803D9
:100A7000F80192AB83ABC7014A96B8010E94AC075C
:100A80001F910F91FF90EF900895CF93DF93EC01AA
:100A90000E944F0480E18FA760916F0370917003F3
:100AA0006115710521F4CE0161E070E001C0CE0155
:100AB00040E021E00E948404188A88E2898BCE01FC
:100AC0000E947304CE014A966CE170E042E00E94FD
:100AD00078039AAB8BAB86E390E0BE010E94AC0733
:100AE000DF91CF9108950F931F938C010E944F04C3
:100AF000F801108A8CE2818BC8010E94730482E1A4
:100B0000F80187A7C80161E070E041E020E00E94A1
:100B10008404C8014A9660E270E042E00E947803D3
:100B2000F80192AB83AB8AE390E0B8010E94AC0776
:100B30001F910F910895A0E0B0E0E1EAF5E00C9478
:100B40008808EC017B01142FD22E032F0E944F0442
:100B50001D3D08F01CED188A145E198BCE010E9411
:100B600073048AA18CA38BA18DA30AA3DBA21EA26E
:100B700014511FA3185018A619A6DE019A9620E05A
:100B800030E007C0F701E20FF31F80818D932F5FE4
:100B90003F4F2117B8F3012F10E0005F1F4FCE0128
:100BA0004A96B80141E00E94780398A789A7C80136
:100BB0004A96BE010E94AC07CDB7DEB7E7E00C94C1
:100BC000A4080F931F93CF93DF93EC018B010E9436
:100BD0004F04CE010E9473041AA28CA1883F18F022
:100BE0008DA18F5F8DA38CA1885F8CA3C801BE01EE
:100BF0000E94AC07DF91CF911F910F910895CF9381
:100C0000DF93EC010E944F041C8A82E08D8BFE0171
:100C1000A3E7B3E0868980A38D91868B319683E02C
:100C2000A937B807B9F7FE017C96A9E7B3E0808140
:100C300082878D91819383E0AD37B807C1F78AE24F
:100C400090E0BE010E94AC07DF91CF9108952A98F1
:100C5000962F9F71982B9EBD0DB407FEFDCF1EBC35
:100C60000DB407FEFDCF67FF04C01EBC0DB407FE28
:100C7000FDCF2A9A8EB508952A986F71682B6EBDA4
:100C80000DB407FEFDCF4EBD0DB407FEFDCF2A9A71
:100C90000895AC01FB012A988AE38EBD0DB407FECE
:100CA000FDCF9A01DF0108C01EBC0DB407FEFDCFC9
:100CB000215030408EB58D9321153105A9F7E40FF1
:100CC000F51F10822A9A08959C01FB012A988AE751
:100CD0008EBD0DB407FEFDCF08C080818EBD0DB462
:100CE00007FEFDCF21503040319621153105A9F77F
:100CF0002A9A08951F93CF93DF93182FC82FD0E01F
:100D0000C076D07080917D0390E0C817D90791F02C
:100D100080EA6FE143E00E943C0685E0D595C795E7
:100D20008A95E1F780E86FE14C2F0E943C0610762F
:100D300010937D03DF91CF911F9108951F93182F7A
:100D40000E947A0680E0612F0E9427061F91089575
:100D50000F931F93182F062F0E947A0680E4612FAD
:100D6000402F0E943C061F910F910895682F84ED3B
:100D70000E94A80682ED61E00E94A8068EE38A9593
:100D8000F1F78AEE0E949E0680FDFBCF82ED60E0C7
:100D90000E94A80689ED0E949E0690E008950F9398
:100DA0001F93982F162F072F84ED692F0E94A806F6
:100DB00086ED612F0E94A80687ED602F0E94A8068D
:100DC0001EE303C0812F8A95F1F78AEE0E949E06EA
:100DD00080FDF8CF1F910F910895682F677085E708
:100DE0000E94A80608950F931F938C01229A2A9AB5
:100DF00084B1886284B924982B982D9880E58CBDA5
:100E00008DB581608DBD8FEF60E04FEF0E943C0695
:100E10008DEC8A95F1F710927F0310927E0388E0A3
:100E200060E00E94A80689E060E00E94A8068CE0CD
:100E300060E00E94A8068DE060E00E94A8068AE0BB
:100E40006EEF0E94A8068BE069E10E94A80684E08C
:100E50006FEF0E94A80685E069E10E94A80686E07F
:100E60006FEF0E94A80687E06FE10E94A80688E362
:100E700060EB0E94A80688E26FE30E94A80689E260
:100E800060E30E94A80680E369EF0E94A80681E360
:100E900067EF0E94A80680EC6DE00E94A80681EC36
:100EA00060E00E94A80680E862EC42E30E943C06F3
:100EB00086EC62E10E94A80687EC6CE00E94A8061E
:100EC00084EC62E10E94A8068AEC6CED0E94A80600
:100ED0008BEC65E00E94A80684EEF80160810E9418
:100EE000A80685EEF80161810E94A80682EEF8014D
:100EF00062810E94A80683EEF80163810E94A80621
:100F000080EEF80164810E94A80681EEF8016581F7
:100F10000E94A80680E160E071E00E94CF068FE1A8
:100F20000E947A0680E86BE140EC0E943C0680E873
:100F30006FE144E00E943C061F910F91089582E703
:100F40000E949E06089581E10E94B60620E0892B4A
:100F500009F021E0822F08950F931F93CF93DF9321
:100F6000EC018B010FC08CE10E949E0681FF0AC03C
:100F700080E86FE140E80E943C0680EA6FE140E8CB
:100F80000E943C0680E06FE10E94270683FDEBCFC4
:100F900082E06FEF0E94A80683E069E10E94A80644
:100FA000CE018150682F86E00E94A8069E01215044
:100FB000364E87E0632F0E94A8068AE760E040E093
:100FC0000E943C06CE01B8010E94640680E86FE1F1
:100FD00048E00E943C06DF91CF911F910F91089548
:100FE00089E30E949E06811181E00895A0E0B0E0AF
:100FF000ECEFF7E00C9483085C014B0189E30E945D
:101000009E06882319F4C0E0D0E071C060917E0391
:1010100010917F0380E00E94A80681E0612F0E946A
:10102000A8068AE360E00E942706182F8AE360E0A2
:101030000E942706382F20E0E12EFF24E22AF32A1F
:10104000F0927F03E0927E038AE360E00E9427062D
:10105000C82E8AE360E00E942706D82E8AE360E06B
:101060000E942706082F10E08AE360E00E9427060E
:10107000382F20E0202B312B27FD03C0C0E0D0E02B
:1010800011C0CC2DD0E09D2D80E0C82BD92BC501FF
:10109000019724978C179D0708F4EC01CE01B40149
:1010A0000E944906DE2C8CE06E2D0E94A8068DE081
:1010B0006F2D0E94A80687010150104089E10F3F63
:1010C000180738F08CE06EEF0E94A8068DE069E109
:1010D00007C0DA948CE06D2D0E94A8068DE0612F88
:1010E0000E94A80680E86EE140E40E943C06CE0122
:1010F000CDB7DEB7ECE00C949F082F923F924F9251
:101100005F926F927F928F929F92AF92BF92CF9297
:10111000DF92EF92FF920F931F93CF93DF93CDB7A0
:10112000DEB7CA1BDB0B0FB6F894DEBF0FBECDBF18
:1011300009942A88398848885F846E847D848C84E9
:101140009B84AA84B984C884DF80EE80FD800C81F2
:101150001B81AA81B981CE0FD11D0FB6F894DEBFD5
:101160000FBECDBFED010895FB01DC0101900D9292
:101170000020E1F70895FB01DC014150504030F0C0
:101180008D910190801919F40020B9F7881B990BF3
:061190000895F894FFCF62
:1011960047455420002F2000653D6E6F5F636D64E8
:1011A60000743D3100743D3000653D6E6F5F7375B0
:1011B60063685F636D6400653D696E76616C696442
:1011C6005F7077005455581000240A0000187365A4
:0811D6006372657400500A0009
:00000001FF
