:100000000C9434000C9451000C9451000C94510049
:100010000C9451000C9451000C9451000C9451001C
:100020000C9451000C9451000C9451000C9451000C
:100030000C9451000C9451000C9451000C945100FC
:100040000C9451000C9451000C9451000C945100EC
:100050000C9451000C9451000C9451000C945100DC
:100060000C9451000C94510011241FBECFEFD4E02A
:10007000DEBFCDBF11E0A0E0B1E0EAE9FCE002C0E4
:1000800005900D92AC30B107D9F712E0ACE0B1E0C9
:1000900001C01D92A831B107E1F70E9453000C94F2
:1000A0004B060C9400001F93CF93DF9380E880935E
:1000B00061001092610084E294EF0197F1F7219AB8
:1000C000299A80E091E00E94DB0182E00E94D50144
:1000D00082E19AE70197F1F784E160E878E00E9415
:1000E000B70184EC99E028E331E0F9013197F1F7A9
:1000F0000197D9F784EC99E028E331E0F9013197D1
:10010000F1F70197D9F784E160E979E00E94B7013E
:1001100084EC99E028E331E0F9013197F1F7019798
:10012000D9F784EC99E028E331E0F9013197F1F750
:100130000197D9F784E160E878E00E94B70184EC88
:1001400099E028E331E0F9013197F1F70197D9F708
:1001500084EC99E028E331E0F9013197F1F7019758
:10016000D9F784E160E979E00E94B70184EC99E075
:1001700028E331E0F9013197F1F70197D9F784ECE1
:1001800099E028E331E0F9013197F1F70197D9F7C8
:1001900084E166E774E00E94B70188EE93E028E30B
:1001A00031E0F9013197F1F70197D9F780E091E05B
:1001B00066E071E040E50E94DA0310E08AEF90E02B
:1001C0006CE071E00E94DE02EC010097B9F38CE074
:1001D00091E0BE010E940004882329F08CE091E0A8
:1001E0000E94EC05EBCF8CE091E0BE010E941C0464
:1001F000882321F3112319F0299A10E002C02998CD
:1002000011E0809123018130C9F680912E01883060
:10021000A9F68CE091E0BE010E94CE05CFCF2A98CE
:10022000962F9F71982B9EBD0DB407FEFDCF1EBC6F
:100230000DB407FEFDCF67FF04C01EBC0DB407FE62
:10024000FDCF2A9A8EB508952A986F71682B6EBDDE
:100250000DB407FEFDCF4EBD0DB407FEFDCF2A9AAB
:100260000895AC01FB012A988AE38EBD0DB407FE08
:10027000FDCF9A01DF0108C01EBC0DB407FEFDCF03
:10028000215030408EB58D9321153105A9F7E40F2B
:10029000F51F10822A9A08959C01FB012A988AE78B
:1002A0008EBD0DB407FEFDCF08C080818EBD0DB49C
:1002B00007FEFDCF21503040319621153105A9F7B9
:1002C0002A9A08951F93CF93DF93182FC82FD0E059
:1002D000C076D0708091070290E0C817D90791F0DE
:1002E00080EA6FE143E00E94240185E0D595C7953F
:1002F0008A95E1F780E86FE14C2F0E942401107687
:1003000010930702DF91CF911F9108951F93182F2B
:100310000E94620180E0612F0E940F011F910895E9
:100320000F931F93182F062F0E94620180E4612F04
:10033000402F0E9424011F910F910895682F84ED92
:100340000E94900182ED61E00E9490018EE38A9507
:10035000F1F78AEE0E94860180FDFBCF82ED60E01E
:100360000E94900189ED0E94860190E008950F930C
:100370001F93982F162F072F84ED692F0E9490014D
:1003800086ED612F0E94900187ED602F0E94900101
:100390001EE303C0812F8A95F1F78AEE0E94860141
:1003A00080FDF8CF1F910F910895682F677085E742
:1003B0000E94900108950F931F938C01229A2A9A0C
:1003C00084B1886284B924982B982D9880E58CBDDF
:1003D0008DB581608DBD8FEF60E04FEF0E942401ED
:1003E0008DEC8A95F1F7109209021092080288E0CC
:1003F00060E00E94900189E060E00E9490018CE042
:1004000060E00E9490018DE060E00E9490018AE02F
:100410006EEF0E9490018BE069E10E94900184E000
:100420006FEF0E94900185E069E10E94900186E0F3
:100430006FEF0E94900187E06FE10E94900188E3D6
:1004400060EB0E94900188E26FE30E94900189E2D4
:1004500060E30E94900180E369EF0E94900181E3D4
:1004600067EF0E94900180EC6DE00E94900181ECAA
:1004700060E00E94900180E862EC42E30E94240167
:1004800086EC62E10E94900187EC6CE00E94900192
:1004900084EC62E10E9490018AEC6CED0E94900174
:1004A0008BEC65E00E94900184EEF80160810E946F
:1004B000900185EEF80161810E94900182EEF801C1
:1004C00062810E94900183EEF80163810E94900195
:1004D00080EEF80164810E94900181EEF80165814F
:1004E0000E94900180E160E071E00E94B7018FE11D
:1004F0000E94620180E86BE140EC0E94240180E8E8
:100500006FE144E00E9424011F910F91089582E75A
:100510000E948601089581E10E949E0120E0892BBE
:1005200009F021E0822F08950F931F93CF93DF935B
:10053000EC018B010FC08CE10E94860181FF0AC093
:1005400080E86FE140E80E94240180EA6FE140E822
:100550000E94240180E06FE10E940F0183FDEBCF38
:1005600082E06FEF0E94900183E069E10E949001B8
:10057000CE018150682F86E00E9490019E0121509B
:10058000364E87E0632F0E9490018AE760E040E0EA
:100590000E942401CE01B8010E944C0180E86FE165
:1005A00048E00E942401DF91CF911F910F9108959F
:1005B00089E30E948601811181E00895A0E0B0E006
:1005C000E4EEF2E00C941A065C014B0189E30E9410
:1005D0008601882319F4C0E0D0E071C06091080260
:1005E0001091090280E00E94900181E0612F0E9439
:1005F00090018AE360E00E940F01182F8AE360E017
:100600000E940F01382F20E0E12EFF24E22AF32A76
:10061000F0920902E09208028AE360E00E940F0172
:10062000C82E8AE360E00E940F01D82E8AE360E0C2
:100630000E940F01082F10E08AE360E00E940F0182
:10064000382F20E0202B312B27FD03C0C0E0D0E065
:1006500011C0CC2DD0E09D2D80E0C82BD92BC50139
:10066000019724978C179D0708F4EC01CE01B40183
:100670000E943101DE2C8CE06E2D0E9490018DE0F5
:100680006F2D0E94900187010150104089E10F3FBA
:10069000180738F08CE06EEF0E9490018DE069E160
:1006A00007C0DA948CE06D2D0E9490018DE0612FDF
:1006B0000E94900180E86EE140E40E942401CE0196
:1006C000CDB7DEB7ECE00C943606A0E0B0E0EBE688
:1006D000F3E00C941E066C01413081F468507040C8
:1006E0007B0100E010E0685F7F4F21E130E040E0F7
:1006F00050E0E20EF31E041F151F15C0423021F01A
:10070000EE24FF2487010FC0685070407B0100E099
:1007100010E0685F7F4F86E090E0A0E0B0E0E80E78
:10072000F91E0A1F1B1FF601EB0116C0808190E025
:10073000A0E0B0E0BA2FA92F982F8827218130E0C0
:1007400040E050E0822B932BA42BB52BE80EF91E32
:100750000A1F1B1F32962297C230D10538F7FB01C2
:10076000EE7FEC0DFD1D60FF15C0808190E0A0E0E4
:10077000B0E0BA2FA92F982F882708C02FEF3FEF9E
:1007800040E050E0E222F32204231523E80EF91E94
:100790000A1F1B1FC801AA27BB270097A105B10587
:1007A00069F7970120953095C901CDB7DEB7E8E02C
:1007B0000C943A06CF93DF93EC0140930A0120E0BA
:1007C00030E0F901EC5EFD4FDB01A20FB31F8C910D
:1007D00080832F5F3F4F2430310599F720E030E0D0
:1007E000F901E25FFD4FDE01A20FB31F8C91808300
:1007F0002F5F3F4F2630310599F7DF91CF91089554
:10080000FC0169327105B0F08485883099F48585E2
:10081000863081F4DF019696E4E1F2E09C918081DC
:10082000981741F41196319682E0E831F807B1F754
:1008300081E0089580E00895FC016A327105D0F0EE
:1008400084858830B9F485858823A1F4868585342C
:1008500089F4DF01E4E1F2E05E969C915E9780818D
:10086000981741F41196319682E0E831F807A1F724
:1008700081E0089580E00895FC01AEE0B2E0868159
:1008800080838D918683319682E0A431B807B9F7D1
:1008900008950F931F938C01FC01108E118E80E43C
:1008A000848B158A868BC8010E9664E170E040E067
:1008B0000E946503F801908F818F1F910F91089519
:1008C000AC01FC01A4E1B2E0828D868F8D91828F14
:1008D000319682E0A831B807B9F7CA010E944904ED
:1008E0000895FC0182A184A312A283A185A313A26F
:1008F00080910A0183A3DF01999694E08C91680F9F
:10090000711D14968C91149714966C93149722234E
:1009100011F08C9301C01C9291501197992319F0FA
:10092000672F7727EBCF222349F416A217A28091D5
:100930000B0180A711A68E5F80930B0112AA13AA48
:10094000442351F082E086AB84E087AB85E080AF42
:1009500080E881AF80E601C080E586A70895809198
:100960000A0290910B02892B19F420E030E006C0B6
:1009700020910C0230910D022E5D3F4FC901089568
:10098000FC01908980E0218930E0282B392B86A555
:1009900082958F7090E0880F991F880F991F909310
:1009A0000D0280930C0224513040281B390B3093E8
:1009B0000B0220930A021216130624F010920B0267
:1009C00010920A0208956A5C7F4FDC01A60FB71FE0
:1009D0006653704003C08D936F5F7F4FFA014F5F86
:1009E0005F4F84918823B9F7CB010895FA016A5CBF
:1009F0007F4FDC01A60FB71F6653704004C08D9374
:100A00006F5F7F4F319680818823C9F7CB010895AE
:100A1000EF92FF920F931F938C017B0189E1F80104
:100A200087A7CB018896908B818BC8010E944904CF
:100A3000F80112AA13AA8CE190E0E80EF91EC80191
:100A40004A96B70142E00E946503F80192AB83AB7E
:100A5000C7014A96B8010E9494021F910F91FF901E
:100A6000EF900895CF93DF93EC010E943C0480E166
:100A70008FA760910A0270910B026115710521F434
:100A8000CE0161E070E001C0CE0140E021E00E94B3
:100A90007104188A88E2898BCE010E946004CE011D
:100AA0004A966CE170E042E00E9465039AAB8BAB22
:100AB00086E390E0BE010E949402DF91CF910895F9
:100AC0000F931F938C010E943C04F801108A8CE262
:100AD000818BC8010E94600482E1F80187A7C801E8
:100AE00061E070E041E020E00E947104C8014A9694
:100AF00060E270E042E00E946503F80192AB83ABD4
:100B00008AE390E0B8010E9494021F910F9108952A
:100B1000A0E0B0E0EEE8F5E00C941F06EC017B01EC
:100B2000142FD22E032F0E943C041D3D08F01CED13
:100B3000188A145E198BCE010E9460048AA18CA3CE
:100B40008BA18DA30AA3DBA21EA214511FA31850D0
:100B500018A619A6DE019A9620E030E007C0F7013A
:100B6000E20FF31F80818D932F5F3F4F2117B8F362
:100B7000012F10E0005F1F4FCE014A96B80141E0FF
:100B80000E94650398A789A7C8014A96BE010E94E2
:100B90009402CDB7DEB7E7E00C943B060F931F93AA
:100BA000CF93DF93EC018B010E943C04CE010E94A5
:100BB00060041AA28CA1883F18F08DA18F5F8DA3CD
:100BC0008CA1885F8CA3C801BE010E949402DF91B2
:100BD000CF911F910F910895CF93DF93EC010E9465
:100BE0003C041C8A82E08D8BFE01AEE0B2E0868977
:100BF00080A38D91868B319682E0A431B807B9F736
:100C0000FE017C96A4E1B2E0808182878D91819380
:100C100082E0A831B807C1F78AE290E0BE010E94E5
:100C20009402DF91CF9108952F923F924F925F925D
:100C30006F927F928F929F92AF92BF92CF92DF92EC
:100C4000EF92FF920F931F93CF93DF93CDB7DEB751
:100C5000CA1BDB0B0FB6F894DEBF0FBECDBF0994E5
:100C60002A88398848885F846E847D848C849B843C
:100C7000AA84B984C884DF80EE80FD800C811B814A
:100C8000AA81B981CE0FD11D0FB6F894DEBF0FBE79
:0A0C9000CDBFED010895F894FFCFE9
:0C0C9A005455581000240A000018500A9D
:00000001FF
