:100000000C948D000C94AA000C94AA000C94AA00E5
:100010000C94AA000C94AA000C94AA000C94AA00B8
:100020000C94AA000C94AA000C94AA000C94AA00A8
:100030000C94AA000C94AA000C94AA000C94AA0098
:100040000C94AA000C94AA000C94AA000C94AA0088
:100050000C94AA000C94AA000C94AA000C94AA0078
:100060000C94AA000C94AA00485454502F312E30FE
:1000700020323030204F4B0D0A436F6E74656E7422
:100080002D547970653A20746578742F68746D6C9E
:100090000D0A0D0A3C68313E323030204F4B3C2F68
:1000A00068313E003C2F63656E7465723E3C687239
:1000B0003E3C62723E747578677261706869637302
:1000C0002E6F72670A003C63656E7465723E3C7009
:1000D0003E454E4332384A36302073696C69636F4F
:1000E0006E207265762069733A204200485454505D
:1000F0002F312E3020323030204F4B0D0A436F6E9F
:1001000074656E742D547970653A20746578742F17
:1001100068746D6C0D0A0D0A000011241FBECFEF2C
:10012000D4E0DEBFCDBF11E0A0E0B1E0EEEBFEE039
:1001300002C005900D92A231B107D9F713E0A2E1F8
:10014000B1E001C01D92AA34B107E1F70E94DA00C4
:100150000C945D070C940000A5E0B0E0E2EBF0E049
:100160000C94D2067C0160E070E04CEE50E00E94FE
:100170009705BC01C70146EC50E00E9497056C0151
:100180000E943B0390E08E010F5F1F4FB8014AE0D1
:1001900050E00E941807C701B601A8010E94AA05F5
:1001A000BC01C70144EA50E00E9497052596E8E0AB
:1001B0000C94EE06A4E1B0E0E0EEF0E00C94CD0685
:1001C00080E8809361001092610012E3812F8A958C
:1001D000F1F785E091E00E948F0282E00E9489029F
:1001E000812F8A95F1F7219A299A84E166E774E0D4
:1001F0000E946B021A95F1F7299885E091E06BE077
:1002000071E040E50E948E04FF24F39445E6842EBD
:1002100032E7732E2DE3922E92E4E92E86E0A82E8B
:10022000B12CAC0EBD1E6E010894C11CD11C86E21F
:1002300092E062E171E00E9492038C010097B9F3B1
:1002400082E191E0B8010E94B404882329F082E1A0
:1002500091E00E94A006EBCF82E191E0B8010E94FC
:10026000D004882321F3FF2019F0299AFF2403C02A
:100270002998FF24F39480912901813051F48091D1
:1002800034018830A1F682E191E0B8010E94820633
:10029000CECF863009F04AC080913601882339F6E6
:1002A00080913701803519F68091410181FF05C0A9
:1002B00082E191E00E941406BACF84FFB8CF82E1B8
:1002C00091E00E9474050E946305BC01009749F407
:1002D0008091410180FFABCF82E191E00E94E60571
:1002E000A6CF6E5E7E4F80E091E044E050E00E9439
:1002F000FF06009749F082E191E060E070E048E697
:1003000050E00E94970507C00E943B03682F82E1DE
:1003100091E00E94AC008C0182E191E00E94E60530
:1003200082E191E0B8010E94BC0581CF813109F0E2
:100330007ECF80913601843009F079CF80913701EA
:10034000803B09F074CF80913C01863709F06FCF74
:1003500089838A827B829C82ED820E943B0390E0AB
:10036000B5014AE050E00E941807C6016AE070E05B
:100370000E940D07482F82E191E0B60120EB34E0A6
:100380000E943C0654CF2A98962F9F71982B9EBDB1
:100390000DB407FEFDCF1EBC0DB407FEFDCF67FFF9
:1003A00004C01EBC0DB407FEFDCF2A9A8EB5089579
:1003B0002A986F71682B6EBD0DB407FEFDCF4EBD40
:1003C0000DB407FEFDCF2A9A0895AC01FB012A98CF
:1003D0008AE38EBD0DB407FEFDCF9A01DF0108C090
:1003E0001EBC0DB407FEFDCF215030408EB58D935D
:1003F00021153105A9F7E40FF51F10822A9A0895F7
:100400009C01FB012A988AE78EBD0DB407FEFDCF43
:1004100008C080818EBD0DB407FEFDCF2150304055
:10042000319621153105A9F72A9A08951F93CF9384
:10043000DF93182FC82FD0E0C076D0708091390399
:1004400090E0C817D90791F080EA6FE143E00E947D
:10045000D80185E0D595C7958A95E1F780E86FE1E9
:100460004C2F0E94D801107610933903DF91CF9161
:100470001F9108951F93182F0E94160280E0612F8C
:100480000E94C3011F9108950F931F93182F062FE9
:100490000E94160280E4612F402F0E94D8011F9114
:1004A0000F910895682F84ED0E94440282ED61E06F
:1004B0000E9444028EE38A95F1F78AEE0E943A0286
:1004C00080FDFBCF82ED60E00E94440289ED0E9436
:1004D0003A0290E008950F931F93982F162F072F3D
:1004E00084ED692F0E94440286ED612F0E94440230
:1004F00087ED602F0E9444021EE303C0812F8A957E
:10050000F1F78AEE0E943A0280FDF8CF1F910F9119
:100510000895682F677085E70E94440208950F933D
:100520001F938C01229A2A9A84B1886284B92498F4
:100530002B982D9880E58CBD8DB581608DBD8FEF9A
:1005400060E04FEF0E94D8018DEC8A95F1F7109290
:100550003B0310923A0388E060E00E94440289E085
:1005600060E00E9444028CE060E00E9444028DE062
:1005700060E00E9444028AE06EEF0E9444028BE039
:1005800069E10E94440284E06FEF0E94440285E02A
:1005900069E10E94440286E06FEF0E94440287E016
:1005A0006FE10E94440288E360EB0E94440288E20B
:1005B0006FE30E94440289E260E30E94440280E308
:1005C00069EF0E94440281E367EF0E94440280ECDD
:1005D0006DE00E94440281EC60E00E94440280E8E9
:1005E00062EC42E30E94D80186EC62E10E94440280
:1005F00087EC6CE00E94440284EC62E10E944402B9
:100600008AEC6CED0E9444028BEC65E00E9444028F
:1006100084EEF80160810E94440285EEF801618158
:100620000E94440282EEF80162810E94440283EE3D
:10063000F80163810E94440280EEF80164810E9407
:10064000440281EEF80165810E94440280E160E08D
:1006500071E00E946B028FE10E94160280E86BE15C
:1006600040EC0E94D80180E86FE144E00E94D8018C
:100670001F910F91089582E70E943A02089581E147
:100680000E94520220E0892B09F021E0822F089578
:100690000F931F93CF93DF93EC018B010FC08CE17D
:1006A0000E943A0281FF0AC080E86FE140E80E94A0
:1006B000D80180EA6FE140E80E94D80180E06FE154
:1006C0000E94C30183FDEBCF82E06FEF0E944402E2
:1006D00083E069E10E944402CE018150682F86E0E8
:1006E0000E9444029E012150364E87E0632F0E94F3
:1006F00044028AE760E040E00E94D801CE01B801E0
:100700000E94000280E86FE148E00E94D801DF917A
:10071000CF911F910F91089589E30E943A028111B0
:1007200081E00895A0E0B0E0E8E9F3E00C94CE06A3
:100730005C014B0189E30E943A02882319F4C0E06E
:10074000D0E071C060913A0310913B0380E00E94B9
:10075000440281E0612F0E9444028AE360E00E942B
:10076000C301182F8AE360E00E94C301382F20E004
:10077000E12EFF24E22AF32AF0923B03E0923A03AF
:100780008AE360E00E94C301C82E8AE360E00E9411
:10079000C301D82E8AE360E00E94C301082F10E055
:1007A0008AE360E00E94C301382F20E0202B312B28
:1007B00027FD03C0C0E0D0E011C0CC2DD0E09D2DBE
:1007C00080E0C82BD92BC501019724978C179D0772
:1007D00008F4EC01CE01B4010E94E501DE2C8CE0AE
:1007E0006E2D0E9444028DE06F2D0E94440287010D
:1007F0000150104089E10F3F180738F08CE06EEF90
:100800000E9444028DE069E107C0DA948CE06D2D0E
:100810000E9444028DE0612F0E94440280E86EE154
:1008200040E40E94D801CE01CDB7DEB7ECE00C94D5
:10083000EA06A0E0B0E0EFE1F4E00C94D2066C012F
:10084000413081F4685070407B0100E010E0685F47
:100850007F4F21E130E040E050E0E20EF31E041F44
:10086000151F15C0423021F0EE24FF2487010FC070
:10087000685070407B0100E010E0685F7F4F86E0C9
:1008800090E0A0E0B0E0E80EF91E0A1F1B1FF60181
:10089000EB0116C0808190E0A0E0B0E0BA2FA92F54
:1008A000982F8827218130E040E050E0822B932B65
:1008B000A42BB52BE80EF91E0A1F1B1F3296229798
:1008C000C230D10538F7FB01EE7FEC0DFD1D60FF56
:1008D00015C0808190E0A0E0B0E0BA2FA92F982F3A
:1008E000882708C02FEF3FEF40E050E0E222F322DC
:1008F00004231523E80EF91E0A1F1B1FC801AA278F
:10090000BB270097A105B10569F7970120953095A0
:10091000C901CDB7DEB7E8E00C94EE06CF93DF93C4
:10092000EC0140930F0120E030E0F901EA5BFC4F5D
:10093000DB01A20FB31F8C9180832F5F3F4F2430C8
:10094000310599F720E030E0F901E05CFC4FDE0171
:10095000A20FB31F8C9180832F5F3F4F263031054C
:1009600099F7DF91CF910895FC0169327105B0F0DC
:100970008485883099F48585863081F4DF019696E8
:10098000E6E4F3E09C918081981741F4119631964A
:1009900083E0EA34F807B1F781E0089580E0089534
:1009A000FC016A327105D0F084858830B9F4858500
:1009B0008823A1F48685853489F4DF01E6E4F3E039
:1009C0005E969C915E978081981741F411963196BE
:1009D00083E0EA34F807A1F781E0089580E0089504
:1009E000FC01A0E4B3E0868180838D9186833196FB
:1009F00083E0A634B807B9F708950F931F938C01CD
:100A0000FC01108E118E80E4848B158A868BC801C0
:100A10000E9664E170E040E00E941904F801908FA6
:100A2000818F1F910F910895AC01FC01A6E4B3E002
:100A3000828D868F8D91828F319683E0AA34B8079C
:100A4000B9F7CA010E94FD040895FC0182A184A3A4
:100A500012A283A185A313A280910F0183A3DF01BA
:100A6000999694E08C91680F711D14968C9114974F
:100A700014966C931497222311F08C9301C01C924E
:100A800091501197992319F0672F7727EBCF2223E5
:100A900049F416A217A28091100180A711A68E5FBB
:100AA0008093100112AA13AA442351F082E086AB6E
:100AB00084E087AB85E080AF80E881AF80E601C04D
:100AC00080E586A7089580913C0390913D03892B92
:100AD00019F420E030E006C020913E0330913F033E
:100AE0002E5D3F4FC9010895FC01908980E0218966
:100AF00030E0282B392B86A582958F7090E0880FE7
:100B0000991F880F991F90933F0380933E032451B0
:100B10003040281B390B30933D0320933C031216C1
:100B2000130624F010923D0310923C0308956A5C72
:100B30007F4FDC01A60FB71F6653704003C08D9333
:100B40006F5F7F4FFA014F5F5F4F84918823B9F742
:100B5000CB010895FA016A5C7F4FDC01A60FB71F35
:100B60006653704004C08D936F5F7F4F31968081D4
:100B70008823C9F7CB010895EF92FF920F931F933B
:100B80008C017B0189E1F80187A7CB018896908BC6
:100B9000818BC8010E94FD04F80112AA13AA8CE1FE
:100BA00090E0E80EF91EC8014A96B70142E00E94A3
:100BB0001904F80192AB83ABC7014A96B8010E94B1
:100BC00048031F910F91FF90EF900895CF93DF930B
:100BD000EC010E94F00480E18FA760913C037091CA
:100BE0003D036115710521F4CE0161E070E001C0A3
:100BF000CE0140E021E00E942505188A88E2898B19
:100C0000CE010E941405CE014A966CE170E042E0EC
:100C10000E9419049AAB8BAB86E390E0BE010E9460
:100C20004803DF91CF9108950F931F938C010E9489
:100C3000F004F801108A8CE2818BC8010E9414052F
:100C400082E1F80187A7C80161E070E041E020E09F
:100C50000E942505C8014A9660E270E042E00E94C9
:100C60001904F80192AB83AB8AE390E0B8010E94CB
:100C700048031F910F910895A0E0B0E0E2E4F6E090
:100C80000C94D306EC017B01142FD22E032F0E946B
:100C9000F0041D3D08F01CED188A145E198BCE017E
:100CA0000E9414058AA18CA38BA18DA30AA3DBA2A9
:100CB0001EA214511FA3185018A619A6DE019A9659
:100CC00020E030E007C0F701E20FF31F80818D9331
:100CD0002F5F3F4F2117B8F3012F10E0005F1F4F28
:100CE000CE014A96B80141E00E94190498A789A74D
:100CF000C8014A96BE010E944803CDB7DEB7E7E0BF
:100D00000C94EF060F931F93CF93DF93EC018B01AD
:100D10000E94F004CE010E9414051AA28CA1883F03
:100D200018F08DA18F5F8DA38CA1885F8CA3C80163
:100D3000BE010E944803DF91CF911F910F9108954A
:100D4000CF93DF93EC010E94F0041C8A82E08D8B2C
:100D5000FE01A0E4B3E0868980A38D91868B319655
:100D600083E0A634B807B9F7FE017C96A6E4B3E0A9
:100D7000808182878D91819383E0AA34B807C1F77F
:100D80008AE290E0BE010E944803DF91CF9108956E
:100D90002F923F924F925F926F927F928F929F928B
:100DA000AF92BF92CF92DF92EF92FF920F931F9379
:100DB000CF93DF93CDB7DEB7CA1BDB0B0FB6F8942A
:100DC000DEBF0FBECDBF09942A88398848885F846A
:100DD0006E847D848C849B84AA84B984C884DF80DB
:100DE000EE80FD800C811B81AA81B981CE0FD11DBF
:100DF0000FB6F894DEBF0FBECDBFED010895FB0125
:100E0000DC014150504030F08D910190801919F46F
:100E10000020B9F7881B990B0895FC0161507040C0
:100E200001900110D8F7809590958E0F9F1F08951F
:100E3000FB019F01E8944230C4F04532B4F44A30DB
:100E400029F497FB1EF4909581959F4F642F772787
:100E50000E944907805D8A330CF0895D8193CB0144
:100E60000097A1F716F45DE251931082C9010C942A
:100E70003907DC01FC01672F71917723E1F7329785
:100E800004C07C916D9370836291AE17BF07C8F365
:100E90000895AA1BBB1B51E107C0AA1FBB1FA617C1
:100EA000B70710F0A61BB70B881F991F5A95A9F713
:0E0EB00080959095BC01CD010895F894FFCF78
:100EBE0047455420005455581000240A000018507D
:020ECE000A0018
:00000001FF
