:020000040000FA
:060000007EEF0AF0120081
:0A000600010034150000000F000097
:0400100034000000B8
:0C0014000001ABC000F0ACC001F0AB0775
:10002000000EAC5B005001100EE00D01040E006FDD
:100030000D01005100070009EDE04B0EE66E8CEC5F
:100040000AF0E552F5D712008A989E96ADC0C9FF16
:100050009EA6FED7C9CF05FD9E96C96A9EA6FED76D
:10006000C9CF05FD9E96C96A9EA6FED7C9CF05FDDC
:100070009E968A880D01055112008A989E96AEC000
:10008000C9FF9EA6FED7C9CF35FD9E96C96A9EA61A
:10009000FED7C9CF35FD9E968A880D0135511200D5
:1000A0008A989E96400E0001AF11C96E9EA6FED79B
:1000B000C9CF35FD9E96B0C0C9FF9EA6FED7C9CF59
:1000C00035FD9E968A8812008A989E96800E0001C1
:1000D000B111C96E9EA6FED7C9CF35FD9E96B2C09E
:1000E000C9FF9EA6FED7C9CF35FD9E968A8812000D
:1000F0008A989E96A00E0001B311C96E9EA6FED7E7
:10010000C9CF35FD9E96B4C0C9FF9EA6FED7C9CF04
:1001100035FD9E968A8812000001030EB46F00011F
:100120001F0EB36FE5DFB6C0B2F000011F0EB16F56
:1001300064EF00F00001140EB56F020EB66FECDF35
:10014000B7C0B0F00001140EAF6FAADF0001010EBE
:10015000B06F0001120EAF6FA3DF00010A0EB56F82
:10016000030EB66FD9DF00010A0EAD6F6DDF006EB2
:10017000000100B0F8D70001140EB56F020EB66F83
:10018000CBDF0001B06B0001120EAF6F89DF000101
:10019000180EAD6F59DF006EE8CF03FD0001190E98
:1001A000AD6F52DF006EE8CF04FD03CDF3FFF46EB8
:1001B00012000001140EB56F020EB66FADDFB8C0AD
:1001C000B0F00001140EAF6F6BDFB9C0B0F00001EA
:1001D000160EAF6F65DFBAC0B0F00001170EAF6F3B
:1001E0005FDF00010A0EB56F030EB66F95DF0001E9
:1001F0000A0EAD6F29DF006E000100B0F8D71200C3
:100200008A989E963A0EC96E9EA6FED7C9CF04FD67
:100210009E96C96A9EA6FED7C9CF04FD9E968A887F
:100220000D01045112008A989E963A0EC96E0D0176
:10023000356B366B0001BB07000EBC5B9EA6FED77C
:10024000C9CF37FD9E960001BD510D01355D0001FE
:10025000BE510D01365910E2C96A352B000E362306
:100260000001BB2BBC239EA6FED7C950BBC0E9FF33
:10027000BCC0EAFFEF6EE6D78A8835CDF3FF36CDF6
:10028000F4FF12008A989E967A0EC96E9EA6FED73B
:10029000C9CF29FD9E96BFC0C9FF9EA6FED7C9CF74
:1002A00029FD9E968A8812008A989E967A0EC96EBB
:1002B0009EA6FED7C9CF29FD9E960001C251C3114B
:1002C0000EE0C0C0E9FFC1C0EAFFEF50C96EC02B0D
:1002D000000EC123C207C35B9EA6FED7EBD78A8858
:1002E00012000001010EB76F25DFF350040B01E08F
:1002F000010E12000001C45109E000011F0EAE6F93
:10030000BCDEE850080B080A29E0010CA451A35DEB
:100310000AE100011F0EAE6FB0DE0001E850080BCD
:10032000080A1CE0010C0D01010E296F070E295D62
:1003300014E22951050DF3CFE9FFF4CFEAFF800E57
:10034000E926000EEA22040EE926000EEA22EF500A
:10035000010B01E0010C292BE9D7000E120000016E
:10036000C55109E000011F0EAE6F87DEE850080B93
:1003700001E1000CFF0C0D01010E006F070E005D86
:1003800033E20051050DF3CFE9FFF4CFEAFF800E11
:10039000E926000EEA22040EE926000EEA22EF50BA
:1003A000010B20E00051050DF3CFE9FFF4CFEAFF88
:1003B000800EE926000EEA22040EE926000EEA224B
:1003C000EF900051050DF3CFE9FFF4CFEAFF800E67
:1003D000E926000EEA22040EE926000EEA22EF9238
:1003E00000511200002BCAD7FF0CC6C0A3F00001B9
:1003F000C651050DF3CFE9FFF4CFEAFF800EE926E1
:10040000000EEA22EECF00F0EFCF01F0010E002641
:10041000000E01220E0E0026000E01220050C727FA
:100420000150C823020E0001B56FB66B75DEC7C060
:10043000B0F00001AF6B34DEC8C0B0F00001010EB7
:10044000AF6F2EDEC7C0B0F00001020EAF6F28DE26
:10045000C8C0B0F00001030EAF6F50EF00F0000114
:10046000C951006E016A070E005C000E015811E2CE
:10047000C951050DF3CFE9FFF4CFEAFF800EE9265D
:10048000000EEA22040EE926000EEA22EF80C9C01F
:10049000A3F01200140E0001016AA725006EA851F6
:1004A00001220050CA250D01006F01500001CB212F
:1004B0000D01016F00CD00F0016E026A036AD88061
:1004C000070E0054100E0154000E0254000E035487
:1004D00004E2080E005F100E015B0001B56BB66B05
:1004E0001BDE00CDB0F00001AF6BDADD01CDB0F066
:1004F0000001010EAF6FD4DD00CDB0F00001020E9F
:10050000AF6FCEDD01CDB0F00001030EAF6F50EF45
:1005100000F00001190EB56F010EB66FFDDD000190
:10052000190EAE6FAADD006EE8CF00FD0E0E0001C1
:10053000B56FB66BF1DD00010E0EAE6F9EDD006E85
:10054000E8CF02FD00010F0EAE6F97DD006EE8CF21
:1005500003FD0001190EB56F010EB66FDDDD000160
:10056000190EAE6F8ADD006E0D0100510001005CB6
:10057000D6E10C0E0001B56FB66BCEDD00010C0E9E
:10058000AE6F7BDD006EE8CF00FD00010D0EAE6F9B
:1005900074DD006EE8CF01FD0D010251005D0351D5
:1005A00001591BE2070E046E100E056E066A076AFB
:1005B0000051025D086E03510155096E0A6A0B6A0B
:1005C0000850045C006E09500558016E0A50065828
:1005D000026E0B500758036E14D00051021908E147
:1005E0000151031905E1070EF36E100EF46E1200AF
:1005F0000251005D006E01510355016E0006000EB0
:10060000015A00C0F3FF01C0F4FF12000001A9511C
:1006100001E01200010EA96FA5C014FDA6C015FDD2
:100620000D01145F000E155B14CD00F015CD01F027
:10063000026A036AD880070E0054100E0154000E9F
:100640000254000E035404E2070E146F100E156FCF
:100650000001400EB26F00011E0EB16F35DD0C0EB1
:100660000001B56FB66B58DD14CDB0F000010C0E73
:10067000AF6F16DD15CDB0F000010D0EAF6F50EF6E
:1006800000F00001190EB56F010EB66F45DD0001D7
:10069000190EAE6FF2DC006E0001005002E1000E98
:1006A00090D00001A95103E1B1DF000E8AD0A5C0AE
:1006B000A7F0A6C0A8F00001B56BB66B2DDDA5C0F4
:1006C000B0F00001AF6BECDCA6C0B0F00001010E91
:1006D000AF6FE6DC140E0001BD6FBE6B0001000EB3
:1006E000BB6F0D0EBC6F9FDD12CDDBF013CDDCF0C8
:1006F000F1EC07F0F3CF12FDF4CF13FD00CD00F0C5
:1007000001CD01F0026A036AD880070E0054100E72
:100710000154000E0254000E03541BE30D010D01A1
:100720000051010B16E10D010D010551800B11E186
:100730000D010D010451100B0CE10D01EE0ED880DE
:100740000255050E035505E30D010D010451800B03
:1007500001E1FF0000CDA5F001CDA6F0060EE66E8A
:10076000E66A0C0EE66E0D0EE66ECCC0E9FFCDC05B
:10077000EAFFE9CF00F0EACF01F000C0E6FF01C0D8
:10078000E6FF43EC0AF0026E060EE15E0250CEC0B8
:10079000E9FFCFC0EAFFEF68080E0D01135D0DE120
:1007A0000D01125104E0060E0D01125D06E1CEC0EE
:1007B000E9FFCFC0EAFF12CDEFFF0001A96B010EE8
:1007C00000D01200020E0001B56FB66BA5DC00016F
:1007D000A351050DF3CFE9FFF4CFEAFF800EE92620
:1007E000000EEA22EFCFB0F00001020EAF6F58DC2E
:1007F0000001A351050DF3CFE9FFF4CFEAFF800E0E
:10080000E926000EEA22010EE926000EEA22EFCFC9
:10081000B0F00001030EAF6F43DC0001A351050DE2
:10082000F3CFE9FFF4CFEAFF800EE926000EEA22BB
:10083000EECF00F0EFCF01F00E0E0026000E0122E9
:100840000050D3270150D423A351050DF3CFE9FF66
:10085000F4CFEAFF800EE926000EEA22020EE92616
:10086000000EEA22D3C0EEFFD4C0EDFF0001BF6B43
:1008700009DD060E0001C26FC36BD0C0C0F0D1C04D
:10088000C1F012DD060E0001C26FC36B0001040E41
:10089000C06F0F0EC16F08DD0001080EBF6FF2DCE4
:1008A0000001D25102E1000E01D0060E0001BF6F1F
:1008B00042EF01F0040E0001B56FB66B2DDC0001B4
:1008C000A351050DF3CFE9FFF4CFEAFF800EE9262F
:1008D000000EEA22EFCFB0F00001040EAF6F50EC33
:1008E00000F00001A351050DF3CFE9FFF4CFEAFFBB
:1008F000800EE926000EEA22010EE926000EEA2209
:10090000EFCFB0F00001050EAF6F50EC00F000012A
:10091000A351050DF3CFE9FFF4CFEAFF800EE926DE
:10092000000EEA22020EE926000EEA22EFCFB0F016
:100930000001060EAF6F50EC00F00001A351050D51
:10094000F3CFE9FFF4CFEAFF800EE926000EEA229A
:10095000020EE926000EEA22010EE926000EEA2226
:10096000EFCFB0F00001070EAF6F50EC00F0A3C066
:10097000A4F00001A351050DF3CFE9FFF4CFEAFF86
:10098000800EE926000EEA22040EE926000EEA2275
:10099000EF8200011C0EAE6F3DEC00F0006E000116
:1009A00000A210D00001800EB26F00011F0EB16FC7
:1009B00064EC00F00001800EB46F00011F0EB36FF5
:1009C00078EC00F000010A0EB46F00011C0EB36F4A
:1009D00078EC00F00001080EB26F00011F0EB16F3D
:1009E00064EC00F0050E0001AA5D01E0C8D0000132
:1009F0001C0EAE6F3DEC00F0006E0A0E00010014FC
:100A0000F6E000011C0EAE6F3DEC00F0006E000140
:100A100000A2B5D00001080EB46F00011F0EB36F25
:100A200078EC00F00001B56BB66B8CEC00F00001C7
:100A3000AE6B3DEC00F0006EE8CF29FD0001010E29
:100A4000AE6F3DEC00F0006EE8CF2AFD0001060E0F
:100A5000AE6F3DEC00F0006EE8CF2BFD0001070EFD
:100A6000AE6F3DEC00F0006EE8CF2CFD0D012B2B9E
:100A7000000E2C232BCDB0F00001AF6B50EC00F03A
:100A80002CCDB0F00001010EAF6F50EC00F0070E5E
:100A90000001BD6FBE6B00012D0EBB6F0D0EBC6F54
:100AA00013EC01F00D01346B100E345D5BE20001BC
:100AB0001C0EAE6F3DEC00F0006E0001E850020B22
:100AC00051E00D013051200B4DE00001800EB26F5E
:100AD00000011F0EB16F64EC00F00001800EB46FD6
:100AE00000011F0EB36F78EC00F000010A0EB46F26
:100AF00000011C0EB36F78EC00F00001080EB26F1D
:100B000000011F0EB16F64EC00F000011C0EAE6F0F
:100B10003DEC00F0006E0A0E00010014F6E000014A
:100B2000080EB46F00011F0EB36F78EC00F02BCDF0
:100B3000B0F00001AF6B50EC00F02CCDB0F0000134
:100B4000010EAF6F50EC00F0070E0001BD6FBE6BE1
:100B500000012D0EBB6F0D0EBC6F13EC01F00D01EB
:100B6000342BA2D729CDB0F00001AF6B50EC00F0D0
:100B70002ACDB0F00001010EAF6F50EC00F0120072
:100B80000001200EB46F00011E0EB36F78EC00F070
:100B900000011D0EAE6F3DEC00F0006E000100A0E4
:100BA000F7D70001040EB26F00011F0EB16F64EFA2
:100BB00000F00001040EB46F00011F0EB36F78EC5B
:100BC00000F000011D0EAE6F3DEC00F0006E000164
:100BD00000B4F7D700011F0EAE6F3DEC00F0006EC1
:100BE000000100B6F7D70001200EB26F00011E0E03
:100BF000B16F64EF00F000010C0EB46F00011F0E26
:100C0000B36F78EC00F00001B76B9AEC00F0F3CF13
:100C100001FDF4CF02FD020E0001D55D06E10D01DC
:100C20000251010B0001D56F0DD0D5510D0102917C
:100C3000E8B0028101CDB9F002CDBAF00001B86B85
:100C4000D9EC00F00001020EB56FB66F8CEC00F02D
:100C50000001020EAD6F24EC00F00D01006F0001E9
:100C6000D5510D010091E8B0008100CDB0F0000138
:100C7000020EAF6F50EC00F00001D55102E0150EEE
:100C800001D0120E0001B06F0001040EAF6F50ECE6
:100C900000F00001040EB26F00011F0EB16F64EF8F
:100CA00000F00001150EB56F030EB66F8CEC00F06E
:100CB000D6C0B0F00001150EAF6F50EC00F000018F
:100CC000B56BB66B8CEF00F00001150EB56F030E1F
:100CD000B66F8CEC00F00001150EAE6F3DEC00F02D
:100CE000006EE8CF00FD0001B56BB66B8CEC00F038
:100CF0000D01005112008A989E96C9689EA6FED7E3
:100D0000C9CF00FD9E968A8812009E9600011D0E96
:100D1000AE6F3DEC00F0006EE8CF06FD080E0D0151
:100D20000615F4E1061D010BF1E1E5DF010E0001FE
:100D3000AB6FAC6B0AEC00F00D01066B070E065DA5
:100D400039E20651006E016A480E0102F3CF01F04C
:100D5000020E0002F3500126480E0002F3CF00F00D
:100D6000F4500126026A036A080E0026100E0122C2
:100D7000000E022203220651050DF3CFE9FFF4CF46
:100D8000EAFF800EE926000EEA2200C0EEFF01C055
:100D9000EDFF0651050DF3CFE9FFF4CFEAFF800E1A
:100DA000E926000EEA22040EE926000EEA22EF8070
:100DB000062BC4D70001A36B010EA96FA56BA66B10
:100DC0000001B06B0001080EAF6F50EC00F00001A5
:100DD000B06B0001090EAF6F50EC00F00001070E80
:100DE000B06F00010C0EAF6F50EC00F00001100E60
:100DF000B06F00010D0EAF6F50EC00F00001070E58
:100E0000B06F00010A0EAF6F50EC00F00001100E41
:100E1000B06F00010B0EAF6F50EC00F00001080E38
:100E2000B06F0001040EAF6F50EC00F00001100E27
:100E3000B06F0001050EAF6F50EC00F00001B56B14
:100E4000020EB66F8CEC00F000010D0EB06F0001C9
:100E5000AF6B50EC00F00001320EB06F0001020EDB
:100E6000AF6F50EC00F00001400EB06F0001030EB8
:100E7000AF6F50EC00F000013F0EB06F0001090EA3
:100E8000AF6F50EC00F00001120EB06F0001060EC3
:100E9000AF6F50EC00F000010C0EB06F0001070EB8
:100EA000AF6F50EC00F00001EE0EB06F00010A0EC3
:100EB000AF6F50EC00F00001050EB06F00010B0E9B
:100EC000AF6F50EC00F00001040EB56F030EB66F6B
:100ED0008CEC00F004CFB0F00001040EAF6F50ECCA
:100EE00000F005CFB0F00001050EAF6F50EC00F040
:100EF00006CFB0F00001020EAF6F50EC00F007CF4C
:100F0000B0F00001030EAF6F50EC00F008CFB0F06E
:100F10000001AF6B50EC00F009CFB0F00001010E02
:100F2000AF6F50EC00F00001120EAE6F3DEC00F020
:100F3000006EE8CFAAF00001B96B010EBA6F000194
:100F4000100EB86FD9EC00F00001720EB96F040EEC
:100F5000BA6F0001140EB86FD9EC00F00001D56B28
:100F60004ADE0001040EB26F00011F0EB16F64EF84
:020F700000F08F
:0E0F72000001D851460802E2200ED85FD75188
:100F8000460802E2200ED75FD851390802E2370E38
:100F900001D0300ED85FD751390802E2370E01D0A8
:100FA000300ED75FD839F00BD71112000001D939B4
:100FB0000F0BD96FE850090804E2410ED925F60F4E
:100FC0001200300ED92512000F0E0001DA17DA5187
:100FD000090804E2410EDA25F60F1200300EDA2578
:100FE0001200DCC0F3FFDBC0F4FF1200DDC001FD26
:100FF000DEC002FDDFC003FDE0C004FD0D01010EF7
:10100000056F0D0E066F05CDE9FFEA6E030EE926AA
:10101000000EEA22EFCF00FD05CDE9FF06CDEAFF85
:10102000EF50E66E030EE926000EEA22E552E75085
:10103000EF6E05CDE9FF06CDEAFF00CDEFFF05CD50
:10104000E9FF06CDEAFF020EE926000EEA22EFCF05
:1010500000FD05CDE9FF06CDEAFF010EE926000EF1
:10106000EA22EF50E66E05CDE9FF06CDEAFF020E5B
:10107000E926000EEA22E552E750EF6E05CDE9FFC2
:1010800006CDEAFF010EE926000EEA2200CDEFFFB1
:1010900001CD10F002CD11F003CD12F004CD13F00C
:1010A00012000D01316B326B336B346BE3C029FDE1
:1010B000E4C02AFDD8902A332933E1C02BFDE2C0D9
:1010C0002CFD29CD00F02ACD01F02907000E2A5B66
:1010D0000050011018E02BCDE9FF2CCDEAFF020EE5
:1010E0002B27000E2C23EECF00F0EFCF01F00001F4
:1010F00000500D013127000101500D013223000E77
:1011000033233423DED70001E351010B0EE02BCD56
:10111000E9FF2CCDEAFFEFCF00F0000100500D01F8
:101120003127000E32233323342333CD2FFD34CD2A
:1011300030FD33CD29FD34CD2AFD0D012F51301165
:101140001BE0336B346B31CD00F032CD01F0026A1D
:10115000036A29CD04F02ACD05F0066A076A00501B
:101160000424316F01500520326F02500620336F86
:1011700003500720346FD9D731CD00F032CD01F0C4
:10118000001E011E00C0F3FF01C0F4FF12000D019C
:10119000010E006F016B026B0001E5C000F0E6C0BC
:1011A00001F0E507000EE65B0050011020E000ECC6
:1011B00001F00D01036F00510AE103510125016F98
:1011C0000351015D0DE2022B0BE1012B09D003510C
:1011D0000225026F0351025D03E2012B01E1022BA4
:1011E000005102E0000E01D0010E006FD5D70D01B5
:0E11F000021D026F011DF36E02CDF4FF12000E
:0211FE00896AFC
:10120000010E926E100E8A6E010E936EC00E8B6EE2
:10121000900E946E200EAC6E900EAB6EAC84270ECA
:10122000AF6EC26A0F0EC16EF19ED08EF28EF28C3E
:10123000200EC66E400EC76E12000D01430E1C6FCD
:101240006F0E1D6F620E1E6F720E1F6F610E206F8C
:10125000780E216F286B2269236924692569266924
:10126000276900012C0EDB6F0B0EDC6FF1EC07F031
:10127000F3CF00FDF4CF01FD00015F0EDB6F760EB2
:10128000DC6FF1EC07F0F3CF02FDF4CF03FD0E0E9F
:101290000D01046F056B066B076B450E086F096B3C
:1012A000140E04250A6F000E05210B6F0F01322B5F
:1012B000000E332332CF0CFD33CF0DFD0D010E6B2D
:1012C0000F6B640E106F110E116F126B136B00CF4A
:1012D00014FD01CF15FD02CF16FD03CF17FD1869D0
:1012E00019691A691B690ACDDBF00BCDDCF0F1EC52
:1012F00007F0F3CF0AFDF4CF0BFD0CCDDBF00DCDE5
:10130000DCF0F1EC07F0F3CF0CFDF4CF0DFD12CDC6
:10131000DBF013CDDCF0F1EC07F0F3CF12FDF4CFEE
:1013200013FD140E0001E36FE46B0001080EE16F82
:101330000D0EE26F51EC08F0F3CF12FDF4CF13FD68
:101340000001010EC46F7AEC01F00009F9E0140EFF
:101350000001C76FC86B28CDC6F0F5EC01F0140E84
:101360000D0104250001D36F000E0D0105210001C0
:10137000D46F0001D26B0001220ED06F0D0ED16F21
:10138000E2EC03F0140E0001C26FC36B0001080E03
:10139000C06F0D0EC16F54EC01F004CDDBF005CD34
:1013A000DCF0F1EC07F0F3CF04FDF4CF05FD080EFF
:1013B0000001C26FC36B0001000EC06F0D0EC16F44
:1013C00054EC01F0060E0001C26FC36B00011C0E4D
:1013D000C06F0D0EC16F54EC01F05AEF04F00FDF37
:0813E00085EC06F02ADFFED7C0
:0813E800060EF66E000EF76E12
:1013F000000EF86E00010900F550EC6F0900F55081
:10140000ED6F03E1EC6701D03DD00900F550E76FC7
:101410000900F550E86F0900F550E96F090009006F
:10142000F550E96E0900F550EA6E0900090009005F
:10143000F550EA6F0900F550EB6F09000900F6CF8F
:10144000EEF0F7CFEFF0F8CFF0F0E7C0F6FFE8C02E
:10145000F7FFE9C0F8FF0001EA5302E1EB5307E0B0
:101460000900F550EE6EEA07F8E2EB07F9D7EEC097
:10147000F6FFEFC0F7FFF0C0F8FF0001EC07000E29
:06148000ED5BBFD7120076
:0A148600D9CFE6FFDACFE6FFFA0E39
:10149000E3CFD9FFFB0EE3CFDAFFFC0EE3CFE9FF8A
:1014A000FD0EE3CFEAFFE9CFF3FFEACFF4FFF80E3A
:1014B000E35003E1F90EE35008E0F80EE30602E220
:1014C000F90EE306DECFEEFFF2D7FF0EE3CFDAFF31
:0C14D000E552FF0EE3CFD9FFE5521200F9
:0414DC00800EF36E1D
:1014E00000EE00F00F0E01D81200EA6002D0EE6AA2
:0C14F000FCD7F350E9601200EE6AFCD754
:0414FC001EEE00F0F0
:101500002EEE00F0F86A169CF4EC09F099EC0AF063
:08151000EFEC09F0FBD712001B
:08151800FF0EE350E84E120043
:0E152000000000D000D000D0E82EFAD7120054
:02152E000D0AA4
:0115300000BA
:021532001200A5
:0C153400C0A8010C0004A3000200FFFF8F
:10154000FF00C0A80101C0A80101010000000000C7
:10155000000000000000000000000000000000008B
:08156000000000000000000083
:020000040030CA
:0100010004FA
:0100020018E5
:010003001EDE
:0100050001F9
:010006008178
:00000001FF
