:020000040000fa
:08000000f27104000000000091
:020000040000fa
:100400005c03040000000000c00d040000000000b8
:100410000000040000000000ec874700889fbe0039
:100420008a9fbe008c9fbe008e1f7800f0b79f0091
:1004300081bf9f008204780000047800010037002b
:100440000804e800184778000e00fb00e6000700eb
:100450000000e000faff3a00d0c2b300804f57001e
:100460000500320000c0e900804f57000200320052
:1004700000477800010037000804e8000900e000a8
:1004800045003500e18f5400430032004002200057
:10049000808f540040003c000900e0000e00340052
:1004a000f08f54001a003a0000c3b300984f1000b8
:1004b00016003a009840900080c7b30080cf5000eb
:1004c0000300320080c5b30080cf50000f003a0017
:1004d0000884e8000e003700a900200000c3b30024
:1004e000984f10000a003a009840900080c7b3006f
:1004f00080cf5000040032008900200080c5b30086
:1005000080cf500002003a000884e8000901200072
:1005100008057800010037000a05e80000c3b300b1
:100520009a4f1000fcff32008a0578006066b80020
:100530000e00370070a6200000425200c4ef9f005a
:100540006149b9000c00be003a0707004fea970066
:100550000401fb00cf91de008b05e800ccb79f00c3
:10056000ddb79f0000064100818649001b00fb00ab
:10057000a5000700800078000901780070a620001f
:10058000a8000700000278000000e000e9ff3a0040
:100590008b0f540006003a000fb897000000e000ef
:1005a00029003200ffb097000108780026003700cc
:1005b0008a80550020a42000694078000000fb00dc
:1005c00000805000160033004240a9000f003c009c
:1005d0004fe997000200fb00cf80de0000005600cc
:1005e00081805e00800f5600818f5e000700390019
:1005f0006149b900de0607004fb19700dfb19700ef
:10060000820f5000838f5800050032002002200026
:10061000206488000086eb008086eb000500370030
:10062000d0c2b300804f570002003a0060061600a7
:10063000e0861e008fb997000300e000030032003f
:100640008b097800010037006066b8000c00be001e
:100650004f0778004f06be004f05be004f04be0096
:10066000cf00b100000006008000780001003700d4
:100670000000e8001004e000fdff3a000100500017
:100680000000060001942000770007000000e00051
:100690000600350001942000a0002000b8000700eb
:1006a0008000eb000000e00001003d008080eb00d6
:1006b0000100780000000600889fbe0080047800da
:1006c0000100780002047800890178001100200000
:1006d000d1000700880f5000010032008004eb00b9
:1006e000090078004f04be00000006000000fa0078
:1006f0004fb99700e881570001942000c0352000d1
:100700001a0107000080fa00000006000b00370005
:100710001042780091417800834f5200040032006b
:100720000081eb00070039001200200005003700af
:100730000000e8008100e8000201e9000200e0009a
:10074000f3ff3a0002007800000006000002780083
:1007500003003700035a78008100e8000201e90035
:100760000200e00006003200914178000304e0003e
:10077000f8ff3a00005aeb000201e900fdff3a00e1
:1007800000000600040037000204e0000a00320006
:100790000000e8008100e80010417800914f51000e
:1007a000f9ff32000081eb0010407800914f5000bb
:1007b00004003900020037000001eb00010037009f
:1007c000120020000200780000000600800178007e
:1007d00002003700b15978000201e9000200e00090
:1007e000fcff3a00000006006900e100040035004b
:1007f0006d00e100030034000002b100010032008e
:100800000000050010000500800078001104b10010
:10081000030035009101b10001003c000050a00030
:10082000000006000600370090cf100002003a00da
:1008300000017800040037000000e8000201e90030
:100840000200e000f8ff3a00020078000000060015
:10085000106480000000e000010032000000010090
:1008600040c8200000000600889fbe008a9fbe008e
:1008700000057800810478002d003700c900900041
:1008800069009000808f5000040039000900780052
:100890006f0107000000e000350035000040200037
:1008a0001900600009003200a10020000a00780051
:1008b000aa010700800578000000e0000300320074
:1008c0000a0050000004e800040037000a00780025
:1008d00065ff0700000478008005eb00c901900067
:1008e0006900900003005000880f500002003100a2
:1008f000000478008005eb00080178008a00780089
:1009000003007800b1ff070008054500490090008a
:1009100000004400c00498000b00e0000400320016
:1009200009007800980107000000e00010003a007c
:100930001a04e000d1ff3a00008020001900600096
:1009400004003200090078008f0107000000e00079
:1009500007003a0000c020001900600005003200c6
:1009600049009000e00498000000eb00010037000f
:100970000080eb004f05be004f04be0000000600e3
:10098000889fbe008a1f78008004780001047800e8
:1009900000457800c100900068009000808f5000f2
:1009a0000400390008007800290107000000e00079
:1009b0001500350048009000095878004004980060
:1009c0001800780000b8a30004003a0000a8a300b3
:1009d00006003200ea4f550004003a000800780093
:1009e000690107000000e00007003a0000c0200095
:1009f0001800600002003200480090006004980077
:100a00000a80fb00010037000080eb004f057800f2
:100a10004f04be0000000600889fbe008a9fbe00f3
:100a20008c9fbe008e1f78008106780083047800ba
:100a3000000678000288b900000778000000e00096
:100a400002003a0000017800420037000d00e0008b
:100a50004000320000057800c90090006900900055
:100a6000808f50000400390009007800f80007006a
:100a70000000e0002900350000402000190060005f
:100a800003003a000a047800800578000b00370064
:100a90000a017800a10020000c00780061ff070027
:100aa000800578000000e00002003a000a047800a7
:100ab000020037000c0050000004e800c90190005b
:100ac0006900900003005000880f500002003100c0
:100ad000000478008005eb00080178008c007800a5
:100ae0000300780039ff0700080646000805550096
:100af0004900900000004400c00498000b00e00092
:100b000004003200090078001f0107000000e00027
:100b100002003a000a00e000cfff3a000080200007
:100b20001900600002003200090078001601070079
:100b300000c020001900600002003200490090004f
:100b4000e00498000a005700110009000d80d80049
:100b500000017800020078004f0778004f06be00c1
:100b60004f05be004f04be00000006006200fa0000
:100b7000889fbe008a9fbe000004be000205780068
:100b80008300780060f92f000f0040003b01070050
:100b900088979f0099979f000000eb00a09f9f00ff
:100ba0009a4578000b80fb000000ea00cf04de00cd
:100bb00050c2b30080cf5500020032000904780013
:100bc000010037000904e9000800e0000b003400d0
:100bd0001f909700080178008a0078008f91970095
:100be0000300010090979f000000e0009300320096
:100bf0002f98970000004400a09f9f000905450022
:100c000050c2b30080cf5500040032000b04e00056
:100c1000e3ff3a002f989700890037000000eb00af
:100c2000809f9f00f0979f00e0979f00d0979f00c4
:100c3000c0979f00b0979f00c09f9f00090037009a
:100c4000e0c22000008050000000400021c22000cf
:100c5000e08078004f98970001007000c09f9f00cf
:100c60000a05e8001a4478008800fb00e0c2200072
:100c700007010700800078000000e000f0ff3a0064
:100c8000a0c2b300804f54000e003a00bf88970006
:100c90000180e900b08f9f0010007800b09f9f0096
:100ca0000000e00005003d000000ea00b09f9f004a
:100cb0004f9897000020a000c09f9f000a05e80001
:100cc00010003700b19f9f0009003700bf989700c0
:100cd000f0ff2700808f5000040032006a08b9003e
:100ce0000000410003004000b09f9f000a05e8009b
:100cf0001a01fb0003fd2f0003004100e90f500023
:100d0000f2ff3600e0c2b3009a4f10000400320038
:100d10000080eb00909f9f008a0478001c00370041
:100d20008a04e800a0c2b300994f100007003a00ff
:100d3000bf8897000180e900b08f9f001000780005
:100d4000909f9f008a84e800110037000000eb00ac
:100d5000909f9f00090037009f989700f0ff2700a1
:100d6000808f5000040032006a08b9000000410082
:100d700003004000909f9f008904e8001901fb00d8
:100d800003fd2f0003004100e90f5000f2ff360081
:100d9000194478008800fb0000c92000bc0007004f
:100da0000000e00002003a00004478000100370033
:100db0008904e800a87f9f0080c6b300804f5400dc
:100dc00004003a00994f14000a003a0066405000af
:100dd00006003700c0c6b300804f540005003a003b
:100de000994f140003003a0065404000a07f9f0027
:100df0008904e8000905e800cbfb2f008f8545003a
:100e00001901fb0060f92f000f0040000084e8008a
:100e10008b0178008000780008007800a5000700aa
:100e20000000e00005003a008b0078000800780020
:100e3000e40107000000e00059ff3d000080eb00e6
:100e40004f05be004f04be000080fa0000000600ff
:100e5000889fbe0000047800c001900060009000f0
:100e60008000eb00808f51003900390018017800b4
:100e70002000290000006100e20f5000070032004e
:100e8000002020000200e0000100350000202400c6
:100e9000000c71008080eb002d003700010026005f
:100ea00001006100810f500008003a0038009000f6
:100eb000808f5100050039000800780032000700db
:100ec0008080eb000000e00021003a0000c020001c
:100ed0001800600017003a00a8049000600220008b
:100ee00008004000808f540012003a0000202000cb
:100ef000af02070080007800200498000000e000a6
:100f000005003a0029049800490498000900e80007
:100f100030049800060037001860a00040049800d4
:100f20000020b00030049800410c9800510c98004b
:100f3000cc02070028009000500498003800900070
:100f40006004980000002600180c70008000eb0080
:100f5000010078004f04be00000006008001eb0095
:100f600010417800814f510001003a008001780063
:100f70000204e000020032000000e800f8ff370041
:100f80000300780000000600889fbe00000478007f
:100f90000000e0000e003a008004780089804400e0
:100fa00080902000610078000000e0000400320022
:100fb000f5ff07000000e00001003d000084eb00a9
:100fc0008904e800e78f540029003c00f3ff370054
:100fd000000022001800600024003200a8049000e5
:100fe0000800370009015000384090000000fb0065
:100ff00089007800ee0307000000e00013003400d1
:101000008084440048009000808f5400f5ff390030
:1010100028009000400498001801780000c02000cb
:101020000000610002003200a800900001003700bb
:10103000b800900000002400000061000a003200a7
:10104000610498000004eb000900370028009000bc
:101050004004980060049800500c98001890a0007c
:101060000084eb0002003700510c98000004780067
:10107000080078004f04be00000006000200fa00dd
:10108000f1bf9f00010878000080fa000000060010
:10109000040037000204e00001003a0000000500ef
:1010a0000000e80010417800814f5100f9ff3a003c
:1010b00000000600889fbe008a1f780000047800a8
:1010c000010278008244780003057800e0c6b3008e
:1010d000804f5100d300320015003c006b4050009f
:1010e000804f5100240032000a003c007040500044
:1010f000804f51001001320065404000804f510088
:101100007400320050c2b300804f510021013a00f8
:101110001d01370040c6b300804f51001b00320054
:1011200065404000804f51001a013a001700370017
:1011300030c7b300804f5100ff00320007003c0071
:1011400064405000804f5100620032000040e800cf
:10115000804f51000f013a00e800370050c7b3003c
:10116000804f51005b00320063404000804f5100cf
:1011700008013a00570037009180e900010a780021
:101180007800900011f0790008013700a860900005
:10119000c0c6b30080cf50000a003a009400780027
:1011a00064805000000a78001000be004f89de0005
:1011b000cf91de000002be000203780082037800b7
:1011c0001300370010c7b30080cf50000300320077
:1011d000a0c6b30080cf500006003a00940078000b
:1011e00068805000000a78003002be002003be0074
:1011f000070037001480e900000a7800100078002a
:1012000000027800cfa2de00050378008603780094
:10121000049cbe000694be00a860900080c6b30087
:1012200080cf50000e00320020c6b30080cf5000a7
:1012300005003a000400fb00cf80de0001017800c9
:10124000820178000a00370040c7b30080cf500009
:10125000030032006640400080cf500006003a0094
:1012600004007800cf80de00010178008201780060
:10127000009cbe000294be003800be002801be00e3
:10128000e00f5000e08f5800e00f5900e08f590048
:1012900003003d0078009000d1c2b3000a0037007f
:1012a000081090000018a30003003200780090009e
:1012b000b1c2b300040037000008a300540032009c
:1012c0007800900001c2b30001707d000000e800ca
:1012d0004e003700a8609000c0c6b30080cf500019
:1012e00007003a009400780064805000000a7800fb
:1012f0001002be000003eb008603780013003700e5
:1013000010c7b30080cf500003003200a0c6b30066
:1013100080cf500006003a009400780068805000aa
:10132000000a78003002be002003be00070037002c
:101330001480e900000a78001000780000027800ac
:10134000050020000600200007002000049cbe00cd
:101350000694be00a860900080c6b30080cf500005
:101360000e00320020c6b30080cf500005003a00c6
:101370000480fb0001002000020020000300200088
:101380000a00370040c7b30080cf5000030032008e
:101390006640400080cf500006003a00040078000c
:1013a000010020000200200003002000009cbe007d
:1013b0000294be00081090000038a3001400320010
:1013c0003800be002801be00e00f5000e08f58003a
:1013d000e00f5900e08f59000d00320080c7b300c4
:1013e00080cf54000300320080c5b30080cf54008a
:1013f00007003a007800900001c3b30001707d003f
:101400008000e80089707d000080e800700498008a
:101410007800900000004500600498008940780042
:1014200042003700a8609000c0c6b30080cf5000d3
:10143000250032000a003c006440500080cf50007c
:101440002800320000c0e80080cf500014003200b5
:101450006840500080cf500022003a000a00370058
:1014600040c7b30080cf50001e00320066404000ed
:1014700080cf50001b0032006940500080cf5000e8
:1014800018003a00060037001480e900000a7800ce
:1014900010007800485c900008487800450037004c
:1014a0001480e900000a78001002780068089000b3
:1014b000cf80de000101780082017800009abe0032
:1014c0000292be003b0037001480e900000a780059
:1014d0001001780068089000cf80de000089be000f
:1014e000340037001480e900000a7800100078000a
:1014f000680c9000080878002e0037001180e90081
:101500008008780010007800cf80de0001017800ac
:1015100082017800009cbe000294be00780090001a
:10152000000045006004980081c7b30008007800ff
:101530009f0107001f0037001480e900000a7800af
:101540001000780060049800580990000200e00044
:1015500002003d0044fc0700090037008000eb005a
:10156000b0fc0700800078000000e00003003200bb
:10157000680090000080500001003700580890007b
:10158000100c98000b0037007800900002707d006e
:101590000600370078009000800045000904e00054
:1015a00001003a0059c2b300894878000000e80001
:1015b000700498000000eb004f0578004f04be0057
:1015c000000006000400fa00889fbe008a9fbe004b
:1015d0008c1f7800000478000106780070089000e5
:1015e000f8009000010050008808900001005000b1
:1015f0009808900001005000a808900001005000d9
:10160000b808900001005000c80890008105500003
:1016100000022200a0bf9f000003230090bf9f0094
:10162000081090000028a30018003a000b00e0000a
:10163000160034008b04780009057800e28f54000e
:10164000020036002a002000020037000900e000f6
:101650000b00340058009000c80190000a01780087
:10166000ec80570003000100500498000000e000e7
:10167000960032006808900000004500600c980059
:101680008a8454004240a900ebff3c00780190009e
:101690000200e0000b00340058009000c8019000e8
:1016a0008c00780003000100500498000000e00066
:1016b0008600320068089000f800900001004000a9
:1016c000600c9800880c90000900e00015003400c0
:1016d00009057800e28f5400020036002a0020003d
:1016e000020037000900e0000b00340058009000b1
:1016f000c80190000a017800ee8057000300010045
:10170000500498000000e00070003200680890006b
:1017100000004500600c98008a8454004240a900f3
:10172000ebff3c00180990000200e0000b003400c1
:10173000e800900058009000c801900003000100ec
:10174000500498000000e00060003200680890003b
:101750009808900001004000600c9800a80c9000d0
:101760000900e0001500340009057800e28f5400fc
:10177000020036002a002000020037000900e000c5
:101780000b00340058009000c80190000a01780056
:10179000ee80570003000100500498000000e000b4
:1017a0004a0032006808900000004500600c980074
:1017b0008a8454004240a900ebff3c0038099000a5
:1017c0000200e0000d003400e800900018089000ce
:1017d0008080400058009000c80190000300010084
:1017e000500498000000e0003800320068089000c3
:1017f000b808900001004000600c9800c80c9000f0
:101800000900e0001500340009057800e28f54005b
:10181000020036002a002000020037000900e00024
:101820000b00340058009000c80190000a017800b5
:10183000ee80570003000100500498000000e00013
:10184000220032006808900000004500600c9800fb
:101850008a8454004240a900ebff3c00081090002d
:101860000028a3001b0032000b00e0001900340028
:101870008b04780009057800e28f540002003600de
:101880002a002000020037000900e0000b003400ad
:1018900058009000c80190000a017800ec805700c1
:1018a00003000100500498000000e000070032002f
:1018b0006808900000004500600c98008a8454007d
:1018c0004240a90003003400eaff37000080eb002b
:1018d000010037000000eb004f0678004f05be0006
:1018e0004f04be000080fa0000000600889fbe0082
:1018f00080047800526380000200e00002003200a1
:10190000020078000c003700c0c62000030037003a
:10191000918f5400240036000180e8009000780088
:101920000100e000faff3a000f003700918f5400e9
:101930001d0036000180e800900078000100e00002
:10194000faff3a0012017800c0c6200003003700f9
:10195000918f5400140036000180e8009000780058
:10196000828f5000faff3a0048638000890f5400cc
:1019700001003100090478000800780043010700e5
:101980000000e00004003a00890f54000500320016
:101990000804d100f5ff370008187800420107005d
:1019a000d4ff37000000eb004f04be00000006002b
:1019b000881f7800630440000800a100800f5400d5
:1019c00023003600e30f540001003e0048002000d1
:1019d00008007800c5ff0700800078000000e000e4
:1019e0001b003200100178009201780064805100e1
:1019f000880f50000300310012009000800878002a
:101a0000070037000800410080087800920190002c
:101a100013009800110078001208140008097800db
:101a2000910078000100e0000500320011009000f4
:101a30000000e000020032000180e80001003700f1
:101a40000000eb00506388000280e80001003700ce
:101a50000000eb004f0478000000060000dc2000ce
:101a6000440137008c4ce20003003a00fbff070002
:101a700020c0b3008cecb70000000600889fbe00b9
:101a80000004780040fd0700800478000004200076
:101a900018006000020032002800900002010700d8
:101aa0000000eb0020049800384090000004e000a3
:101ab000050035000000fb00730107000000e00096
:101ac000010032008084eb00181090000000e0005c
:101ad00008003200770107000000e000010032003a
:101ae0008084eb0018109000ef0007000000eb006e
:101af0001014980000082000180060000f00320049
:101b00008000eb000181400083902000628079001a
:101b1000880f5000060032008100e800e78f500077
:101b2000f8ff360008007800df00070011003700da
:101b3000030041000008eb00faff3700000c7800ba
:101b400000c0eb0030449800600220000800400014
:101b5000200498004004980050049800400c98001d
:101b600060049800500c98007004980076004400bf
:101b7000000c9800090078004f04be000000060029
:101b8000881f7800780020008800440080902000a2
:101b9000610078000000e00001003200b7ff07009c
:101ba0000804e900f8ff3b004f047800000006003d
:101bb000ef02b000889fbe008a9fbe008c9fbe00cf
:101bc0008e1f78008006780000012000b0b79f00cb
:101bd000d2bd2000c2b79f0080c5b30080cf5000a7
:101be0000e00320083002000b3b79f00c4bc200069
:101bf000c4b79f007740400080cf500007003200fc
:101c000000012000b0b79f0080c7b30080cf500014
:101c100002003200a2002000b2b79f003d04be00c7
:101c20002d05be0040c6b30080cf50000300320037
:101c30006540400080cf50000b003a00e00f540098
:101c4000e08f5c00e00f5d00e08f5d0006003d006e
:101c50006000b8006011b800080450008984580082
:101c60000a0559008b855900e00f5400e08f5c0095
:101c7000e00f5d00e08f5d0004003a005d08900019
:101c80008e0120000000e0000c003200bfb1970080
:101c900003027800cfa2de000503780086037800f7
:101ca0000800be000a01be00f10107004fb2970014
:101cb00064407800d0df9f007e0120003fb0970095
:101cc00000027800cfa2de000503780086037800ca
:101cd0000800be000a01be00de0107002300370035
:101ce000bfb0970001047800cfc4de00090578007a
:101cf0008a0578000802be000a03be007fa897008c
:101d00008fb097001fb19700afb19700dc010700bb
:101d1000d0b79f00e1b79f00f2b79f0083bf9f003d
:101d20000e07e90062fc2f000f0141000206470088
:101d30000802be000a03be005fb09700efb0970034
:101d40007fb197008fb99700490207007faa9700db
:101d500000005200cfb0970060ce78005fb09700cf
:101d6000efb097007fb197008fb99700809ebe00bb
:101d70008296be003d00be002d01be00f0af9f0068
:101d800081b79f0092b79f00a3b79f00e00f50005c
:101d9000e08f5800e00f5900e08f59000200340036
:101da0000e00e000ceff3c00bfb09700e88f50006f
:101db00010003a000d1090000038a3000d00320012
:101dc000f70f570006003e0062fc2f000f01410094
:101dd0008200470000c3b300914f1000050032009d
:101de0000e07e90000c3b30063fc2f008e814100a1
:101df00080f17f0078011700920e98006d0090002e
:101e000063fc2f008f8141008e8041006ffa070034
:101e10001d0990005d089000800f510006003d00f4
:101e200002005000800e98000d1090000040a100ac
:101e3000801698000f0037000000e0000d003d0004
:101e40000d10900074006000f00f500009003a007f
:101e50007d089000fd009000010050008d0890006a
:101e600001005000020050004240a900010034006f
:101e7000800e98004f0778004f06be004f05be0049
:101e80004f04be00ef02b100000006000000e000b9
:101e90000300340091000700e10f400001003a0008
:101ea0000000eb00000006000000e00030003200ff
:101eb0008080e90091027800e38f52002c00360008
:101ec0000508a3002a003a00626380000200e000d7
:101ed00002003200828f50000400310002087800b6
:101ee00061638800160037000301780092019000ba
:101ef0000300e00002003200818f5100faff390038
:101f00001202780004004100808f50001800390050
:101f1000810f500003003a0005094200820078005a
:101f2000070037000300e000030032000580400096
:101f3000808f51000e003900930098001101980025
:101f4000110190000200e000090032001180400001
:101f5000820f500006003a006a2cef00110090003a
:101f60001101780090084100100090009000980046
:101f70000000060000017800000020000000e000e2
:101f800008003200000080000000e0000500320080
:101f90000000e9000000880000004000010080000f
:101fa00002b078000000060000c0da000000060061
:101fb0000a00fa008001780081027800e20f5000e8
:101fc00024003e0050648000e10f50000800320001
:101fd000802320000000e0000500320003232000e1
:101fe00024232000462320008000780004003700ce
:101ff00003222000242220004622200081222000eb
:10200000134090000004e000030035008008eb005e
:102010000000280093097000144090000028a300dd
:1020200001003a0014a0a0008200780006003700ea
:10203000144090000008a300fdff32003500fb00b3
:10204000000b78008100e9000100e000f8ff3a0091
:10205000080037006a80570031002000b1bf9f00a0
:10206000c3bf9f00d5bf9f00e2bf9f00ceff070008
:102070006fb99700020078000080fa0000000600a7
:1020800000c0da00000006000a00fa00110020007b
:10209000b1bf9f00c0bf9f006a805700f8ff0700d4
:1020a0004fb897000080fa000000060000c0da0078
:1020b000000006000a00fa00800078006a805700dd
:1020c00052002000b2bf9f00c1bf9f00f7ff070072
:1020d0005fb897000080fa0000000600889fbe00ed
:1020e000800478008e0ce20004003a000000eb004f
:1020f000100007000000e0000a0035007064800056
:102100000900e00002003a000004780006003700f1
:102110000004780009004000060007000000e0000d
:1021200001003d000084eb00080078004f04be0071
:1021300000000600800078000000e00004003a0083
:1021400080c9200070648800010178000600370013
:102150000081eb00c0cf2000808f500002003e00c5
:10216000716488000001eb000200780000000600a6
:102170006022b800060220000000d0008180d2005a
:102180000482d2008582d2000000a0000202520028
:1021900083825a0003003b000202420083824a000d
:1021a0000000a1000603e900f3ff3a00000006006a
:1021b000efff07000400be0000000600839f6800d8
:1021c0000100e00002003d0060001000e080180007
:1021d0000300e00002003d0060011100e0811900f1
:1021e000e3ff07004f00e00002003b00600010002a
:1021f000e080180000000600811f78000100e00068
:1022000002003d0060001000e08018000300e000c4
:1022100002003d0060011100e0811900e4ff0700a9
:102220004f00e00002003b0060001000e08018005a
:1022300000000600020ab900001bb9000200b80045
:10224000810042008100430000000600881f7800e2
:10225000000478005001be004000be0004004000b1
:10226000858048000601490087814900009cbe0026
:102270000294be000400e1000588e1000690e10040
:102280000798e10002003100680044001008e800ef
:102290004f047800000006001000fa00889fbe007e
:1022a0008a9fbe003004be002005be00c8b79f0054
:1022b000d9b79f00eab79f00fbb79f000404540002
:1022c00085845c0006055d0087855d0088bf9f00f2
:1022d00099bf9f00aabf9f00bbbf9f000898be0088
:1022e0000a98be008000eb004fb49700dfb497005f
:1022f0006fb59700ffb597000440e10005c8e10005
:1023000006d0e10007d8e1000100310011002000f3
:10231000108810004f05be004f04be000080fa0078
:10232000000006001200fa00889fbe008a9fbe00cf
:102330008c1f78000205be000004be00f4b79f00a9
:1023400085bf9f0096bf9f00a7bf9f000000eb00c6
:10235000e0b79f00d0b79f00c0b79f00b0b79f0005
:10236000a0b79f0000067800dfb097006fb097001d
:10237000000140000000e0000a003d008c00070062
:1023800001003d00120020009200070001003d0006
:1023900012002000970007007c805700abff070069
:1023a000090037008200070001003d0012002000f4
:1023b0008800070001003d00120020008d0007008a
:1023c0007c805700b4ff07006fb297000400e00064
:1023d0000700350010002000010020006011b80047
:1023e00008047000898470000a0571008b857100f3
:1023f0000c06e800f0032000800f5600daff3400de
:102400000400e00006003d007fb297008fba9700fd
:102410001fbb9700afbb97007c8057008bff070066
:102420006fa897000000e00004003a002fb4970066
:10243000bfb497004fb59700dfb59700890007003c
:102440004f0678004f05be004f04be000080fa0022
:1024500000000600881f780018002000881f780000
:10246000b0ff07008f87e9004f04780000000600e6
:10247000801feb00abff07008f87e900000006001c
:10248000889fbe008a9fbe008c1f78006e000700e8
:1024900005003d002f00070007003d003d0007003c
:1024a0000006eb00040037003f00070002003d007b
:1024b000300007001c0020006a000700e5ff07004d
:1024c0000203be000002be000c00e000010032006a
:1024d000280007000400be000601be004f06780079
:1024e0004f05be004f04be0000000600889fbe00de
:1024f0008a9fbe008c1f78005300070003003d0038
:102500001400070006003d00040037002600070005
:1025100003003d006000b8006011b8001d00070016
:1025200050000700d2ff07000203be000002be00f9
:102530000c00e000010032000e0007000400be00a5
:102540000601be004f0678004f05be004f04be00d6
:10255000000006006000b8006011b80008045000d8
:10256000898458000a0559008b8559001c002000f9
:10257000030037006000b8006011b80005003700a4
:10258000e00f5200e08f5a00e00f5b00e08f5b002d
:10259000000006000402500085825800060359001e
:1025a00087835900000006000006eb00f4ff3700a7
:1025b0004f08de0000007100c0b79f00018040009e
:1025c000b0b79f000001eb00afb097000100e00042
:1025d0000000060002007000b0b79f0001804000bc
:1025e000a0b79f000001eb009fb097000100e00042
:1025f0000000060002007000a0b79f0001804000ac
:102600000fb29700cf20de000100700090b79f004e
:1026100004024200130007004f18de00000272009f
:1026200084b79f000804440089844c000a054d00cb
:102630008b854d005fb29700efb297007fb3970094
:102640008fbb9700000006000205be000004be001c
:10265000e00f5000e08f5800e00f5900e08f590064
:10266000000006000800be000a01be0000000600cf
:10267000889fbe008a9fbe008c1f78000205be00a6
:102680000004be000006eb00e00f5000e08f580091
:10269000e00f5900e08f590007003d006000b800ce
:1026a0006011b80008045000898458000a055900d8
:1026b0008b8559001c002000e00f5200e08f5a006b
:1026c000e00f5b00e08f5b0002003d000f000700a1
:1026d0000c00a2000800be000a01be0012000700a4
:1026e0000203be000002be000c00e0000100320048
:1026f000060007000400be000601be004f06780079
:102700004f05be004f04be00000006006000b80088
:102710006011b80004025000858258000603590079
:102720008783590000000600889fbe008a9fbe0074
:102730008c9fbe000404b8000506b800890446005a
:1027400060854e000606b8000a054600e0854e008a
:102750000706b8008b054600040eb8008904460041
:102760000a854e00e0854d00050eb8000a054600ba
:102770008b854e00060eb8008b0546000416b80087
:102780000a0546008b854e000516b8008b054600ed
:10279000041eb8008b0546000800be000a01be00fa
:1027a0004f06be004f05be004f04be0000000600ed
:1027b0000a00fa00881f7800200798003107980067
:1027c0000040eb00204798002e009000000f78009a
:1027d00028003700be409000e0c2b30080cf500018
:1027e00016003a00ae0090000040eb0080487800f0
:1027f0002e0090000000e800200798002e40900076
:102800000084fb00a20020008000eb001e00780086
:1028100001f70700804078003e009000000044006f
:10282000014878002e4090000040e80020479800c2
:102830002e009000000f78000b003700be40900083
:10284000f0c2b30080cf500004003600be409000bc
:1028500090c3b30080cf5000030036000000eb00af
:10286000400798001a0037002e0090000000e80092
:10287000200798002e009000104078003047980004
:102880003e4090000004e000d2ff3a002e4090004d
:102890000084fb00a20020008000eb001e007800f6
:1028a000ddf60700804078003e0090000000440004
:1028b000014878000000eb00400798002e4090008f
:1028c000e34f500002003a0010002000400798003b
:1028d0004e0090004f0478000080fa0000000600cf
:1028e0000400fa00000f7800110798001e0078001d
:1028f000104078000080fb009e0090009b130700b2
:102900001e00900058f70700800078001e0090001d
:1029100001004000100798009e009000e0c2b30044
:10292000804878001e0090000000e8001007980022
:102930001e007800104090000080fb009e00900078
:102940008a1307001e00900047f7070080007800f8
:102950001e00900001004000100798009e009000ab
:10296000e0c2b300804878001e0090000000e8003c
:10297000100798001e007800204090000080fb00a7
:102980009e009000791307001e00900036f70700a4
:10299000800078001e0090000100400010079800a1
:1029a0009e009000e0c2b300804878001e009000b6
:1029b0000000e800100798001e00780030409000ea
:1029c0000080fb009e009000681307000080fa0062
:1029d000000006000000fa000040eb00b30507000d
:1029e00010c0b300b1050700e1be2000607c2e00de
:1029f00003000900b05878004100b1004000b10068
:102a0000e0bf200080007800a07c2e0003000900b9
:102a1000b05878004100b1004000b100e0be200095
:102a200063014000e0628000f16280008e130700c5
:102a3000e0be200073014000c0628000d1628000cf
:102a4000891307000080fa00000006001000fa0059
:102a50007a05070026cbbf00e94f50001d003e005d
:102a6000e0bf200080007800c0a820009cff070085
:102a7000ca240700008fbe0064004700049b2b009f
:102a8000f5ff2f001e01be00742507004628070031
:102a90000004e00007003a00e1be2000e07c2e00c8
:102aa0000e000900b0587800f100b100f000b1004c
:102ab00004003700e1be20006400470072c0b3008c
:102ac0002426070026cbbf000040e80026ebb70015
:102ad0000a00370026cbbf00fd4f500005003e0026
:102ae000bcff070026cbbf000040e80026ebb70084
:102af000020037000040eb0026ebb700240507007a
:102b00000080fa00000006000400fa001007980098
:102b10000040eb00004f78001e009000ef004000e6
:102b20000040eb00804878001e009000a4130700ce
:102b3000140037001e80fb00800078001e0090000b
:102b400000804000104078000004e0000c003a00d3
:102b5000070037001e80fb00800078001e009000f8
:102b60008080400000c2b300804878001e4fe8001b
:102b7000e0c0b3009e4f1000f6ff3600040037009f
:102b80001e4fe800e0c0b3009e4f1000e9ff360082
:102b90000080fa00000006000400fa00c0a820002f
:102ba000000f78008000eb000040eb00bf2307001f
:102bb00050c5b300192407000040eb0020479800df
:102bc000070037001e007800104078001e0fe80054
:102bd000122407002e4090000040e8002047980093
:102be000ae40900010c3b30080cf5000f5ff360018
:102bf000182407000080fa00000006009400fa0084
:102c00000000eb00400798000000eb00000f980068
:102c10003a22070050079800ba20070020079800c2
:102c200031079800b7200700008fbe002e009000eb
:102c3000be0090003e011000ae811800100320007d
:102c400001002000800f5100818f590016003600ce
:102c5000ac20070020079800310798004d2107009d
:102c60000004e000fdff3a00500120005f21070052
:102c7000c4c2bf000080fb004600de00614060006f
:102c80000004a20061406000614060004601dd0078
:102c9000412c200091407800f0cbb30000c06000d0
:102ca00002407000c4e2b700342107000004e000d5
:102cb000dcff32006b003700302107000004e00029
:102cc00068003200c4c2bf000080fb004600de0086
:102cd000614060000004a20061406000614060004b
:102ce0004601dd00412c200091407800f0cbb3007c
:102cf00000c0600002407000c4e2b7002c21070051
:102d0000604f98000e089000108f98009e889000e9
:102d1000e28f5000260032001e889000e30f500022
:102d2000260032009e889000e18f5000190032008a
:102d30006e489000e14f500003003a001000200060
:102d4000000f9800470037006e489000e44f500095
:102d50000a003a00c4c2a800c52107000d210700df
:102d60000004e000fdff3a00600020001f21070082
:102d700010002000400798003a00370005210700a6
:102d80000004e000fdff3a00500120001721070079
:102d90003400370060c0b300404f98000040eb00a3
:102da000504f980020002000000f98002d003700a1
:102db00030002000000f98002a0037005e48900085
:102dc0008080fb007200470000804000ee489000c9
:102dd000014878005e4890000040e800504f98009d
:102de000de48900000c8b30080cf50001d003600c0
:102df0005e0090001a22070060c0b300404f9800a8
:102e00000040eb00604f9800090037006e489000ca
:102e10008080fb0072004700008040001040780076
:102e2000bb2107006e4890000040e800604f98000a
:102e30006e4890000004e000f4ff3d00d12107003f
:102e400050079800d32007000004e000fdff3a007f
:102e50004e4890000080fb00e42007000000eb00db
:102e6000000f98004e0090000000e00092ff32003a
:102e7000100020000080fa00000006000800fa00a0
:102e800028003700d5c2bf000042b2000004e000b5
:102e900024003a001b200700008fbe001d003700f1
:102ea000182007003e015000ae8158000019200094
:102eb00001002000800f5100818f5900150036005d
:102ec0008000eb000040eb00f82207000040eb0020
:102ed000522307005f230700a0a82e004c20070004
:102ee000c402a800c422a800c442a800052007000c
:102ef0003e015000ae815800003220000100200049
:102f0000800f5100818f5900f8ff36000000fe004d
:102f100004003700d5c2bf000042b2000004e00048
:102f2000dfff3200952007000004e000d5ff3200eb
:102f30009f20070040479800ce409000f0c2b300a9
:102f400080cf500008003600ce40900090c3b30000
:102f500080cf500004003e004e4090000080fb00f7
:102f60003007980002003700a003200030079800c7
:102f70003e0090000080fa00000006003400fa00d5
:102f800070179800307c2e0021200700fe10900062
:102f900000fd2f000080400001a32e000000400033
:102fa000608078001a2007007e1090006101b80050
:102fb00000fd2f00f1ff2f00020140008381480037
:102fc000021f9800131f98009000200001002000ad
:102fd0000e1990009e199000800f5100818f5900aa
:102fe00064003e000e1890009e18900000600100e2
:102ff0005f003700080037001d0037002f00370042
:1030000031003700330037003500370052003700f9
:103010005300370054003700205580008e80e800b0
:10302000d21107000e80e800f91f070060ad2e00e6
:10303000f71f07000e80e80041c1b300d01f070052
:103040000004e0004b0032000e80e800a2002000e7
:103050008000eb00f0f4070020558800a5cabf00ef
:1030600094eab700a4cabf0095eab7004100370050
:10307000e0aa2000e61f070060ad2e00e41f070055
:103080000e80e80001c1b300bd1f07000e80e800fc
:10309000104078000004e000360032000e80e800a6
:1030a000e1aa20000f000900b05878000001b1002b
:1030b000e0aa200094fe07002e003700c0a82000e0
:1030c000000f780008003700a0a92000000f78004a
:1030d0000500370060a92000000f780002003700cb
:1030e000e0a92000000f7800f60047001e007800dd
:1030f000fbfd070076004700c51f070060ad2e00ee
:10310000c31f07000e80e80041c1b3009c1f0700e9
:10311000a10220008e8040000e80e800a4fd070080
:103120000000e00007003a0040a42e00b81f07008e
:10313000122007000004e000fdff32001c20070001
:103140000c0037005e109000ee1090001e01780019
:103150000089be0007003700a20aa800050037005a
:10316000a20aa90003003700a4fe070001003700ef
:1031700089fe07000080fa00000006000200fa0045
:10318000d07d2e00a21f07003cff0700000f780033
:10319000a00320009e0f1000020032001e007800e5
:1031a00076ff0700000320009e0f1000f4ff3a0096
:1031b0000080fa00000006000800fa0010079800de
:1031c000414798001e0090001000780010407800e1
:1031d0008040780000cdb30000c040001047980048
:1031e0001e4090000080fb000000e0000100320063
:1031f000360037001e0090000080e80010007800c4
:10320000104078008040780000cdb30000c040003e
:10321000004f78001e80fb00300798003e009000b1
:103220000000e000040032003e009000e10f50007a
:10323000100032001d003700c4c2bf000080fb0038
:103240000000d100614060000004a2006140600005
:103250006140600000414000412c20009140780016
:10326000d0cfb30000c0600002407000c4e2b700dd
:103270000e003700c4c2bf000080fb004200de0029
:10328000614060000004a200614060006140600095
:103290004201dd00412c200091407800b0cfb30006
:1032a00000c0600002407000c4e2b7001e00900041
:1032b00090007800a0ad2e0009000900b0587800f9
:1032c000a100b100a000b100070037001e0090006f
:1032d00090007800a0ad2e0009000900b0587800d9
:1032e000a100b100a000b1000080fa0000000600bb
:1032f0002800fa0000579800110f9800220f98003c
:103300000e5090000080fb006101b9002217980068
:103310003317980030022000010020002e11900089
:10332000be119000800f5100818f5900b7013e00ff
:103330002e109000be1090000060010023003700a6
:103340002f003700b1013700b00137008800370087
:10335000ae013700ad013700ac013700ab013700db
:10336000aa013700a9013700a8013700a7013700db
:103370008c00370099003700a60037002d00370079
:103380003900370045003700510037005d00370035
:1033900069003700ac003700d50037009b013700cb
:1033a0009a013700990137009801370097013700db
:1033b000960137009501370094013700f600370079
:1033c0001d0137004401370043013700c4c2bf006c
:1033d000614060000004e0000300320011c3b3004c
:1033e000316798000200370002c3b30032679800cb
:1033f0002e089000be6190000348780083013700da
:10340000c4c2bf00624060000004e000030032005c
:1034100010c3b300206798000200370001c3b30057
:10342000216798002e0890002e61900002487800d5
:1034300076013700c4c2bf00644060000004e000b1
:103440000300320013c3b300136798000200370073
:1034500000c3b300106798002e0890009e60900093
:103460000148780069013700c4c2bf0068406000ad
:103470000004e0000300320012c3b30002679800aa
:103480000200370003c3b300036798002e089000c2
:103490008e609000014878005c013700c4c2bf0014
:1034a000704060000004e0000300320012c3b3006b
:1034b000725f98000200370003c3b300735f980087
:1034c0002e089000fe589000014878004f01370008
:1034d000c4c2bf000042b2000004e000030032009a
:1034e00012c3b300625f98000200370003c3b30049
:1034f000635f98002e089000ee5890000148780015
:1035000042013700c4c2bf000044b2000004e00022
:103510000300320012c3b300525f9800020037006c
:1035200003c3b300535f98002e089000de5890004c
:103530000148780035013700c4c2bf0001c8b3009c
:10354000014060000004e0000300320012c3b30039
:10355000425f98000200370003c3b300435f980046
:103560002e089000ce5890000148780027013700bf
:10357000d5c2bf000042b2000004e00003003200e8
:1035800012c3b300325f98000200370003c3b300d8
:10359000335f98002e089000be58900001487800d4
:1035a0001a013700c2c2bf0001c8b3000140600069
:1035b0000004e0000300320012c3b300225f980051
:1035c0000200370003c3b300235f98002e08900069
:1035d000ae589000014878000c013700d4c2bf00fb
:1035e00001c8b300014060000004e00003003200a5
:1035f00012c3b300125f98000200370003c3b30088
:10360000135f98002e0890009e58900001487800a3
:10361000fe003700d4c2bf000044b2000004e00046
:103620000300320012c3b300025f980002003700ab
:1036300003c3b300035f98002e0890008e589000db
:1036400001487800f10037001e0890000000e000fb
:1036500006003a0071b2200090af2e00060009006b
:10366000b05878007100b1007000b1001e089000e1
:103670008080fb0070b22000008040009040780005
:103680002e089000014878001e0890008080fb0002
:1036900070b2200000804000104078000004e0007c
:1036a00003003a000081eb00320f9800d900370088
:1036b0001e0890000000e800100f98001e089000ff
:1036c0008080fb0070b22000008040001040780035
:1036d0000004e00003003a008081eb00330f980003
:1036e000cc0037001e089000300f9800c90037004a
:1036f0001e0890000000e00006003a0071b22000b1
:1037000000b02e0014000900b05878005101b1003b
:103710005001b1001e0890008080fb0070b22000b4
:1037200000804000904078002e089000014878000a
:103730001e0890008080fb0070b2200000804000d6
:10374000104078000004e00003003a008080eb00a5
:10375000310f9800af0037001e0890000000e8000d
:10376000100f98001e0890008080fb0070b22000af
:1037700000804000104078000004e00003003a00a0
:103780000081eb00320f9800a20037009e099000e4
:10379000330f98009f0037001e0890000000e000e3
:1037a00004003a0072b22000e0628000f162800002
:1037b0002d1007001e0890008080fb0070b22000d2
:1037c00000804000904078002e089000014878006a
:1037d0001e0890008080fb0070b220000080400036
:1037e000104078000004e00003003a000080eb0085
:1037f000300f9800870037001e0890000000e80096
:10380000100f98001e0890008080fb0070b220000e
:1038100000804000104078000004e00003003a00ff
:103820008080eb00310f98007a0037001e0990006d
:10383000320f9800770037001e0890000000e0006b
:1038400004003a0072b22000c0628000d1628000a1
:10385000051007001e0890008080fb0070b2200059
:1038600000804000904078002e08900001487800c9
:103870001e0890008080fb0070b220000080400095
:10388000104078000004e00003003a008081eb0063
:10389000330f98005f0037001e0890000000e8001a
:1038a000100f98001e0890008080fb0070b220006e
:1038b00000804000104078000004e00003003a005f
:1038c0000080eb00300f9800520037009e089000f7
:1038d000310f98004f0037001e0890000000e000f4
:1038e00029003a00b02407000004e00012003a006a
:1038f0008e50900020c2b30080cf500007003a00e5
:1039000071b2200050b12e0008000900b0587800b4
:103910009100b1009000b1001b00370071b220008f
:10392000e0b12e0005000900b05878006100b10038
:103930006000b1001400370018210700008fbe009e
:1039400064004700049b2b00f5ff2f001e01be0002
:10395000c22107008e50900020c2b30080cf5000db
:1039600005003a006400470032c0b30071b2200085
:1039700078220700040037006400470062c0b300eb
:1039800071b22000732207001e0890008080fb00a7
:1039900070b2200000804000904078002e08900017
:1039a000014878001e0890008080fb0070b2200063
:1039b00000804000104078000004e00003003a005e
:1039c0000081eb00320f9800120037001e089000b3
:1039d0000000e800100f98001e0890008080fb0097
:1039e00070b2200000804000104078000004e00029
:1039f00003003a008081eb00330f98000500370088
:103a00001e089000300f9800020037008080eb0005
:103a1000310f98003e0890000080fa000000060078
:103a20000000fa0060022000303a88000000eb003d
:103a3000203a88000000eb002016880000082200d1
:103a400000168800000027005016880000032000a0
:103a5000301688000000eb00801688000000eb00a4
:103a60006016880000002d00b0168800000c2200af
:103a7000901688000000eb00e01688000000eb00c4
:103a8000c01688000000eb001017880040092100d4
:103a9000f01688000000eb004017880000082000a6
:103aa0002017880010082000c0118800000028009e
:103ab0008011880000402000901188002000200024
:103ac00050648800e0132000101288000000eb0012
:103ad0002012880000002800001288000080fa00f0
:103ae000000006000400fa00a20aa900c0a82000f5
:103af000000f78008000eb000040eb00881f0700fb
:103b0000911f070020479800a61f0700ae409000b5
:103b100050c5b30080cf500014003a0011002000bf
:103b20000040eb007e1f07000040eb00204798009c
:103b300008003700841f0700804078001e007800ce
:103b4000014878001e0fe8002e4090000040e80079
:103b500020479800ae40900010c3b30080cf5000c3
:103b6000f4ff36008f1f0700010037000afc070032
:103b70000080fa00000006003000fa000040eb0070
:103b800040479800a6ff070082010700200320009d
:103b90005b20070021782e0010c0b3005a010700f7
:103ba000a1782e0020c0b3005701070021792e0014
:103bb00030c0b30054010700a1792e0040c0b3000b
:103bc00051010700217a2e0050c0b3004e010700ba
:103bd000a17a2e0060c0b3004b010700e1be2000b7
:103be00040b22e0010000900b05878001101b10059
:103bf0001001b100e0bf20008000780050b32e001b
:103c00000b000900b0587800c100b100c000b1003d
:103c1000df000700a00f20003920070000b82000b7
:103c2000b1d2200056200700a31c07007d1d07000d
:103c300010b42e00e1aa20000f000900b05878004f
:103c40000001b100e0aa2000affb0700a5ff0700bc
:103c5000d5c2bf000042b2000004e00001003a00fb
:103c600046fd0700211407003c120700990d0700cc
:103c700000003700a31c07000001be00405a80006e
:103c8000515a800000015100818159001003200029
:103c900001002000800f5100818f59000f00360075
:103ca000981c0700405a8800515a8800c4c2bf00bf
:103cb000614060000004a20061406000614160005a
:103cc000412c200091407800e0cfb30000c060009c
:103cd00002407000c4e2b7005cfb07000c14070050
:103ce00012120700c80c0700dd030700becabf00a0
:103cf000e14f4000dfff320000c0eb00beeab7003a
:103d0000207b2e00c21c0700f2004700c0a8200044
:103d1000f3fa070072004700bd1c0700307c2e003c
:103d2000bb1c07004f030700d2ff37000e00fa004c
:103d3000404f9800514f98004e48900061406000fd
:103d4000404f9800d6a2a9004e4890006140600004
:103d5000c700dd00cbc2bf000074a10001407000ad
:103d6000cbe2b700c02d2000de489000014878006b
:103d70000000000000000000000000000000000043
:103d8000d682a800200420000100200040079800ef
:103d9000510798004e009000de0090006100500036
:103da000e080580040079800510798004e019000ad
:103db000de0190000080eb008080eb00800f51005e
:103dc000818f5900f3ff3a00d682a9002004200019
:103dd0000100200020079800310798002e00900075
:103de000be00900061005000e0805800200798005d
:103df000310798002e019000be0190000080eb007a
:103e00008080eb00800f5100818f5900f3ff3a0052
:103e1000a014200001002000008fbe000080eb00f5
:103e20008080eb001e0f40005e9748000080eb0092
:103e30008080eb00be0f1000ae8f1800f7ff3a0035
:103e40000080fa00000006000200fa00004f78002f
:103e50001147980010c0b3009e4f10000d003e00a7
:103e60001e409000ef4f50000a003e009e80fb0075
:103e7000c0b42e00e14078001e40900080c0400099
:103e800000c8b30000c07000804078000040eb0024
:103e9000a6ff07000080fa00000006000400fa00f8
:103ea00010079800060037009e40780010c0b3004d
:103eb0009eff07001e0090000000e8001007980019
:103ec0001e009000104f78001e04e000f6ff3a003c
:103ed0000080fa00000006000400fa0010079800b5
:103ee000060037009e40780010c0b3008fff070027
:103ef0001e0090000000e800100798001e009000cf
:103f0000104f78001e04e000f6ff3a000080fa002f
:103f1000000006000000fa0011c0b3000040eb00f2
:103f200082ff070020002000751f07000080fa00b4
:103f3000000006000400fa00204798002e40900080
:103f4000e14f50000d003e008040eb002e409000fd
:103f5000bdff07000040eb00004f78000400370071
:103f600001c2b30010c0b30070ff07001e4fe8008d
:103f7000f0c0b3009e4f1000f9ff36008040eb0008
:103f80002e409000b0ff07000080fa0000000600fd
:103f90000600fa000040eb001047980022003700ae
:103fa0008040eb001e409000a7ff07000040eb00a0
:103fb00020479800160037001e4090000081fb004b
:103fc0002e4090008080fb004410dd008100400006
:103fd000e0be200000804000104f78001e04e0008a
:103fe000030032001e40780040479800020037006e
:103ff00000c2b30040479800ce40900010c0b3000c
:104000004aff07002e4090000040e800204798003b
:104010002e409000ef4f5000e7ff36001e4090000a
:104020000040e800104798001e409000e14f50000b
:10403000dbff36000080fa00000006000200fa00f4
:104040000040eb00004f7800130037000040eb0009
:10405000104798000c0037001e81fb001e409000a6
:104060008080fb004410dd0081004000e0be2000a5
:104070008080400000c2b300804878001e4090005d
:104080000040e800104798001e409000ef4f50009d
:10409000f1ff36001e4fe80010c0b3009e4f100025
:1040a000eaff36000080fa00000006000400fa0073
:1040b000204798002e409000e14f500010003e0035
:1040c0000040eb00004f78000a0037002e409000bf
:1040d0000080fb009e80fb004400dd00810040006a
:1040e000e0be20008080400000c2b300804878001d
:1040f0001e4fe800f0c0b3009e4f1000f3ff3600e3
:104100000080fa00000006000600fa002047980030
:10411000210798002e409000e74f500018003e0005
:104120002e4090000080fb004300dd0080407800be
:1041300000c4b30000c07000804078000040eb0075
:10414000fafe07000040eb00004f7800090037003e
:104150001e80fb00800078002e0090000080400050
:10416000104078008040780010c0b300effe0700d8
:104170001e4fe80070c0b3009e4f1000f4ff3600e1
:1041800001c8b3000040eb00e8fe07000080fa0021
:10419000000006000400fa00a8ff0700800c2000c1
:1041a000d71e070001c3b3000040eb00dffe07008d
:1041b00050002000d21e070001c3b3000040eb00f6
:1041c000dafe0700e03d200001002000008fbe0065
:1041d0000080eb008080eb001e0f40005e974800df
:1041e0000080eb008080eb00be0f1000ae8f180047
:1041f000f7ff3a0081c3b3000040eb00cbfe07009d
:1042000061c0b3000040eb00c8fe070041ff07009b
:10421000c1c0b3000040eb00c4fe07000080fa00fc
:10422000000006000c00fa002007980031079800f3
:104230004207980000992000000f78000040eb0032
:10424000204798002b0037001e0078006000900087
:104250000000e00022003a001e007800ae0090004e
:10426000610098003e0090000000e0000d00320068
:104270001e0178003e009000800078000200780067
:104280001101be000288be0064004000e4804000ce
:104290001101be000288be0064004000e4804000be
:1042a000110878001e007800ce019000530098009d
:1042b0009e0078000000eb00f00098009e0078005f
:1042c0000000eb00800898002e409000f0e9b70055
:1042d0002e4090000080fb00500798000a00370035
:1042e0009e007800788f40002e4090000040e8004b
:1042f000204798002e409000e34f5000d2ff360038
:10430000f20f2000520798005e0090000080fa0033
:10431000000006000200fa00004f78001e80fb003b
:104320007800b90080007800c099200080804000ab
:104330000000eb00800878001e80fb007800b900c8
:104340008000780060992000008140006000b80083
:104350000089be001e80fb007800b9008000780054
:10436000609a200080804000110078000000a100c9
:10437000800878000080fa00000006000a00fa00b9
:1043800040479800f0c9bf000080fb007800b900ea
:1043900080007800009920000080400010079800fd
:1043a0001e009000700090000000e00013003a0032
:1043b0001000200085050700804078001e00900056
:1043c000215098001e00900020509000e14f4000c6
:1043d00003003a000000eb00400798002a00370075
:1043e0001e00900020509000c1012000b105070080
:1043f0009e0090000000eb00a00898004e40900046
:10440000f60407001e009000200890003007980076
:104410001e009000700090008040eb005147980013
:10442000be009000808f50000200390010c0b30021
:10443000504798003e0090008000e8001e00900069
:1044400021089800de4090000104e00005003200e1
:104450001e009000700090008000e8001e00900098
:10446000710098001e009000f0009000010f78008d
:10447000502120009e0f10000100360005000700ab
:1044800010002000400798004e0090000080fa00c5
:10449000000006000a00fa001000200017050700bf
:1044a0000000e000fcff3200f0c9bf000080fb000c
:1044b0007800b9008000780000992000008f40004b
:1044c0001e00780060009000f20b070010079800b3
:1044d0001e00780050009000ee0b070020079800a7
:1044e0001e007800700090006800400030079800bf
:1044f0000000eb00400798001e007800205090005c
:10450000410120006b0507003e0190001e0078006d
:1045100011c1b300ac1007003e009000dd0b070096
:10452000300798000e80e80081002000c5040700d5
:10453000a70607009e00780000c0eb00a05098007e
:104540009e0078000000eb00f00098000080fa0068
:10455000000006000400fa00004f78001e407800ba
:10456000f0e9b700f0c9bf000080fb007800b90097
:10457000f00040000099200000804000100078000a
:10458000100798001e0090000000e00002003200ba
:1045900010002000100798001e0090000080fa0014
:1045a000000006000400fa00000f7800f0c9bf0008
:1045b0000080fb007800b900f00040000099200066
:1045c00000804000100078000000e00003003a0086
:1045d0000000eb001007980032003700f0c9bf0060
:1045e0000080fb007800b900f60040000099200030
:1045f0000080400010007800614060000004e0008e
:104600000b003200f0c9bf000080fb007800b90049
:1046100080007800609a20008080400011007800bf
:104620000000a1008008780080002000a010070092
:1046300024040700804078001e00780001487800bc
:10464000f0c9bf008081fb007818b900f00040007d
:104650000099200000804000100078000001e9006f
:104660007818b90080007800009a2000008040008f
:1046700002087800f0c9bf000080fb007800b90094
:10468000f0004000009920000080400010007800f9
:104690000000e00001003a00910507001000200032
:1046a000100798001e0090000080fa00000006002d
:1046b0000000fa00f0c9bf000080fb007800b900dc
:1046c000f0004000009920000080400010007800b9
:1046d0000000e0000100320081050700f0c9bf00c2
:1046e0000080fb007800b90080007800009a20006c
:1046f000808040000000eb00800878000080fa0015
:10470000000006000c00fa0020079800310798000e
:104710004207980000c0eb00204798000099200055
:10472000000f78000040eb00304798002b00370066
:104730001e007800e00090002e0090001000900015
:10474000808f500020003a001e007800d0009000ba
:104750002e00900010007800808f500018003a0062
:104760001e007800000890000000e00014003a00ed
:104770001e00780030019000c00190003e009000c3
:10478000c000900030009000800f5100818f5900d0
:10479000070032004e0090001001be000080eb00c8
:1047a0008080eb00800f5100818f590004003a0097
:1047b0003e4090000080fb00500798002700370023
:1047c0003e409000204798001e017800780f41007d
:1047d0003e4090000040e800304798003e40900086
:1047e000e34f5000d2ff36002e409000e14f4000d2
:1047f000170032002e4090000080fb007800b900c6
:104800008000780000992000008f40001e01780091
:104810003e00900080007800020078001101be0088
:104820000288be0064004000e48040001101be0028
:104830000288be0064004000e48040001108780057
:104840002e009000900078001e0078005100980023
:104850002e4090000080fb00500798005e00900002
:104860000080fa00000006002000fa00400f9800c7
:10487000510f9800620f98000e80e8008100200020
:10488000a90307001e009000020b07001007980004
:104890002e009000ff0a0700200798003e009000bd
:1048a000fc0a070068005000300798004e00900096
:1048b0000000e000410032004e009000f50a0700c1
:1048c000400798004e089000c00090003000900013
:1048d0006a0147000089be005e08900090407800a1
:1048e0006a004700414098005e08900090409000a8
:1048f0006a004700514098005e089000a040900078
:104900006a004700614098005e089000b040900047
:104910006a00470071409800ea0047000040eb0041
:1049200080489800ea00470010c1b3009048980002
:104930006a004700ee089000510098006a004700a6
:1049400050009000d30a0700800078006a004700fa
:10495000510098006a004700c1002000fa0a0700d1
:104960000080ea00300f980060002000d00f0700a0
:104970006e5090009903070070002000cc0f0700d4
:104980007e509000950307000000eb00c80f070061
:104990006e089000320b0700300f9800be089000a0
:1049a0004e009000808f500004003200cc040700bd
:1049b00010002000700f98001b0037000e80e800e8
:1049c0005e099000ce0890004eff0700004f78006f
:1049d00080c0eb009ecf100002003a00c004070028
:1049e0000f0037001e80fb003e0190007800b900e8
:1049f00080007800009a20000080400002087800c3
:104a00001e80fb007800b90080007800609a2000ca
:104a100080804000110078000000a000800878002d
:104a200010002000700f98007e0890000080fa00af
:104a3000000006000200fa000040eb00004f780082
:104a4000030037001e40780032fe07001e4fe800ca
:104a500030c0b3009e4f1000faff36000080fa000d
:104a6000000006000c00fa000e80e800000178004b
:104a70000080eb008080eb000089be0064014100f3
:104a80000080eb008080eb000089be0064014100e3
:104a90000080eb00000978008e80e800f2652700b6
:104aa000c0b22000dffd0700104798001e409000b4
:104ab000e14f4000680032001e409000f0e9b7006e
:104ac000100020008d0307000000e000faff320014
:104ad0000040eb00004f7800080037001e80fb000c
:104ae0002102200080804000c0a8200000804000fb
:104af0001040780021fe07001e4fe800e0c0b30020
:104b00009e4f1000f5ff3600d0c0b3001bfe07001b
:104b1000a0c0b30019fe07000040eb00004f780072
:104b20001e80fb00e4004000c0a820000080400080
:104b300010407800300a070010fe07001e80fb00be
:104b4000e4004000c0a82000008040001040780031
:104b50003d0a070009fe07001e4fe80060c0b300d1
:104b60009e4f100003003200d0c2b30003fe0700c6
:104b7000ebff3700d0c0b30000fe0700a0c0b300b9
:104b8000fefd070040c4b300fcfd070080c4b30075
:104b9000fafd070030c4b300f8fd070000c5b300fc
:104ba000f6fd0700f0c2b300f4fd070000c5b30036
:104bb000f2fd0700f0c6b300f0fd070070c7b300b8
:104bc000eefd070050c6b300ecfd070020c7b300a0
:104bd000eafd070000c2b300e8fd070050c6b300bd
:104be000e6fd070060c7b300e4fd070050c6b30050
:104bf000e2fd0700e0c6b300e0fd070040c7b300d8
:104c0000defd070000c2b300dcfd0700f0c6b30004
:104c1000dafd070030c6b300d8fd070030c6b30088
:104c2000d6fd070050c7b300d4fd070020c7b3006e
:104c3000d2fd070020c7b300d0fd070050c6b30067
:104c4000cefd070040c6b300ccfd070011fe0700f3
:104c50001e409000affd07000080fa000000060033
:104c60000400fa0080638000100798001e01900085
:104c7000e10f5100130032009e019000e18f5100be
:104c8000040039001e009000e20f50001c003200aa
:104c900068003700f26527008000eb00f065270010
:104ca00060fd07006eecb7006eccbf00e14f400026
:104cb00060003200806380000000e80080638800ac
:104cc0005c0037006eccbf0022fe07000000e00051
:104cd000580032000e00780032fe070074fe070014
:104ce0009e40780040c4b30080cf500051003a008d
:104cf000806380000000e800806388004d0037007a
:104d00006eccbf00f0e9b70010002000fb020700e6
:104d10000000e000470032000040eb00004f780048
:104d20000b0037001e4078000080fb0021022000ad
:104d300080804000c0a82000008040001040780023
:104d40008efd07001e4078000040e800004f78000c
:104d50001e407800ee4f5000f2ff3600d0c0b30086
:104d600086fd0700a0c0b30084fd07000040eb00f3
:104d7000004f78001e4078000080fb00e4004000f7
:104d8000c0a8200000804000104078009a09070069
:104d90007afd07001e4078000080fb00e400400020
:104da000c0a820000080400010407800a60907003d
:104db00072fd07001e4078000040e800004f7800b8
:104dc0001e407800e64f500003003200d0c2b3000e
:104dd0006afd0700e7ff3700d0c0b30067fd07009a
:104de000a0c0b30065fd07006eccbf000080fb00d3
:104df0007800b90080007800009920000080400011
:104e0000c1b120001101be000288be006400400054
:104e1000e48040001101be000288be006400400032
:104e2000e4804000110878009afd0700100020007f
:104e3000806388000080fa00000006000200fa008b
:104e4000000f78001e00780010007800910907001c
:104e5000800078001e007800010878001e007800ad
:104e6000100090008b090700800078001e00780079
:104e7000110098001e00780030009000850907009e
:104e8000800078001e007800310098000080fa0051
:104e9000000006002200fa00600f9800710f9800d1
:104ea0000e007800c10120001f0207008c030700dc
:104eb0000e007800e1ff07001e007800e10f5000af
:104ec00006003a004e409000e64f500003003a00c2
:104ed0005e409000e44f5000030032000000eb0001
:104ee000001798002b0037003e009000e20f5000a2
:104ef00004003a00fe0890000040eb008048780073
:104f00000d0037003e009000e10f500004003a0011
:104f1000fe08900010c0b3008048780006003700fb
:104f2000fe08900020c0b300804878000001eb002c
:104f300002179800170037004e099000de09900014
:104f40006054800071548000800f5100818f59009f
:104f50000e003a00ee089000680047001001be0005
:104f60008288be00a0019000a30098007e009000ff
:104f70008e0890006e099000300198004101980061
:104f80001000200000179800020037000001eb001d
:104f9000021798000e1090000080fa000000060032
:104fa0002800fa00700f9800016798001000200098
:104fb00086020700004f780000c0eb009e4f1000f3
:104fc00003003a008000eb001117980078003700ca
:104fd0008000eb001e407800b60207008e80e800db
:104fe00010002000800878008e80e80000802000fb
:104ff000900098008e80e80060c0b300c040980028
:105000008e80e80040c0b300d04098000e60900051
:10501000e14f500016003a008e80e800100020009a
:10502000b00098008e80e80000c0eb00a05098000f
:105030008e80e80000c0eb00b05098008e80e80041
:1050400000c0eb00c05098008e80e80000c0eb006c
:10505000d05098008e80e80000c0eb00e05098002f
:105060008e80e80000c0eb00f05098000a00370086
:105070008e80e80020002000b00098000e80e8003c
:10508000f20040007e0890001001be008288be0041
:10509000a0019000a30098000e80e8006800400086
:1050a00084548000955480000488be00a55480007c
:1050b0002500980060548000715480000e81e80043
:1050c00070019800010998000e80e80070019000be
:1050d000800990007e089000c00090003000900091
:1050e0000000690081806900b2548000c3548000d0
:1050f00000027800810278000200780083007800c6
:1051000000016200018062006102b800241798006b
:10511000351798002e129000be129000c020dd00be
:10512000000020006112b80024179800351798007d
:105130002e119000be11900002007000838070005c
:10514000e00f5000e08f580006003200d05480007d
:10515000e15480000e81e800400998005109980050
:10516000060037007e089000c000900030009000dc
:105170000e81e80040099800510998000e80e8006f
:105180002eff07000e80e80072004000c2012000e0
:1051900061c0b3004d0307000e80e800c10120008c
:1051a000a80107008a0307001300200013179800c6
:1051b0001e1090000080fa00000006000e00fa00a9
:1051c000106280000000e00001003200140037008f
:1051d000ea0047000e0078002eff07000000e00004
:1051e0001a0032002e4890000004e0000a003a0045
:1051f0001e00be002062880031628800ae00900070
:10520000416288003e009000ce009000506288000d
:10521000616288000d0037001000200010628800d5
:105220008040eb000e0078005dff07000000e0000a
:10523000030032000000eb0010628800030037001a
:105240000000eb006007980002003700110020000a
:10525000610798006e0090000080fa0000000600d0
:105260000c00fa00500798005e0090001000be008d
:10527000300798004107980011c0b3000e00780075
:1052800047ff07000080fa00000006000600fa0051
:10529000000f78001107980052628000636280005e
:1052a0001e0078001000be00800f5100818f590051
:1052b000070032005262800063628000d054800098
:1052c000e1548000800f5100818f590008003a009e
:1052d0001e00900041c420000500090031587800ec
:1052e0006000b10010002000200798000200370085
:1052f0008000eb00210798002e0090000080fa004b
:10530000000006000000fa000000eb0010628800b8
:1053100000c0eb0044ecb70000c0eb0045ecb70068
:1053200000c0eb0046ecb70000c0eb0047ecb70054
:1053300000c0eb0048ecb70000c0eb0049ecb70040
:105340006000b80050628800616288000080fa0046
:10535000000006000400fa0020479800d7c2a90008
:105360008540a9002e4090000080fb00401288007c
:1053700085c0bf00644060000004e000fcff320014
:1053800040128000004f78008540a9000000eb002b
:105390004012880085c0bf00644060000004e00047
:1053a000fcff320040128000004f78008540a900c9
:1053b0000000eb004012880085c0bf006440600020
:1053c0000004e000fcff320040128000004f780033
:1053d0008540a900d7c2a8001e4078000080fa00ce
:1053e000000006000400fa0020479800d7c2a90078
:1053f0008540a9002e4090000080fb0040128800ec
:1054000085c0bf00644060000004e000fcff320083
:1054100040128000004f78008540a9000000eb009a
:105420004012880085c0bf00644060000004e000b6
:10543000fcff320040128000004f78008540a90038
:10544000d7c2a8001e4078000080fa0000000600c5
:105450000400fa002047980031479800d7c2a900fd
:105460008540a900ae40900000c4b30000c07000a9
:105470000080fb004012880085c0bf0064406000cf
:105480000004e000fcff320040128000004f780072
:105490008540a9003e4090000080fb00401288003b
:1054a00085c0bf00644060000004e000fcff3200e3
:1054b00040128000004f78008540a900d7c2a800a4
:1054c0000080fa00000006000400fa00204798005f
:1054d00031479800d7c2a9008540a900ae4090008e
:1054e00000c8b30000c070000080fb0040128800bc
:1054f00085c0bf00644060000004e000fcff320093
:1055000040128000004f78008540a9003e40900086
:105510000080fb004012880085c0bf00644060002e
:105520000004e000fcff320040128000004f7800d1
:105530008540a900d7c2a8000080fa00000006003c
:105540000400fa002047980031479800d7c2a9000c
:105550008540a900ae40900000cab30000c07000b2
:105560000080fb004012880085c0bf0064406000de
:105570000004e000fcff320040128000004f780081
:105580008540a9003e4090000080fb00401288004a
:1055900085c0bf00644060000004e000fcff3200f2
:1055a00040128000004f78008540a900d7c2a800b3
:1055b0000080fa00000006000200fa00000f7800e8
:1055c00031c0b300f0c1b300ddff07000e0078006a
:1055d00090409000f0c1b300bbff07000080fa00cc
:1055e000000006000400fa00204798004021200037
:1055f000f1ff0700ae40900040c1b30094ff0700e8
:1056000011c0b30020c1b30091ff0700a0302000fb
:10561000e9ff0700a0c0b3004eff07006140600033
:105620000004e000fbff3a0040212000e2ff0700f9
:105630008040eb0020c1b30085ff070080c1b300ac
:1056400044ff0700004f780090c1b30041ff0700fe
:10565000104798001e0078000080fa000000060045
:105660000400fa00004f7800110798004021200044
:10567000d1ff07009e40780040c1b30074ff0700cf
:105680000e80e8009040780060c1b30070ff070012
:105690000e80e8009040900070c1b3006cff0700de
:1056a000a0302000c4ff0700a0c0b30029ff0700fe
:1056b000614060000004e000fbff3a000080fa0057
:1056c000000006000200fa00d7c2a9008540a90028
:1056d000a00320004012880085c0bf006440600025
:1056e0000004e000fcff320040128000004f780010
:1056f0008540a9000000eb004012880085c0bf0073
:10570000644060000004e000fcff320040128000b2
:10571000004f78008540a900d7c2a8001e80fb007a
:105720000080fa00000006000800fa002007980038
:1057300031079800d7c2a9008540a900a003200026
:10574000401288000000eb00100798002e00900027
:105750000000e9002007980085c0bf006440600099
:105760000004e000fcff320040128000004f78008f
:105770008540a900110037000000eb0040128800ae
:105780001e0090000000e800100798002e00900016
:105790000000e8002007980085c0bf00644060005a
:1057a0000004e000fcff32004012800080407800de
:1057b0002e009000014878008540a9009e009000ce
:1057c0003e009000808f5000ebff3900d7c2a80048
:1057d0001e0090000080fa00000006000400fa009d
:1057e00020479800d7c2a9008540a900a007200043
:1057f0004012880085c0bf00644060000004e000e3
:10580000fcff320040128000004f78008540a90064
:105810002e4090000080fb004012880085c0bf0031
:10582000644060000004e000fcff32004012800091
:10583000004f78008540a900d7c2a8000080fa0078
:10584000000006000600fa001007980021079800e3
:10585000d7c2a9008540a900a007200040128800f7
:1058600085c0bf00644060000004e000fcff32001f
:1058700040128000004f78008540a90011003700d9
:105880001e009000104078000080fb00401288004d
:105890001e0090000000e800100798002e00900005
:1058a0000000e9002007980085c0bf006440600048
:1058b0000004e000fcff320040128000004f78003e
:1058c0008540a9002e0090000000e000ecff3a00a7
:1058d000d7c2a8000080fa00000006000000fa000d
:1058e00010c0b3003fff07004200de0061406000cf
:1058f0000080fb000080fa00000006000600fa00ad
:10590000100798001e0090000000e000090032001f
:10591000f0c1b300b3fe07000080fb004300de00cf
:105920000004a2000080fb006100600020079800d6
:1059300023003700a1ae200091407800ebcabf00e1
:1059400080cf500009003a00f0c1b300a5fe070067
:105950000080fb004300de000004a2000080fb008a
:1059600061006000200798001500370010c0b300e8
:10597000004f78000d0037001e80fb006600b90064
:10598000e400400000ac20000080400010007800df
:10599000614060000004e0000300320010002000bd
:1059a00020079800060037001e4fe80060c0b300d3
:1059b0009e4f1000f0ff36000000eb00200798001b
:1059c0002e0090000080fa00000006000800fa0097
:1059d000100798001e0090000000e0000d0032004b
:1059e000f0c1b3007ffe0700684060000004e000e3
:1059f00003003a000000eb00200798000200370087
:105a0000f00f2000200798002e009000300798002b
:105a10002500370010c0b300004f78001d0037008c
:105a20001e80fb006600b900e400400000ac2000ce
:105a30000080400010007800614060000004e00039
:105a4000130032001e80fb006600b9008000780061
:105a500040ac200080804000110078000000a100d0
:105a6000800878001e80fb006600b9008000780086
:105a700040ac200080804000110078000010a100a0
:105a8000800878001e80fb00300798000600370071
:105a90001e4fe80060c0b3009e4f1000e0ff3600cc
:105aa000f00f2000300798003e0090000080fa00c0
:105ab000000006000400fa00004f7800110798006b
:105ac0001e407800eaeab7001e80fb006600b900bd
:105ad0008000780000ac200000804000900078003a
:105ae0001e009000008040006f00400010079800ea
:105af00020002000b0fe07000e80e80090407800f3
:105b00000040eb0052fe07000e80e800904090003d
:105b100010c0b3004efe07000e80e80090407800f1
:105b200020c0b3004afe07000e80e80090409000bd
:105b300030c0b30046fe07000080fa0000000600f7
:105b40000200fa00004f780060c0b3009e4f1000c2
:105b50000a003e001e80fb006600b900800078004d
:105b600040ac200080804000110078000000a000c0
:105b7000800878001e407800eaeab7000080fa004a
:105b8000000006000400fa0010079800715780001a
:105b90001e0090000080400074004000000f78005c
:105ba0009e00780070002100808f500004003600b5
:105bb0001e00780081ff2e0001004000000f7800d9
:105bc0000000eb007cfe07009e4078000040eb00e8
:105bd0001ffe07009e40900010c0b3001cfe07008f
:105be0009e40780020c0b30019fe07009e40900040
:105bf00030c0b30016fe07000080fa000000060067
:105c00000600fa00901120006bfe070090c1b3005f
:105c1000f4fd0700004f7800e000200066fe07005a
:105c2000e0c0b300effd070020479800f0c0b300cc
:105c3000ecfd070030479800901120005efe070041
:105c400090c1b300e7fd0700804078001e40780057
:105c500080cf5000edff3a00c000200056fe070044
:105c6000c0c0b300dffd0700004f7800d0c0b30014
:105c7000dcfd0700104798009e0090001e00780091
:105c8000808f5000070036009e0090001e007800b4
:105c90008080500070002100010050002007980013
:105ca0000c0037009e0090001e007800808f50008e
:105cb00003003a007000210020079800050037001b
:105cc0001e0078009e009000010050000000e900d6
:105cd000200798002e0090000080fa0000000600c7
:105ce0000200fa00805780000000e00016003a0031
:105cf0001000200080578800605780000000e900f5
:105d0000000f78009e00780070002100808f500006
:105d10000200360070002100000f780001c4b300bb
:105d2000e0c1b300e8fd0700c000200022fe07002c
:105d30009e407800c0c0b300c5fd07009e409000a3
:105d4000d0c0b300c2fd07000080fa0000000600ca
:105d50001a00fa00200f9800310f980090112000cf
:105d600015fe070090c1b3009efd07000004e0008f
:105d700003003a000000eb00400f9800500037008d
:105d8000805780000000e00004003a00d4ff0700c4
:105d90000000eb00400f980049003700605780007a
:105da000705788000000eb0003fe0700c1ae200022
:105db000914078000040eb00a5fd0700d1ae200027
:105dc0009140780010c0b300a1fd07000e007800dc
:105dd0004101200054fe07001e089000ad05070099
:105de000100f98009e00780070002100808f5000f6
:105df00017003e000e0078001040780061406000ff
:105e00000004e00012003a002e009000010028007b
:105e1000010060000000e0000d003a002e0090003c
:105e2000700060000000e00009003a009e00900051
:105e3000e05e2000808f500005003e002e009000a4
:105e400001082000010060000000e00001003a00ad
:105e50000000fe001e00780060578800ae08900029
:105e60006c00470005000900b05878006100b100df
:105e70006000b100be08900000c0eb0080487800d0
:105e80003e509000e84f500009003a002e5090001c
:105e90000004e000030032002e509000e64f500056
:105ea00003003a00ae5090003e0890000148780090
:105eb0000000eb008057880010002000400f980081
:105ec0004e0890000080fa00000006000800fa006a
