:020000040000FA
:06000000D9EF3AF01200F6
:0600180039EF29F012008F
:06002A0006002E76000026
:1000300046030000040000002A760000FC020000D5
:1000400004000000207600003C0300000A000000CD
:10005000EA7500007602000036000000E774000038
:100060004C03000001000000E6750000FC010000E8
:040070000400000088
:0C00740000C2E9FF01C2EAFFEECFF4F089
:10008000EDCFF5F00DEC34F0F3CF00F0F4CF01F04C
:1000900000C2E9FF01C2EAFFF3CFEEFF01C0EDFFAE
:1000A00000C2E9FF01C2EAFF020EE926000EEA22C1
:1000B000EECFF4F0EDCFF5F00DEC34F0F3CF00F02F
:1000C000F4CF01F000C2E9FF01C2EAFF020EF3CF54
:1000D000EBFF030E01C0EBFF00C2E9FF01C2EAFF24
:1000E000040EE926000EEA22EECFF6F0EECFF7F08E
:1000F000EECFF8F0EFCFF9F012EC34F014C000F0CE
:1001000015C001F016C002F017C003F000C2E9FFED
:1001100001C2EAFF040EE926000EEA2214C0EEFF37
:1001200001C0EEFF02C0EEFF03C0EEFF00C2E9FF18
:1001300001C2EAFF080EE926000EEA22EECFF6F031
:10014000EECFF7F0EECFF8F0EFCFF9F012EC34F09D
:1001500014C000F015C001F016C002F017C003F083
:1001600000C2E9FF01C2EAFF080EE926000EEA22FA
:1001700014C0EEFF01C0EEFF02C0EEFF03C0EEFFB1
:1001800000C2E9FF01C2EAFF0E0EE926000EEA22D4
:10019000EECFF4F0EDCFF5F00DEC34F0F3CF00F04E
:1001A000F4CF01F000C2E9FF01C2EAFF0E0EF3CF67
:1001B000EBFF0F0E01C0EBFF00C2E9FF01C2EAFF37
:1001C000100EE926000EEA22EECFF4F0EDCFF5F0A6
:1001D0000DEC34F0F3CF00F0F4CF01F000C2E9FFF2
:1001E00001C2EAFF100EF3CFEBFF110E01C0EBFFCF
:1001F00000C2E9FF01C2EAFF120EE926000EEA2260
:10020000EECFF4F0EDCFF5F00DEC34F0F3CF00F0DD
:10021000F4CF01F000C2E9FF01C2EAFF120EF3CFF2
:10022000EBFF130E01C0EBFF12000D01006B060E79
:10023000005D70E20051280DF3CF01FDF4CF02FD07
:10024000000E0127010E022301CDE9FF02CDEAFFD6
:10025000EF500A085DE101CDE9FF02CDEAFFEF6A48
:1002600001CDE9FF02CDEAFF0B0E02C2EBFF0C0E3F
:1002700003C2EBFF01CDE9FF02CDEAFF0D0EEB6AF1
:100280000E0EEB6A01CDE9FF02CDEAFFEE52060E3B
:10029000E926000EEA22EE6AEE6AEE6AEE6A01CD07
:1002A000E9FF02CDEAFF270EE926000EEA22EF80E1
:1002B00001CDE9FF02CDEAFF270EE926000EEA2272
:1002C000EF9601CDE9FF02CDEAFF0F0EEB50FF08DC
:1002D00013E001CDE9FF02CDEAFF0F0EEB500F0155
:1002E000476F4FEC10F001CDE9FF02CDEAFF0F0E92
:1002F000E926000EEA22EF6801CDE9FF02CDEAFF10
:10030000270EE926000EEA22EF820D0100511200AD
:10031000002B8DD7FE0C04C2E9FF05C2EAFF0F0EC9
:10032000EB50FF081CE004C2E9FF05C2EAFF0F0E14
:10033000EB500F01476F4FEC10F004C2E9FF05C20C
:10034000EAFF0F0EE926000EEA22EF6804C2E9FF79
:1003500005C2EAFF270EE926000EEA22EF8204C258
:10036000E9FF05C2EAFFEE52060EE926000EEA2278
:10037000EE6AEE6AEE6AEE6A04C2E9FF05C2EAFFBF
:100380000D0EEB6A0E0EEB6A04C2E9FF05C2EAFF2E
:10039000270EE926000EEA22EF50080B02E026ECB9
:1003A00011F004C2E9FF05C2EAFF270EE926000E9C
:1003B000EA22EF9604C2E9FF05C2EAFF230EE9260E
:1003C000000EEA222C0EEE6E010EEE6EEE6AEE6A62
:1003D00004C2E9FF05C2EAFF270EE926000EEA2261
:1003E000EF9804C2E9FF05C2EAFF270EE926000ED6
:1003F000EA22EF50010B06E004C2E9FF05C2EAFF62
:10040000EF6A06D004C2E9FF05C2EAFF0A0EEF6EEA
:1004100004C2E9FF05C2EAFF100EEB6A110EEB6A97
:1004200012000F01010E426F9AEC0FF00009F9E083
:10043000FF0E0201155D07E10F01010E436FCFECC6
:100440000FF00201156FFF0E155D01E11200140E91
:100450000F01456F466B15C244FF15EC10F008C242
:1004600087FD09C288FD0AC289FD0BC28AFD0CC244
:100470008BFD0DC28CFD0EC28DFD0FC28EFD10C214
:100480008FFD11C290FD12C291FD13C292FD0D01AC
:10049000939193939395939714C294FDA9EC10F0C4
:1004A000F3CF95FDF4CF96FD0D01400EF35C020EE7
:1004B000F45805E3400E956F020E966F0DD0360E80
:1004C000D8809555000E965505E2360E955F000EC4
:1004D000965B02D0956B966B976B986B996B9A6B4A
:1004E0000201870E006F0D0E016FC4DD140E0201B4
:1004F0001627000E172314A310D0040E1627000E83
:1005000017230D01020E9B6F040E9C6F020E9D6F50
:10051000400E9E6F9399938B03D00D019389939B0B
:10052000938D939F76C29FFD77C2A0FD78C2A1FDF7
:1005300079C2A2FD06C2E9FF07C2EAFF060EE9265C
:10054000000EEA22EECFA3FDEECFA4FDEECFA5FD77
:10055000EFCFA6FDA76B060EA86F16C2A9FD17C2A6
:10056000AAFD16C2F4F017C2F5F00DEC34F0F3CF8B
:10057000A9FDF4CFAAFD0C0E0001FC6FFD6B00017C
:100580009F0EFA6F0D0EFB6F6DEC34F0F3CF97FDFD
:10059000F4CF98FD0D01971F981F97CD85FD98CD3D
:1005A00086FD16C224F317C225F30301060E236F3E
:1005B00006C221F307C222F350EC33F0140E0F01F0
:1005C000406F416B0F01870E3E6F0D0E3F6F74EC55
:1005D0000FF0020114A30BD0040E0F01406F416B0A
:1005E0000F019B0E3E6F0D0E3F6F74EC0FF0140E5B
:1005F0000F01456F466B15C244FF15EC10F016C293
:10060000FEF017C2FFF0E3EC34F0F3CF85FDF4CF3A
:1006100086FD240E0F01456F466B15C244FF15EC95
:1006200010F086CD3DFF62EC0FF085CD3DFF62EC12
:100630000FF00F01456B466B15C244FF15EC10F02F
:100640007AEC12F00F01010E426F9AEC0FF00009E4
:10065000F9E07AEF12F002011851280DF3CFE9FF0B
:10066000F4CFEAFF000EE926010EEA22EF5003085C
:1006700001E0000C010C02011951280DF3CFE9FD36
:10068000F4CFEAFD000E0D01E927010EEA23E9CDC2
:10069000E9FFEACDEAFFEF5003080DE0E9CDE9FFFD
:1006A000EACDEAFFEF50020806E0E9CD04F2EACD18
:1006B00005F28BEF01F019C21EF2BCD90201166BD4
:1006C000176B020115690201110E146FE9CDE9FFE4
:1006D000EACDEAFF1A0EE926000EEA22EECF10F26A
:1006E000EECF11F2EECF12F2EFCF13F2E9CDE9FF28
:1006F000EACDEAFF160EE926000EEA22EECF0CF252
:10070000EECF0DF2EECF0EF2EFCF0FF2E9CDE9FF13
:10071000EACDEAFF0D0EE926000EEA22EECF0AF23C
:10072000EDCF0BF2E9CDE9FFEACDEAFF0B0EE926AA
:10073000000EEA22EECF08F2EDCF09F2E9CDE9FF93
:10074000EACDEAFFEE52E9CF06F2EACF07F269DE20
:10075000E9CDE9FFEACDEAFF160EE926000EEA220E
:10076000EE2AEE22EE22EE22E9CDE9FFEACDEAFF03
:10077000040EEF6E120002011A51280DF3CFF1FDA5
:10078000F4CFF2FD000E0D01F127010EF223F1CDA1
:10079000E9FFF2CDEAFF0F0EEB50FF0801E1000C7C
:1007A000F1CDE9FFF2CDEAFF270EE926000EEA229D
:1007B000EF50020B01E1000CF1CDE9FFF2CDEAFFB1
:1007C000100EE926000EEA22EECF16F2EDCF17F258
:1007D000F1CDE9FFF2CDEAFF0F0EEB500201156FEC
:1007E0000201180E146F1A0EE926000EEA22EECF4F
:1007F00010F2EECF11F2EECF12F2EFCF13F2F1CDF5
:10080000E9FFF2CDEAFF160EE926000EEA22EECF4E
:100810000CF2EECF0DF2EECF0EF2EFCF0FF2F1CDE4
:10082000E9FFF2CDEAFF0D0EE926000EEA22EECF37
:100830000AF2EDCF0BF2F1CDE9FFF2CDEAFF0B0E9C
:10084000E926000EEA22EECF08F2EDCF09F2F1CD53
:10085000E9FFF2CDEAFFEE52E9CF06F2EACF07F266
:10086000E0DDF1CDE9FFF2CDEAFF100EE926000E42
:10087000EA22EECF00F0EFCF01F0026A036AF1CD79
:10088000E9FFF2CDEAFF160EE926000EEA2200503B
:10089000EE260150EE220250EE220350EE22F1CD60
:1008A000E9FFF2CDEAFF270EE926000EEA22EF92D9
:1008B000F1CDE9FFF2CDEAFF270EE926000EEA228C
:1008C000EF98010C02011B51280DF3CFE9FFF4CF83
:1008D000EAFF000EE926010EEA22140EE926000EB8
:1008E000EA22EE50ED1001E1000C1B51280DF3CF70
:1008F000E9FFF4CFEAFF000EE926010EEA220F0E0F
:10090000E926000EEA22EF50FF0804E10F01426BD6
:100910009AEF0FF01B51280DF3CFE9FFF4CFEAFF58
:10092000000EE926010EEA22270EE926000EEA2231
:10093000EF50020B01E0010E120002011C51280DC4
:10094000F3CFEFFDF4CFF0FD000E0D01EF27010E08
:10095000F023EFCDE9FFF0CDEAFF140EE926000EFB
:10096000EA22EE50ED1001E1000CEFCDE9FFF0CDF1
:10097000EAFF0F0EEB50FF082FE10F01436BCFECA6
:100980000FF0E66EEFCDE9FFF0CDEAFF0F0EE9269E
:10099000000EEA22E552E750EF6EEFCDE9FFF0CD11
:1009A000EAFF0F0EEB50FF0801E1000CEFCDE9FF6D
:1009B000F0CDEAFF100EEB6A110EEB6A280E0F0164
:1009C000456F466BEFCDE9FFF0CDEAFF0F0EEB5020
:1009D0000F01446F15EC10F0EFCDE9FFF0CDEAFF09
:1009E000270EE926000EEA22EF881DC23DFF62ECC9
:1009F0000FF0EFCDE9FFF0CDEAFF140EE926000E6F
:100A0000EA22EE06EF5AEFCDE9FFF0CDEAFF100E35
:100A1000E926000EEA22EE2AED22EECF00F0EDCF1D
:100A200001F00A0E005C020E015803E31CC21AF228
:100A3000A2DE010C02011E51280DF3CF85FDF4CF7B
:100A400086FD000E0D018527010E862385CDE9FF69
:100A500086CDEAFF270EE926000EEA22EF50080BAA
:100A600001E1000C26EC11F085CDE9FF86CDEAFF0F
:100A7000270EE926000EEA22EF96010C02011F5113
:100A8000280DF3CF89FDF4CF8AFD000E0D018927D3
:100A9000010E8A230C0E0301266F276BC9EC33F07D
:100AA00020EC0FF0E840E8403F0B3C0B0D01856F58
:100AB0000F01486B496B6AEC10F020EC0FF00F0B44
:100AC000040DF3CF86FD020E0F01486F496B6AECEF
:100AD00010F020EC0FF00D01886F20EC0FF00D01ED
:100AE000876F865185250201036A2025026E2151F8
:100AF00003220D010250875D006E03508859016E7C
:100B000089CDE9FF8ACDEAFF120E00C0EBFF130E7C
:100B100001C0EBFF8551020120250301266F000E65
:100B2000020121210301276FC9EF33F00201225195
:100B3000280DF3CF00FDF4CF01FD000E0D010027BD
:100B4000010E012300CDE9FF01CDEAFF270EE926C2
:100B5000000EEA22EF50080B2DE000CDE9FF01CD99
:100B6000EAFF270EE926000EEA22EF50040B0FE001
:100B70000201206B216B22C21FF280DF00CDE9FF52
:100B800001CDEAFF270EE926000EEA22EF9400CD00
:100B9000E9FF01CDEAFF270EE926000EEA22EF88E1
:100BA00025C23BFF26C23CFF23C239FF24C23AFFC5
:100BB00033EF0FF0F36AF46A120002012751280D97
:100BC000F3CF8BFDF4CF8CFD000E0D018B27010EB2
:100BD0008C238BCDE9FF8CCDEAFF270EE926000E92
:100BE000EA22EF50080B43E08BCDE9FF8CCDEAFF02
:100BF000270EE926000EEA22EF50040B0FE0020157
:100C0000206B216B27C21FF239DF8BCDE9FF8CCD22
:100C1000EAFF270EE926000EEA22EF948BCDE9FFCA
:100C20008CCDEAFF120EE926000EEA22EE50ED10FE
:100C30000CE126EC11F08BCDE9FF8CCDEAFF270EFD
:100C4000E926000EEA22EF96000C8BCDE9FF8CCD51
:100C5000EAFF120EE926000EEA22EE06EF5A20EC19
:100C60000FF028C2E9FF29C2EAFFEF6E010C000C69
:100C700002012A51280DF3CFE9FFF4CFEAFF000E5D
:100C8000E926010EEA22270EE926000EEA22EF509D
:100C9000080B01E0010E12000D010F6B006B060E38
:100CA000005D01E3CAD10051280DF3CF09FDF4CF57
:100CB0000AFD000E0927010E0A2309CDE9FF0ACD1E
:100CC000EAFF270EE926000EEA22EF50080B01E0AA
:100CD000B1D109CDE9FF0ACDEAFF270EE926000EC2
:100CE000EA22EF50100B01E0A5D109CDE9FF0ACDB2
:100CF000EAFFEF500A0801E19DD109CDE9FF0ACDD5
:100D0000EAFFEF5000090CE109CDE9FF0ACDEAFF47
:100D1000270EE926000EEA22EF50010B01E08AD1EE
:100D20007EEC3AF014C005FD15C006FD16C007FDA7
:100D300017C008FD09CDE9FF0ACDEAFF1F0EE9261D
:100D4000000EEA22EE500D01145C016FEE501558B2
:100D5000026FEE501658036FEE501758046F09CD0E
:100D6000E9FF0ACDEAFF230EE926000EEA2201512F
:100D7000EE5C0251EE580351EE580451EE5801E377
:100D800059D10F01010E426F9AEC0FF0000901E1F9
:100D900012007EEC3AF014C000F015C001F016C04D
:100DA00002F017C003F009CDE9FF0ACDEAFF1F0EDC
:100DB000E926000EEA2214C0EEFF01C0EEFF02C0D9
:100DC000EEFF03C0EEFF09CDE9FF0ACDEAFF230ED7
:100DD000E926000EEA22D890EF36010EEB36020E1D
:100DE000EB36030EEB3609CDE9FF0ACDEAFF1E0E06
:100DF000E926000EEA22EF2A09CDE9FF0ACDEAFF33
:100E0000EF50090A01E198D0010A01E18BD00F0AE5
:100E100001E19ED0020A01E19BD0030A01E198D0D2
:100E2000020A01E176D0070A2DE0010A06E0030A72
:100E300001E094D00D01020E89D009CDE9FF0ACD61
:100E4000EAFF1E0EEB50030803E30D01120E7ED0E5
:100E500009CDE9FF0ACDEAFF270EE926000EEA22B6
:100E6000EF50010B06E009CDE9FF0ACDEAFFEF6A7A
:100E700075D00D01020E0F6F09CDE9FF0ACDEAFF13
:100E8000010E58D009CDE9FF0ACDEAFF1E0EEB5046
:100E900003081BE309CDE9FF0ACDEAFF0F0EEB5073
:100EA000FF0810E00F01456B466B09CDE9FF0ACD45
:100EB000EAFF0F0EEB500F01446F15EC10F07AECC7
:100EC00012F04CD00D01100E41D009CDE9FF0ACD32
:100ED000EAFF0F0EEB50FF0813E009CDE9FF0ACD42
:100EE000EAFF0F0EEB500F01476F4FEC10F009CDEA
:100EF000E9FF0ACDEAFF0F0EE926000EEA22EF68AD
:100F00000D01110E0F6F09CDE9FF0ACDEAFF040EA6
:100F100011D009CDE9FF0ACDEAFF1E0EEB50030800
:100F200017E312D00D01010E0F6F09CDE9FF0ACDB5
:100F3000EAFF090EEF6E12D009CDE9FF0ACDEAFFF4
:100F40001E0EEB50030804E30D01010E0F6F06D0D7
:100F500009CD04F20ACD05F28BEC01F00D010F5121
:100F600069E00FA911D009CDE9FF0ACDEAFF160EFD
:100F7000E926000EEA22EECF0BFDEECF0CFDEECF00
:100F80000DFDEFCF0EFD14D009CDE9FF0ACDEAFF2C
:100F9000160EE926000EEA22EFCF0BFDEE2AEFCF68
:100FA0000CFDEE22EFCF0DFDEE22EFCF0EFDEF2276
:100FB0000201166B176B020115690FCD14F209CDF2
:100FC000E9FF0ACDEAFF1A0EE926000EEA22EECF6B
:100FD00010F2EECF11F2EECF12F2EFCF13F20BCDF3
:100FE0000CF20CCD0DF20DCD0EF20ECD0FF209CD9F
:100FF000E9FF0ACDEAFF0D0EE926000EEA22EECF48
:101000000AF2EDCF0BF209CDE9FF0ACDEAFF0B0E94
:10101000E926000EEA22EECF08F2EDCF09F209CD63
:10102000E9FF0ACDEAFFEE52E9CF06F2EACF07F276
:1010300011EC02F00D01002B32D612000D01FE0E54
:10104000296F286B060E285D01E37FD02851280DFB
:10105000F3CF26FDF4CF27FD000E2627010E272310
:1010600026CDE9FF27CDEAFFEF500A086BE026CD39
:10107000E9FF27CDEAFF0B0EE926000EEA22EECFAC
:1010800000F0EFCF01F02BC2E9FF2CC2EAFF020E05
:10109000E926000EEA22EECF02F0EFCF03F0025075
:1010A000001850E1035001184DE126CDE9FF27CD8E
:1010B000EAFFEF50000902E128CD29FD26CDE9FF26
:1010C00027CDEAFF0D0EE926000EEA22EECF00F052
:1010D000EFCF01F02BC2E9FF2CC2EAFFEECF02F006
:1010E000EFCF03F0025000182DE1035001182AE160
:1010F0002DC2E9FF2EC2EAFF060EE926000EEA2203
:10110000EECF04F0EECF05F0EECF06F0EFCF07F014
:1011100026CDE9FF27CDEAFFEE52060EE926000EA6
:10112000EA22EE50000104180DE1EE5005180AE124
:10113000EE50061807E1EE50071804E103E10D0137
:10114000285112000D01282B7DD7FE0E295D01E1EB
:10115000FE0C2951280DF3CF26FDF4CF27FD000EFC
:101160002627010E27230A0EE66EE66A2DC2E6FF49
:101170002EC2E6FF26CDE9FF27CDEAFFEE52E9CFEA
:1011800000F0EACF01F0E9CFE6FFEACFE6FF43EC5B
:1011900039F0026E060EE15E02502BC2E9FF2CC24E
:1011A000EAFFEECF00F0EFCF01F026CDE9FF27CD2B
:1011B000EAFF0D0E00C0EBFF0E0E01C0EBFF26CDC7
:1011C000E9FF27CDEAFF270EE926000EEA22EF9677
:1011D00026CDE9FF27CDEAFF0F0EEB50FF0813E005
:1011E00026CDE9FF27CDEAFF0F0EEB500F01476F29
:1011F0004FEC10F026CDE9FF27CDEAFF0F0EE926D0
:10120000000EEA22EF6826CDE9FF27CDEAFF270E80
:10121000E926000EEA22EF820D0129511200020197
:101220002F51280DF3CF36FDF4CF37FD000E0D0101
:101230003627010E3723386B36CDE9FF37CDEAFF6D
:101240001E0EE926000EEA22EF6A7EEC3AF014C088
:1012500000F015C001F016C002F017C003F036CD43
:10126000E9FF37CDEAFF1F0EE926000EEA2214C07F
:10127000EEFF01C0EEFF02C0EEFF03C0EEFF36CD71
:10128000E9FF37CDEAFF230EE926000EEA222C0EF5
:10129000EE6E010EEE6EEE6AEE6A32C2E9FF33C206
:1012A000EAFF0D0EE926000EEA22EF50040B19E0CA
:1012B00026EC11F036CDE9FF37CDEAFF270EE926FF
:1012C000000EEA22EF50010B02E0000E01D0010EE9
:1012D000E66E36CDE9FF37CDEAFFE552E750EF6E17
:1012E000120036CDE9FF37CDEAFF160EE926000ED3
:1012F000EA22EECF2AFDEECF2BFDEECF2CFDEFCF75
:101300002DFD32C2E9FF33C2EAFF0E0EE926000EC0
:10131000EA22EECF04F0EFCF05F0066A076A32C288
:10132000E9FF33C2EAFF080EE926000EEA22EE507A
:101330000D012A5D086EEE502B59096EEE502C59A6
:101340000A6EEE502D590B6E0850045C006E095069
:101350000558016E0A500658026E0B500758036E6E
:1013600036CDE9FF37CDEAFF100EE926000EEA225E
:10137000EECF0CF0EFCF0DF00E6A0F6A0C50005C50
:10138000266F0D500158276F0E500258286F0F50CE
:101390000358296F800E291509E036CDE9FF37CDB6
:1013A000EAFF140EEB6A150EEB6A0AD036CDE9FFA0
:1013B00037CDEAFF140E26CDEBFF150E27CDEBFF40
:1013C00036CDE9FF37CDEAFFEF50000901E0AFD09D
:1013D00026EC11F032C2E9FF33C2EAFF0D0EE92616
:1013E000000EEA22EF50020B03E10D01040E9DD026
:1013F00034C204F035C205F0066A076A32C2E9FF5A
:1014000033C2EAFF040EE926000EEA22EE5004245D
:10141000006EEE500520016EEE500620026EEE507A
:101420000720036E002A000E01220222032236CD7D
:10143000E9FF37CDEAFF1A0EE926000EEA2200C0C6
:10144000EEFF01C0EEFF02C0EEFF03C0EEFF32C2AE
:10145000E9FF33C2EAFF0E0EE926000EEA22EECFC4
:1014600000F0EFCF01F036CDE9FF37CDEAFF140EE3
:1014700000C0EBFF150E01C0EBFF0A0EE66EE66A38
:1014800030C2E6FF31C2E6FF36CDE9FF37CDEAFFD5
:10149000EE52E9CF00F0EACF01F0E9CFE6FFEACF64
:1014A000E6FF43EC39F0026E060EE15E025032C2F6
:1014B000E9FF33C2EAFFEECF00F0EFCF01F036CD07
:1014C000E9FF37CDEAFF0D0E00C0EBFF0E0E01C0A5
:1014D000EBFF36CDE9FF37CDEAFF020EEF6E36CDDA
:1014E000E9FF37CDEAFF160EE926000EEA22EFCF1C
:1014F0002AFDEE2AEFCF2BFDEE22EFCF2CFDEE22C0
:10150000EFCF2DFDEF2236CDE9FF37CDEAFF1A0EE2
:10151000E926000EEA22EECF26FDEECF27FDEECF24
:1015200028FDEFCF29FD0D01120E386F47D236CDC1
:10153000E9FF37CDEAFF1A0EE926000EEA22EECFC8
:101540002EFDEECF2FFDEECF30FDEFCF31FD36CDAE
:10155000E9FF37CDEAFF160EE926000EEA22EECFAC
:1015600032FDEECF33FDEECF34FDEFCF35FD32C28D
:10157000E9FF33C2EAFF040EE926000EEA22EECFAD
:1015800026FDEECF27FDEECF28FDEFCF29FD02018E
:1015900034510D012627020135510D012723000E7C
:1015A0002823292336CDE9FF37CDEAFF160EE92699
:1015B000000EEA22EECF2AFDEECF2BFDEECF2CFD62
:1015C000EFCF2DFD32C2E9FF33C2EAFF040EE92658
:1015D000000EEA22EE502E1901E0E3D1EE502F1951
:1015E00001E0DFD1EE50301901E0DBD1EE503119CE
:1015F00001E0D7D101E0D5D136CDE9FF37CDEAFF03
:10160000EF50020844E132C2E9FF33C2EAFF0D0E97
:10161000E926000EEA22EF50100B01E114D136CD7D
:10162000E9FF37CDEAFF1A0EE926000EEA2226CDA1
:10163000EEFF27CDEEFF28CDEEFF29CDEEFF36CD14
:10164000E9FF37CDEAFF030EEF6E02013451351189
:1016500001E1F9D036CDE9FF37CDEAFF270EE926C3
:10166000000EEA22EF8636CDE9FF37CDEAFF120EF3
:1016700034C2EBFF130E35C2EBFF36CDE9FF37CD99
:10168000EAFF270EE926000EEA22EF8497D136CD35
:10169000E9FF37CDEAFF1A0EE926000EEA2226CD31
:1016A000EEFF27CDEEFF28CDEEFF29CDEEFF36CDA4
:1016B000E9FF37CDEAFFEF50030801E0C7D032C29F
:1016C000E9FF33C2EAFF0D0EE926000EEA22EF50D1
:1016D000100B2FE036CDE9FF37CDEAFF270EE926C4
:1016E000000EEA22EF50020B24E136CDE9FF37CDA0
:1016F000EAFF0F0EEB50FF081CE036CDE9FF37CDB7
:10170000EAFF0F0EEB500F01476F4FEC10F036CD94
:10171000E9FF37CDEAFF0F0EE926000EEA22EF6857
:1017200036CDE9FF37CDEAFF270EE926000EEA2283
:10173000EF8232C2E9FF33C2EAFF0D0EE926000E46
:10174000EA22EF50010B31E00D01110E386F36CD5A
:10175000E9FF37CDEAFF160EE926000EEA22EFCFA9
:101760002AFDEE2AEFCF2BFDEE22EFCF2CFDEE224D
:10177000EFCF2DFDEF2236CDE9FF37CDEAFF1A0E70
:10178000E926000EEA22EF2AEECF26FDEF22EECF69
:1017900027FDEF22EECF28FDEF22EFCF29FD36CD3A
:1017A000E9FF37CDEAFF090EEF6E02013451351122
:1017B0004AE036CDE9FF37CDEAFF270EE926000ED5
:1017C000EA22EF50080B1FE136CDE9FF37CDEAFFE3
:1017D000270EE926000EEA22EF8636CDE9FF37CD47
:1017E000EAFF120E34C2EBFF130E35C2EBFF36CD0B
:1017F000E9FF37CDEAFF270EE926000EEA22EF8443
:101800000D013889DBD036CDE9FF37CDEAFF160E62
:10181000E926000EEA2232CDEEFF33CDEEFF34CDC5
:10182000EEFF35CDEEFF36CDE9FF37CDEAFF1A0EDC
:10183000E926000EEA222ECDEEFF2FCDEEFF30CDB1
:10184000EEFF31CDEEFF26EC11F0B8D036CDE9FF3A
:1018500037CDEAFFEF5009080FE126EC11F032C254
:10186000E9FF33C2EAFF0D0EE926000EEA22EF502F
:10187000100B01E1A3D08ED036CDE9FF37CDEAFFC2
:10188000EF50040847E126EC11F032C2E9FF33C201
:10189000EAFF0D0EE926000EEA22EF50010B28E0C8
:1018A0000D01100E386F36CDE9FF37CDEAFF1A0E65
:1018B000E926000EEA22EF2AEECF26FDEF22EECF38
:1018C00027FDEF22EECF28FDEF22EFCF29FD32C218
:1018D000E9FF33C2EAFF0D0EE926000EEA22EF50BF
:1018E000100B58E136CDE9FF37CDEAFF060E10D0D8
:1018F00032C2E9FF33C2EAFF0D0EE926000EEA22EA
:10190000EF50100B5BE036CDE9FF37CDEAFF050E57
:10191000EF6E54D036CDE9FF37CDEAFFEF50050822
:1019200025E126EC11F032C2E9FF33C2EAFF0D0EC9
:10193000E926000EEA22EF50010B40E00D01100EE7
:10194000386F36CDE9FF37CDEAFF1A0EE926000ED3
:10195000EA22EF2AEECF26FDEF22EECF27FDEF227F
:10196000EECF28FDEF22EFCF29FD14D036CDE9FFD1
:1019700037CDEAFFEF50060821E126EC11F032C224
:10198000E9FF33C2EAFF0D0EE926000EEA22EF500E
:10199000100B14E036CD04F237CD05F28BEC01F0DC
:1019A0000DD026EC11F00D01100E386F2ECD26FD56
:1019B0002FCD27FD30CD28FD31CD29FD0D0138512A
:1019C00031E00201166B176B0201156938CD14F274
:1019D00026CD10F227CD11F228CD12F229CD13F227
:1019E0002ACD0CF22BCD0DF22CCD0EF22DCD0FF217
:1019F00032C2E9FF33C2EAFFEECF0AF2EDCF0BF2BB
:101A000032C2E9FF33C2EAFF020EE926000EEA22E3
:101A1000EECF08F2EDCF09F230C206F231C207F282
:101A200011EC02F0120036C2E9FF37C2EAFF060EDF
:101A3000E926000EEA22EECF14FDEECF15FDEECF23
:101A400016FDEFCF17FD38C2E9FF39C2EAFFEECF2E
:101A500018FDEECF19FDEECF1AFDEFCF1BFD0D01E6
:101A60001C6B060E1D6F3AC21EFD3BC21FFD3AC223
:101A7000F4F03BC2F5F00DEC34F0F3CF1EFDF4CFE3
:101A80001FFD0C0E0001FC6FFD6B0001140EFA6FC0
:101A90000D0EFB6F6DEC34F0F3CF21FDF4CF22FD82
:101AA0000D01211F221F3AC2FEF03BC2FFF0E3EC02
:101AB00034F0F3CF23FDF4CF24FD0D01F450215D6C
:101AC00069E12351225D66E10301266B276BC9ECB6
:101AD00033F0140E0F013B6F3C6B0F01000E396F9A
:101AE0000D0E3A6F33EC0FF00201000E006F0D0E79
:101AF000016F3AEC00F00D010C51F00BE842E842A6
:101B0000E842E842040DF350006E016A140E005ED4
:101B1000000E015A00C025FD0050006E016AE85019
:101B200002013A5D3A6F01503B593B6F140E3A5F28
:101B3000000E3B5B0D010C51F00BE842E842E8421D
:101B4000E842040DF3500301266F276BC9EC33F014
:101B500036C22DF237C22EF20201000E2B6F0D0E8F
:101B60002C6F1EEC08F00D01206FFE0E205D12E0C0
:101B70003AC234F23BC235F20201000E326F0D0E52
:101B8000336F36C230F237C231F220CD2FF20FEC74
:101B900009F0010C26EC11F0010C0D01006B060E92
:101BA000005D71E20051280DF3CF01FDF4CF02FD7D
:101BB000000E0127010E022301CDE9FF02CDEAFF4D
:101BC0000A0EEF6E01CDE9FF02CDEAFF270EE926EE
:101BD000000EEA22EF9001CDE9FF02CDEAFF270EC9
:101BE000E926000EEA22EF8201CDE9FF02CDEAFFED
:101BF000270EE926000EEA22EF8401CDE9FF02CD8F
:101C0000EAFF270EE926000EEA22EF9801CDE9FF50
:101C100002CDEAFF270EE926000EEA22EF9601CD5B
:101C2000E9FF02CDEAFF0F0EEB50FF0813E001CDF4
:101C3000E9FF02CDEAFF0F0EEB500F01476F4FECAB
:101C400010F001CDE9FF02CDEAFF0F0EE926000EEC
:101C5000EA22EF6801CDE9FF02CDEAFF230EE92673
:101C6000000EEA222C0EEE6E010EEE6EEE6AEE6AA9
:101C700001CDE9FF02CDEAFF100EEB6A110EEB6A0F
:081C80000D01002B8CD71200AE
:081C88008A989E962BCFC9FF3C
:101C90009EA6FED7C9CF05FD9E96C96A9EA6FED711
:101CA000C9CF05FD9E96C96A9EA6FED7C9CF05FD80
:101CB0009E968A880D01055112008A989E962CCF17
:101CC000C9FF9EA6FED7C9CFD5FD9E96C96A9EA61E
:101CD000FED7C9CFD5FD9E968A880D01D551120039
:101CE0008A989E96400E0F012D11C96E9EA6FED7B2
:101CF000C9CFDDFD9E962ECFC9FF9EA6FED7C9CFC8
:101D0000DDFD9E968A8812008A989E96800E0F01AD
:101D10002F11C96E9EA6FED7C9CFDDFD9E9630CF8E
:101D2000C9FF9EA6FED7C9CFDDFD9E968A88120008
:101D30008A989E96A00E0F013111C96E9EA6FED7FD
:101D4000C9CFDDFD9E9632CFC9FF9EA6FED7C9CF73
:101D5000DDFD9E968A8812000F01030E326F0F017F
:101D60001F0E316FE5DF34CF30FF0F011F0E2F6FD5
:101D700084EF0EF00F01140E336F020E346FECDFA0
:101D800035CF2EFF0F01140E2D6FAADF0F01010EAC
:101D90002E6F0F01120E2D6FA3DF0F010A0E336F8E
:101DA000030E346FD9DF0F010A0E2B6F6DDF006E4B
:101DB000000100B0F8D70F01140E336F020E346F1C
:101DC000CBDF0F012E6B0F01120E2D6F89DF0F017C
:101DD000180E2B6F59DF006EE8CF03FD0F01190EAF
:101DE0002B6F52DF006EE8CF04FD03CDF3FFF46EDE
:101DF00012000F01140E336F020E346FADDF36CFB9
:101E00002EFF0F01140E2D6F6BDF37CF2EFF0F014A
:101E1000160E2D6F65DF38CF2EFF0F01170E2D6FB9
:101E20005FDF0F010A0E336F030E346F95DF0F0172
:101E30000A0E2B6F29DF006E000100B0F8D71200E8
:101E40008A989E963A0EC96E9EA6FED7C9CFCDFD42
:101E50009E96C96A9EA6FED7C9CFCDFD9E968A885A
:101E60000D01CD5112008A989E963A0EC96E0D0151
:101E7000D56BD66B0F013907000E3A5B9EA6FED7D5
:101E8000C9CFD7FD9E960F013B510D01D55D0F01C6
:101E90003C510D01D65910E2C96AD52B000ED6234C
:101EA0000F01392B3A239EA6FED7C95039CFE9FF3F
:101EB0003ACFEAFFEF6EE6D78A88D5CDF3FFD6CDCD
:101EC000F4FF12008A989E967A0EC96E9EA6FED7DF
:101ED000C9CFDDFD9E963DCFC9FF9EA6FED7C9CFD7
:101EE000DDFD9E968A8812008A989E967A0EC96EAB
:101EF0009EA6FED7C9CFDDFD9E960F014051411130
:101F00000EE03ECFE9FF3FCFEAFFEF50C96E3E2B18
:101F1000000E3F234007415B9EA6FED7EBD78A8881
:101F200012000F01010E356F25DFF350040B01E0A5
:101F3000010E12000F01425109E00F011F0E2C6F1C
:101F4000BCDEE850080B080A29E0010C2451235D8F
:101F50000AE10F011F0E2C6FB0DE0001E850080BE4
:101F6000080A1CE0010C0D01010EC96F070EC95DC6
:101F700014E2C951050DF3CFE9FFF4CFEAFF000EDB
:101F8000E9260F0EEA22040EE926000EEA22EF509F
:101F9000010B01E0010CC92BE9D7000E12000F0163
:101FA000435109E00F011F0E2C6F87DEE850080B2C
:101FB00001E1000CFF0C0D01010EC96F070EC95D98
:101FC00033E2C951050DF3CFE9FFF4CFEAFF000E6C
:101FD000E9260F0EEA22040EE926000EEA22EF504F
:101FE000010B20E0C951050DF3CFE9FFF4CFEAFF63
:101FF000000EE9260F0EEA22040EE926000EEA2260
:10200000EF90C951050DF3CFE9FFF4CFEAFF000EC1
:10201000E9260F0EEA22040EE926000EEA22EF92CC
:10202000C9511200C92BCAD7FF0C44CF23FF0F019F
:102030004451050DF3CFE9FFF4CFEAFF000EE92686
:102040000F0EEA22EECF00F0EFCF01F0010E0026D6
:10205000000E01220E0E0026000E01220050452720
:1020600001504623020E0F01336F346B75DE45CFEE
:102070002EFF0F012D6B34DE46CF2EFF0F01010E18
:102080002D6F2EDE45CF2EFF0F01020E2D6F28DEA5
:1020900046CF2EFF0F01030E2D6F70EF0EF00F01D4
:1020A0004751006E016A070E005C000E015811E2F4
:1020B0004751050DF3CFE9FFF4CFEAFF000EE92603
:1020C0000F0EEA22040EE926000EEA22EF8047CF27
:1020D00023FF1200140E0F01016A2725006E2851FC
:1020E0000122005048250D018D6F01500F0149213B
:1020F0000D018E6F8DCD00F0016E026A036AD880EB
:10210000070E0054100E0154000E0254000E03542A
:1021100004E2080E8D5F100E8E5B0F01336B346B83
:102120001BDE8DCD2EFF0F012D6BDADD8ECD2EFF48
:102130000F01010E2D6FD4DD8DCD2EFF0F01020E8C
:102140002D6FCEDD8ECD2EFF0F01030E2D6F70EFA4
:102150000EF00F01190E336F010E346FFDDD0F010C
:10216000190E2C6FAADD006EE8CFC9FD0E0E0F010F
:10217000336F346BF1DD0F010E0E2C6F9EDD006EA0
:10218000E8CFCBFD0F010F0E2C6F97DD006EE8CF6F
:10219000CCFD0F01190E336F010E346FDDDD0F0121
:1021A000190E2C6F8ADD006E0D01C9510001005C13
:1021B000D6E10C0E0F01336F346BCEDD0F010C0E28
:1021C0002C6F7BDD006EE8CFC9FD0F010D0E2C6F6B
:1021D00074DD006EE8CFCAFD0D01CB51C95DCC5155
:1021E000CA591BE2070E046E100E056E066A076AD6
:1021F000C951CB5D086ECC51CA55096E0A6A0B6A8B
:102200000850045C006E09500558016E0A500658CB
:10221000026E0B500758036E14D0C951CB1908E158
:10222000CA51CC1905E1070EF36E100EF46E1200C0
:10223000CB51C95D006ECA51CC55016E0006000E2F
:10224000015A00C0F3FF01C0F4FF12000F01295131
:1022500001E01200010E296F25CF87FD26CF88FDF2
:102260000D01875F000E885B87CD00F088CD01F0FF
:10227000026A036AD880070E0054100E0154000E43
:102280000254000E035404E2070E876F100E886F8D
:102290000F01400E306F0F011E0E2F6F35DD0C0E3B
:1022A0000F01336F346B58DD87CD2EFF0F010C0EFD
:1022B0002D6F16DD88CD2EFF0F010D0E2D6F70EFE7
:1022C0000EF00F01190E336F010E346F45DD0F0153
:1022D000190E2C6FF2DC006E0001005002E1000EBE
:1022E00090D00F01295103E1B1DF000E8AD025CF34
:1022F00027FF26CF28FF0F01336B346B2DDD25CF51
:102300002EFF0F012D6BECDC26CF2EFF0F01010EEF
:102310002D6FE6DC140E0F013B6F3C6B0F01000EBE
:10232000396F0D0E3A6F9FDD12CDF4F013CDF5F03D
:102330000DEC34F0F3CF12FDF4CF13FD00CD00F01F
:1023400001CD01F0026A036AD880070E0054100E16
:102350000154000E0254000E03541BE30D010D0145
:102360000051010B16E10D010D010551800B11E12A
:102370000D010D010451100B0CE10D01EE0ED88082
:102380000255050E035505E30D010D010451800BA7
:1023900001E1FF0000CD25FF01CD26FF060EE66E10
:1023A000E66A0C0EE66E0D0EE66E4ACFE9FF4BCFE5
:1023B000EAFFE9CF00F0EACF01F000C0E6FF01C07C
:1023C000E6FF43EC39F0026E060EE15E02504CCFA0
:1023D000E9FF4DCFEAFFEF68080E0D01135D0DE137
:1023E0000D01125104E0060E0D01125D06E14CCF05
:1023F000E9FF4DCFEAFF12CDEFFF0F01296B010E70
:1024000000D01200020E0F01336F346BA5DC0F01F8
:102410002351050DF3CFE9FFF4CFEAFF000EE926C3
:102420000F0EEA22EFCF2EFF0F01020E2D6F58DCA8
:102430000F012351050DF3CFE9FFF4CFEAFF000EA2
:10244000E9260F0EEA22010EE926000EEA22EFCF5E
:102450002EFF0F01030E2D6F43DC0F012351050DDD
:10246000F3CFE9FFF4CFEAFF000EE9260F0EEA22D0
:10247000EECF00F0EFCF01F00E0E0026000E01228D
:1024800000505127015052232351050DF3CFE9FF8E
:10249000F4CFEAFF000EE9260F0EEA22020EE9262B
:1024A000000EEA2251CFEEFF52CFEDFF0F013D6B40
:1024B00009DD060E0F01406F416B4ECF3EFF4FCF3F
:1024C0003FFF12DD060E0F01406F416B0F017A0EC8
:1024D0003E6F020E3F6F08DD0F01080E3D6FF2DC0C
:1024E0000F01505102E1000E01D0060E0F013D6FA9
:1024F00062EF0FF0040E0F01336F346B2DDC0F0110
:102500002351050DF3CFE9FFF4CFEAFF000EE926D2
:102510000F0EEA22EFCF2EFF0F01040E2D6F70EC8D
:102520000EF00F012351050DF3CFE9FFF4CFEAFFC1
:10253000000EE9260F0EEA22010EE926000EEA221D
:10254000EFCF2EFF0F01050E2D6F70EC0EF00F0177
:102550002351050DF3CFE9FFF4CFEAFF000EE92682
:102560000F0EEA22020EE926000EEA22EFCF2EFF1E
:102570000F01060E2D6F70EC0EF00F012351050DAB
:10258000F3CFE9FFF4CFEAFF000EE9260F0EEA22AF
:10259000020EE926000EEA22010EE926000EEA22CA
:1025A000EFCF2EFF0F01070E2D6F70EC0EF023CF33
:1025B00024FF0F012351050DF3CFE9FFF4CFEAFF0C
:1025C000000EE9260F0EEA22040EE926000EEA228A
:1025D000EF820F011C0E2C6F5DEC0EF0006E0001FF
:1025E00000A210D00F01800E306F0F011F0E2F6F51
:1025F00084EC0EF00F01800E326F0F011F0E316F51
:1026000098EC0EF00F010A0E326F0F011C0E316FA5
:1026100098EC0EF00F01080E306F0F011F0E2F6F98
:1026200084EC0EF0050E0F012A5D01E0C8D00F0109
:102630001C0E2C6F5DEC0EF0006E0A0E00010014F3
:10264000F6E00F011C0E2C6F5DEC0EF0006E000129
:1026500000A2B5D00F01080E326F0F011F0E316FAF
:1026600098EC0EF00F01336B346BACEC0EF00F01F5
:102670002C6B5DEC0EF0006EE8CFC9FD0F01010E72
:102680002C6F5DEC0EF0006EE8CFCAFD0F01060E58
:102690002C6F5DEC0EF0006EE8CFCBFD0F01070E46
:1026A0002C6F5DEC0EF0006EE8CFCCFD0D01CB2B56
:1026B000000ECC23CBCD2EFF0F012D6B70EC0EF056
:1026C000CCCD2EFF0F01010E2D6F70EC0EF0070E1A
:1026D0000F013B6F3C6B0F01CD0E396F0D0E3A6F42
:1026E00033EC0FF00D01D46B100ED45D5BE20F01E3
:1026F0001C0E2C6F5DEC0EF0006E0001E850020B1A
:1027000051E00D01D051200B4DE00F01800E306FD4
:102710000F011F0E2F6F84EC0EF00F01800E326F31
:102720000F011F0E316F98EC0EF00F010A0E326F81
:102730000F011C0E316F98EC0EF00F01080E306F78
:102740000F011F0E2F6F84EC0EF00F011C0E2C6F6B
:102750005DEC0EF0006E0A0E00010014F6E00F01B1
:10276000080E326F0F011F0E316F98EC0EF0CBCDBB
:102770002EFF0F012D6B70EC0EF0CCCD2EFF0F0154
:10278000010E2D6F70EC0EF0070E0F013B6F3C6BCE
:102790000F01CD0E396F0D0E3A6F33EC0FF00D01B6
:1027A000D42BA2D7C9CD2EFF0F012D6B70EC0EF0EC
:1027B000CACD2EFF0F01010E2D6F70EC0EF012002E
:1027C0000F01200E326F0F011E0E316F98EC0EF0CC
:1027D0000F011D0E2C6F5DEC0EF0006E000100A0CD
:1027E000F7D70F01040E306F0F011F0E2F6F84EF0C
:1027F0000EF00F01040E326F0F011F0E316F98ECB7
:102800000EF00F011D0E2C6F5DEC0EF0006E00013E
:1028100000B4F7D70F011F0E2C6F5DEC0EF0006EA9
:10282000000100B6F7D70F01200E306F0F011E0E0A
:102830002F6F84EF0EF00F010C0E326F0F011F0E81
:10284000316F98EC0EF00F01356BBAEC0EF0F3CF50
:1028500001FDF4CF02FD020E0F01535D06E10D01F3
:102860000251010B0F01536F0DD053510D01029115
:10287000E8B0028101CD37FF02CD38FF0F01366B82
:10288000F9EC0EF00F01020E336F346FACEC0EF06A
:102890000F01020E2B6F44EC0EF00D01006F0F01C3
:1028A00053510D010091E8B0008100CD2EFF0F01C2
:1028B000020E2D6F70EC0EF00F01535102E0150E59
:1028C00001D0120E0F012E6F0F01040E2D6F70EC50
:1028D0000EF00F01040E306F0F011F0E2F6F84EFEB
:1028E0000EF00F01150E336F030E346FACEC0EF0CB
:1028F00054CF2EFF0F01150E2D6F70EC0EF00F014F
:10290000336B346BACEF0EF00F01150E336F030E0B
:10291000346FACEC0EF00F01150E2C6F5DEC0EF069
:10292000006EE8CF00FD0F01336B346BACEC0EF0A2
:102930000D01005112008A989E96C9689EA6FED786
:10294000C9CF00FD9E968A8812009E960F011D0E2B
:102950002C6F5DEC0EF0006EE8CF06FD080E0D0149
:102960000615F4E1061D010BF1E1E5DF010E03019F
:102970004A6F4B6B9EEC3AF00D01066B070E065D3D
:1029800039E20651006E016A480E0102F3CF01F0F0
:10299000020E0002F3500126480E0002F3CF00F0B1
:1029A000F4500126026A036A080E0026100E012266
:1029B000000E022203220651050DF3CFE9FFF4CFEA
:1029C000EAFF000EE9260F0EEA2200C0EEFF01C06A
:1029D000EDFF0651050DF3CFE9FFF4CFEAFF000E3E
:1029E000E9260F0EEA22040EE926000EEA22EF8005
:1029F000062BC4D70F01236B010E296F256B266BA5
:102A00000F012E6B0F01080E2D6F70EC0EF00F01F1
:102A10002E6B0F01090E2D6F70EC0EF00F01070EDB
:102A20002E6F0F010C0E2D6F70EC0EF00F01100EBB
:102A30002E6F0F010D0E2D6F70EC0EF00F01070EB3
:102A40002E6F0F010A0E2D6F70EC0EF00F01100E9D
:102A50002E6F0F010B0E2D6F70EC0EF00F01080E94
:102A60002E6F0F01040E2D6F70EC0EF00F01100E83
:102A70002E6F0F01050E2D6F70EC0EF00F01336BF2
:102A8000020E346FACEC0EF00F010D0E2E6F0F0125
:102A90002D6B70EC0EF00F01320E2E6F0F01020E37
:102AA0002D6F70EC0EF00F01400E2E6F0F01030E14
:102AB0002D6F70EC0EF00F013F0E2E6F0F01090EFF
:102AC0002D6F70EC0EF00F01120E2E6F0F01060E1F
:102AD0002D6F70EC0EF00F010C0E2E6F0F01070E14
:102AE0002D6F70EC0EF00F01EE0E2E6F0F010A0E1F
:102AF0002D6F70EC0EF00F01050E2E6F0F010B0EF7
:102B00002D6F70EC0EF00F01040E336F030E346F57
:102B1000ACEC0EF07AC22EFF0F01040E2D6F70EC9C
:102B20000EF07BC22EFF0F01050E2D6F70EC0EF024
:102B30007CC22EFF0F01020E2D6F70EC0EF07DC2D5
:102B40002EFF0F01030E2D6F70EC0EF07EC22EFFD4
:102B50000F012D6B70EC0EF07FC22EFF0F01010EE6
:102B60002D6F70EC0EF00F01120E2C6F5DEC0EF05D
:102B7000006EE8CF2AFF0F01376B010E386F0F018F
:102B8000100E366FF9EC0EF00F01720E376F040E57
:102B9000386F0F01140E366FF9EC0EF00F01536B06
:102BA0004ADE0F01040E306F0F011F0E2F6F84EFEE
:022BB0000EF025
:0E2BB2003C68746D6C3E3C686561643E3C742A
:102BC00069746C653E436F6272613C2F7469746C0A
:102BD000653E3C736372697074206C616E677561E9
:102BE00067653D224A617661536372697074223E63
:102BF00076617209786D6C487474703B76617220EE
:102C00004F626A4172726179203D206E6577204182
:102C1000727261793B66756E6374696F6E20476589
:102C200074586D6C487474704F626A656374286878
:102C3000616E646C6572297B20766172206F626AB6
:102C4000586D6C48747470203D206E756C6C3B2020
:102C50006966286E6176696761746F722E75736537
:102C6000724167656E742E696E6465784F662822BE
:102C70004D53494522293E3D3029207B2020766155
:102C80007220436C6173734E616D65203D20224D4F
:102C900073786D6C322E584D4C48545450223B2062
:102CA000206966286E6176696761746F722E617043
:102CB0007056657273696F6E2E696E6465784F66C3
:102CC00028224D53494520352E3522293E3D3029B5
:102CD00020207B202020436C6173734E616D652042
:102CE0003D20224D6963726F736F66742E584D4C90
:102CF00048545450223B20207D202074727920209B
:102D00007B2020206F626A586D6C48747470203D7F
:102D1000206E657720416374697665584F626A65F5
:102D2000637428436C6173734E616D65293B202089
:102D3000206F626A586D6C487474702E6F6E726585
:102D400061647973746174656368616E6765203D61
:102D50002068616E646C65723B202020726574751A
:102D6000726E206F626A586D6C487474703B2020DC
:102D70007D2020636174636828652920207B2020E2
:102D800020616C65727428224572726F723A20411C
:102D900063746976655820736372697074696E67CD
:102DA000206D61792062652064697361626C65647D
:102DB0002E22293B20202072657475726E3B2020E4
:102DC0007D207D20656C7365207B202074727920C6
:102DD000207B2020206F626A586D6C4874747020CC
:102DE0003D206E657720584D4C4874747052657163
:102DF0007565737428293B2020206F626A586D6CBA
:102E0000487474702E6F6E6C6F6164203D20686131
:102E10006E646C65723B2020206F626A586D6C484E
:102E20007474702E6F6E6572726F72203D206861CF
:102E30006E646C65723B20202072657475726E2022
:102E40006F626A586D6C487474703B20207D20203E
:102E5000636174636828652920207B202020616CD1
:102E600065727428224572726F723A2042726F77CF
:102E7000736572206D6179206E6F742062652073B6
:102E80007570706F72746564206F722062726F77F4
:102E900073657220736563757269747920726573E6
:102EA0007472696374696F6E732061726520746FE8
:102EB0006F20686967682E22293B20207D207D7D58
:102EC00066756E6374696F6E2053746174654368D0
:102ED000616E67656428297B20696628786D6C4877
:102EE0007474702E72656164795374617465203DE9
:102EF0003D2034207C7C20786D6C487474702E7278
:102F0000656164795374617465203D3D2022636F6F
:102F10006D706C6574652229207B2020646F637559
:102F20006D656E742E676574456C656D656E744273
:102F300079496428227478744175746F557064619E
:102F4000746553746174757322292E696E6E65728F
:102F500048544D4C3D786D6C487474702E72657396
:102F6000706F6E7365546578743B2020786D6C4883
:102F7000747470203D206E756C6C3B20205570641D
:102F800061746553746174757328293B207D7D6677
:102F9000756E6374696F6E205570646174655374E7
:102FA0006174757328297B20786D6C487474702067
:102FB0003D20476574586D6C487474704F626A6543
:102FC00063742853746174654368616E676564292E
:102FD0003B20786D6C487474702E6F70656E28227B
:102FE000474554222C20227374617475732E6367D5
:102FF0006922202C2074727565293B20786D6C48FD
:103000007474702E73656E64286E756C6C293B7DCC
:1030100066756E6374696F6E20476574536572766A
:10302000657246696C652846696C654E616D652CF4
:103030002041737369676E546F297B20766172201B
:103040004E696674794F626A203D206E6577204F25
:10305000626A65637428293B204E696674794F6201
:103060006A2E584D4C446576696365203D206E6537
:103070007720476574586D6C487474704F626A6548
:1030800063742853746174654368616E6765643264
:10309000293B204E696674794F626A2E584D4C4424
:1030A00065766963652E6F70656E282247455422E8
:1030B0002C2046696C654E616D652C2074727565B7
:1030C000293B204E696674794F626A2E584D4C44F4
:1030D00065766963652E73656E64286E756C6C2900
:1030E0003B204E696674794F626A2E54657874206D
:1030F0003D2041737369676E546F3B204F626A4194
:10310000727261792E70757368284E696674794F92
:10311000626A293B7D66756E6374696F6E205374B5
:103120006174654368616E6765643228297B206637
:103130006F72286920696E204F626A4172726179EC
:1031400029207B20206966284F626A41727261796A
:103150005B695D2E584D4C4465766963652E7265DA
:103160006164795374617465203D3D2034207C7C1A
:10317000204F626A41727261795B695D2E584D4CD5
:103180004465766963652E72656164795374617410
:1031900065203D3D2022636F6D706C65746522294A
:1031A00020207B2020206966284F626A417272616C
:1031B000795B695D2E5465787420213D2022222997
:1031C0002020207B20202020646F63756D656E7445
:1031D0002E676574456C656D656E74427949642827
:1031E0004F626A41727261795B695D2E54657874D1
:1031F000292E696E6E657248544D4C3D4F626A418E
:10320000727261795B695D2E584D4C4465766963D5
:10321000652E726573706F6E7365546578743B20AC
:1032200020207D2020206966284F626A41727261E9
:10323000795B695D2E54657874203D3D2022747859
:10324000744175746F5570646174655374617475FD
:103250007322292020207B2020202047657453657D
:103260007276657246696C65282273746174757331
:103270002E636769222C20227478744175746F550F
:10328000706461746553746174757322293B2020E6
:10329000207D20202064656C657465204F626A4142
:1032A000727261795B695D2E584D4C446576696335
:1032B000653B20202064656C657465204F626A411F
:1032C000727261795B695D3B20207D207D7D3C2FA2
:1032D0007363726970743E3C2F686561643E3C6242
:1032E0006F6479206F6E6C6F61643D22557064610C
:1032F000746553746174757328293B204765745352
:10330000657276657246696C6528277665727369A1
:103310006F6E2E636769272C27747874537461630A
:103320006B56657273696F6E27293B20476574532E
:10333000657276657246696C65282762646174659A
:103340002E636769272C277478744275696C64440E
:1033500061746527293B223E3C703E546F67676C61
:1033600065204C45447320266E6273703B266E6266
:1033700073703B3C696E70757420747970653D2282
:10338000627574746F6E222076616C75653D224C97
:1033900045443122206F6E636C69636B3D22476543
:1033A0007453657276657246696C652827303F30C4
:1033B0003D4C454431272C272729223E3C2F696E5E
:1033C0007075743E3C696E70757420747970653DDB
:1033D00022627574746F6E222076616C75653D2271
:1033E0004C45443222206F6E636C69636B3D22470B
:1033F000657453657276657246696C652827303F3F
:10340000313D4C454432272C272729223E3C2F6949
:103410006E7075743E3C62723E3C62723E3C2F663A
:103420006F6E743E3C74722076616C69676E3D7499
:103430006F703E3C464F524D204D4554484F443DE1
:1034400047455420616374696F6E3D506F776572B4
:103450002E6367693E3C7461626C653E3C74723EEB
:103460003C74643E506F776572204C6576656C3AAB
:103470003C2F74643E3C74643E3C696E70757420ED
:10348000747970653D746578742073697A653D322E
:10349000206D61786C656E6774683D31206E616D7A
:1034A000653D502076616C75653D2530373E3C2F7B
:1034B00074643E3C2F74723E3C74723E3C74643EB5
:1034C0004C6F7720506F7765722053657474696E06
:1034D000673A3C2F74643E3C74643E3C696E707580
:1034E0007420747970653D746578742073697A65A9
:1034F0003D32206D61786C656E6774683D31206E79
:10350000616D653D4C2076616C75653D2530383EBA
:103510003C2F74643E3C2F74723E3C74723E3C748B
:10352000643E4869676820506F7765722053657400
:1035300074696E673A3C2F74643E3C74643E3C6927
:103540006E70757420747970653D7465787420733D
:10355000697A653D32206D61786C656E6774683D8F
:1035600031206E616D653D482076616C75653D2545
:1035700030393E3C2F74643E3C2F74723E3C747272
:103580003E3C74643E3C696E70757420747970655D
:103590003D7375626D6974206E616D653D42207684
:1035A000616C75653D4170706C793E3C2F74643E72
:1035B0003C2F74723E3C2F7461626C653E3C623EEF
:1035C0005374617475733C2F623E3C62723E3C736F
:1035D00070616E2069643D227478744175746F5512
:1035E0007064617465537461747573223E4C6F61CD
:1035F00064696E672E2E2E3C2F7370616E3E3C62A6
:10360000723E3C2F626F64793E3C2F68746D6C3E55
:1036100004FFFFFF3C62723E414E303A20202530CD
:10362000323C62723E427574746F6E733A2020258C
:1036300030462025304520253044202530343C625A
:10364000723E4C4544733A202025313520253134D3
:1036500020253133202531322025313120253130CC
:1036600020253031202530303C62723E3C623E499C
:1036700050205061636B657420436F756E74657282
:10368000733C2F623E3C62723E54783A20202532D1
:10369000303C62723E52783A2025323104FFFFFFFF
:1036A00000B22B494E4445582E48544D202020004E
:1036B00014365354415455532E434749202004FF98
:0D36C000FF454E44204F4620464154202037
:0236CE0073CFB8
:1036D000E9FF74CFEAFFEE52EECFF2F1EDCFF3F156
:1036E00073CFE9FF74CFEAFF070EEB50000901E149
:1036F000CED073CFE9FF74CFEAFFEF5002011B6F0A
:1037000062EC04F0000901E1ECD00D01E96B73CF2C
:10371000E9FF74CFEAFF040EEB5008080AE004EC5E
:1037200038F00D01EA6F0101F21D03E1F31D01E123
:10373000C2D073CFE9FF74CFEAFF040EEB50080A42
:1037400052E00E0A29E0030A14E0060A01E08FD0D5
:10375000250E0D01EA5D0AE173CFE9FF74CFEAFFA0
:10376000040EE926000EEA22050E80D0010EE96F54
:103770007ED0250E0D01EA5D03E1010EE96F6DD0EB
:10378000EACDECFD73CFE9FF74CFEAFF040EE92622
:10379000000EEA22060E6AD0EACDEBFDEACDF0F08B
:1037A000ECCDF1F0D5EC33F0E66E73CFE9FF74CFDA
:1037B000EAFF080EE926000EEA22E552E750EF6E16
:1037C00073CFE9FF74CFEAFF040EE926000EEA2268
:1037D000080EEF6E73CFE9FF74CFEAFF050EEB6AB8
:1037E000060EEB6A44D00201EA0E546F0D0E556FBF
:1037F00073CFE9FF74CFEAFF050EE926000EEA2237
:10380000EECF52F2EDCF53F273CFE9FF74CFEAFF60
:10381000080EEB500201516F1BEC2BF0F3CF00F0C0
:10382000F4CF01F073CFE9FF74CFEAFF050EF3CFB9
:10383000EBFF060E01C0EBFF0D01010EE96F73CF28
:10384000E9FF74CFEAFF050EE926000EEA22FF0E1B
:10385000EE180DE1FF0EED180AE173CFE9FF74CF0A
:10386000EAFF040EE926000EEA22030EEF6E0D01B8
:10387000E95101E13ED7EACD1DF273CFE9FF74CFE4
:10388000EAFFEF5002011C6F9DEC04F032D773CFBA
:10389000E9FF74CFEAFFEF5002011B6F62EC04F006
:1038A00000091FE004EC38F00D01EA6F0101F21D80
:1038B0000CE1F31D0AE173CFE9FF74CFEAFFEF508B
:1038C00002011A6FBBEC03F0010CEACD1DF273CFBD
:1038D000E9FF74CFEAFFEF5002011C6F9DEC04F08A
:1038E000D6D773CFE9FF74CFEAFF010EF2C1EBFF29
:1038F000020EF3C1EBFF000C0D01866B876B886B2A
:10390000856B030EE66EE66A3A0E006E720E016E6D
:10391000026A00C0E6FFE66E02C0E6FF75CFE6FF72
:1039200076CFE6FF24EC39F0036E070EE15E03501C
:10393000000908E1040E0F017527000E76230D0122
:103940008A6B01D0020C75CFE9FF76CFEAFFEF500A
:10395000200805E10F01752B000E7623F4D775CFF3
:10396000E9FF76CFEAFFEFCF89FD200E0D01895DDB
:1039700001E195D0895101E192D00D0E895D01E1FF
:103980008ED00A0E895D01E18AD079CFE9FF7ACF26
:10399000EAFFEF50855D01E382D08651020A30E0F4
:1039A000030A1DE0010A76E18551020D0F017751EE
:1039B000F324E96E7851F420EA6E75CFEEFF76CFEE
:1039C000EDFF75CFE9FF76CFEAFFEFCF89FD2F0E30
:1039D0000D01895D41E05C0E895D5CE13DD0855162
:1039E000852B020D0F017751F324E96E7851F420F5
:1039F000EA6E75CFEEFF76CFEDFF0D01020E866FFA
:103A000075CFE9FF76CFEAFFEFCF89FD3F0E895DE5
:103A10001EE0260E895D1BE02B0E895D07E1200E5E
:103A200075CFE9FF76CFEAFFEF6E34D02E0E895DB9
:103A30000BE1850509E10F01752B000E762375CF8B
:103A400087FD76CF88FD26D03D0E895D08E175CFD4
:103A5000E9FF76CFEAFFEF6A010E866F1BD02F0ECB
:103A6000895D03E05C0E895D15E1010E0F01016ABD
:103A70007525006E765101220D018505020D0F019D
:103A80007751F324E96E7851F420EA6E00C0EEFF1E
:103A900001C0EDFF0F01752B000E762360D775CFA7
:103AA000E9FF76CFEAFFEF6A090E7BCFE9FF7CCF13
:103AB000EAFFEF6E8751881142E087CDE6FF88CD9F
:103AC000E6FFD8EC39F0E552E552F3CF87FDF4CFAD
:103AD00088FD0D01A00E8B6F700E8C6F896B895164
:103AE000006E016A0A0E005C000E015828E2030E07
:103AF000E66EE66A8BCD00F08CCD01F0026A8BCDCC
:103B0000E6FF8CCDE6FF02C0E6FF87CDE6FF88CD5D
:103B1000E6FF24EC39F0036E070EE15E0350000966
:103B200007E17BCFE9FF7CCFEAFF89CDEFFF07D02C
:103B3000040E0D018B27000E8C23892BD0D70D018D
:103B4000855130E1090EE66EE66A3E0E006E720E99
:103B5000016E026A00C0E6FFE66E02C0E6FF77CFA4
:103B6000E9FF78CFEAFFEECFE6FFEFCFE6FF6EEC9E
:103B700039F0036E070EE15E035077CFE9FF78CF8F
:103B8000EAFFEE50EFCFEAFFE96E090EE926000EDC
:103B9000EA22EF6A010E7BCFE9FF7CCFEAFFEF6EEE
:103BA0000D01852B79CFE9FF7ACFEAFF85CDEFFFB5
:103BB0008A5112000F017D510A0DF3CF81FDF4CF20
:103BC00082FD550E0D0181270F0E8223806B81CD62
:103BD000E9FF82CDEAFFEF500201186F2BEC03F0F2
:103BE00000090AE181CDE9FF82CDEAFF030EE92653
:103BF000000EEA22EF6A120081CDE9FF82CDEAFFD2
:103C0000030EEB50090A01E10BD2080A01E1E0D1F1
:103C10000A0A01E11AD1090A01E1D5D0020A01E03C
:103C200028D281CDE9FF82CDEAFFEF5002012A6F51
:103C300038EC06F0000901E11CD20D01010E806F85
:103C40007E6B7F6B0D01640E7E5D000E7F5917E267
:103C50007ECD28F27FCD29F27E2B000E7F23000E31
:103C6000020128270D0E292381CDE9FF82CDEAFF2D
:103C7000EF500201276FDDEC05F00009E3E1000ED3
:103C80000D017E25E96E0D0E7F21EA6EEF6A81CD72
:103C9000E9FF82CDEAFFEF5002011E6F1AEC05F03A
:103CA00081CDE9FF82CDEAFF030EE926000EEA226C
:103CB000020EEF6E0D010B0E7B6F81CDE9FF82CD01
:103CC000EAFF090EE926000EEA22E9CF7BFFEACFE0
:103CD0007CFF0F017B0E796F0D0E7A6F0F01650E61
:103CE000776F0D0E786F0F01000E756F0D0E766FEA
:103CF00003DE0D017D6FE85001E0BBD17B5101086F
:103D000013E27BCD50F20201650E4E6F0D0E4F6F28
:103D1000B8EC2AF081CDE9FF82CDEAFF090EE92651
:103D2000000EEA22020EEF6E65CDF7F166CDF8F1D6
:103D300073EC37F0F3CF00F0F4CF01F081CDE9FF61
:103D400082CDEAFF010EF3CFEBFF020E01C0EBFFC5
:103D500081CDE9FF82CDEAFFEE52FF0EEE180DE1B4
:103D6000FF0EED180AE181CDE9FF82CDEAFF080ED2
:103D7000E926000EEA22EF6A12D081CDE9FF82CD5A
:103D8000EAFFEE52EE50ED1014E181CDE9FF82CD55
:103D9000EAFF080EE926000EEA22010EEF6E81CD41
:103DA000E9FF82CDEAFF030EE926000EEA22020EA9
:103DB0005FD181CDE9FF82CDEAFF030EE926000E37
:103DC000EA220B0E55D181CDE9FF82CDEAFFEF50FB
:103DD00002011B6F62EC04F0000901E14AD181CDC0
:103DE000E9FF82CDEAFF080EEB50E96EEA6AD8904F
:103DF000E936EA36FC0EE926020EEA22EECF83FD12
:103E0000EDCF84FD0D0183CDF6FF84CDF7FF832B2D
:103E1000000E84230800F5CF7CFDF5500CE07CCD2E
:103E20001DF281CDE9FF82CDEAFFEF5002011C6F48
:103E30009DEC04F0E7D781CDE9FF82CDEAFFEF509A
:103E400002011A6FBBEC03F0E1D081CDE9FF82CD16
:103E5000EAFFEF5002011B6F62EC04F0000901E180
:103E600008D10D01010E806F81CDE9FF82CDEAFFFF
:103E7000090EEB50020828E181CDE9FF82CDEAFF6F
:103E8000070EE926000EEA22010EEF6E7C6B7C51D4
:103E9000006E016A840E005C000E01583CE27C5109
:103EA000F76AB00FF66E710EF7220800F5CF1DF21B
:103EB00081CDE9FF82CDEAFFEF5002011C6F9DEC3E
:103EC00004F00D017C2BE3D781CDE9FF82CDEAFF21
:103ED000070EE926000EEA22EF6A7C6B7C51006E29
:103EE000016A1F0E005C000E015815E27C51F76A52
:103EF000900FF66E710EF7220800F5CF1DF281CDFE
:103F0000E9FF82CDEAFFEF5002011C6F9DEC04F047
:103F10000D017C2BE3D781CDE9FF82CDEAFF090EAD
:103F2000EB50140DF3CFF6FFF4CFF7FFC80EF626D3
:103F3000700EF722F6CF83FDF7CF84FD0D0183CD00
:103F4000F6FF84CDF7FF832B000E84230800F5CF06
:103F50007CFDF5500CE07CCD1DF281CDE9FF82CDDA
:103F6000EAFFEF5002011C6F9DEC04F0E7D77C6B79
:103F70007C51006E016A040E005C000E015815E2CF
:103F80007C51F76A350FF66E720EF7220800F5CFF6
:103F90001DF281CDE9FF82CDEAFFEF5002011C6FD7
:103FA0009DEC04F00D017C2BE3D781CDE9FF82CDA0
:103FB000EAFF040EE926000EEA22030EEF6E81CD21
:103FC000E9FF82CDEAFFE926000EEA22010E50D079
:103FD00081CDE9FF82CDEAFFEF5002012A6F38EC74
:103FE00006F0000909E081CDE9FF82CDEAFFEF503C
:103FF00002011E6F1AEC05F081CD73FF82CD74FFB4
:1040000067EC1BF0000935E0FDEC37F081CDE9FFEE
:1040100082CDEAFF030EE926000EEA22090E28D01F
:1040200081CDE9FF82CDEAFFEF500201186F2BEC42
:1040300003F000091EE081CDE9FF82CDEAFFEF50D9
:1040400002011B6F62EC04F0000913E081CDE9FF6F
:1040500082CDEAFFEF500201196F3BEC03F081CDF6
:10406000E9FF82CDEAFF030EE926000EEA220A0EDE
:10407000EF6E0D01805101E0A9D512000D01F36B27
:10408000030EF35D06E2F3CD7DFF94DD0D01F32B0E
:10409000F7D712000D01036B030E035D26E2500EED
:1040A0000201026F036B15EC01F0E66E0D01035186
:1040B0000A0DF3CFE9FFF4CFEAFF550EE9260F0E04
:1040C000EA22E552E750EF6E03510A0DF3CFE9FF04
:1040D000F4CFEAFF550EE9260F0EEA22030EE92679
:0C40E000000EEA22EF6A032BD7D7120073
:0440EC00080E0301B6
:1040F000465D01E11200FF0E475D04E047C3DFF0BB
:1041000079EC25F003014769466B496B4891120031
:104110000001010EE06FACEC25F00001010EE06F34
:10412000ACEC25F00001060EE06FACEC25F00001D0
:10413000E06BACEC25F00001120EE06FACEC25F06A
:104140000001230EE06FACEC25F00001340EE06FAF
:10415000ACEC25F00001560EE06FACEC25F0000150
:10416000E06BACEC25F00001E06BACEC25F000015D
:10417000800EE06FACEC25F00001E06BACEC25F0BC
:104180000001E06BACEC25F00001E06BACEC25F03D
:104190000001E06BACEC25F00001E06BACEC25F02D
:1041A0000D010F6B0C0E0F5D07E20001E06BACEC34
:1041B00025F00D010F2BF6D77AC2E0F0ACEC25F01C
:1041C0007BC2E0F0ACEC25F07CC2E0F0ACEC25F07A
:1041D0007DC2E0F0ACEC25F07EC2E0F0ACEC25F066
:1041E0007FC2E0F0ACEC25F00D010F6BCA0E0F5D45
:1041F00007E20001E06BACEC25F00D010F2BF6D7C8
:104200000001630EE06FACEC25F00001820EE06F60
:10421000ACEC25F00001530EE06FACEC25F0000192
:10422000630EE06FACEC25F00001350EE06FACECF6
:1042300025F00001010EE06FACEC25F0F2C2E0F0D9
:10424000ACEC25F00201F20502E103014893020102
:10425000F2051FE0E651E711E811E9111AE000014B
:10426000360EE06FACEC25F00001040EE06FACEC14
:1042700025F0E1C2E0F0ACEC25F0E0C2E0F0ACECFF
:1042800025F0DFC2E0F0ACEC25F0DEC2E0F0ACECF3
:1042900025F00001370EE06FACEC25F00001040EB4
:1042A000E06FACEC25F00001010EE06FACEC25F006
:1042B0000001030EE06FACEC25F00001060EE06F8C
:1042C000ACEC25F000010C0EE06FACEC25F0030E19
:1042D0000201F25D1AE10001320EE06FACEC25F054
:1042E0000001040EE06FACEC25F0E6C2E0F0ACECAF
:1042F00025F0E7C2E0F0ACEC25F0E8C2E0F0ACEC71
:1043000025F0E9C2E0F0ACEC25F00001E069ACEC8E
:1043100025F034EF26F00D01126B00010F0EE26F55
:104320000D0EE36FDEEC26F0020E0D010F5D01E0D5
:10433000C9D1106B0F0E105D0AE200010F0EE26F83
:104340000D0EE36FDEEC26F00D01102BF3D7030109
:1043500048A30FD00D01106B040E105D28E2000180
:104360000F0EE26F0D0EE36FDEEC26F00D01102B49
:10437000F3D70001E60EE26F020EE36FDEEC26F0EB
:104380000001E70EE26F020EE36FDEEC26F00001A3
:10439000E80EE26F020EE36FDEEC26F00001E90E9C
:1043A000E26F020EE36FDEEC26F00201DD810D010B
:1043B000106B080E105D0AE200010F0EE26F0D0E89
:1043C000E36FDEEC26F00D01102BF3D7106B060E19
:1043D000105D14E200010F0EE26F0D0EE36FDEECD4
:1043E00026F00D011051EA6A7A0FE96E020EEA22F8
:1043F000EF500F5D01E08AD1102BE9D7106BCE0E84
:10440000105D0AE200010F0EE26F0D0EE36FDEECAD
:1044100026F00D01102BF3D7176B00010F0EE26F82
:104420000D0EE36FDEEC26F0000904E10D01010E34
:10443000176F48D10D010F51330A01E1E1D0CC0AC9
:1044400001E1DBD0C90A01E1AFD0350A60E0020A20
:1044500020E0340A01E021D100010F0EE26F0D0EC1
:10446000E36FDEEC26F00D010F0501E04FD10001F6
:10447000120EE26F0D0EE36FDEEC26F003014851E1
:10448000020B01E11BD1020E0D01125D01E016D1FC
:104490003DD100010F0EE26F0D0EE36FDEEC26F052
:1044A000040E0D010F5D01E031D1030148A310D0CE
:1044B0000D01106B040E105D01E300D100010F0E21
:1044C000E26F0D0EE36FDEEC26F00D01102BF2D73C
:1044D0000001EE0EE26F020EE36FDEEC26F000014B
:1044E000EF0EE26F020EE36FDEEC26F00001F00E3D
:1044F000E26F020EE36FDEEC26F00001F10EE26FD8
:10450000020EE36FDEEC26F00201DD85D7D000015C
:10451000110EE26F0D0EE36FDEEC26F0040E0D01BE
:10452000115D01E2F3D0030148A30FD00D01106B20
:10453000040E105D28E200010F0EE26F0D0EE36F16
:10454000DEEC26F00D01102BF3D70001EA0EE26F2E
:10455000020EE36FDEEC26F00001EB0EE26F020EBE
:10456000E36FDEEC26F00001EC0EE26F020EE36F6B
:10457000DEEC26F00001ED0EE26F020EE36FDEECE2
:1045800026F00201DD83040E0D01115F0D011151B2
:104590001107000901E192D000010F0EE26F0D0E2C
:1045A000E36FDEEC26F0F2D700010F0EE26F0D0E86
:1045B000E36FDEEC26F0040E0D010F5D01E0A6D0E6
:1045C0000001160EE26F0D0EE36FDEEC26F0000127
:1045D000150EE26F0D0EE36FDEEC26F00001140EF7
:1045E000E26F0D0EE36FDEEC26F00001130EE26FBA
:1045F0000D0EE36FDEEC26F061D0010E176F5ED07A
:1046000000010F0EE26F0D0EE36FDEEC26F0040EDC
:104610000D010F5D01E07AD0030148A30FD00D0119
:10462000106B040E105D4AE200010F0EE26F0D0EDA
:10463000E36FDEEC26F00D01102BF3D70001E50E41
:10464000E26F020EE36FDEEC26F00001E40EE26F93
:10465000020EE36FDEEC26F00001E30EE26F020EC5
:10466000E36FDEEC26F00001E20EE26F020EE36F74
:10467000DEEC26F0D880080E0201E255070EE35565
:10468000000EE455000EE55519E2080EE25F070E34
:10469000E35B000EE45BE55B11D00001110EE26FFD
:1046A0000D0EE36FDEEC26F00D011151110700092C
:1046B00005E000010F0EE26F0D0EF3D70D0117514B
:1046C00001E1ABD6020E125D0BE113CDDEF214CD8B
:1046D000DFF215CDE0F216CDE1F20301488311D0EF
:1046E000DE0EE96E020EEA6EEE50131908E1EE508E
:1046F000141905E1EE50151902E1EE50161901E00A
:10470000126B43EC27F00D011251120043EC27F01D
:10471000000C03014651070A01E12CD1010A01E115
:10472000C6D0030A01E1A7D0010A01E17BD0070A44
:1047300051E0010A33E0030A08E0010A01E0120037
:104740000201E66BE76BE86BE96B0D01006901693B
:1047500002690369046905690669076908690969E5
:10476000430E0001DD6FDE6B0001000EDB6F0D0EEE
:10477000DC6F440E0001D96FDA6B10EC25F00301F9
:10478000476F7EEC3AF014C0F3F215C0F4F216C095
:10479000F5F217C0F6F20301020E466F7EEC3AF016
:1047A0000201F351145C006EF4511558016EF5517D
:1047B0001658026EF6511758036E140E005C000E68
:1047C0000158000E0258000E035801E228D10301DF
:1047D000030E6BD002013C0EE26FE36BE46BE56B02
:1047E000030148A102D0050E60D047C3D8F00F01E5
:1047F000010E426F9AEC0FF0000901E110D10201A5
:10480000010EF26F85DC0201DD6B7EEC3AF014C024
:10481000F3F215C0F4F216C0F5F217C0F6F2030178
:10482000040E43D07EEC3AF00201F351145C006EAA
:10483000F4511558016EF5511658026EF65117587D
:10484000036EC80E005C000E0158000E0258000EE8
:10485000035803E30301030E466F47C3E1F0C6ECC0
:1048600026F0000901E1DBD056DD020801E0D7D0D7
:104870000301050E466F47C3D8F00F01010E426FCA
:104880009AEC0FF0000901E1CAD00201030EF26FA9
:104890003FDC7EEC3AF014C0F3F215C0F4F216C01F
:1048A000F5F217C0F6F20301060E466F120047C379
:1048B000E1F0C6EC26F0000941E02DDD0D010A6FA4
:1048C000060E0A5D02E176EF20F0050E0A5D51E169
:1048D00047C3DFF079EC25F0030147697EEC3AF03D
:1048E00014C0F3F215C0F4F216C0F5F217C0F6F2D8
:1048F0000301070E466F0201DDA108D0E6C276F281
:10490000E7C277F2E8C278F2E9C279F2DDA508D011
:10491000EEC280F2EFC281F2F0C282F2F1C283F203
:10492000DDA308D0EAC284F2EBC285F2ECC286F2C3
:10493000EDC287F203014881492B12007EEC3AF068
:104940000201F351145C006EF4511558016EF551DB
:104950001658026EF6511758036EC80E005C000E12
:104960000158000E0258000E035859E30301030ECC
:10497000466F12007EEC3AF00201F351145C0D0117
:104980000B6F0201F45115580D010C6F0201F55126
:1049900016580D010D6F0201F65117580D010E6FDB
:1049A000640E0B5D000E0C59000E0D59000E0E59D1
:1049B00036E30201E207000EE35BE45BE55B640EB5
:1049C0000D010B5F000E0C5B0D5B0E5B0201E251F3
:1049D000E311E411E51103E10301010E466F640EDA
:1049E0000D010B5D000E0C59000E0D59000E0E59F5
:1049F000E0E27EEC3AF00D010B51145C0201F36F22
:104A00000D010C5115580201F46F0D010D5116588E
:104A10000201F56F0D010E5117580201F66F1200D9
:104A20000D01800E226F000E236F216B040E215D9D
:104A30005FE222CDE9FF23CDEAFF0C0EE926000E4E
:104A4000EA22EECF00F0EFCF01F0026A036A0050D5
:104A500001100210031046E122CDE9FF23CDEAFF49
:104A60000C0ED9C0EBFF0D0EDAC0EBFF0001DB51DD
:104A7000DC1119E00A0EE66EE66ADBC0E6FFDCC078
:104A8000E6FF22CDE9FF23CDEAFF22CD00F023CDC2
:104A900001F022CDE6FF23CDE6FF43EC39F0026EB4
:104AA000060EE15E025022CDE9FF23CDEAFF0A0E99
:104AB000DDC0EBFF0B0EDEC0EBFF22CDE9FF23CD07
:104AC000EAFF0E0EEB6A0F0EEB6A22CDE9FF23CD53
:104AD000EAFF100EEB6A110EEB6A21CDD8F00D0142
:104AE00021511200160E2227000E2323212B9ED7C0
:104AF000FF0C0001DF51160DF3CFE9FFF4CFEAFF01
:104B0000800EE926000EEA220C0EE926000EEA22AB
:104B1000EE6AED6ADF51160DF3CFE9FFF4CFEAFF3D
:104B2000800EE926000EEA22060EE926000EEA2291
:104B3000EE6AEE6AEE6AEE6ADF51160DF3CFE9FF18
:104B4000F4CFEAFF800EE926000EEA22150EE926D0
:104B5000000EEA22EF9012000001D851160DF3CF9B
:104B60002BFDF4CF2CFD800E0D012B27000E2C23E6
:104B70002BCDE9FF2CCDEAFF0E0EE926000EEA222E
:104B8000EE50ED1030E10F01010E436FCFEC0FF04E
:104B9000E66E2BCDE9FF2CCDEAFF120EE926000EC2
:104BA000EA22E552E750EF6E2BCDE9FF2CCDEAFF6C
:104BB000120EEB50FF0801E1000C1C0E0F01456FB7
:104BC000466B2BCDE9FF2CCDEAFF120EEB500F0107
:104BD000446F15EC10F02BCDE9FF2CCDEAFF130E3E
:104BE000EB6A140EEB6AE0C03DFF62EC0FF02BCDD8
:104BF000E9FF2CCDEAFF130EE926000EEA22EECFE4
:104C000000F0EDCF01F0EE2AEF222BCDE9FF2CCD05
:104C1000EAFF0E0EE926000EEA22EECF02F0EFCFF9
:104C200003F00250005C035001580AE32BCDE9FF6A
:104C30002CCDEAFF0E0EE926000EEA22EE2AEF2224
:104C40002BCDE9FF2CCDEAFF0E0EE926000EEA225D
:104C5000EECF2DFDEDCF2EFD0D01160E2D5D020EBA
:104C60002E5901E301D8010C0F01010E426F9AEC9D
:104C70000FF00009F9E00001D851160DF3CF29FD1E
:104C8000F4CF2AFD800E0D012927000E2A2329CDFD
:104C9000E9FF2ACDEAFF0C0EE926000EEA22EECF4C
:104CA000F4F0EDCFF5F00DEC34F0F3CF21FDF4CFBF
:104CB00022FD29CDE9FF2ACDEAFF0A0EE926000EE2
:104CC000EA22EECFF4F0EDCFF5F00DEC34F0F3CFB7
:104CD00023FDF4CF24FD29CDE9FF2ACDEAFF0E0EF6
:104CE000E926000EEA22EECF25FDEFCF26FD080EC5
:104CF0000D012527000E2623276B286B140E0F01AC
:104D0000456F466B29CDE9FF2ACDEAFF120EEB5025
:104D10000F01446F15EC10F025CD24F326CD25F3BB
:104D20000301110E236F29CDE9FF2ACDEAFF29CD1A
:104D300021F32ACD22F350EC33F025CDF4F026CD2B
:104D4000F5F00DEC34F0F3CF25FDF4CF26FD080E81
:104D50000F01406F416B0F01210E3E6F0D0E3F6F33
:104D600074EC0FF07AEC12F029CDE9FF2ACDEAFFBE
:104D7000120EE926000EEA22EF6829CDE9FF2ACDBE
:104D8000EAFF0E0EEB6A0F0EEB6A1200E1C0D8F0DC
:104D90000001D851160DF3CFE9FFF4CFEAFF800EE2
:104DA000E926000EEA22100EE926000EEA22D8803B
:104DB000EE54000EED5401E3000C010C0001D8513B
:104DC000160DF3CFE9FFF4CFEAFF800EE926000EBF
:104DD000EA22100EE926000EEA22EE50ED1001E163
:104DE000000CD851160DF3CFE9FFF4CFEAFF800E87
:104DF000E926000EEA22150EE926000EEA22EF50FF
:104E0000010B15E0D851160DF3CFE9FFF4CFEAFFFF
:104E1000800EE926000EEA22150EE926000EEA228F
:104E2000EF90080E0301266F276BC9EC33F020ECDE
:104E30000FF0E2C0E9FFE3C0EAFFEF6E0001D851D6
:104E4000160DF3CFE9FFF4CFEAFF800EE926000E3E
:104E5000EA22100EE926000EEA22EE06EF5AD85199
:104E6000160DF3CFE9FFF4CFEAFF800EE926000E1E
:104E7000EA22100EE926000EEA22EE50ED1002E1C1
:104E800026EC11F0010C0001D851160DF3CFE9FF0B
:104E9000F4CFEAFF800EE926000EEA22100EE92682
:104EA000000EEA22EE50ED1002E026EC11F00001B7
:104EB000D851160DF3CFE9FFF4CFEAFF800EE926B3
:104EC000000EEA22100EE926000EEA22EE6AED6AD2
:104ED00012000D011869800E196F000E1A6F176B02
:104EE000040E175D01E38CD019CDE9FF1ACDEAFF5E
:104EF0000C0EE926000EEA22EECF00F0EFCF01F013
:104F0000E4C0E9FFE5C0EAFF020EE926000EEA224E
:104F1000EECF02F0EFCF03F0025000186AE1035029
:104F2000011867E119CDE9FF1ACDEAFF0A0EE9265B
:104F3000000EEA22EECF00F0EFCF01F0E4C0E9FF6F
:104F4000E5C0EAFFEECF02F0EFCF03F00250001809
:104F50004EE1035001184BE119CDE9FF1ACDEAFFEC
:104F6000100EE926000EEA22EECF04F0EFCF05F096
:104F7000066A076A045005100610071038E1E6C0FB
:104F8000E9FFE7C0EAFF060EE926000EEA22EECFAF
:104F900000F0EECF01F0EECF02F0EFCF03F019CD2D
:104FA000E9FF1ACDEAFF060EE926000EEA22EE50CE
:104FB0000001001808E1EE50011805E1EE5002185A
:104FC00002E1EE50031810E0E8C0E9FFE9C0EAFF93
:104FD000E868EE180CE1E868EE1809E1E868EE18F8
:104FE00006E1E868EE1803E10D011751120017CD34
:104FF00018FD0D01160E1927000E1A23172B70D756
:10500000FF0E185D35E01851160DF3CF19FDF4CFE2
:105010001AFD800E1927000E1A230A0EE66EE66AA4
:10502000E6C0E6FFE7C0E6FF19CDE9FF1ACDEAFFCB
:1050300019CD00F01ACD01F019CDE6FF1ACDE6FF2B
:1050400043EC39F0026E060EE15E0250E4C0E9FF67
:10505000E5C0EAFFEECF00F0EFCF01F019CDE9FF98
:105060001ACDEAFF0A0E00C0EBFF0B0E01C0EBFFEA
:105070000D0118511200080E0F013B6F3C6B0F0120
:10508000000E396F0D0E3A6F33EC0FF000CDF4F0D7
:1050900001CDF5F00DEC34F0F3CF00FDF4CF01FDC0
:1050A00002CDF4F003CDF5F00DEC34F0F3CF02FDBA
:1050B000F4CF03FD04CDF4F005CDF5F00DEC34F0A4
:1050C000F3CF04FDF4CF05FD0D01080E045F000EC3
:1050D000055B0651071101E188D006CDF4F007CD3C
:1050E000F5F00DEC34F0F3CF06FDF4CF07FDEAC088
:1050F000E9FFEBC0EAFF060EE926000EEA22EECF3A
:1051000009FDEECF0AFDEECF0BFDEFCF0CFDECC09D
:10511000E9FFEDC0EAFFEFCF0DFD010EE926000E1D
:10512000EA22EFCF0EFDECC0E9FFEDC0EAFF020E70
:10513000E926000EEA22EFCF0FFDECC0E9FFEDC03B
:10514000EAFF030EE926000EEA22EFCF10FD0D0163
:10515000116B110E126FEEC013FDEFC014FDEEC007
:10516000F4F0EFC0F5F00DEC34F0F3CF13FDF4CF15
:1051700014FD0C0E0001FC6FFD6B0001090EFA6FAF
:105180000D0EFB6F6DEC34F0F3CF15FDF4CF16FD73
:105190000D01151F161F060E0301266F276BC9ECA4
:1051A00033F015CD3DFF62EC0FF0070E0301266FC3
:1051B000276BC9EC33F016CD3DFF62EC0FF0030115
:1051C000266B276BC9EC33F0EEC0FEF0EFC0FFF0AA
:1051D000E3EC34F0F3CF15FDF4CF16FD0D010651CD
:1051E000F31816E10751161913E1ECC0E8F0EDC011
:1051F000E9F0EAC0E6F0EBC0E7F00001000EE46F72
:105200000D0EE56F66DE0D01086FFF0E085D03E110
:1052100026EC11F0010C0851160DF3CFE9FFF4CF85
:10522000EAFF800EE926000EEA22100EE926000EA3
:10523000EA2204CDEEFF05CDEDFF0851160DF3CFA8
:10524000E9FFF4CFEAFF800EE926000EEA22150EF0
:10525000E926000EEA22EF80010C0D01006B040E1E
:10526000005D06E200CDDFF044DC0D01002BF7D736
:0252700012002A
:0E527200D8CFE4FFE0CFE4FFE46EDACFE4FF34
:10528000E2CFDAFFE9CFE4FFEACFE4FFF6CFE4FFB5
:10529000F7CFE4FFF5CFE4FFF3CFE4FFF4CFE4FF73
:1052A000FACFE4FF00EE10F00B0EE80403E3EECFBC
:1052B000E4FFFBD700EE00F0100EE80403E3EECFAE
:1052C000E4FFFBD7E65287EC3AF0E55200EE0FF030
:1052D000100EE80403E3E5CFEDFFFBD700EE1AF074
:1052E0000B0EE80403E3E5CFEDFFFBD7E5CFFAFFB4
:1052F000E5CFF4FFE5CFF3FFE5CFF5FFE5CFF7FF0F
:10530000E5CFF6FFE5CFEAFFE5CFE9FFE5CFDAFF2E
:10531000E550E5CFE0FFE5CFD8FF10000D01016BB0
:1053200044C202FD45C203FD44C2E9FF45C2EAFF93
:10533000EFCF00FDEF5038E02E0E0D01005D28E1AB
:10534000020144C2E9FF45C2EAFF442B000E452397
:10535000EF6A02CDE6FF03CDE6FF01EC2DF0E5524A
:10536000E552F350E66E46C200F047C201F00D016F
:105370000151012B0F010024E96E000E0120EA6E9D
:10538000E552E750EF6E44C202FD45C203FD07D06F
:10539000300E005D03E30051390801E2000C020108
:1053A000442B000E4523C0D702CDE6FF03CDE6FF18
:1053B00001EC2DF0E552E552F350E66E46C200F0E6
:1053C00047C201F00D0101510F010024E96E000EEA
:1053D0000120EA6EE552E750EF6E030E0D01015D0C
:1053E00001E0000C010C4AC2E6FF4BC2E6FF48C2D6
:1053F000E9FF49C2EAFFEF50E66EE66A76EC2DF06F
:10540000E552E552E552E5524AC2E6FF4BC2E6FFDD
:10541000CAEC39F0E552E552F35002014A27F45044
:105420004B234AC2E9FF4BC2EAFF4A2B000E4B2333
:105430002E0EEF6E4AC2E6FF4BC2E6FF48C2E9FFFE
:1054400049C2EAFF010EE926000EEA22EF50E66E9D
:10545000E66A76EC2DF0E552E552E552E5524AC295
:10546000E6FF4BC2E6FFCAEC39F0E552E552F350D5
:1054700002014A27F4504B234AC2E9FF4BC2EAFF1C
:105480004A2B000E4B232E0EEF6E4AC2E6FF4BC294
:10549000E6FF48C2E9FF49C2EAFF020EE926000E14
:1054A000EA22EF50E66EE66A76EC2DF0E552E55220
:1054B000E552E5524AC2E6FF4BC2E6FFCAEC39F0BC
:1054C000E552E552F35002014A27F4504B234AC2F9
:1054D000E9FF4BC2EAFF4A2B000E4B232E0EEF6E64
:1054E0004AC2E6FF4BC2E6FF48C2E9FF49C2EAFFF3
:1054F000030EE926000EEA22EF50E66EE66A76EC2D
:105500002DF0E552E552E552E55212000D01006B17
:105510000F0E0201EA6A4C25E96E4D51EA22EF6A4C
:105520004CC2E6FF4DC2E6FFD8EC39F0E552E55239
:105530000F0E0D01005D1BE200510201EA6A4C25CD
:10554000E96E4D51EA22EF500FE10F0E0D01005DA3
:105550000EE20051002B0201EA6A4C25E96E4D5122
:10556000EA22200EEF6EF1D70D01002BE1D71200D9
:105570004EC2E9FF4FC2EAFFEE50EFCFEAFFE96EFD
:10558000EF50D00F0D01856FE85039E1020E020196
:10559000EA6A4E25E96E4F51EA22EE50EFCFEAFF5C
:1055A000E96EEF50D00F0D01866F020E0201EA6A1C
:1055B0004E25E96E4F51EA22EE50EFCFEAFFE96E39
:1055C000010EE926000EEA22EF5019E10D01865185
:1055D000090A15E0010A13E00F0A11E0010A0FE0C1
:1055E000030A0DE0010A0BE0070A09E0010A07E0DF
:1055F000030A04E0010A03E1897801D0897A0A0EDE
:10560000E66EE66A730E006E750E016E026A00C0E9
:10561000E6FFE66E02C0E6FF4EC2E9FF4FC2EAFFB8
:10562000EECFE6FFEFCFE6FF6EEC39F0036E070E2C
:10563000E15E0350120002015151220A01E140D102
:10564000010A01E13DD1020A01E104D1010A01E1AF
:10565000CBD0370A01E18ED0010A52E0190A44E0AA
:10566000010A3DE0030A37E0090A31E0110A2BE0A4
:10567000010A25E0070A1FE0010A19E0030A13E006
:10568000010A0DE0110A07E0010A01E03FD189504B
:10569000080B2DE127D08950100B24E028D0895029
:1056A000200B20E024D08950200B1CE020D0895012
:1056B000200B18E01CD08950200B14E018D0895022
:1056C000200B10E014D08950200B0CE010D080503B
:1056D000010B08E00CD08150010B04E008D0815090
:1056E000010B05E1300E06D08150010B02E0310EB6
:1056F00001D0300E54C2E9FF55C2EAFFEF6E06D169
:105700005251531114E1E00E006E740E016E026AE4
:1057100000C0E6FFE66E02C0E6FF560EE66E020E21
:10572000E66EB1EC39F0036E050EE15E0350020146
:105730005251EA6A560FE96E020EEA22EF5054C245
:10574000E9FF55C2EAFFEF6E5251EA6A560FE96E61
:10575000020EEA22EF5001E1D9D0522B000E532362
:105760005251EA6A560FE96E020EEA22EF5001E04A
:10577000C8D0CCD05251531114E1CB0E006E740E30
:10578000016E026A00C0E6FFE66E02C0E6FF560E3A
:10579000E66E020EE66EB1EC39F0036E050EE15EC8
:1057A000035002015251EA6A560FE96E020EEA22D4
:1057B000EF5054C2E9FF55C2EAFFEF6E5251EA6A58
:1057C000560FE96E020EEA22EF5001E19FD0522BF4
:1057D000000E53235251EA6A560FE96E020EEA2276
:1057E000EF5001E08ED092D05251531112E1560E7B
:1057F000E66E020EE66E42C3E6FF43C3E6FF44C315
:10580000E6FF45C3E6FF10EC2EF0006E060EE15EEB
:10581000005002015251EA6A560FE96E020EEA2266
:10582000EF5054C2E9FF55C2EAFFEF6E5251EA6AE7
:10583000560FE96E020EEA22EF5068E0522B000E7E
:1058400053235251EA6A560FE96E020EEA22EF50D4
:1058500058E15CD05251531112E1560EE66E020E21
:10586000E66E3EC3E6FF3FC3E6FF40C3E6FF41C32B
:10587000E6FF10EC2EF0006E060EE15E0050020115
:105880005251EA6A560FE96E020EEA22EF5054C2F4
:10589000E9FF55C2EAFFEF6E5251EA6A560FE96E10
:1058A000020EEA22EF5032E0522B000E53235251E7
:1058B000EA6A560FE96E020EEA22EF5022E126D084
:1058C000525153115251EA6A560FE96E020EEA2202
:1058D000EF5054C2E9FF55C2EAFFEF6E5251EA6A37
:1058E000560FE96E020EEA22EF5010E0522B000E26
:1058F00053235251EA6A560FE96E020EEA22EF5024
:1059000005E052C2F3FF53C2F4FF1200F368F468DB
:105910001200896A010E926E100E8A6E010E936E4D
:10592000C00E8B6E900E946E200EAC6E900EAB6E11
:10593000AC84270EAF6EC26A0F0EC16EF19ED08E80
:10594000F28EF28C200EC66E400EC76E120002015F
:105950008C811200DEDF74EC3AF06FEC37F0100E41
:10596000E66EE66AC50E006E740E016E026A00C035
:10597000E6FFE66E02C0E6FF970EE66E020EE66EEA
:105980006EEC39F0036E070EE15E03500201970ED4
:105990004C6F020E4D6FBADDDADF60EC36F04AEC88
:1059A00020F002018CB105D0010EA76F0301080E93
:1059B000466F7EEC3AF00201A851145C006EA951CA
:1059C0001558016EAA511658026EAB511758036E46
:1059D000320E005C000E0158000E0258000E0358F3
:1059E0000BE37EEC3AF014C0A8F215C0A9F216C081
:1059F000AAF217C0ABF289766CEC36F03EEC20F0E0
:025A0000D8D7F5
:0E5A0200FF0EE3CFEAFFE552FF0EE3CFE9FF10
:105A1000E552E66AE66AD9CFE6FFDACFE6FFFC0E8A
:105A2000E124D96EFF0EE220DA6EE66AE66AE66AE3
:105A3000200EEF5C06E0090EEF5C03E0EF6603D09A
:105A40003FD0EE50F5D72D0EEF5C03E1FF0EE32AB9
:105A500003D02B0EEF5C01E1EE502F0EEF6424D04B
:105A60003A0EEF6021D0D890F90EE336FA0EE33605
:105A7000FD0EDECFE3FFFE0EDDCFE3FFD890F90E83
:105A8000E336FA0EE336D890F90EE336FA0EE33633
:105A9000FD0EE350DE26FE0EE350DD22300EEE5CFE
:105AA000DE26000EDD22D9D7FF0EE3CFE8FFE85255
:105AB00007E0F90EE31EE32AFA0ED8B4E306E31E6C
:105AC000E552E552E552FF0EE3CFDAFFE552FF0E55
