:020000040000FA
:060000003AEF3EF0120091
:0600180067EF1BF012006F
:06002A000600047D000049
:100030006903000004000000007D0000650300006B
:1000400004000000F67C0000560300000A000000D7
:10005000AC7C0000000200004A000000CD36000029
:100060006D03000001000000A87C0000FC010000FE
:040070000400000088
:0C0074004AC2E9FF4BC2EAFFEECFF4F0F5
:10008000EDCFF5F093EC35F0F3CF00F0F4CF01F0C5
:100090004AC2E9FF4BC2EAFFF3CFEEFF01C0EDFF1A
:1000A0004AC2E9FF4BC2EAFF020EE926000EEA222D
:1000B000EECFF4F0EDCFF5F093EC35F0F3CF00F0A8
:1000C000F4CF01F04AC2E9FF4BC2EAFF020EF3CFC0
:1000D000EBFF030E01C0EBFF4AC2E9FF4BC2EAFF90
:1000E000040EE926000EEA22EECFF6F0EECFF7F08E
:1000F000EECFF8F0EFCFF9F098EC35F014C000F047
:1001000015C001F016C002F017C003F04AC2E9FFA3
:100110004BC2EAFF040EE926000EEA2214C0EEFFED
:1001200001C0EEFF02C0EEFF03C0EEFF4AC2E9FFCE
:100130004BC2EAFF080EE926000EEA22EECFF6F0E7
:10014000EECFF7F0EECFF8F0EFCFF9F098EC35F016
:1001500014C000F015C001F016C002F017C003F083
:100160004AC2E9FF4BC2EAFF080EE926000EEA2266
:1001700014C0EEFF01C0EEFF02C0EEFF03C0EEFFB1
:100180004AC2E9FF4BC2EAFF0E0EE926000EEA2240
:10019000EECFF4F0EDCFF5F093EC35F0F3CF00F0C7
:1001A000F4CF01F04AC2E9FF4BC2EAFF0E0EF3CFD3
:1001B000EBFF0F0E01C0EBFF4AC2E9FF4BC2EAFFA3
:1001C000100EE926000EEA22EECFF4F0EDCFF5F0A6
:1001D00093EC35F0F3CF00F0F4CF01F04AC2E9FF21
:1001E0004BC2EAFF100EF3CFEBFF110E01C0EBFF85
:1001F0004AC2E9FF4BC2EAFF120EE926000EEA22CC
:10020000EECFF4F0EDCFF5F093EC35F0F3CF00F056
:10021000F4CF01F04AC2E9FF4BC2EAFF120EF3CF5E
:10022000EBFF130E01C0EBFF12000D01006B060E79
:10023000005D70E20051280DF3CF01FDF4CF02FD07
:10024000000E0127010E022301CDE9FF02CDEAFFD6
:10025000EF500A085DE101CDE9FF02CDEAFFEF6A48
:1002600001CDE9FF02CDEAFF0B0E4CC2EBFF0C0EF5
:100270004DC2EBFF01CDE9FF02CDEAFF0D0EEB6AA7
:100280000E0EEB6A01CDE9FF02CDEAFFEE52060E3B
:10029000E926000EEA22EE6AEE6AEE6AEE6A01CD07
:1002A000E9FF02CDEAFF270EE926000EEA22EF80E1
:1002B00001CDE9FF02CDEAFF270EE926000EEA2272
:1002C000EF9601CDE9FF02CDEAFF0F0EEB50FF08DC
:1002D00013E001CDE9FF02CDEAFF0F0EEB500F0155
:1002E000476F4FEC10F001CDE9FF02CDEAFF0F0E92
:1002F000E926000EEA22EF6801CDE9FF02CDEAFF10
:10030000270EE926000EEA22EF820D0100511200AD
:10031000002B8DD7FE0C4EC2E9FF4FC2EAFF0F0E35
:10032000EB50FF081CE04EC2E9FF4FC2EAFF0F0E80
:10033000EB500F01476F4FEC10F04EC2E9FF4FC278
:10034000EAFF0F0EE926000EEA22EF684EC2E9FF2F
:100350004FC2EAFF270EE926000EEA22EF824EC2C4
:10036000E9FF4FC2EAFFEE52060EE926000EEA222E
:10037000EE6AEE6AEE6AEE6A4EC2E9FF4FC2EAFF2B
:100380000D0EEB6A0E0EEB6A4EC2E9FF4FC2EAFF9A
:10039000270EE926000EEA22EF50080B02E026ECB9
:1003A00011F04EC2E9FF4FC2EAFF270EE926000E08
:1003B000EA22EF964EC2E9FF4FC2EAFF230EE9267A
:1003C000000EEA222C0EEE6E010EEE6EEE6AEE6A62
:1003D0004EC2E9FF4FC2EAFF270EE926000EEA22CD
:1003E000EF984EC2E9FF4FC2EAFF270EE926000E42
:1003F000EA22EF50010B06E04EC2E9FF4FC2EAFFCE
:10040000EF6A06D04EC2E9FF4FC2EAFF0A0EEF6E56
:100410004EC2E9FF4FC2EAFF100EEB6A110EEB6A03
:1004200012000F01010E426F9AEC0FF00009F9E083
:10043000FF0E02015F5D07E10F01010E436FCFEC7C
:100440000FF002015F6FFF0E5F5D01E11200140EFD
:100450000F01456F466B5FC244FF15EC10F052C2AE
:1004600087FD53C288FD54C289FD55C28AFD56C21C
:100470008BFD57C28CFD58C28DFD59C28EFD5AC2EC
:100480008FFD5BC290FD5CC291FD5DC292FD0D01CE
:1004900093919393939593975EC294FDA9EC10F07A
:1004A000F3CF95FDF4CF96FD0D01400EF35C020EE7
:1004B000F45805E3400E956F020E966F0DD0360E80
:1004C000D8809555000E965505E2360E955F000EC4
:1004D000965B02D0956B966B976B986B996B9A6B4A
:1004E0000201870E4A6F0D0E4B6FC4DD140E020120
:1004F0006027000E61235EA310D0040E6027000E5B
:1005000061230D01020E9B6F040E9C6F020E9D6F06
:10051000400E9E6F9399938B03D00D019389939B0B
:10052000938D939F00C29FFD01C2A0FD02C2A1FD59
:1005300003C2A2FD50C2E9FF51C2EAFF060EE9263E
:10054000000EEA22EECFA3FDEECFA4FDEECFA5FD77
:10055000EFCFA6FDA76B060EA86F60C2A9FD61C212
:10056000AAFD60C2F4F061C2F5F093EC35F0F3CF70
:10057000A9FDF4CFAAFD0C0E0001FC6FFD6B00017C
:100580009F0EFA6F0D0EFB6FF3EC35F0F3CF97FD76
:10059000F4CF98FD0D01971F981F97CD85FD98CD3D
:1005A00086FD60C23EF361C23FF30301060E3D6F5C
:1005B00050C23BF351C23CF3D6EC34F0140E0F01A1
:1005C000406F416B0F01870E3E6F0D0E3F6F74EC55
:1005D0000FF002015EA30BD0040E0F01406F416BC0
:1005E0000F019B0E3E6F0D0E3F6F74EC0FF0140E5B
:1005F0000F01456F466B5FC244FF15EC10F060C2FF
:10060000FEF061C2FFF069EC36F0F3CF85FDF4CF68
:1006100086FD240E0F01456F466B5FC244FF15EC4B
:1006200010F086CD3DFF62EC0FF085CD3DFF62EC12
:100630000FF00F01456B466B5FC244FF15EC10F0E5
:100640007AEC12F00F01010E426F9AEC0FF00009E4
:10065000F9E07AEF12F002016251280DF3CFE9FFC1
:10066000F4CFEAFF000EE926010EEA22EF5003085C
:1006700001E0000C010C02016351280DF3CFE9FDEC
:10068000F4CFEAFD000E0D01E927010EEA23E9CDC2
:10069000E9FFEACDEAFFEF5003080DE0E9CDE9FFFD
:1006A000EACDEAFFEF50020806E0E9CD4EF2EACDCE
:1006B0004FF28BEF01F063C268F2BCD90201606BAC
:1006C000616B02015F690201110E5E6FE9CDE9FF06
:1006D000EACDEAFF1A0EE926000EEA22EECF5AF220
:1006E000EECF5BF2EECF5CF2EFCF5DF2E9CDE9FF4A
:1006F000EACDEAFF160EE926000EEA22EECF56F208
:10070000EECF57F2EECF58F2EFCF59F2E9CDE9FF35
:10071000EACDEAFF0D0EE926000EEA22EECF54F2F2
:10072000EDCF55F2E9CDE9FFEACDEAFF0B0EE92660
:10073000000EEA22EECF52F2EDCF53F2E9CDE9FFFF
:10074000EACDEAFFEE52E9CF50F2EACF51F269DE8C
:10075000E9CDE9FFEACDEAFF160EE926000EEA220E
:10076000EE2AEE22EE22EE22E9CDE9FFEACDEAFF03
:10077000040EEF6E120002016451280DF3CFF1FD5B
:10078000F4CFF2FD000E0D01F127010EF223F1CDA1
:10079000E9FFF2CDEAFF0F0EEB50FF0801E1000C7C
:1007A000F1CDE9FFF2CDEAFF270EE926000EEA229D
:1007B000EF50020B01E1000CF1CDE9FFF2CDEAFFB1
:1007C000100EE926000EEA22EECF60F2EDCF61F2C4
:1007D000F1CDE9FFF2CDEAFF0F0EEB5002015F6FA2
:1007E0000201180E5E6F1A0EE926000EEA22EECF05
:1007F0005AF2EECF5BF2EECF5CF2EFCF5DF2F1CDCD
:10080000E9FFF2CDEAFF160EE926000EEA22EECF4E
:1008100056F2EECF57F2EECF58F2EFCF59F2F1CDBC
:10082000E9FFF2CDEAFF0D0EE926000EEA22EECF37
:1008300054F2EDCF55F2F1CDE9FFF2CDEAFF0B0E08
:10084000E926000EEA22EECF52F2EDCF53F2F1CDBF
:10085000E9FFF2CDEAFFEE52E9CF50F2EACF51F2D2
:10086000E0DDF1CDE9FFF2CDEAFF100EE926000E42
:10087000EA22EECF00F0EFCF01F0026A036AF1CD79
:10088000E9FFF2CDEAFF160EE926000EEA2200503B
:10089000EE260150EE220250EE220350EE22F1CD60
:1008A000E9FFF2CDEAFF270EE926000EEA22EF92D9
:1008B000F1CDE9FFF2CDEAFF270EE926000EEA228C
:1008C000EF98010C02016551280DF3CFE9FFF4CF39
:1008D000EAFF000EE926010EEA22140EE926000EB8
:1008E000EA22EE50ED1001E1000C6551280DF3CF26
:1008F000E9FFF4CFEAFF000EE926010EEA220F0E0F
:10090000E926000EEA22EF50FF0804E10F01426BD6
:100910009AEF0FF06551280DF3CFE9FFF4CFEAFF0E
:10092000000EE926010EEA22270EE926000EEA2231
:10093000EF50020B01E0010E120002016651280D7A
:10094000F3CFEFFDF4CFF0FD000E0D01EF27010E08
:10095000F023EFCDE9FFF0CDEAFF140EE926000EFB
:10096000EA22EE50ED1001E1000CEFCDE9FFF0CDF1
:10097000EAFF0F0EEB50FF082FE10F01436BCFECA6
:100980000FF0E66EEFCDE9FFF0CDEAFF0F0EE9269E
:10099000000EEA22E552E750EF6EEFCDE9FFF0CD11
:1009A000EAFF0F0EEB50FF0801E1000CEFCDE9FF6D
:1009B000F0CDEAFF100EEB6A110EEB6A280E0F0164
:1009C000456F466BEFCDE9FFF0CDEAFF0F0EEB5020
:1009D0000F01446F15EC10F0EFCDE9FFF0CDEAFF09
:1009E000270EE926000EEA22EF8867C23DFF62EC7F
:1009F0000FF0EFCDE9FFF0CDEAFF140EE926000E6F
:100A0000EA22EE06EF5AEFCDE9FFF0CDEAFF100E35
:100A1000E926000EEA22EE2AED22EECF00F0EDCF1D
:100A200001F00A0E005C020E015803E366C264F294
:100A3000A2DE010C02016851280DF3CF85FDF4CF31
:100A400086FD000E0D018527010E862385CDE9FF69
:100A500086CDEAFF270EE926000EEA22EF50080BAA
:100A600001E1000C26EC11F085CDE9FF86CDEAFF0F
:100A7000270EE926000EEA22EF96010C02016951C9
:100A8000280DF3CF89FDF4CF8AFD000E0D018927D3
:100A9000010E8A230C0E0301406F416B4FEC35F0C1
:100AA00020EC0FF0E840E8403F0B3C0B0D01856F58
:100AB0000F01486B496B6AEC10F020EC0FF00F0B44
:100AC000040DF3CF86FD020E0F01486F496B6AECEF
:100AD00010F020EC0FF00D01886F20EC0FF00D01ED
:100AE000876F865185250201036A6A25026E6B5164
:100AF00003220D010250875D006E03508859016E7C
:100B000089CDE9FF8ACDEAFF120E00C0EBFF130E7C
:100B100001C0EBFF855102016A250301406F000E01
:100B200002016B210301416F4FEF35F002016C515F
:100B3000280DF3CF00FDF4CF01FD000E0D010027BD
:100B4000010E012300CDE9FF01CDEAFF270EE926C2
:100B5000000EEA22EF50080B2DE000CDE9FF01CD99
:100B6000EAFF270EE926000EEA22EF50040B0FE001
:100B700002016A6B6B6B6CC269F280DF00CDE9FF2A
:100B800001CDEAFF270EE926000EEA22EF9400CD00
:100B9000E9FF01CDEAFF270EE926000EEA22EF88E1
:100BA0006FC23BFF70C23CFF6DC239FF6EC23AFF9D
:100BB00033EF0FF0F36AF46A120002017151280D4D
:100BC000F3CF8BFDF4CF8CFD000E0D018B27010EB2
:100BD0008C238BCDE9FF8CCDEAFF270EE926000E92
:100BE000EA22EF50080B43E08BCDE9FF8CCDEAFF02
:100BF000270EE926000EEA22EF50040B0FE0020157
:100C00006A6B6B6B71C269F239DF8BCDE9FF8CCDFA
:100C1000EAFF270EE926000EEA22EF948BCDE9FFCA
:100C20008CCDEAFF120EE926000EEA22EE50ED10FE
:100C30000CE126EC11F08BCDE9FF8CCDEAFF270EFD
:100C4000E926000EEA22EF96000C8BCDE9FF8CCD51
:100C5000EAFF120EE926000EEA22EE06EF5A20EC19
:100C60000FF072C2E9FF73C2EAFFEF6E010C000CD5
:100C700002017451280DF3CFE9FFF4CFEAFF000E13
:100C8000E926010EEA22270EE926000EEA22EF509D
:100C9000080B01E0010E12000D010F6B006B060E38
:100CA000005D01E3CAD10051280DF3CF09FDF4CF57
:100CB0000AFD000E0927010E0A2309CDE9FF0ACD1E
:100CC000EAFF270EE926000EEA22EF50080B01E0AA
:100CD000B1D109CDE9FF0ACDEAFF270EE926000EC2
:100CE000EA22EF50100B01E0A5D109CDE9FF0ACDB2
:100CF000EAFFEF500A0801E19DD109CDE9FF0ACDD5
:100D0000EAFFEF5000090CE109CDE9FF0ACDEAFF47
:100D1000270EE926000EEA22EF50010B01E08AD1EE
:100D2000F0EC3DF014C005FD15C006FD16C007FD32
:100D300017C008FD09CDE9FF0ACDEAFF1F0EE9261D
:100D4000000EEA22EE500D01145C016FEE501558B2
:100D5000026FEE501658036FEE501758046F09CD0E
:100D6000E9FF0ACDEAFF230EE926000EEA2201512F
:100D7000EE5C0251EE580351EE580451EE5801E377
:100D800059D10F01010E426F9AEC0FF0000901E1F9
:100D90001200F0EC3DF014C000F015C001F016C0D8
:100DA00002F017C003F009CDE9FF0ACDEAFF1F0EDC
:100DB000E926000EEA2214C0EEFF01C0EEFF02C0D9
:100DC000EEFF03C0EEFF09CDE9FF0ACDEAFF230ED7
:100DD000E926000EEA22D890EF36010EEB36020E1D
:100DE000EB36030EEB3609CDE9FF0ACDEAFF1E0E06
:100DF000E926000EEA22EF2A09CDE9FF0ACDEAFF33
:100E0000EF50090A01E198D0010A01E18BD00F0AE5
:100E100001E19ED0020A01E19BD0030A01E198D0D2
:100E2000020A01E176D0070A2DE0010A06E0030A72
:100E300001E094D00D01020E89D009CDE9FF0ACD61
:100E4000EAFF1E0EEB50030803E30D01120E7ED0E5
:100E500009CDE9FF0ACDEAFF270EE926000EEA22B6
:100E6000EF50010B06E009CDE9FF0ACDEAFFEF6A7A
:100E700075D00D01020E0F6F09CDE9FF0ACDEAFF13
:100E8000010E58D009CDE9FF0ACDEAFF1E0EEB5046
:100E900003081BE309CDE9FF0ACDEAFF0F0EEB5073
:100EA000FF0810E00F01456B466B09CDE9FF0ACD45
:100EB000EAFF0F0EEB500F01446F15EC10F07AECC7
:100EC00012F04CD00D01100E41D009CDE9FF0ACD32
:100ED000EAFF0F0EEB50FF0813E009CDE9FF0ACD42
:100EE000EAFF0F0EEB500F01476F4FEC10F009CDEA
:100EF000E9FF0ACDEAFF0F0EE926000EEA22EF68AD
:100F00000D01110E0F6F09CDE9FF0ACDEAFF040EA6
:100F100011D009CDE9FF0ACDEAFF1E0EEB50030800
:100F200017E312D00D01010E0F6F09CDE9FF0ACDB5
:100F3000EAFF090EEF6E12D009CDE9FF0ACDEAFFF4
:100F40001E0EEB50030804E30D01010E0F6F06D0D7
:100F500009CD4EF20ACD4FF28BEC01F00D010F518D
:100F600069E00FA911D009CDE9FF0ACDEAFF160EFD
:100F7000E926000EEA22EECF0BFDEECF0CFDEECF00
:100F80000DFDEFCF0EFD14D009CDE9FF0ACDEAFF2C
:100F9000160EE926000EEA22EFCF0BFDEE2AEFCF68
:100FA0000CFDEE22EFCF0DFDEE22EFCF0EFDEF2276
:100FB0000201606B616B02015F690FCD5EF209CDCA
:100FC000E9FF0ACDEAFF1A0EE926000EEA22EECF6B
:100FD0005AF2EECF5BF2EECF5CF2EFCF5DF20BCDCB
:100FE00056F20CCD57F20DCD58F20ECD59F209CD77
:100FF000E9FF0ACDEAFF0D0EE926000EEA22EECF48
:1010000054F2EDCF55F209CDE9FF0ACDEAFF0B0E00
:10101000E926000EEA22EECF52F2EDCF53F209CDCF
:10102000E9FF0ACDEAFFEE52E9CF50F2EACF51F2E2
:1010300011EC02F00D01002B32D612000D01FE0E54
:10104000296F286B060E285D01E37FD02851280DFB
:10105000F3CF26FDF4CF27FD000E2627010E272310
:1010600026CDE9FF27CDEAFFEF500A086BE026CD39
:10107000E9FF27CDEAFF0B0EE926000EEA22EECFAC
:1010800000F0EFCF01F075C2E9FF76C2EAFF020E71
:10109000E926000EEA22EECF02F0EFCF03F0025075
:1010A000001850E1035001184DE126CDE9FF27CD8E
:1010B000EAFFEF50000902E128CD29FD26CDE9FF26
:1010C00027CDEAFF0D0EE926000EEA22EECF00F052
:1010D000EFCF01F075C2E9FF76C2EAFFEECF02F072
:1010E000EFCF03F0025000182DE1035001182AE160
:1010F00077C2E9FF78C2EAFF060EE926000EEA226F
:10110000EECF04F0EECF05F0EECF06F0EFCF07F014
:1011100026CDE9FF27CDEAFFEE52060EE926000EA6
:10112000EA22EE50000104180DE1EE5005180AE124
:10113000EE50061807E1EE50071804E103E10D0137
:10114000285112000D01282B7DD7FE0E295D01E1EB
:10115000FE0C2951280DF3CF26FDF4CF27FD000EFC
:101160002627010E27230A0EE66EE66A77C2E6FFFF
:1011700078C2E6FF26CDE9FF27CDEAFFEE52E9CFA0
:1011800000F0EACF01F0E9CFE6FFEACFE6FF9CEC02
:101190003BF0026E060EE15E025075C2E9FF76C2B8
:1011A000EAFFEECF00F0EFCF01F026CDE9FF27CD2B
:1011B000EAFF0D0E00C0EBFF0E0E01C0EBFF26CDC7
:1011C000E9FF27CDEAFF270EE926000EEA22EF9677
:1011D00026CDE9FF27CDEAFF0F0EEB50FF0813E005
:1011E00026CDE9FF27CDEAFF0F0EEB500F01476F29
:1011F0004FEC10F026CDE9FF27CDEAFF0F0EE926D0
:10120000000EEA22EF6826CDE9FF27CDEAFF270E80
:10121000E926000EEA22EF820D0129511200020197
:101220007951280DF3CF36FDF4CF37FD000E0D01B7
:101230003627010E3723386B36CDE9FF37CDEAFF6D
:101240001E0EE926000EEA22EF6AF0EC3DF014C013
:1012500000F015C001F016C002F017C003F036CD43
:10126000E9FF37CDEAFF1F0EE926000EEA2214C07F
:10127000EEFF01C0EEFF02C0EEFF03C0EEFF36CD71
:10128000E9FF37CDEAFF230EE926000EEA222C0EF5
:10129000EE6E010EEE6EEE6AEE6A7CC2E9FF7DC272
:1012A000EAFF0D0EE926000EEA22EF50040B19E0CA
:1012B00026EC11F036CDE9FF37CDEAFF270EE926FF
:1012C000000EEA22EF50010B02E0000E01D0010EE9
:1012D000E66E36CDE9FF37CDEAFFE552E750EF6E17
:1012E000120036CDE9FF37CDEAFF160EE926000ED3
:1012F000EA22EECF2AFDEECF2BFDEECF2CFDEFCF75
:101300002DFD7CC2E9FF7DC2EAFF0E0EE926000E2C
:10131000EA22EECF04F0EFCF05F0066A076A7CC23E
:10132000E9FF7DC2EAFF080EE926000EEA22EE5030
:101330000D012A5D086EEE502B59096EEE502C59A6
:101340000A6EEE502D590B6E0850045C006E095069
:101350000558016E0A500658026E0B500758036E6E
:1013600036CDE9FF37CDEAFF100EE926000EEA225E
:10137000EECF0CF0EFCF0DF00E6A0F6A0C50005C50
:10138000266F0D500158276F0E500258286F0F50CE
:101390000358296F800E291509E036CDE9FF37CDB6
:1013A000EAFF140EEB6A150EEB6A0AD036CDE9FFA0
:1013B00037CDEAFF140E26CDEBFF150E27CDEBFF40
:1013C00036CDE9FF37CDEAFFEF50000901E0AFD09D
:1013D00026EC11F07CC2E9FF7DC2EAFF0D0EE92682
:1013E000000EEA22EF50020B03E10D01040E9DD026
:1013F0007EC204F07FC205F0066A076A7CC2E9FF7C
:101400007DC2EAFF040EE926000EEA22EE50042413
:10141000006EEE500520016EEE500620026EEE507A
:101420000720036E002A000E01220222032236CD7D
:10143000E9FF37CDEAFF1A0EE926000EEA2200C0C6
:10144000EEFF01C0EEFF02C0EEFF03C0EEFF7CC264
:10145000E9FF7DC2EAFF0E0EE926000EEA22EECF7A
:1014600000F0EFCF01F036CDE9FF37CDEAFF140EE3
:1014700000C0EBFF150E01C0EBFF0A0EE66EE66A38
:101480007AC2E6FF7BC2E6FF36CDE9FF37CDEAFF41
:10149000EE52E9CF00F0EACF01F0E9CFE6FFEACF64
:1014A000E6FF9CEC3BF0026E060EE15E02507CC251
:1014B000E9FF7DC2EAFFEECF00F0EFCF01F036CDBD
:1014C000E9FF37CDEAFF0D0E00C0EBFF0E0E01C0A5
:1014D000EBFF36CDE9FF37CDEAFF020EEF6E36CDDA
:1014E000E9FF37CDEAFF160EE926000EEA22EFCF1C
:1014F0002AFDEE2AEFCF2BFDEE22EFCF2CFDEE22C0
:10150000EFCF2DFDEF2236CDE9FF37CDEAFF1A0EE2
:10151000E926000EEA22EECF26FDEECF27FDEECF24
:1015200028FDEFCF29FD0D01120E386F47D236CDC1
:10153000E9FF37CDEAFF1A0EE926000EEA22EECFC8
:101540002EFDEECF2FFDEECF30FDEFCF31FD36CDAE
:10155000E9FF37CDEAFF160EE926000EEA22EECFAC
:1015600032FDEECF33FDEECF34FDEFCF35FD7CC243
:10157000E9FF7DC2EAFF040EE926000EEA22EECF63
:1015800026FDEECF27FDEECF28FDEFCF29FD02018E
:101590007E510D01262702017F510D012723000EE8
:1015A0002823292336CDE9FF37CDEAFF160EE92699
:1015B000000EEA22EECF2AFDEECF2BFDEECF2CFD62
:1015C000EFCF2DFD7CC2E9FF7DC2EAFF040EE926C4
:1015D000000EEA22EE502E1901E0E3D1EE502F1951
:1015E00001E0DFD1EE50301901E0DBD1EE503119CE
:1015F00001E0D7D101E0D5D136CDE9FF37CDEAFF03
:10160000EF50020844E17CC2E9FF7DC2EAFF0D0E03
:10161000E926000EEA22EF50100B01E114D136CD7D
:10162000E9FF37CDEAFF1A0EE926000EEA2226CDA1
:10163000EEFF27CDEEFF28CDEEFF29CDEEFF36CD14
:10164000E9FF37CDEAFF030EEF6E02017E517F11F5
:1016500001E1F9D036CDE9FF37CDEAFF270EE926C3
:10166000000EEA22EF8636CDE9FF37CDEAFF120EF3
:101670007EC2EBFF130E7FC2EBFF36CDE9FF37CD05
:10168000EAFF270EE926000EEA22EF8497D136CD35
:10169000E9FF37CDEAFF1A0EE926000EEA2226CD31
:1016A000EEFF27CDEEFF28CDEEFF29CDEEFF36CDA4
:1016B000E9FF37CDEAFFEF50030801E0C7D07CC255
:1016C000E9FF7DC2EAFF0D0EE926000EEA22EF5087
:1016D000100B2FE036CDE9FF37CDEAFF270EE926C4
:1016E000000EEA22EF50020B24E136CDE9FF37CDA0
:1016F000EAFF0F0EEB50FF081CE036CDE9FF37CDB7
:10170000EAFF0F0EEB500F01476F4FEC10F036CD94
:10171000E9FF37CDEAFF0F0EE926000EEA22EF6857
:1017200036CDE9FF37CDEAFF270EE926000EEA2283
:10173000EF827CC2E9FF7DC2EAFF0D0EE926000EB2
:10174000EA22EF50010B31E00D01110E386F36CD5A
:10175000E9FF37CDEAFF160EE926000EEA22EFCFA9
:101760002AFDEE2AEFCF2BFDEE22EFCF2CFDEE224D
:10177000EFCF2DFDEF2236CDE9FF37CDEAFF1A0E70
:10178000E926000EEA22EF2AEECF26FDEF22EECF69
:1017900027FDEF22EECF28FDEF22EFCF29FD36CD3A
:1017A000E9FF37CDEAFF090EEF6E02017E517F118E
:1017B0004AE036CDE9FF37CDEAFF270EE926000ED5
:1017C000EA22EF50080B1FE136CDE9FF37CDEAFFE3
:1017D000270EE926000EEA22EF8636CDE9FF37CD47
:1017E000EAFF120E7EC2EBFF130E7FC2EBFF36CD77
:1017F000E9FF37CDEAFF270EE926000EEA22EF8443
:101800000D013889DBD036CDE9FF37CDEAFF160E62
:10181000E926000EEA2232CDEEFF33CDEEFF34CDC5
:10182000EEFF35CDEEFF36CDE9FF37CDEAFF1A0EDC
:10183000E926000EEA222ECDEEFF2FCDEEFF30CDB1
:10184000EEFF31CDEEFF26EC11F0B8D036CDE9FF3A
:1018500037CDEAFFEF5009080FE126EC11F07CC20A
:10186000E9FF7DC2EAFF0D0EE926000EEA22EF50E5
:10187000100B01E1A3D08ED036CDE9FF37CDEAFFC2
:10188000EF50040847E126EC11F07CC2E9FF7DC26D
:10189000EAFF0D0EE926000EEA22EF50010B28E0C8
:1018A0000D01100E386F36CDE9FF37CDEAFF1A0E65
:1018B000E926000EEA22EF2AEECF26FDEF22EECF38
:1018C00027FDEF22EECF28FDEF22EFCF29FD7CC2CE
:1018D000E9FF7DC2EAFF0D0EE926000EEA22EF5075
:1018E000100B58E136CDE9FF37CDEAFF060E10D0D8
:1018F0007CC2E9FF7DC2EAFF0D0EE926000EEA2256
:10190000EF50100B5BE036CDE9FF37CDEAFF050E57
:10191000EF6E54D036CDE9FF37CDEAFFEF50050822
:1019200025E126EC11F07CC2E9FF7DC2EAFF0D0E35
:10193000E926000EEA22EF50010B40E00D01100EE7
:10194000386F36CDE9FF37CDEAFF1A0EE926000ED3
:10195000EA22EF2AEECF26FDEF22EECF27FDEF227F
:10196000EECF28FDEF22EFCF29FD14D036CDE9FFD1
:1019700037CDEAFFEF50060821E126EC11F07CC2DA
:10198000E9FF7DC2EAFF0D0EE926000EEA22EF50C4
:10199000100B14E036CD4EF237CD4FF28BEC01F048
:1019A0000DD026EC11F00D01100E386F2ECD26FD56
:1019B0002FCD27FD30CD28FD31CD29FD0D0138512A
:1019C00031E00201606B616B02015F6938CD5EF24C
:1019D00026CD5AF227CD5BF228CD5CF229CD5DF2FF
:1019E0002ACD56F22BCD57F22CCD58F22DCD59F2EF
:1019F0007CC2E9FF7DC2EAFFEECF54F2EDCF55F293
:101A00007CC2E9FF7DC2EAFF020EE926000EEA224F
:101A1000EECF52F2EDCF53F27AC250F27BC251F2C6
:101A200011EC02F0120080C2E9FF81C2EAFF060E4B
:101A3000E926000EEA22EECF14FDEECF15FDEECF23
:101A400016FDEFCF17FD82C2E9FF83C2EAFFEECF9A
:101A500018FDEECF19FDEECF1AFDEFCF1BFD0D01E6
:101A60001C6B060E1D6F84C21EFD85C21FFD84C245
:101A7000F4F085C2F5F093EC35F0F3CF1EFDF4CF12
:101A80001FFD0C0E0001FC6FFD6B0001140EFA6FC0
:101A90000D0EFB6FF3EC35F0F3CF21FDF4CF22FDFB
:101AA0000D01211F221F84C2FEF085C2FFF069ECE8
:101AB00036F0F3CF23FDF4CF24FD0D01F450215D6A
:101AC00069E12351225D66E10301406B416B4FECFC
:101AD00035F0140E0F013B6F3C6B0F01000E396F98
:101AE0000D0E3A6F33EC0FF00201000E4A6F0D0E2F
:101AF0004B6F3AEC00F00D010C51F00BE842E8425C
:101B0000E842E842040DF350006E016A140E005ED4
:101B1000000E015A00C025FD0050006E016AE85019
:101B20000201845D846F01508559856F140E845FB6
:101B3000000E855B0D010C51F00BE842E842E842D3
:101B4000E842040DF3500301406F416B4FEC35F058
:101B500080C277F281C278F20201000E756F0D0E1D
:101B6000766F1EEC08F00D01206FFE0E205D12E076
:101B700084C27EF285C27FF20201000E7C6F0D0EE0
:101B80007D6F80C27AF281C27BF220CD79F20FECB8
:101B900009F0010C26EC11F0010C0D01006B060E92
:101BA000005D71E20051280DF3CF01FDF4CF02FD7D
:101BB000000E0127010E022301CDE9FF02CDEAFF4D
:101BC0000A0EEF6E01CDE9FF02CDEAFF270EE926EE
:101BD000000EEA22EF9001CDE9FF02CDEAFF270EC9
:101BE000E926000EEA22EF8201CDE9FF02CDEAFFED
:101BF000270EE926000EEA22EF8401CDE9FF02CD8F
:101C0000EAFF270EE926000EEA22EF9801CDE9FF50
:101C100002CDEAFF270EE926000EEA22EF9601CD5B
:101C2000E9FF02CDEAFF0F0EEB50FF0813E001CDF4
:101C3000E9FF02CDEAFF0F0EEB500F01476F4FECAB
:101C400010F001CDE9FF02CDEAFF0F0EE926000EEC
:101C5000EA22EF6801CDE9FF02CDEAFF230EE92673
:101C6000000EEA222C0EEE6E010EEE6EEE6AEE6AA9
:101C700001CDE9FF02CDEAFF100EEB6A110EEB6A0F
:081C80000D01002B8CD71200AE
:081C88008A989E962BCFC9FF3C
:101C90009EA6FED7C9CF05FD9E96C96A9EA6FED711
:101CA000C9CF05FD9E96C96A9EA6FED7C9CF05FD80
:101CB0009E968A880D01055112008A989E962CCF17
:101CC000C9FF9EA6FED7C9CFD5FD9E96C96A9EA61E
:101CD000FED7C9CFD5FD9E968A880D01D551120039
:101CE0008A989E96400E0F012D11C96E9EA6FED7B2
:101CF000C9CFDDFD9E962ECFC9FF9EA6FED7C9CFC8
:101D0000DDFD9E968A8812008A989E96800E0F01AD
:101D10002F11C96E9EA6FED7C9CFDDFD9E9630CF8E
:101D2000C9FF9EA6FED7C9CFDDFD9E968A88120008
:101D30008A989E96A00E0F013111C96E9EA6FED7FD
:101D4000C9CFDDFD9E9632CFC9FF9EA6FED7C9CF73
:101D5000DDFD9E968A8812000F01030E326F0F017F
:101D60001F0E316FE5DF34CF30FF0F011F0E2F6FD5
:101D700084EF0EF00F01140E336F020E346FECDFA0
:101D800035CF2EFF0F01140E2D6FAADF0F01010EAC
:101D90002E6F0F01120E2D6FA3DF0F010A0E336F8E
:101DA000030E346FD9DF0F010A0E2B6F6DDF006E4B
:101DB000000100B0F8D70F01140E336F020E346F1C
:101DC000CBDF0F012E6B0F01120E2D6F89DF0F017C
:101DD000180E2B6F59DF006EE8CF03FD0F01190EAF
:101DE0002B6F52DF006EE8CF04FD03CDF3FFF46EDE
:101DF00012000F01140E336F020E346FADDF36CFB9
:101E00002EFF0F01140E2D6F6BDF37CF2EFF0F014A
:101E1000160E2D6F65DF38CF2EFF0F01170E2D6FB9
:101E20005FDF0F010A0E336F030E346F95DF0F0172
:101E30000A0E2B6F29DF006E000100B0F8D71200E8
:101E40008A989E963A0EC96E9EA6FED7C9CFCDFD42
:101E50009E96C96A9EA6FED7C9CFCDFD9E968A885A
:101E60000D01CD5112008A989E963A0EC96E0D0151
:101E7000D56BD66B0F013907000E3A5B9EA6FED7D5
:101E8000C9CFD7FD9E960F013B510D01D55D0F01C6
:101E90003C510D01D65910E2C96AD52B000ED6234C
:101EA0000F01392B3A239EA6FED7C95039CFE9FF3F
:101EB0003ACFEAFFEF6EE6D78A88D5CDF3FFD6CDCD
:101EC000F4FF12008A989E967A0EC96E9EA6FED7DF
:101ED000C9CFDDFD9E963DCFC9FF9EA6FED7C9CFD7
:101EE000DDFD9E968A8812008A989E967A0EC96EAB
:101EF0009EA6FED7C9CFDDFD9E960F014051411130
:101F00000EE03ECFE9FF3FCFEAFFEF50C96E3E2B18
:101F1000000E3F234007415B9EA6FED7EBD78A8881
:101F200012000F01010E356F25DFF350040B01E0A5
:101F3000010E12000F01425109E00F011F0E2C6F1C
:101F4000BCDEE850080B080A29E0010C2451235D8F
:101F50000AE10F011F0E2C6FB0DE0001E850080BE4
:101F6000080A1CE0010C0D01010EC96F070EC95DC6
:101F700014E2C951050DF3CFE9FFF4CFEAFF000EDB
:101F8000E9260F0EEA22040EE926000EEA22EF509F
:101F9000010B01E0010CC92BE9D7000E12000F0163
:101FA000435109E00F011F0E2C6F87DEE850080B2C
:101FB00001E1000CFF0C0D01010EC96F070EC95D98
:101FC00033E2C951050DF3CFE9FFF4CFEAFF000E6C
:101FD000E9260F0EEA22040EE926000EEA22EF504F
:101FE000010B20E0C951050DF3CFE9FFF4CFEAFF63
:101FF000000EE9260F0EEA22040EE926000EEA2260
:10200000EF90C951050DF3CFE9FFF4CFEAFF000EC1
:10201000E9260F0EEA22040EE926000EEA22EF92CC
:10202000C9511200C92BCAD7FF0C44CF23FF0F019F
:102030004451050DF3CFE9FFF4CFEAFF000EE92686
:102040000F0EEA22EECF00F0EFCF01F0010E0026D6
:10205000000E01220E0E0026000E01220050452720
:1020600001504623020E0F01336F346B75DE45CFEE
:102070002EFF0F012D6B34DE46CF2EFF0F01010E18
:102080002D6F2EDE45CF2EFF0F01020E2D6F28DEA5
:1020900046CF2EFF0F01030E2D6F70EF0EF00F01D4
:1020A0004751006E016A070E005C000E015811E2F4
:1020B0004751050DF3CFE9FFF4CFEAFF000EE92603
:1020C0000F0EEA22040EE926000EEA22EF8047CF27
:1020D00023FF1200140E0F01016A2725006E2851FC
:1020E0000122005048250D018D6F01500F0149213B
:1020F0000D018E6F8DCD00F0016E026A036AD880EB
:10210000070E0054100E0154000E0254000E03542A
:1021100004E2080E8D5F100E8E5B0F01336B346B83
:102120001BDE8DCD2EFF0F012D6BDADD8ECD2EFF48
:102130000F01010E2D6FD4DD8DCD2EFF0F01020E8C
:102140002D6FCEDD8ECD2EFF0F01030E2D6F70EFA4
:102150000EF00F01190E336F010E346FFDDD0F010C
:10216000190E2C6FAADD006EE8CFC9FD0E0E0F010F
:10217000336F346BF1DD0F010E0E2C6F9EDD006EA0
:10218000E8CFCBFD0F010F0E2C6F97DD006EE8CF6F
:10219000CCFD0F01190E336F010E346FDDDD0F0121
:1021A000190E2C6F8ADD006E0D01C9510001005C13
:1021B000D6E10C0E0F01336F346BCEDD0F010C0E28
:1021C0002C6F7BDD006EE8CFC9FD0F010D0E2C6F6B
:1021D00074DD006EE8CFCAFD0D01CB51C95DCC5155
:1021E000CA591BE2070E046E100E056E066A076AD6
:1021F000C951CB5D086ECC51CA55096E0A6A0B6A8B
:102200000850045C006E09500558016E0A500658CB
:10221000026E0B500758036E14D0C951CB1908E158
:10222000CA51CC1905E1070EF36E100EF46E1200C0
:10223000CB51C95D006ECA51CC55016E0006000E2F
:10224000015A00C0F3FF01C0F4FF12000F01295131
:1022500001E01200010E296F25CF87FD26CF88FDF2
:102260000D01875F000E885B87CD00F088CD01F0FF
:10227000026A036AD880070E0054100E0154000E43
:102280000254000E035404E2070E876F100E886F8D
:102290000F01400E306F0F011E0E2F6F35DD0C0E3B
:1022A0000F01336F346B58DD87CD2EFF0F010C0EFD
:1022B0002D6F16DD88CD2EFF0F010D0E2D6F70EFE7
:1022C0000EF00F01190E336F010E346F45DD0F0153
:1022D000190E2C6FF2DC006E0001005002E1000EBE
:1022E00090D00F01295103E1B1DF000E8AD025CF34
:1022F00027FF26CF28FF0F01336B346B2DDD25CF51
:102300002EFF0F012D6BECDC26CF2EFF0F01010EEF
:102310002D6FE6DC140E0F013B6F3C6B0F01000EBE
:10232000396F0D0E3A6F9FDD12CDF4F013CDF5F03D
:1023300093EC35F0F3CF12FDF4CF13FD00CD00F098
:1023400001CD01F0026A036AD880070E0054100E16
:102350000154000E0254000E03541BE30D010D0145
:102360000051010B16E10D010D010551800B11E12A
:102370000D010D010451100B0CE10D01EE0ED88082
:102380000255050E035505E30D010D010451800BA7
:1023900001E1FF0000CD25FF01CD26FF060EE66E10
:1023A000E66A0C0EE66E0D0EE66E4ACFE9FF4BCFE5
:1023B000EAFFE9CF00F0EACF01F000C0E6FF01C07C
:1023C000E6FF9CEC3BF0026E060EE15E02504CCF45
:1023D000E9FF4DCFEAFFEF68080E0D01135D0DE137
:1023E0000D01125104E0060E0D01125D06E14CCF05
:1023F000E9FF4DCFEAFF12CDEFFF0F01296B010E70
:1024000000D01200020E0F01336F346BA5DC0F01F8
:102410002351050DF3CFE9FFF4CFEAFF000EE926C3
:102420000F0EEA22EFCF2EFF0F01020E2D6F58DCA8
:102430000F012351050DF3CFE9FFF4CFEAFF000EA2
:10244000E9260F0EEA22010EE926000EEA22EFCF5E
:102450002EFF0F01030E2D6F43DC0F012351050DDD
:10246000F3CFE9FFF4CFEAFF000EE9260F0EEA22D0
:10247000EECF00F0EFCF01F00E0E0026000E01228D
:1024800000505127015052232351050DF3CFE9FF8E
:10249000F4CFEAFF000EE9260F0EEA22020EE9262B
:1024A000000EEA2251CFEEFF52CFEDFF0F013D6B40
:1024B00009DD060E0F01406F416B4ECF3EFF4FCF3F
:1024C0003FFF12DD060E0F01406F416B0F01040E3E
:1024D0003E6F020E3F6F08DD0F01080E3D6FF2DC0C
:1024E0000F01505102E1000E01D0060E0F013D6FA9
:1024F00062EF0FF0040E0F01336F346B2DDC0F0110
:102500002351050DF3CFE9FFF4CFEAFF000EE926D2
:102510000F0EEA22EFCF2EFF0F01040E2D6F70EC8D
:102520000EF00F012351050DF3CFE9FFF4CFEAFFC1
:10253000000EE9260F0EEA22010EE926000EEA221D
:10254000EFCF2EFF0F01050E2D6F70EC0EF00F0177
:102550002351050DF3CFE9FFF4CFEAFF000EE92682
:102560000F0EEA22020EE926000EEA22EFCF2EFF1E
:102570000F01060E2D6F70EC0EF00F012351050DAB
:10258000F3CFE9FFF4CFEAFF000EE9260F0EEA22AF
:10259000020EE926000EEA22010EE926000EEA22CA
:1025A000EFCF2EFF0F01070E2D6F70EC0EF023CF33
:1025B00024FF0F012351050DF3CFE9FFF4CFEAFF0C
:1025C000000EE9260F0EEA22040EE926000EEA228A
:1025D000EF820F011C0E2C6F5DEC0EF0006E0001FF
:1025E00000A210D00F01800E306F0F011F0E2F6F51
:1025F00084EC0EF00F01800E326F0F011F0E316F51
:1026000098EC0EF00F010A0E326F0F011C0E316FA5
:1026100098EC0EF00F01080E306F0F011F0E2F6F98
:1026200084EC0EF0050E0F012A5D01E0C8D00F0109
:102630001C0E2C6F5DEC0EF0006E0A0E00010014F3
:10264000F6E00F011C0E2C6F5DEC0EF0006E000129
:1026500000A2B5D00F01080E326F0F011F0E316FAF
:1026600098EC0EF00F01336B346BACEC0EF00F01F5
:102670002C6B5DEC0EF0006EE8CFC9FD0F01010E72
:102680002C6F5DEC0EF0006EE8CFCAFD0F01060E58
:102690002C6F5DEC0EF0006EE8CFCBFD0F01070E46
:1026A0002C6F5DEC0EF0006EE8CFCCFD0D01CB2B56
:1026B000000ECC23CBCD2EFF0F012D6B70EC0EF056
:1026C000CCCD2EFF0F01010E2D6F70EC0EF0070E1A
:1026D0000F013B6F3C6B0F01CD0E396F0D0E3A6F42
:1026E00033EC0FF00D01D46B100ED45D5BE20F01E3
:1026F0001C0E2C6F5DEC0EF0006E0001E850020B1A
:1027000051E00D01D051200B4DE00F01800E306FD4
:102710000F011F0E2F6F84EC0EF00F01800E326F31
:102720000F011F0E316F98EC0EF00F010A0E326F81
:102730000F011C0E316F98EC0EF00F01080E306F78
:102740000F011F0E2F6F84EC0EF00F011C0E2C6F6B
:102750005DEC0EF0006E0A0E00010014F6E00F01B1
:10276000080E326F0F011F0E316F98EC0EF0CBCDBB
:102770002EFF0F012D6B70EC0EF0CCCD2EFF0F0154
:10278000010E2D6F70EC0EF0070E0F013B6F3C6BCE
:102790000F01CD0E396F0D0E3A6F33EC0FF00D01B6
:1027A000D42BA2D7C9CD2EFF0F012D6B70EC0EF0EC
:1027B000CACD2EFF0F01010E2D6F70EC0EF012002E
:1027C0000F01200E326F0F011E0E316F98EC0EF0CC
:1027D0000F011D0E2C6F5DEC0EF0006E000100A0CD
:1027E000F7D70F01040E306F0F011F0E2F6F84EF0C
:1027F0000EF00F01040E326F0F011F0E316F98ECB7
:102800000EF00F011D0E2C6F5DEC0EF0006E00013E
:1028100000B4F7D70F011F0E2C6F5DEC0EF0006EA9
:10282000000100B6F7D70F01200E306F0F011E0E0A
:102830002F6F84EF0EF00F010C0E326F0F011F0E81
:10284000316F98EC0EF00F01356BBAEC0EF0F3CF50
:1028500001FDF4CF02FD020E0F01535D06E10D01F3
:102860000251010B0F01536F0DD053510D01029115
:10287000E8B0028101CD37FF02CD38FF0F01366B82
:10288000F9EC0EF00F01020E336F346FACEC0EF06A
:102890000F01020E2B6F44EC0EF00D01006F0F01C3
:1028A00053510D010091E8B0008100CD2EFF0F01C2
:1028B000020E2D6F70EC0EF00F01535102E0150E59
:1028C00001D0120E0F012E6F0F01040E2D6F70EC50
:1028D0000EF00F01040E306F0F011F0E2F6F84EFEB
:1028E0000EF00F01150E336F030E346FACEC0EF0CB
:1028F00054CF2EFF0F01150E2D6F70EC0EF00F014F
:10290000336B346BACEF0EF00F01150E336F030E0B
:10291000346FACEC0EF00F01150E2C6F5DEC0EF069
:10292000006EE8CF00FD0F01336B346BACEC0EF0A2
:102930000D01005112008A989E96C9689EA6FED786
:10294000C9CF00FD9E968A8812009E960F011D0E2B
:102950002C6F5DEC0EF0006EE8CF06FD080E0D0149
:102960000615F4E1061D010BF1E1E5DF010E0F0193
:102970007E6F7F6B10EC3EF00D01066B070E065D5F
:1029800039E20651006E016A480E0102F3CF01F0F0
:10299000020E0002F3500126480E0002F3CF00F0B1
:1029A000F4500126026A036A080E0026100E012266
:1029B000000E022203220651050DF3CFE9FFF4CFEA
:1029C000EAFF000EE9260F0EEA2200C0EEFF01C06A
:1029D000EDFF0651050DF3CFE9FFF4CFEAFF000E3E
:1029E000E9260F0EEA22040EE926000EEA22EF8005
:1029F000062BC4D70F01236B010E296F256B266BA5
:102A00000F012E6B0F01080E2D6F70EC0EF00F01F1
:102A10002E6B0F01090E2D6F70EC0EF00F01070EDB
:102A20002E6F0F010C0E2D6F70EC0EF00F01100EBB
:102A30002E6F0F010D0E2D6F70EC0EF00F01070EB3
:102A40002E6F0F010A0E2D6F70EC0EF00F01100E9D
:102A50002E6F0F010B0E2D6F70EC0EF00F01080E94
:102A60002E6F0F01040E2D6F70EC0EF00F01100E83
:102A70002E6F0F01050E2D6F70EC0EF00F01336BF2
:102A8000020E346FACEC0EF00F010D0E2E6F0F0125
:102A90002D6B70EC0EF00F01320E2E6F0F01020E37
:102AA0002D6F70EC0EF00F01400E2E6F0F01030E14
:102AB0002D6F70EC0EF00F013F0E2E6F0F01090EFF
:102AC0002D6F70EC0EF00F01120E2E6F0F01060E1F
:102AD0002D6F70EC0EF00F010C0E2E6F0F01070E14
:102AE0002D6F70EC0EF00F01EE0E2E6F0F010A0E1F
:102AF0002D6F70EC0EF00F01050E2E6F0F010B0EF7
:102B00002D6F70EC0EF00F01040E336F030E346F57
:102B1000ACEC0EF004C22EFF0F01040E2D6F70EC12
:102B20000EF005C22EFF0F01050E2D6F70EC0EF09A
:102B300006C22EFF0F01020E2D6F70EC0EF007C2C1
:102B40002EFF0F01030E2D6F70EC0EF008C22EFF4A
:102B50000F012D6B70EC0EF009C22EFF0F01010E5C
:102B60002D6F70EC0EF00F01120E2C6F5DEC0EF05D
:102B7000006EE8CF2AFF0F01376B010E386F0F018F
:102B8000100E366FF9EC0EF00F01720E376F040E57
:102B9000386F0F01140E366FF9EC0EF00F01536B06
:102BA0004ADE0F01040E306F0F011F0E2F6F84EFEE
:022BB0000EF025
:0E2BB2003C68746D6C3E3C686561643E3C742A
:102BC00069746C653E436F6272613C2F7469746C0A
:102BD000653E3C736372697074206C616E677561E9
:102BE00067653D224A617661536372697074223E63
:102BF00076617209786D6C487474703B76617220EE
:102C00004F626A4172726179203D206E6577204182
:102C1000727261793B66756E6374696F6E20476589
:102C200074586D6C487474704F626A656374286878
:102C3000616E646C6572297B20766172206F626AB6
:102C4000586D6C48747470203D206E756C6C3B2020
:102C50006966286E6176696761746F722E75736537
:102C6000724167656E742E696E6465784F662822BE
:102C70004D53494522293E3D3029207B2020766155
:102C80007220436C6173734E616D65203D20224D4F
:102C900073786D6C322E584D4C48545450223B2062
:102CA000206966286E6176696761746F722E617043
:102CB0007056657273696F6E2E696E6465784F66C3
:102CC00028224D53494520352E3522293E3D3029B5
:102CD00020207B202020436C6173734E616D652042
:102CE0003D20224D6963726F736F66742E584D4C90
:102CF00048545450223B20207D202074727920209B
:102D00007B2020206F626A586D6C48747470203D7F
:102D1000206E657720416374697665584F626A65F5
:102D2000637428436C6173734E616D65293B202089
:102D3000206F626A586D6C487474702E6F6E726585
:102D400061647973746174656368616E6765203D61
:102D50002068616E646C65723B202020726574751A
:102D6000726E206F626A586D6C487474703B2020DC
:102D70007D2020636174636828652920207B2020E2
:102D800020616C65727428224572726F723A20411C
:102D900063746976655820736372697074696E67CD
:102DA000206D61792062652064697361626C65647D
:102DB0002E22293B20202072657475726E3B2020E4
:102DC0007D207D20656C7365207B202074727920C6
:102DD000207B2020206F626A586D6C4874747020CC
:102DE0003D206E657720584D4C4874747052657163
:102DF0007565737428293B2020206F626A586D6CBA
:102E0000487474702E6F6E6C6F6164203D20686131
:102E10006E646C65723B2020206F626A586D6C484E
:102E20007474702E6F6E6572726F72203D206861CF
:102E30006E646C65723B20202072657475726E2022
:102E40006F626A586D6C487474703B20207D20203E
:102E5000636174636828652920207B202020616CD1
:102E600065727428224572726F723A2042726F77CF
:102E7000736572206D6179206E6F742062652073B6
:102E80007570706F72746564206F722062726F77F4
:102E900073657220736563757269747920726573E6
:102EA0007472696374696F6E732061726520746FE8
:102EB0006F20686967682E22293B20207D207D7D58
:102EC00066756E6374696F6E2053746174654368D0
:102ED000616E67656428297B20696628786D6C4877
:102EE0007474702E72656164795374617465203DE9
:102EF0003D2034207C7C20786D6C487474702E7278
:102F0000656164795374617465203D3D2022636F6F
:102F10006D706C6574652229207B2020646F637559
:102F20006D656E742E676574456C656D656E744273
:102F300079496428227478744175746F557064619E
:102F4000746553746174757322292E696E6E65728F
:102F500048544D4C3D786D6C487474702E72657396
:102F6000706F6E7365546578743B2020786D6C4883
:102F7000747470203D206E756C6C3B20205570641D
:102F800061746553746174757328293B207D7D6677
:102F9000756E6374696F6E205570646174655374E7
:102FA0006174757328297B20786D6C487474702067
:102FB0003D20476574586D6C487474704F626A6543
:102FC00063742853746174654368616E676564292E
:102FD0003B20786D6C487474702E6F70656E28227B
:102FE000474554222C20227374617475732E6367D5
:102FF0006922202C2074727565293B20786D6C48FD
:103000007474702E73656E64286E756C6C293B7DCC
:1030100066756E6374696F6E20476574536572766A
:10302000657246696C652846696C654E616D652CF4
:103030002041737369676E546F297B20766172201B
:103040004E696674794F626A203D206E6577204F25
:10305000626A65637428293B204E696674794F6201
:103060006A2E584D4C446576696365203D206E6537
:103070007720476574586D6C487474704F626A6548
:1030800063742853746174654368616E6765643264
:10309000293B204E696674794F626A2E584D4C4424
:1030A00065766963652E6F70656E282247455422E8
:1030B0002C2046696C654E616D652C2074727565B7
:1030C000293B204E696674794F626A2E584D4C44F4
:1030D00065766963652E73656E64286E756C6C2900
:1030E0003B204E696674794F626A2E54657874206D
:1030F0003D2041737369676E546F3B204F626A4194
:10310000727261792E70757368284E696674794F92
:10311000626A293B7D66756E6374696F6E205374B5
:103120006174654368616E6765643228297B206637
:103130006F72286920696E204F626A4172726179EC
:1031400029207B20206966284F626A41727261796A
:103150005B695D2E584D4C4465766963652E7265DA
:103160006164795374617465203D3D2034207C7C1A
:10317000204F626A41727261795B695D2E584D4CD5
:103180004465766963652E72656164795374617410
:1031900065203D3D2022636F6D706C65746522294A
:1031A00020207B2020206966284F626A417272616C
:1031B000795B695D2E5465787420213D2022222997
:1031C0002020207B20202020646F63756D656E7445
:1031D0002E676574456C656D656E74427949642827
:1031E0004F626A41727261795B695D2E54657874D1
:1031F000292E696E6E657248544D4C3D4F626A418E
:10320000727261795B695D2E584D4C4465766963D5
:10321000652E726573706F6E7365546578743B20AC
:1032200020207D2020206966284F626A41727261E9
:10323000795B695D2E54657874203D3D2022747859
:10324000744175746F5570646174655374617475FD
:103250007322292020207B2020202047657453657D
:103260007276657246696C65282273746174757331
:103270002E636769222C20227478744175746F550F
:10328000706461746553746174757322293B2020E6
:10329000207D20202064656C657465204F626A4142
:1032A000727261795B695D2E584D4C446576696335
:1032B000653B20202064656C657465204F626A411F
:1032C000727261795B695D3B20207D207D7D3C2FA2
:1032D0007363726970743E3C2F686561643E3C6242
:1032E0006F6479206F6E6C6F61643D22557064610C
:1032F000746553746174757328293B204765745352
:10330000657276657246696C6528277665727369A1
:103310006F6E2E636769272C27747874537461630A
:103320006B56657273696F6E27293B20476574532E
:10333000657276657246696C65282762646174659A
:103340002E636769272C277478744275696C64440E
:1033500061746527293B223E3C703E546F67676C61
:1033600065204C45447320266E6273703B266E6266
:1033700073703B3C696E70757420747970653D2282
:10338000627574746F6E222076616C75653D224C97
:1033900045443122206F6E636C69636B3D22476543
:1033A0007453657276657246696C652827303F30C4
:1033B0003D4C454431272C272729223E3C2F696E5E
:1033C0007075743E3C696E70757420747970653DDB
:1033D00022627574746F6E222076616C75653D2271
:1033E0004C45443222206F6E636C69636B3D22470B
:1033F000657453657276657246696C652827303F3F
:10340000313D4C454432272C272729223E3C2F6949
:103410006E7075743E3C62723E3C62723E3C2F663A
:103420006F6E743E3C74722076616C69676E3D7499
:103430006F703E3C464F524D204D4554484F443DE1
:1034400047455420616374696F6E3D506F776572B4
:103450002E6367693E3C7461626C653E3C74723EEB
:103460003C74643E506F776572204C6576656C3AAB
:103470003C2F74643E3C74643E3C696E70757420ED
:10348000747970653D746578742073697A653D322E
:10349000206D61786C656E6774683D31206E616D7A
:1034A000653D502076616C75653D2530373E3C2F7B
:1034B00074643E3C2F74723E3C74723E3C74643EB5
:1034C0004C6F7720506F7765722053657474696E06
:1034D000673A3C2F74643E3C74643E3C696E707580
:1034E0007420747970653D746578742073697A65A9
:1034F0003D32206D61786C656E6774683D31206E79
:10350000616D653D4C2076616C75653D2530383EBA
:103510003C2F74643E3C2F74723E3C74723E3C748B
:10352000643E4869676820506F7765722053657400
:1035300074696E673A3C2F74643E3C74643E3C6927
:103540006E70757420747970653D7465787420733D
:10355000697A653D32206D61786C656E6774683D8F
:1035600031206E616D653D482076616C75653D2545
:1035700030393E3C2F74643E3C2F74723E3C747272
:103580003E3C74643E3C696E70757420747970655D
:103590003D7375626D6974206E616D653D42207684
:1035A000616C75653D4170706C793E3C2F74643E72
:1035B0003C2F74723E3C2F7461626C653E3C623EEF
:1035C0005374617475733C2F623E3C62723E3C736F
:1035D00070616E2069643D227478744175746F5512
:1035E0007064617465537461747573223E4C6F61CD
:1035F00064696E672E2E2E3C2F7370616E3E3C62A6
:10360000723E3C2F626F64793E3C2F68746D6C3E55
:1036100004FFFFFF3C62723E414E303A20202530CD
:10362000323C62723E427574746F6E733A2020258C
:1036300030462025304520253044202530343C625A
:10364000723E4C4544733A202025313520253134D3
:1036500020253133202531322025313120253130CC
:1036600020253031202530303C62723E3C623E499C
:1036700050205061636B657420436F756E74657282
:10368000733C2F623E3C62723E54783A20202532D1
:10369000303C62723E52783A2025323104FFFFFFFF
:1036A00000B22B494E4445582E48544D202020004E
:1036B00014365354415455532E434749202004FF98
:0D36C000FF454E44204F4620464154202037
:0136CD0000FC
:0236CE00D8CF53
:1036D000E4FFE0CFE4FFE46EDACFE4FFE2CFDAFF0D
:1036E000E9CFE4FFEACFE4FFF6CFE4FFF7CFE4FF52
:1036F000F5CFE4FFF3CFE4FFF4CFE4FFFACFE4FF2C
:1037000000EE10F00B0EE80403E3EECFE4FFFBD76E
:1037100000EE00F0100EE80403E3EECFE4FFFBD769
:10372000E652F9EC3DF0E55200EE0FF0100EE80421
:1037300003E3E5CFEDFFFBD700EE1AF00B0EE80434
:1037400003E3E5CFEDFFFBD7E5CFFAFFE5CFF4FFCD
:10375000E5CFF3FFE5CFF5FFE5CFF7FFE5CFF6FFC8
:10376000E5CFEAFFE5CFE9FFE5CFDAFFE550E5CFAA
:10377000E0FFE5CFD8FF10000D012F6B8EC230FDAA
:103780008FC231FD8EC2E9FF8FC2EAFFEFCF2EFD5F
:10379000EF5038E02E0E0D012E5D28E102018EC2A1
:1037A000E9FF8FC2EAFF8E2B000E8F23EF6A30CD28
:1037B000E6FF31CDE6FF87EC2EF0E552E552F350FF
:1037C000E66E90C200F091C201F00D012F512F2B37
:1037D0000F010024E96E000E0120EA6EE552E75069
:1037E000EF6E8EC230FD8FC231FD07D0300E2E5DE0
:1037F00003E32E51390801E2000C02018E2B000E6A
:103800008F23C0D730CDE6FF31CDE6FF87EC2EF019
:10381000E552E552F350E66E90C200F091C201F01D
:103820000D012F510F010024E96E000E0120EA6EF8
:10383000E552E750EF6E030E0D012F5D01E0000C25
:10384000010C94C2E6FF95C2E6FF92C2E9FF93C263
:10385000EAFFEF50E66EE66AFCEC2EF0E552E55228
:10386000E552E55294C2E6FF95C2E6FF23EC3CF038
:10387000E552E552F35002019427F450952394C287
:10388000E9FF95C2EAFF942B000E95232E0EEF6EF2
:1038900094C2E6FF95C2E6FF92C2E9FF93C2EAFF37
:1038A000010EE926000EEA22EF50E66EE66AFCEC15
:1038B0002EF0E552E552E552E55294C2E6FF95C27C
:1038C000E6FF23EC3CF0E552E552F3500201942769
:1038D000F450952394C2E9FF95C2EAFF942B000EA1
:1038E00095232E0EEF6E94C2E6FF95C2E6FF92C2BC
:1038F000E9FF93C2EAFF020EE926000EEA22EF502A
:10390000E66EE66AFCEC2EF0E552E552E552E55231
:1039100094C2E6FF95C2E6FF23EC3CF0E552E55287
:10392000F35002019427F450952394C2E9FF95C205
:10393000EAFF942B000E95232E0EEF6E94C2E6FF45
:1039400095C2E6FF92C2E9FF93C2EAFF030EE926A1
:10395000000EEA22EF50E66EE66AFCEC2EF0E5522D
:10396000E552E552E55212000D012E6B0F0E0201D9
:10397000EA6A9625E96E9751EA22EF6A96C2E6FF57
:1039800097C2E6FF31EC3CF0E552E5520F0E0D0117
:103990002E5D1BE22E510201EA6A9625E96E9751CF
:1039A000EA22EF500FE10F0E0D012E5D0EE22E51B7
:1039B0002E2B0201EA6A9625E96E9751EA22200E23
:1039C000EF6EF1D70D012E2BE1D712003EEC3DF04A
:1039D0000009FCE047EC3DF00D01006F300E005D8A
:1039E00005E33A0E005D02E2005112003A0C0201BA
:1039F0008C0EFB6F780EFC6FFD6B7BEC3DF0300E98
:103A00000201985DE96EEA6AD890E936EA36320E2C
:103A1000E926020EEA22EECFFBF2EFCFFCF2020122
:103A2000FD6B7BEC3DF002019851300A01E1EFD0D3
:103A3000090A01E1ECD0010A01E1E6D00F0A01E137
:103A4000E0D0010A01E18DD0030A01E185D0010A2D
:103A500001E17DD0070A01E175D0010A3EE0030AC9
:103A600001E01200000EE66E0D0EE66E17C2E6FFD4
:103A700018C2E6FFFCEC2EF0E552E552E552E552A5
:103A80000201000EF96F0D0EFA6F66EC3DF00201B7
:103A9000310EFB6F760EFC6FFD6B7BEC3DF002018F
:103AA000140EF46F0201000EF26F0D0EF36F0BECAB
:103AB0003DF0000901E1ABD0000EE66E0D0EE66EA2
:103AC00087EC2EF0E552E552F3CF17F2F4CF18F25F
:103AD000F4CF08F2F3CF09F212000201210EF96FC0
:103AE000020EFA6F66EC3DF00201310EFB6F760EAE
:103AF000FC6FFD6B7BEC3DF00201100EF46F0201D8
:103B0000000EF26F0D0EF36F0BEC3DF00D01005146
:103B100001E17DD0100EE66EE66A000EE66E0D0E37
:103B2000E66E210EE66E020EE66E9CEC3BF0006E39
:103B3000060EE15E00500201210E966F020E976F95
:103B4000B4EF1CF00D01000E2C6F020E0ED00D0113
:103B50000E0E2C6F020E09D00D010A0E2C6F020EF4
:103B600004D00D01120E2C6F020E2D6F0201140EE7
:103B7000946F0D0E956F2CCD92F22DCD93F261DEE8
:103B80000201140EF96F0D0EFA6F66EC3DF00201A2
:103B9000310EFB6F760EFC6FFD6B7BEC3DF002018E
:103BA000140EF46F0201000EF26F0D0EF36F0BECAA
:103BB0003DF00201280E906F0D0E916F0201000E74
:103BC0008E6F0D0E8F6FD8DD00090EE10201B10E70
:103BD000FB6F790EFC6FFD6B7BEC3DF03EEC3DF036
:103BE0000009FCE047EF3DF02CCDE9FF2DCDEAFFC9
:103BF00028CDEEFF29CDEEFF2ACDEEFF2BCDEEFF37
:103C00001200020116811200020116911200120028
:103C100002018F0EFB6F780EFC6FFD6B7BEC3DF0AD
:103C2000D5DE0D01326F3A0E325D03E032CD98F2EF
:103C3000DEDE300E0D01325DEBE1120099C2E9FFCC
:103C40009AC2EAFFEE50EFCFEAFFE96EEF50D00FD5
:103C50000D01856FE85072E1020E0201EA6A9925B2
:103C6000E96E9A51EA22EE50EFCFEAFFE96EEF508B
:103C7000D00F0D01866F020E0201EA6A9925E96EE6
:103C80009A51EA22EE50EFCFEAFFE96E010EE926E3
:103C9000000EEA22EF504AE10D018651090A41E087
:103CA000010A3AE00F0A33E0010A2CE0030A25E09A
:103CB000010A1EE0070A17E0010A10E0030A08E003
:103CC000010A3CE189780201280EFB6F760E32D0A2
:103CD000897A02011F0EFB6F760E2CD00201150EA1
:103CE000FB6F760E27D002010B0EFB6F760E22D0F3
:103CF0000201010EFB6F760E1DD00201F70EFB6F65
:103D0000750E18D00201ED0EFB6F750E13D0020177
:103D1000E30EFB6F750E0ED00201D90EFB6F750E10
:103D200009D00201CF0EFB6F750E04D00201C30E45
:103D3000FB6F750EFC6FFD6B7BEC3DF00A0EE66EC3
:103D4000E66AF70E006E790E016E026A00C0E6FFA9
:103D5000E66E02C0E6FF99C2E9FF9AC2EAFFEECF23
:103D6000E6FFEFCFE6FFC7EC3BF0036E070EE15E28
:103D70000350120002019C51220A01E140D1010AC4
:103D800001E13DD1020A01E104D1010A01E1CBD0F8
:103D9000370A01E18ED0010A52E0190A44E0010A13
:103DA0003DE0030A37E0090A31E0110A2BE0010A7D
:103DB00025E0070A1FE0010A19E0030A13E0010ADF
:103DC0000DE0110A07E0010A01E03FD18950080B1C
:103DD0002DE127D08950100B24E028D08950200BEA
:103DE00020E024D08950200B1CE020D08950200BEB
:103DF00018E01CD08950200B14E018D08950200BFB
:103E000010E014D08950200B0CE010D08050010B32
:103E100008E00CD08150010B04E008D08150010B68
:103E200005E1300E06D08150010B02E0310E01D0C9
:103E3000300E9FC2E9FFA0C2EAFFEF6E06D19D518E
:103E40009E1114E1BC0E006E750E016E026A00C078
:103E5000E6FFE66E02C0E6FFA10EE66E020EE66E1B
:103E60000AEC3CF0036E050EE15E035002019D5129
:103E7000EA6AA10FE96E020EEA22EF509FC2E9FF43
:103E8000A0C2EAFFEF6E9D51EA6AA10FE96E020E31
:103E9000EA22EF5001E1D9D09D2B000E9E239D51C7
:103EA000EA6AA10FE96E020EEA22EF5001E0C8D0E3
:103EB000CCD09D519E1114E1A70E006E750E016EBF
:103EC000026A00C0E6FFE66E02C0E6FFA10EE66EE3
:103ED000020EE66E0AEC3CF0036E050EE15E035046
:103EE00002019D51EA6AA10FE96E020EEA22EF502B
:103EF0009FC2E9FFA0C2EAFFEF6E9D51EA6AA10FDF
:103F0000E96E020EEA22EF5001E19FD09D2B000ED8
:103F10009E239D51EA6AA10FE96E020EEA22EF503C
:103F200001E08ED092D09D519E1112E1A10EE66E5D
:103F3000020EE66E5CC3E6FF5DC3E6FF5EC3E6FF0E
:103F40005FC3E6FF96EC2FF0006E060EE15E0050B8
:103F500002019D51EA6AA10FE96E020EEA22EF50BA
:103F60009FC2E9FFA0C2EAFFEF6E9D51EA6AA10F6E
:103F7000E96E020EEA22EF5068E09D2B000E9E23B0
:103F80009D51EA6AA10FE96E020EEA22EF5058E154
:103F90005CD09D519E1112E1A10EE66E020EE66EFE
:103FA00058C3E6FF59C3E6FF5AC3E6FF5BC3E6FF0B
:103FB00096EC2FF0006E060EE15E005002019D515E
:103FC000EA6AA10FE96E020EEA22EF509FC2E9FFF2
:103FD000A0C2EAFFEF6E9D51EA6AA10FE96E020EE0
:103FE000EA22EF5032E09D2B000E9E239D51EA6A9B
:103FF000A10FE96E020EEA22EF5022E126D09D5178
:104000009E119D51EA6AA10FE96E020EEA22EF505D
:104010009FC2E9FFA0C2EAFFEF6E9D51EA6AA10FBD
:10402000E96E020EEA22EF5010E09D2B000E9E2357
:104030009D51EA6AA10FE96E020EEA22EF5005E0F7
:104040009DC2F3FF9EC2F4FF1200F368F4681200F1
:10405000896A010E926E100E8A6E010E936EC00E6A
:104060008B6E900E946E200EAC6E900EAB6EAC8488
:10407000270EAF6EC26A0F0EC16EF19ED08EF28E09
:10408000F28C200EC66E400EC76E12000201168121
:104090001200DEDFE6EC3DF0F5EC38F0100EE66ED7
:1040A000E66AA10E006E750E016E026A00C0E6FFA0
:1040B000E66E02C0E6FF210EE66E020EE66EC7EC6B
:1040C0003BF0036E070EE15E03500201210E966F76
:1040D000020E976F49DCDADF80A09ADDE6EC37F05C
:1040E00098EC25F0020116B105D0010E316F0301E5
:1040F000080E696FF0EC3DF002014651145C006E51
:1041000047511558016E48511658026E49511758BB
:10411000036E320E005C000E0158000E0258000EB5
:1041200003580BE3F0EC3DF014C046F215C047F223
:1041300016C048F217C049F28976F2EC37F08CECE1
:1041400025F00201315103016C5DD4E06CC331F202
:104150000201AB0E946F0D0E956F0201000E926F6F
:0A416000020E936F21EC1CF0C5D78E
:06416A0073CFE9FF74CFE2
:10417000EAFFEE52EECFF2F1EDCFF3F173CFE9FFAC
:1041800074CFEAFF070EEB50000901E1CED073CFE8
:10419000E9FF74CFEAFFEF500201656F62EC04F0B3
:1041A000000901E1ECD00D01E96B73CFE9FF74CF99
:1041B000EAFF040EEB5008080AE08AEC39F00D0122
:1041C000EA6F0101F21D03E1F31D01E1C2D073CFDB
:1041D000E9FF74CFEAFF040EEB50080A52E00E0A22
:1041E00029E0030A14E0060A01E08FD0250E0D0134
:1041F000EA5D0AE173CFE9FF74CFEAFF040EE92616
:10420000000EEA22050E80D0010EE96F7ED0250E49
:104210000D01EA5D03E1010EE96F6DD0EACDECFD21
:1042200073CFE9FF74CFEAFF040EE926000EEA22FD
:10423000060E6AD0EACDEBFDEACDF0F0ECCDF1F060
:104240005BEC35F0E66E73CFE9FF74CFEAFF080E42
:10425000E926000EEA22E552E750EF6E73CFE9FF40
:1042600074CFEAFF040EE926000EEA22080EEF6E74
:1042700073CFE9FF74CFEAFF050EEB6A060EEB6A17
:1042800044D00201EA0E9F6F0D0EA06F73CFE9FFBD
:1042900074CFEAFF050EE926000EEA22EECF9DF26A
:1042A000EDCF9EF273CFE9FF74CFEAFF080EEB501B
:1042B00002019C6FBAEC1EF0F3CF00F0F4CF01F0D6
:1042C00073CFE9FF74CFEAFF050EF3CFEBFF060EC5
:1042D00001C0EBFF0D01010EE96F73CFE9FF74CF51
:1042E000EAFF050EE926000EEA22FF0EEE180DE1A8
:1042F000FF0EED180AE173CFE9FF74CFEAFF040E59
:10430000E926000EEA22030EEF6E0D01E95101E1EC
:104310003ED7EACD67F273CFE9FF74CFEAFFEF50E3
:104320000201666F9DEC04F032D773CFE9FF74CFC2
:10433000EAFFEF500201656F62EC04F000091FE034
:104340008AEC39F00D01EA6F0101F21D0CE1F31D59
:104350000AE173CFE9FF74CFEAFFEF500201646F07
:10436000BBEC03F0010CEACD67F273CFE9FF74CF29
:10437000EAFFEF500201666F9DEC04F0D6D773CFD1
:10438000E9FF74CFEAFF010EF2C1EBFF020EF3C1A9
:10439000EBFF000C0D01866B876B886B856B030E42
:1043A000E66EE66A460E006E750E016E026A00C089
:1043B000E6FFE66E02C0E6FF75CFE6FF76CFE6FFCA
:1043C0007DEC3BF0036E070EE15E0350000908E14F
:1043D000040E0F017527000E76230D018A6B01D0A4
:1043E000020C75CFE9FF76CFEAFFEF50200805E118
:1043F0000F01752B000E7623F4D775CFE9FF76CF2A
:10440000EAFFEFCF89FD200E0D01895D01E195D016
:10441000895101E192D00D0E895D01E18ED00A0E25
:10442000895D01E18AD079CFE9FF7ACFEAFFEF50C9
:10443000855D01E382D08651020A30E0030A1DE067
:10444000010A76E18551020D0F017751F324E96EDF
:104450007851F420EA6E75CFEEFF76CFEDFF75CF81
:10446000E9FF76CFEAFFEFCF89FD2F0E0D01895DC1
:1044700041E05C0E895D5CE13DD08551852B020DEC
:104480000F017751F324E96E7851F420EA6E75CF6D
:10449000EEFF76CFEDFF0D01020E866F75CFE9FFBF
:1044A00076CFEAFFEFCF89FD3F0E895D1EE0260E35
:1044B000895D1BE02B0E895D07E1200E75CFE9FFBA
:1044C00076CFEAFFEF6E34D02E0E895D0BE18505C5
:1044D00009E10F01752B000E762375CF87FD76CF8E
:1044E00088FD26D03D0E895D08E175CFE9FF76CFC6
:1044F000EAFFEF6A010E866F1BD02F0E895D03E085
:104500005C0E895D15E1010E0F01016A7525006ED3
:10451000765101220D018505020D0F017751F3241B
:10452000E96E7851F420EA6E00C0EEFF01C0EDFFA5
:104530000F01752B000E762360D775CFE9FF76CF7C
:10454000EAFFEF6A090E7BCFE9FF7CCFEAFFEF6E4F
:104550008751881142E087CDE6FF88CDE6FF31EC38
:104560003CF0E552E552F3CF87FDF4CF88FD0D0115
:10457000AC0E8B6F730E8C6F896B8951006E016A64
:104580000A0E005C000E015828E2030EE66EE66A91
:104590008BCD00F08CCD01F0026A8BCDE6FF8CCD87
:1045A000E6FF02C0E6FF87CDE6FF88CDE6FF7DECA3
:1045B0003BF0036E070EE15E0350000907E17BCF7D
:1045C000E9FF7CCFEAFF89CDEFFF07D0040E0D0194
:1045D0008B27000E8C23892BD0D70D01855130E11C
:1045E000090EE66EE66A4A0E006E750E016E026AEC
:1045F00000C0E6FFE66E02C0E6FF77CFE9FF78CFA6
:10460000EAFFEECFE6FFEFCFE6FFC7EC3BF0036E2D
:10461000070EE15E035077CFE9FF78CFEAFFEE5057
:10462000EFCFEAFFE96E090EE926000EEA22EF6AF3
:10463000010E7BCFE9FF7CCFEAFFEF6E0D01852BEA
:1046400079CFE9FF7ACFEAFF85CDEFFF8A511200DB
:104650000F017D510A0DF3CF81FDF4CF82FD550E80
:104660000D0181270F0E8223806B81CDE9FF82CD62
:10467000EAFFEF500201626F2BEC03F000090AE140
:1046800081CDE9FF82CDEAFF030EE926000EEA2282
:10469000EF6A120081CDE9FF82CDEAFF030EEB50F5
:1046A000090A01E10BD2080A01E1E0D10A0A01E19D
:1046B0001AD1090A01E1D5D0020A01E028D281CD40
:1046C000E9FF82CDEAFFEF500201746F38EC06F08B
:1046D000000901E11CD20D01010E806F7E6B7F6B22
:1046E0000D01640E7E5D000E7F5917E27ECD72F2E1
:1046F0007FCD73F27E2B000E7F23000E0201722706
:104700000D0E732381CDE9FF82CDEAFFEF50020148
:10471000716FDDEC05F00009E3E1000E0D017E256F
:10472000E96E0D0E7F21EA6EEF6A81CDE9FF82CD41
:10473000EAFFEF500201686F1AEC05F081CDE9FF46
:1047400082CDEAFF030EE926000EEA22020EEF6E8A
:104750000D010B0E7B6F81CDE9FF82CDEAFF090EC3
:10476000E926000EEA22E9CF7BFFEACF7CFF0F01AA
:104770007B0E796F0D0E7A6F0F01650E776F0D0E40
:10478000786F0F01000E756F0D0E766F03DE0D0151
:104790007D6FE85001E0BBD17B51010813E27BCD76
:1047A0009BF20201650E996F0D0E9A6F1EEC1EF0C2
:1047B00081CDE9FF82CDEAFF090EE926000EEA224B
:1047C000020EEF6E65CDF7F166CDF8F1F9EC38F039
:1047D000F3CF00F0F4CF01F081CDE9FF82CDEAFF05
:1047E000010EF3CFEBFF020E01C0EBFF81CDE9FF1D
:1047F00082CDEAFFEE52FF0EEE180DE1FF0EED182E
:104800000AE181CDE9FF82CDEAFF080EE926000E1C
:10481000EA22EF6A12D081CDE9FF82CDEAFFEE52A3
:10482000EE50ED1014E181CDE9FF82CDEAFF080ED4
:10483000E926000EEA22010EEF6E81CDE9FF82CD5E
:10484000EAFF030EE926000EEA22020E5FD181CDB7
:10485000E9FF82CDEAFF030EE926000EEA220B0EE5
:1048600055D181CDE9FF82CDEAFFEF500201656F9E
:1048700062EC04F0000901E14AD181CDE9FF82CD6B
:10488000EAFF080EEB50E96EEA6AD890E936EA369C
:10489000650EE926030EEA22EECF83FDEDCF84FDFF
:1048A0000D0183CDF6FF84CDF7FF832B000E84230B
:1048B0000800F5CF7CFDF5500CE07CCD67F281CD92
:1048C000E9FF82CDEAFFEF500201666F9DEC04F034
:1048D000E7D781CDE9FF82CDEAFFEF500201646F97
:1048E000BBEC03F0E1D081CDE9FF82CDEAFFEF50D0
:1048F0000201656F62EC04F0000901E108D10D01CD
:10490000010E806F81CDE9FF82CDEAFF090EEB50E9
:10491000020828E181CDE9FF82CDEAFF070EE926F2
:10492000000EEA22010EEF6E7C6B7C51006E016A74
:10493000840E005C000E01583CE27C51F76ABC0F0B
:10494000F66E740EF7220800F5CF67F281CDE9FF0D
:1049500082CDEAFFEF500201666F9DEC04F00D017D
:104960007C2BE3D781CDE9FF82CDEAFF070EE92654
:10497000000EEA22EF6A7C6B7C51006E016A1F0E0A
:10498000005C000E015815E27C51F76A9C0FF66E30
:10499000740EF7220800F5CF67F281CDE9FF82CDD2
:1049A000EAFFEF500201666F9DEC04F00D017C2BD5
:1049B000E3D781CDE9FF82CDEAFF090EEB50140D5C
:1049C000F3CFF6FFF4CFF7FFD40EF626730EF722DF
:1049D000F6CF83FDF7CF84FD0D0183CDF6FF84CDA7
:1049E000F7FF832B000E84230800F5CF7CFDF550E4
:1049F0000CE07CCD67F281CDE9FF82CDEAFFEF507C
:104A00000201666F9DEC04F0E7D77C6B7C51006E71
:104A1000016A040E005C000E015815E27C51F76A31
:104A2000410FF66E750EF7220800F5CF67F281CDC3
:104A3000E9FF82CDEAFFEF500201666F9DEC04F0C2
:104A40000D017C2BE3D781CDE9FF82CDEAFF040E77
:104A5000E926000EEA22030EEF6E81CDE9FF82CD3A
:104A6000EAFFE926000EEA22010E50D081CDE9FFCF
:104A700082CDEAFFEF500201746F38EC06F00009B6
:104A800009E081CDE9FF82CDEAFFEF500201686FB6
:104A90001AEC05F081CD73FF82CD74FFB5EC20F0E8
:104AA000000935E083EC39F081CDE9FF82CDEAFFE2
:104AB000030EE926000EEA22090E28D081CDE9FF77
:104AC00082CDEAFFEF500201626F2BEC03F0000988
:104AD0001EE081CDE9FF82CDEAFFEF500201656F54
:104AE00062EC04F0000913E081CDE9FF82CDEAFF1A
:104AF000EF500201636F3BEC03F081CDE9FF82CD03
:104B0000EAFF030EE926000EEA220A0EEF6E0D01FF
:104B1000805101E0A9D512000D01F36B030EF35D86
:104B200006E2F3CD7DFF94DD0D01F32BF7D71200E4
:104B30000D01036B030E035D26E2500E02014C6F64
:104B40004D6B15EC01F0E66E0D0103510A0DF3CF2C
:104B5000E9FFF4CFEAFF550EE9260F0EEA22E552EF
:104B6000E750EF6E03510A0DF3CFE9FFF4CFEAFFF0
:104B7000550EE9260F0EEA22030EE926000EEA2260
:084B8000EF6A032BD7D71200E6
:084B8800080E0301695D01E163
:104B90001200FF0E6A5D04E06AC3DFF0C7EC2AF082
:104BA00003016A69696B6C6B6B9112000001010E65
:104BB000E06FFAEC2AF00001010EE06FFAEC2AF047
:104BC0000001060EE06FFAEC2AF00001E06BFAEC4F
:104BD0002AF00001120EE06FFAEC2AF00001230E19
:104BE000E06FFAEC2AF00001340EE06FFAEC2AF0E4
:104BF0000001560EE06FFAEC2AF00001E06BFAECCF
:104C00002AF00001E06BFAEC2AF00001800EE06F60
:104C1000FAEC2AF00001E06BFAEC2AF00001E06BFC
:104C2000FAEC2AF00001E06BFAEC2AF00001E06BEC
:104C3000FAEC2AF00001E06BFAEC2AF00D010F6BA0
:104C40000C0E0F5D07E20001E06BFAEC2AF00D019B
:104C50000F2BF6D704C2E0F0FAEC2AF005C2E0F020
:104C6000FAEC2AF006C2E0F0FAEC2AF007C2E0F013
:104C7000FAEC2AF008C2E0F0FAEC2AF009C2E0F0FF
:104C8000FAEC2AF00D010F6BCA0E0F5D07E200016E
:104C9000E06BFAEC2AF00D010F2BF6D70001630E42
:104CA000E06FFAEC2AF00001820EE06FFAEC2AF0D5
:104CB0000001530EE06FFAEC2AF00001630EE06F82
:104CC000FAEC2AF00001350EE06FFAEC2AF0000150
:104CD000010EE06FFAEC2AF015C3E0F0FAEC2AF0CE
:104CE0000301150502E103016B93030115051FE0A4
:104CF00009510A110B110C111AE00001360EE06F78
:104D0000FAEC2AF00001040EE06FFAEC2AF004C37A
:104D1000E0F0FAEC2AF003C3E0F0FAEC2AF002C368
:104D2000E0F0FAEC2AF001C3E0F0FAEC2AF000011E
:104D3000370EE06FFAEC2AF00001040EE06FFAEC97
:104D40002AF00001010EE06FFAEC2AF00001030ED8
:104D5000E06FFAEC2AF00001060EE06FFAEC2AF0A0
:104D600000010C0EE06FFAEC2AF0030E0301155D52
:104D70001AE10001320EE06FFAEC2AF00001040E95
:104D8000E06FFAEC2AF009C3E0F0FAEC2AF00AC36B
:104D9000E0F0FAEC2AF00BC3E0F0FAEC2AF00CC3D6
:104DA000E0F0FAEC2AF00001E069FAEC2AF082EF78
:104DB0002BF00D01126B00010F0EE26F0D0EE36F71
:104DC0002CEC2CF0020E0D010F5D01E0C9D1106B2F
:104DD0000F0E105D0AE200010F0EE26F0D0EE36F81
:104DE0002CEC2CF00D01102BF3D703016BA30FD08B
:104DF0000D01106B040E105D28E200010F0EE26F32
:104E00000D0EE36F2CEC2CF00D01102BF3D70001ED
:104E1000090EE26F030EE36F2CEC2CF000010A0E7A
:104E2000E26F030EE36F2CEC2CF000010B0EE26F2F
:104E3000030EE36F2CEC2CF000010C0EE26F030E5E
:104E4000E36F2CEC2CF0030100810D01106B080EB8
:104E5000105D0AE200010F0EE26F0D0EE36F2CEC05
:104E60002CF00D01102BF3D7106B060E105D14E221
:104E700000010F0EE26F0D0EE36F2CEC2CF00D0114
:104E80001051EA6A040FE96E020EEA22EF500F5D3C
:104E900001E08AD1102BE9D7106BCE0E105D0AE22B
:104EA00000010F0EE26F0D0EE36F2CEC2CF00D01E4
:104EB000102BF3D7176B00010F0EE26F0D0EE36F8F
:104EC0002CEC2CF0000904E10D01010E176F48D104
:104ED0000D010F51330A01E1E1D0CC0A01E1DBD031
:104EE000C90A01E1AFD0350A60E0020A20E0340AC5
:104EF00001E021D100010F0EE26F0D0EE36F2CECEB
:104F00002CF00D010F0501E04FD10001120EE26FF0
:104F10000D0EE36F2CEC2CF003016B51020B01E141
:104F20001BD1020E0D01125D01E016D13DD1000131
:104F30000F0EE26F0D0EE36F2CEC2CF0040E0D0142
:104F40000F5D01E031D103016BA310D00D01106B97
:104F5000040E105D01E300D100010F0EE26F0D0E93
:104F6000E36F2CEC2CF00D01102BF2D70001110E89
:104F7000E26F030EE36F2CEC2CF00001120EE26FD7
:104F8000030EE36F2CEC2CF00001130EE26F030E06
:104F9000E36F2CEC2CF00001140EE26F030EE36FB4
:104FA0002CEC2CF003010085D7D00001110EE26F2C
:104FB0000D0EE36F2CEC2CF0040E0D01115D01E2DF
:104FC000F3D003016BA30FD00D01106B040E105D25
:104FD00028E200010F0EE26F0D0EE36F2CEC2CF0B7
:104FE0000D01102BF3D700010D0EE26F030EE36FDE
:104FF0002CEC2CF000010E0EE26F030EE36F2CEC94
:105000002CF000010F0EE26F030EE36F2CEC2CF07E
:105010000001100EE26F030EE36F2CEC2CF0030185
:105020000083040E0D01115F0D01115111070009DC
:1050300001E192D000010F0EE26F0D0EE36F2CEC38
:105040002CF0F2D700010F0EE26F0D0EE36F2CEC87
:105050002CF0040E0D010F5D01E0A6D00001160E2C
:10506000E26F0D0EE36F2CEC2CF00001150EE26FD9
:105070000D0EE36F2CEC2CF00001140EE26F0D0E00
:10508000E36F2CEC2CF00001130EE26F0D0EE36FBA
:105090002CEC2CF061D0010E176F5ED000010F0ECA
:1050A000E26F0D0EE36F2CEC2CF0040E0D010F5D82
:1050B00001E07AD003016BA30FD00D01106B040E39
:1050C000105D4AE200010F0EE26F0D0EE36F2CEC53
:1050D0002CF00D01102BF3D70001080EE26F030E28
:1050E000E36F2CEC2CF00001070EE26F030EE36F70
:1050F0002CEC2CF00001060EE26F030EE36F2CEC9B
:105100002CF00001050EE26F030EE36F2CEC2CF087
:10511000D880080E03010555070E0655000E0755E9
:10512000000E085519E2080E055F070E065B000E1B
:10513000075B085B11D00001110EE26F0D0EE36FEB
:105140002CEC2CF00D0111511107000905E00001B4
:105150000F0EE26F0D0EF3D70D01175101E1ABD623
:10516000020E125D0BE113CD01F314CD02F315CD48
:1051700003F316CD04F303016B8311D0010EE96E26
:10518000030EEA6EEE50131908E1EE50141905E112
:10519000EE50151902E1EE50161901E0126B91EC78
:1051A0002CF00D011251120091EC2CF0000C0301B7
:1051B0006951070A01E12CD1010A01E1C6D0030AB5
:1051C00001E1A7D0010A01E17BD0070A51E0010A01
:1051D00033E0030A08E0010A01E012000301096B51
:1051E0000A6B0B6B0C6B0D010069016902690369A5
:1051F000046905690669076908690969430E0001C0
:10520000DD6FDE6B0001000EDB6F0D0EDC6F440EF8
:105210000001D96FDA6B5EEC2AF003016A6FF0ECE3
:105220003DF014C016F315C017F316C018F317C0DD
:1052300019F30301020E696FF0EC3DF00301165102
:10524000145C006E17511558016E18511658026EF5
:1052500019511758036E140E005C000E0158000E11
:105260000258000E035801E228D10301030E6BD04F
:1052700003013C0E056F066B076B086B03016BA106
:1052800002D0050E60D06AC3D8F00F01010E426F44
:105290009AEC0FF0000901E110D10301010E156F26
:1052A00085DC0301006BF0EC3DF014C016F315C073
:1052B00017F316C018F317C019F30301040E43D0F7
:1052C000F0EC3DF003011651145C006E17511558B7
:1052D000016E18511658026E19511758036EC80EF8
:1052E000005C000E0158000E0258000E035803E344
:1052F0000301030E696F6AC3E1F014EC2CF000099E
:1053000001E1DBD056DD020801E0D7D00301050E34
:10531000696F6AC3D8F00F01010E426F9AEC0FF06B
:10532000000901E1CAD00301030E156F3FDCF0EC68
:105330003DF014C016F315C017F316C018F317C0CC
:1053400019F30301060E696F12006AC3E1F014EC51
:105350002CF0000941E02DDD0D010A6F060E0A5DFB
:1053600002E1C4EF25F0050E0A5D51E16AC3DFF0EA
:10537000C7EC2AF003016A69F0EC3DF014C016F3A3
:1053800015C017F316C018F317C019F30301070E61
:10539000696F030100A108D009C300F20AC301F23A
:1053A0000BC302F20CC303F200A508D011C30AF22A
:1053B00012C30BF213C30CF214C30DF200A308D0F6
:1053C0000DC30EF20EC30FF20FC310F210C311F291
:1053D00003016B816C2B1200F0EC3DF003011651C0
:1053E000145C006E17511558016E18511658026E54
:1053F00019511758036EC80E005C000E0158000EBC
:105400000258000E035859E30301030E696F12009E
:10541000F0EC3DF003011651145C0D010B6F03011C
:10542000175115580D010C6F0301185116580D0135
:105430000D6F0301195117580D010E6F640E0B5DAE
:10544000000E0C59000E0D59000E0E5936E30301E3
:105450000507000E065B075B085B640E0D010B5F22
:10546000000E0C5B0D5B0E5B03010551061107116D
:10547000081103E10301010E696F640E0D010B5D5C
:10548000000E0C59000E0D59000E0E59E0E2F0EC22
:105490003DF00D010B51145C0301166F0D010C5111
:1054A00015580301176F0D010D5116580301186FA0
:0C54B0000D010E5117580301196F120076
:0454BC000D01800E50
:1054C000226F000E236F216B040E215D5FE222CD5F
:1054D000E9FF23CDEAFF0C0EE926000EEA22EECF0B
:1054E00000F0EFCF01F0026A036A005001100210D1
:1054F000031046E122CDE9FF23CDEAFF0C0ED9C00F
:10550000EBFF0D0EDAC0EBFF0001DB51DC1119E0FF
:105510000A0EE66EE66ADBC0E6FFDCC0E6FF22CDDF
:10552000E9FF23CDEAFF22CD00F023CD01F022CD0B
:10553000E6FF23CDE6FF9CEC3BF0026E060EE15E3B
:10554000025022CDE9FF23CDEAFF0A0EDDC0EBFFBA
:105550000B0EDEC0EBFF22CDE9FF23CDEAFF0E0EDE
:10556000EB6A0F0EEB6A22CDE9FF23CDEAFF100EA6
:10557000EB6A110EEB6A21CDD8F00D01215112001A
:10558000160E2227000E2323212B9ED7FF0C00018D
:10559000DF51160DF3CFE9FFF4CFEAFF800EE926C5
:1055A000000EEA220C0EE926000EEA22EE6AED6AEF
:1055B000DF51160DF3CFE9FFF4CFEAFF800EE926A5
:1055C000000EEA22060EE926000EEA22EE6AEE6AD4
:1055D000EE6AEE6ADF51160DF3CFE9FFF4CFEAFF72
:1055E000800EE926000EEA22150EE926000EEA22B8
:1055F000EF9012000001D851160DF3CF2BFDF4CF20
:105600002CFD800E0D012B27000E2C232BCDE9FF46
:105610002CCDEAFF0E0EE926000EEA22EE50ED1028
:1056200030E10F01010E436FCFEC0FF0E66E2BCD92
:10563000E9FF2CCDEAFF120EE926000EEA22E55220
:10564000E750EF6E2BCDE9FF2CCDEAFF120EEB50A9
:10565000FF0801E1000C1C0E0F01456F466B2BCDBE
:10566000E9FF2CCDEAFF120EEB500F01446F15EC51
:1056700010F02BCDE9FF2CCDEAFF130EEB6A140ED0
:10568000EB6AE0C03DFF62EC0FF02BCDE9FF2CCDC3
:10569000EAFF130EE926000EEA22EECF00F0EDCF6E
:1056A00001F0EE2AEF222BCDE9FF2CCDEAFF0E0E02
:1056B000E926000EEA22EECF02F0EFCF03F002500F
:1056C000005C035001580AE32BCDE9FF2CCDEAFF23
:1056D0000E0EE926000EEA22EE2AEF222BCDE9FF7C
:1056E0002CCDEAFF0E0EE926000EEA22EECF2DFDAC
:1056F000EDCF2EFD0D01160E2D5D020E2E5901E38C
:1057000001D8010C0F01010E426F9AEC0FF0000955
:10571000F9E00001D851160DF3CF29FDF4CF2AFD91
:10572000800E0D012927000E2A2329CDE9FF2ACD5D
:10573000EAFF0C0EE926000EEA22EECFF4F0EDCFE0
:10574000F5F093EC35F0F3CF21FDF4CF22FD29CD18
:10575000E9FF2ACDEAFF0A0EE926000EEA22EECF83
:10576000F4F0EDCFF5F093EC35F0F3CF23FDF4CF6B
:1057700024FD29CDE9FF2ACDEAFF0E0EE926000E11
:10578000EA22EECF25FDEFCF26FD080E0D012527DD
:10579000000E2623276B286B140E0F01456F466BF6
:1057A00029CDE9FF2ACDEAFF120EEB500F01446F1D
:1057B00015EC10F025CD3EF326CD3FF30301110E7D
:1057C0003D6F29CDE9FF2ACDEAFF29CD3BF32ACD54
:1057D0003CF3D6EC34F025CDF4F026CDF5F093EC87
:1057E00035F0F3CF25FDF4CF26FD080E0F01406FF5
:1057F000416B0F01210E3E6F0D0E3F6F74EC0FF0E9
:105800007AEC12F029CDE9FF2ACDEAFF120EE92643
:10581000000EEA22EF6829CDE9FF2ACDEAFF0E0E3D
:10582000EB6A0F0EEB6A1200E1C0D8F00001D8510C
:10583000160DF3CFE9FFF4CFEAFF800EE926000E44
:10584000EA22100EE926000EEA22D880EE54000E5D
:10585000ED5401E3000C010C0001D851160DF3CFFB
:10586000E9FFF4CFEAFF800EE926000EEA22100ECF
:10587000E926000EEA22EE50ED1001E1000CD851AD
:10588000160DF3CFE9FFF4CFEAFF800EE926000EF4
:10589000EA22150EE926000EEA22EF50010B15E070
:1058A000D851160DF3CFE9FFF4CFEAFF800EE926B9
:1058B000000EEA22150EE926000EEA22EF90080EED
:1058C0000301406F416B4FEC35F020EC0FF0E2C06C
:1058D000E9FFE3C0EAFFEF6E0001D851160DF3CFE8
:1058E000E9FFF4CFEAFF800EE926000EEA22100E4F
:1058F000E926000EEA22EE06EF5AD851160DF3CF34
:10590000E9FFF4CFEAFF800EE926000EEA22100E2E
:10591000E926000EEA22EE50ED1002E126EC11F02D
:10592000010C0001D851160DF3CFE9FFF4CFEAFFC7
:10593000800EE926000EEA22100EE926000EEA2269
:10594000EE50ED1002E026EC11F00001D851160DDA
:10595000F3CFE9FFF4CFEAFF800EE926000EEA223A
:10596000100EE926000EEA22EE6AED6A12000D0121
:105970001869800E196F000E1A6F176B040E175DF1
:1059800001E38CD019CDE9FF1ACDEAFF0C0EE92610
:10599000000EEA22EECF00F0EFCF01F0E4C0E9FF05
:1059A000E5C0EAFF020EE926000EEA22EECF02F081
:1059B000EFCF03F0025000186AE10350011867E1CD
:1059C00019CDE9FF1ACDEAFF0A0EE926000EEA22F8
:1059D000EECF00F0EFCF01F0E4C0E9FFE5C0EAFF51
:1059E000EECF02F0EFCF03F0025000184EE103506B
:1059F00001184BE119CDE9FF1ACDEAFF100EE92697
:105A0000000EEA22EECF04F0EFCF05F0066A076A37
:105A1000045005100610071038E1E6C0E9FFE7C0A2
:105A2000EAFF060EE926000EEA22EECF00F0EECFE6
:105A300001F0EECF02F0EFCF03F019CDE9FF1ACD60
:105A4000EAFF060EE926000EEA22EE5000010018D9
:105A500008E1EE50011805E1EE50021802E1EE50A7
:105A6000031810E0E8C0E9FFE9C0EAFFE868EE18B3
:105A70000CE1E868EE1809E1E868EE1806E1E8686C
:105A8000EE1803E10D011751120017CD18FD0D019D
:105A9000160E1927000E1A23172B70D7FF0E185D4C
:105AA00035E01851160DF3CF19FDF4CF1AFD800E15
:105AB0001927000E1A230A0EE66EE66AE6C0E6FF14
:105AC000E7C0E6FF19CDE9FF1ACDEAFF19CD00F0D6
