:020000040000FA
:060000000DEF3AF01200C2
:0600180094EF0AF0120053
:06002A000A002975000028
:10003000870400000100000005750000DC020000DC
:1000400024000000017500007D0400000400000091
:10005000F7740000650400000A000000AC740000A2
:10006000510200004B000000DD5200007F0F000035
:10007000010000009C7400003F040000100000001C
:100080009A740000850400000200000096740000CD
:1000900079040000040000006C740000550F00009B
:0400A0002A00000032
:0C00A4000AEC0AF0A5EC08F0F3CFEEFF28
:1000B00011C0EDFF0AEC0AF0020E41EC0AF0020E4C
:1000C000F3CFEBFF030E5FEC09F0040E97EC08F0A2
:1000D000E6EC08F0040E37EC0AF00AEC0AF0080E21
:1000E00097EC08F0E6EC08F0080E37EC0AF00AECA2
:1000F0000AF00E0E41EC0AF00E0EF3CFEBFF0F0EDE
:100100005FEC09F0100E41EC0AF0100EF3CFEBFF9C
:10011000110E5FEC09F0120E41EC0AF0120EF3CF53
:10012000EBFF130E11C0EBFF12000D01006B060E6A
:10013000005D42E20051280DF3CF01FDF4CF02FD36
:10014000000E0127010E022308EC09F0EF500A0807
:1001500031E108EC09F0EF6A08EC09F00B0E9EC2E1
:10016000EBFF0C0E9FC2EBFF08EC09F00D0EEB6AE3
:100170000E0EEB6A08EC09F0EE524BEC0AF0ADEC17
:1001800009F074EC0AF0EF8074EC0AF0EF9608ECDA
:1001900009F055EC09F008E008EC09F002EC09F070
:1001A00008EC09F00FEC0AF074EC0AF0EF820D0194
:1001B00000511200002BBBD7FE0CC5EC08F055EC2B
:1001C00009F00BE0C5EC08F002EC09F0C5EC08F012
:1001D0000FEC0AF088EC0AF0EF82C5EC08F0EE5262
:1001E0004BEC0AF0ADEC09F0C5EC08F00D0EEB6A33
:1001F0000E0EEB6AC5EC08F064EC0AF0080B02E0A6
:1002000026EC13F088EC0AF0EF96C5EC08F03AEC17
:100210000AF088EC0AF0EF98C5EC08F064EC0AF0FC
:10022000010B04E0C5EC08F0EF6A04D0C5EC08F05F
:100230000A0EEF6EC5EC08F0B2EF09F06AEC09F0B7
:10024000FDE0FF0E0201B15D07E10F01010E436FFA
:100250004BEC12F00201B16FFF0EB15D01E1120033
:10026000140E43EC09F0A4C287FDA5C288FDA6C206
:1002700089FDA7C28AFDA8C28BFDA9C28CFDAAC2B6
:100280008DFDABC28EFDACC28FFDADC290FDAEC286
:1002900091FDAFC292FD0D01939193939395939726
:1002A000B0C294FDC5EC12F0F3CF95FDF4CF96FDEE
:1002B0000D01400EF35C020EF45805E3400E956FFD
:1002C000020E966F0DD0360ED8809555000E9655BD
:1002D00005E2360E955F000E965B02D0956B966B2D
:1002E000976B986B996B9A6B0201870E9C6F0D0E42
:1002F0009D6FD8DE140E0201B227000EB323B0A307
:1003000010D0040EB227000EB3230D01020E9B6F16
:10031000040E9C6F020E9D6F400E9E6F9399938BFF
:1003200003D00D019389939B938D939F51C29FFDA1
:1003300052C2A0FD53C2A1FD54C2A2FDA2C2E9FF58
:10034000A3C2EAFF4BEC0AF0EECFA3FDEECFA4FD73
:10035000EECFA5FDEFCFA6FDA76B060EA86FB2C22C
:10036000A9FDB3C2AAFDB2C2F4F1B3C2F5F1F3EC38
:100370002EF0F3CFA9FDF4CFAAFD0C0E0101FC6F06
:10038000FD6B01019F0EFA6F0D0EFB6F27EC2FF036
:10039000F3CF97FDF4CF98FD0D01971F981F97CDD0
:1003A00085FD98CD86FDB2C23BF4B3C23CF4040196
:1003B000060E3A6FA2C238F4A3C239F43DEC2AF01B
:1003C000140E0F01406F416B0F01870E3E6F0D0E33
:1003D0003F6FFFEC11F00201B0A30BD0040E0F0130
:1003E000406F416B0F019B0E3E6F0D0E3F6FFFEC98
:1003F00011F0140E43EC09F0B2C2FEF1B3C2FFF1EA
:100400009DEC2FF0F3CF85FDF4CF86FD240E43EC59
:1004100009F086CD3DFFF1EC11F085CD3DFFF1EC0B
:1004200011F00F01456B466BB1C244FF69EC12F04D
:1004300031EC14F06AEC09F0FDE031EF14F00D013D
:100440000A6B076B060E075D14E20751280DF3CF08
:1004500008FDF4CF09FD000E0827010E0923C0ECAA
:1004600008F0EF500A0803E1010E0A6F02D0072BD3
:10047000E9D70A5101E1FE0C0401852B000E862309
:10048000C0EC08F00B0E85C4EBFF0C0E86C4EBFF2E
:10049000880E855D130E865903E38569030E866F0A
:1004A000C0EC08F0C6EC09F0EF90C0EC08F00D0EBF
:1004B000B6C2EBFF0E0EB7C2EBFF3EEC0AF0B7EC94
:1004C00009F0C0EC08F01A0E97EC08F0ADEC09F05A
:1004D0000A0EE66EE66AB4C2E6FFB5C2E6FFC0ECFD
:1004E00008F0CAEC08F04FEC09F00201020EB06F00
:1004F000C0EC08F019EC0AF03EEC0AF02CEC09F024
:10050000C0EC08F01DEC0AF0C0EC08F021EC0AF099
:10051000C0EC08F025EC09F0C0EC08F0010EEF6E1D
:100520003EEC0AF0B7EC09F02FEC39F030EC0AF0B1
:10053000C0EC08F01F0E37EC0AF00D010751120055
:100540000201B851B6EC08F0EF50030801E0000CCE
:10055000010C0201B951280DF3CF00FCF4CF01FCCE
:10056000000E0C010027010E01231BEC09F0EF50D7
:1005700003080BE01BEC09F0EF50020806E000CC8A
:10058000A0F201CCA1F2DDEF00F0B9C2BEF2FDD8BD
:100590004FEC09F00201110EB06F1BEC09F019ECE1
:1005A0000AF01BEC09F06BEC0AF02CEC09F01BECE8
:1005B00009F01DEC0AF01BEC09F021EC0AF01BEC31
:1005C00009F025EC09F01BEC09F06BEC0AF0B7EC34
:1005D00009F01BEC09F0040EEF6E12000201BA5193
:1005E000280DF3CF00FCF4CF01FC000E0C01002716
:1005F000010E0123DCEC08F055EC09F001E1000CE0
:10060000DCEC08F064EC0AF0020B01E1000CDCEC1D
:1006100008F0100E97EC08F0EECFB2F2EDCFB3F287
:10062000DCEC08F00F0EEB500201B16F0201180E66
:10063000B06F19EC0AF0DCEC08F06BEC0AF02CEC73
:1006400009F0DCEC08F01DEC0AF0DCEC08F021EC21
:100650000AF0DCEC08F025EC09F0DCEC08F0100EF8
:1006600077EC0AF0126A136ADCEC08F06BEC0AF023
:100670001050EE261150EE221250EE221350EE22B0
:10068000DCEC08F0C6EC09F0EF92DCEC08F0C6EC0C
:1006900009F0EF98010C0201BB51B6EC08F0140E02
:1006A00051EC0AF001E1000CBB51B6EC08F00F0E62
:1006B00097EC08F0EF50FF0804E10F01426B25EFC3
:1006C00012F0BB51B6EC08F064EC0AF0020B01E04A
:1006D000010E12000201BC51280DF3CFBBFDF4CF77
:1006E000BCFD000E0D01BB27010EBC2320EC09F060
:1006F000140E51EC0AF001E1000C20EC09F055EC6D
:1007000009F01FE10F01436B4BEC12F0E66E20EC99
:1007100009F00F0E97EC08F0E552E750EF6E20EC71
:1007200009F055EC09F001E1000C20EC09F0B2EC05
:1007300009F0280E0F01456F466B20EC09F092EC92
:1007400009F020EC09F0C6EC09F0EF88BDC23DFFCE
:10075000F1EC11F020EC09F0140E97EC08F0EE0625
:10076000EF5A20EC09F0100E97EC08F0EE2AED227B
:10077000EECF10F0EDCF11F00A0E105C020E115802
:1007800003E3BCC2BAF22ADF010C0201BE51280DFC
:10079000F3CF02FCF4CF03FC000E0C010227010E84
:1007A000032302CCE9FF03CCEAFF64EC0AF0080B58
:1007B00001E1000C26EC13F002CCE9FF03CCEAFFC8
:1007C000C6EC09F0EF96010C0201BF51280DF3CFE2
:1007D00089FDF4CF8AFD000E0D018927010E8A23C1
:1007E0000C0E04013D6F3E6BB3EC2AF0B3EC11F03C
:1007F000E840E8403F0B3C0B0D01856F0F01486B53
:10080000496B9EEC12F0B3EC11F00F0B040DF3CF1B
:1008100086FD020E0F01486F496B9EEC12F0B3EC9F
:1008200011F00D01886FB3EC11F00D01876F865147
:1008300085250201136AC025126EC15113220D01D4
:100840001250875D106E13508859116E89CDE9FFE3
:100850008ACDEAFF120E10C0EBFF130E11C0EBFFA2
:1008600085510201C02504013D6F000E0201C12126
:1008700004013E6FB3EF2AF00201C251280DF3CFFD
:1008800000FDF4CF01FD000E0D010027010E012334
:100890007DEC0AF064EC0AF0080B20E07DEC0AF035
:1008A00064EC0AF0040B0BE00201C06BC16BC2C226
:1008B000BFF28ADF7DEC0AF0C6EC09F0EF947DEC24
:1008C0000AF0C6EC09F0EF88C5C23BFFC6C23CFF88
:1008D000C3C239FFC4C23AFFC4EF11F0F36AF46A2D
:1008E00012000201C751280DF3CF8BFDF4CF8CFD10
:1008F000000E0D018B27010E8C234AEC09F064ECED
:100900000AF0080B2EE04AEC09F064EC0AF0040B44
:100910000BE00201C06BC16BC7C2BFF255DF4AECEE
:1009200009F0C6EC09F0EF944AEC09F0120E51EC14
:100930000AF008E126EC13F04AEC09F0C6EC09F0E5
:10094000EF96000C4AEC09F0120E97EC08F0EE0658
:10095000EF5AB3EC11F0C8C2E9FFC9C2EAFFEF6E6B
:10096000010C000C0201CA51B6EC08F064EC0AF06C
:10097000080B01E0010E12000D010F6B006B060E5B
:10098000005D01E3FED00051280DF3CF09FDF4CF47
:100990000AFD000E0927010E0A2382EC0AF0080B5B
:1009A00001E0ECD082EC0AF0100B01E0E7D0C8DBEC
:1009B000EF500A0801E1E2D0C3DBEF50000905E186
:1009C00082EC0AF0010B01E0D9D02FEC39F006C01F
:1009D00005FD07C006FD08C007FD09C008FDB0DB26
:1009E0001F0E7AEC0AF00D01065C016FEE500758FD
:1009F000026FEE500858036FEE500958046FA0DBE9
:100A0000230E95DB0151EE5C0251EE580351EE5876
:100A10000451EE5801E3B2D06AEC09F001E1120092
:100A200059EC09F08DDB1F0E37EC0AF089DB230E41
:100A30007EDBD890EF36010EEB36020EEB36030E5E
:100A4000EB367EDB1E0E73DBEF2A7ADBEF50090AF2
:100A500052E0010A49E00F0A55E0020A53E0030A96
:100A600051E0020A3DE0070A1AE0010A05E0030A24
:100A70004FE10D01020E44D025EC0AF003E30D0115
:100A8000120E3ED082EC0AF0010B03E059DBEF6A54
:100A90003FD00D01020E0F6F53DB010E2AD025EC63
:100AA0000AF010E34DDB55EC09F009E00F01456B4E
:100AB000466B46DB92EC09F031EC14F029D00D01C5
:100AC000100E1ED03DDBF1DB05E03ADB9BDB38DBB3
:100AD0000FEC0AF00D01110E0F6F32DB040E09D07E
:100AE00025EC0AF00FE30AD00D01010E0F6F28DB91
:100AF000090EEF6E0DD025EC0AF004E30D01010E96
:100B00000F6F06D009CDA0F20ACDA1F2DDEC00F006
:100B10000D010F5133E00FA90CD012DB6BEC0AF082
:100B2000EECF0BFDEECF0CFDEECF0DFDEFCF0EFDAA
:100B30000FD006DB6BEC0AF0EFCF0BFDEE2AEFCF08
:100B40000CFDEE22EFCF0DFDEE22EFCF0EFDEF22DA
:100B5000A6DB0FCDB0F2F4DA19EC0AF00BCDA8F257
:100B60000CCDA9F20DCDAAF20ECDABF2E9DA1DEC57
:100B70000AF0E6DA21EC0AF0E3DA67DB0D01002B7C
:100B8000FED612000D01FE0E296F286B060E285DA1
:100B900046E22851B0DB15DBEF500A083DE011DBDF
:100BA0000B0E4EEC0AF0020EC2DAC2DB35E1135036
:100BB000111832E106DBEF50000902E128CD29FDD2
:100BC00000DB0D0E4EEC0AF0B3DB26E113501118DA
:100BD00023E1CDC2E9FFCEC2EAFF4BEC0AF0EECF33
:100BE00014F0EECF15F0EECF16F0EFCF17F0E9DAF4
:100BF000EE524BEC0AF0EE50000114180DE1EE50ED
:100C000015180AE1EE50161807E1EE50171804E126
:100C100003E10D01285112000D01282BB7D7FE0E5C
:100C2000295D01E1FE0C295166DB0A0EE66EE66ADB
:100C3000CDC2E6FFCEC2E6FFC4DAACDA12509CDBCE
:100C40001DDBBFDA7CDBBDDAA1DBEF96BADA2DDB88
:100C500004E0B7DAD7DAB5DAE2DBB3DA97DBEF82B2
:100C60000D01295112000201CF51280DF3CF36FD9D
:100C7000F4CF37FD000E0D013627010E3723386BF8
:100C80005ADA1E0E54DAEF6A14DB55DA1F0EEFDB68
:100C900052DAF0DB76DB040B0FE026EC13F08BEC82
:100CA0000AF0010B02E0000E01D0010EE66E43DAFD
:100CB000E552E750EF6E120097DB0E0E38DAEECFFA
:100CC00014F0EFCF15F0166A176A4BDA080E7AECBB
:100CD0000AF00D012A5D186EEE502B59196EEE5078
:100CE0002C591A6EEE502D591B6E1850145C106E54
:100CF00019501558116E1A501658126E1B5017586D
:100D0000136E19DA100E13DAEECF1CF0EFCF1DF0D0
:100D10001E6A1F6A1C50105C266F1D501158276FE9
:100D20001E501258286F1F501358296F800E291516
:100D300006E001DA140EEB6A150EEB6A07D0FBD958
:100D4000140E26CDEBFF150E27CDEBFFCADB0108F5
:100D50001EE117DB020B05E1BADB100B01E116D136
:100D60001CD017DBA1DB81DADCDB06E1E4D9020E63
:100D7000EF6E26EC13F029D0DED9030EEF6E100EC5
:100D8000386F51DB0201D451D51164E19FD0A9DB4A
:100D900000091FE19CDB020B03E10D01040E17D0DB
:100DA000F8DA41DB0A0EE66EE66AD0C2E6FFD1C28F
:100DB000E6FFC1D9EFD91250D4D960DABCD9BFDA75
:100DC000BAD9020EEF6E01DB50DA0D01120E386F48
:100DD000BBD06ADBEECF2EFDEECF2FFDEECF30FD88
:100DE000EFCF31FD92DBEECF32FDEECF33FDEECF14
:100DF00034FDEFCF35FDB5D9040E99D936DA0201AD
:100E0000D4510D0126270201D5510D012723000ED3
:100E100028232923E9DA040E6DDB2E1901E087D09F
:100E2000EE502F1901E083D0EE50301901E07FD051
:100E3000EE50311901E07BD001E079D052DB02089D
:100E40000BE16FDB43E0DBDA030EEF6E0201D451FE
:100E5000D5113CE02DDB78D0D2DAEF50030839E130
:100E600060DB0CE058DB020B09E165D91EDA06E015
:100E700062D9C8D960D9D3DA51DBEF8282DA010BAB
:100E800008E00D01110E386FA0DAAFD954D9090E60
:100E9000EF6E0201D451D51119E03DDB080B04E1DE
:100EA00007DB0D01388950D030DB32CDEEFF33CD7A
:100EB000EEFF34CDEEFF35CDEEFFF6DA2ECDEEFFB0
:100EC0002FCDEEFF30CDEEFF31CDEEFF26EC13F04F
:100ED0003BD007DB090804E1FADA100B35E020D03B
:100EE00000DB04080FE1F3DA010B06E0B3DA19DBEB
:100EF00017E121D9060E04D014DB26E01CD9050E1B
:100F0000EF6E22D0EEDA050805E1E1DA010B1CE014
:100F1000A1DA06D0E6DA060817E1D9DA100B14E0F8
:100F200036CDA0F237CDA1F2DDEC00F00DD026ECED
:100F300013F00D01100E386F2ECD26FD2FCD27FD9D
:100F400030CD28FD31CD29FD0D0138511FE0A7D945
:100F500038CDB0F226CDACF227CDADF228CDAEF231
:100F600029CDAFF22ACDA8F22BCDA9F22CCDAAF231
:100F70002DCDABF2F6D8B5D9F4D8020ED8D8B6D963
:100F8000D0C2A2F2D1C2A3F21EEC01F01200D6C26E
:100F9000E9FFD7C2EAFF7FDAEECF14FDEECF15FDF1
:100FA000EECF16FDEFCF17FDD8C2E9FFD9C2EAFF99
:100FB000EECF18FDEECF19FDEECF1AFDEFCF1BFDE2
:100FC0000D011C6B060E1D6FDAC21EFDDBC21FFD7C
:100FD000DAC2F4F1DBC2F5F1F3EC2EF0F3CF1EFD33
:100FE000F4CF1FFD0C0E0101FC6FFD6B0101140E0F
:100FF000FA6F0D0EFB6F27EC2FF0F3CF21FDF4CF2E
:1010000022FD0D01211F221FDAC2FEF1DBC2FFF11A
:101010009DEC2FF0F3CF23FDF4CF24FD0D01F45010
:10102000215D57E12351225D54E104013D6B3E6B8C
:10103000B3EC2AF0140E0F013B6F3C6B0F01000E56
:10104000396F0D0E3A6FC4EC11F00201000E9C6F67
:101050000D0E9D6F52EC00F058D9106E116A140EEF
:10106000105E000E115A10C025FD1050106E116A4E
:10107000E8500201DA5DDA6F1150DB59DB6F140EB4
:10108000DA5F000EDB5B41D904013D6F3E6BB3ECD0
:101090002AF0D6C2CDF2D7C2CEF20201000ECB6F3B
:1010A0000D0ECC6F6FDD0D01206FFE0E205D11E087
:1010B000DAC2D4F2DBC2D5F20201000ED26F0D0EFD
:1010C000D36FD6C2D0F2D7C2D1F220CDCFF2CBDDD2
:1010D000010C26EC13F0010C0D01006B060E005DF7
:1010E00025E20051280DF3CF01FDF4CF02FD000EE3
:1010F0000127010E022391D80A0EEF6EEFD9EF906F
:10110000EDD9EF82EBD9EF84E9D9EF98E7D9EF96E3
:1011100084D8CBD804E081D875D87FD880D97DD841
:10112000A9D97BD81FD90D01002BD8D71200E926E9
:10113000000EEA22120036CDE9FF37CDEAFF120099
:1011400009CDE9FF0ACDEAFF1200EECFF4F1EDCFB1
:10115000F5F1F3EC2EF0F3CF10F0F4CF11F00AEF2D
:101160000AF0D2C2E9FFD3C2EAFF1200280DF3CF82
:10117000E9FFF4CFEAFF000EE926010EEA22120091
:1011800008CDE9FF09CDEAFF1200A0C2E9FFA1C224
:10119000EAFF1200EE52E9CF10F0EACF11F0E9CFEA
:1011A000E6FFEACFE6FF50EC32F0126E060EE15E8B
:1011B000120006C0EEFF68D100CCE9FF01CCEAFFC7
:1011C000120026CDE9FF27CDEAFF1200EECFF6F19F
:1011D000EECFF7F1EECFF8F1EFCFF9F1F8EC2EF01A
:1011E00006C010F03DD90AEF0AF0EF2AEECF26FD37
:1011F000EF22EECF27FDEF22EECF28FDEF22EFCF3B
:1012000029FD12000F0EEB500F01476F8FEF12F008
:1012100001CDE9FF02CDEAFF120001CDE9FF02CDC9
:10122000EAFF1200EECFACF2EECFADF2EECFAEF2AF
:10123000EFCFAFF2120000CCE9FF01CCEAFF1200C1
:10124000BBCDE9FFBCCDEAFF1200EE52E9CFA2F21E
:10125000EACFA3F21EEF01F0EECFA8F2EECFA9F293
:10126000EECFAAF2EFCFABF21200EECF26FDEECF1B
:1012700027FDEECF28FDEFCF29FD1200EECF10F0B5
:10128000EFCF11F012000F01456F466BB1C244FF62
:1012900069EF12F08BCDE9FF8CCDEAFF120002015D
:1012A000B26BB36B0201B16912000F0EEB50FF0875
:1012B00012002FEC39F006C010F030EF0AF011C028
:1012C000EBFF0AEF0AF02C0EEE6E010EEE6EEE6AE8
:1012D000EE6A12000F01010E426F25EC12F00009B8
:1012E0001200EECFA6F2EDCFA7F21200EECFA4F2DD
:1012F000EDCFA5F21200280DF3CF26FDF4CF27FD88
:10130000000E2627010E272312000D010C51F00BB1
:10131000E842E842E842E842040DF350120010C0EF
:10132000EEFFB2D00F0EEB500F01446F69EF12F0D9
:10133000EECF12F0EFCF13F01250101812000D0E76
:1013400010C0EBFF0E0E11C0EBFF1200140E10C008
:10135000EBFF150E11C0EBFF1200EE6AEE6AEE6AAB
:10136000EE6A1200100EEB6A110EEB6A1200EE2A02
:10137000EE22EE22EE221200CBC2E9FFCCC2EAFF3F
:101380001200EFDE0D0ED3DEEF501200270E97EFA6
:1013900008F0D4C214F0D5C215F0166A176AE1DE5F
:1013A000040EA8D81424106EEE501520116EEE50C5
:1013B0001620126EEE501720136E102A000E112206
:1013C0001222132271D88FEF09F09FD8EFCF2AFD98
:1013D000EE2AEFCF2BFDEE22EFCF2CFDEE22EFCF4A
:1013E0002DFDEF2254EF0AF090D8EECF2AFDEECF7C
:1013F0002BFDEECF2CFDEFCF2DFDB1EF08F054D833
:1014000026CDEEFF27CDEEFF28CDEEFF29CDEEFF56
:101410009BEF08F09CC2E9FF9DC2EAFF12000F0E8D
:1014200086DEEF6812009DDE0E0E61D884DEA6EF28
:1014300009F01A0E7CDE12EF09F00D0E78DE71EF66
:1014400009F00B0E74DE76EF09F07ADE1E0EEB501B
:10145000030812000D01100E386F26D8F5EF08F0C2
:1014600007C011F008C012F009C013F012005FDECF
:10147000D9EF08F0230E5BDE63EF09F081DE6BEF3E
:101480000AF055DEA5EF08F011C0EEFF12C0EEFF26
:1014900013C0EEFF1200060E97EF08F028D8BCEF3D
:1014A00009F028D8ED10120046DE1A0E97EF08F06A
:1014B00035D8EF8640DE120ED4C2EBFF130ED5C234
:1014C000EBFF2CD8EF84120061DFEF50120026EC06
:1014D00013F0C1EF09F0160E97EF08F09EDEC6EF8D
:1014E00009F029DEEF50120093DEC6EF09F01FDE8F
:1014F0003EEF09F01CDEEE50120000CDE9FF01CDF9
:10150000EAFF12001DDE64EF0AF015DE6BEF0AF051
:101510003CDEC6EF09F00FDE64EF0AF00CDEC6EF2A
:0815200009F02FDF100B12008F
:08152800D8CFE4FFE0CFE4FF9F
:10153000E46EDACFE4FFE2CFDAFFE9CFE4FFEACFEF
:10154000E4FFF6CFE4FFF7CFE4FFF5CFE4FFF3CFFE
:10155000E4FFF4CFE4FFFACFE4FF00EE00F0100E5A
:10156000E80403E3EECFE4FFFBD700EE10F0100E2B
:10157000E80403E3EECFE4FFFBD7E65238EC39F0A2
:10158000E55200EE1FF0100EE80403E3E5CFEDFF97
:10159000FBD700EE0FF0100EE80403E3E5CFEDFFFC
:1015A000FBD7E5CFFAFFE5CFF4FFE5CFF3FFE5CFBB
:1015B000F5FFE5CFF7FFE5CFF6FFE5CFEAFFE5CF93
:1015C000E9FFE5CFDAFFE550E5CFE0FFE5CFD8FF53
:1015D00010000D01016B08C302FD09C303FD08C320
:1015E000E9FF09C3EAFFEFCF00FDEF5023E02E0E25
:1015F0000D01005D13E1030108C3E9FF09C3EAFF20
:10160000082B000E0923EF6A3EEC10F0012B9EEC34
:1016100010F008C302FD09C303FD07D0300E005DC2
:1016200003E30051390801E2000C0301082B000E0E
:101630000923D5D73EEC10F09EEC10F0030E0D01FF
:10164000015D01E0000C010CF6EC10F0FAEC0FF07B
:10165000010EE926000EEA22FAEC0FF0020EE9264E
:10166000000EEA22FAEC0FF0030EE926000EEA2241
:10167000EF50E66EE66AEBEF10F00301956B07ECB6
:101680002DF00301010E956F07EC2DF0340E106E56
:10169000510ED7EC10F0300E106E510EFFEC10F022
:1016A0006F0EE66E030E60EC10F07F0EE66E030E1A
:1016B0006AEF10F0F2EC2CF00A0E0201835D32E2C8
:1016C00003017C0E0E6F030EA8EC10F0AEEC16F0CA
:1016D00006C000FD07C001FD08C002FD09C003FDF2
:1016E0004FEC10F0040E086F0D0E096F96EC17F01A
:1016F000E9EC2FF0000906E1210E106E510ED7EC37
:1017000010F014D00401070E166F04016C0E146F54
:10171000030E156F0401040E126F0D0E136F8AEC89
:1017200018F004D01E0E835D04E2A7DF0201832BB4
:1017300001D0836BCEEF2CF00C01006B0F0E92ECFE
:1017400010F0EF6A10C3E6FF11C3E6FF2DEC33F093
:10175000E552E5520F0E0C01005D13E2005192ECD0
:1017600010F0EF500BE10F0E0C01005D0AE200518A
:10177000002B92EC10F0200EEF6EF5D70C01002B31
:10178000E9D712000D01510E016F020E026F030125
:10179000E16BE26B0301E06B70EC37F00301550E77
:1017A000E36FB7EC37F00D01006B0051BDEC10F0AA
:1017B0000EE201CDE9FF02CDEAFF012B000E02236C
:1017C000EFCFE3F3B7EC37F00D01002BEED7C3EF0B
:1017D00037F00D01866B006BCDEC33F0F3CF84FD59
:1017E000F4CF85FD7CEC10F02FEC39F006C08BFDBA
:1017F00007C08CFD08C08DFD09C08EFD870EE96E07
:101800000D0EEA6EEE500D01065C106EEE5007589C
:10181000116EEE500858126EEE5087EC10F00CE38B
:101820007CEC10F013EC38F00009FCE10401150E1B
:10183000526F2AEC38F08A761FEC38F00009D4E0B9
:101840000D01865101E07FD01FEC38F00009F8E06F
:101850008A7628EC38F00D01016F0051030A2DE063
:10186000010A28E0030A21E0010502E1010E23D06C
:10187000040E015D10E18A86B6EC33F013EC38F00B
:101880000009FCE10401060E526F2AEC38F00D014C
:10189000010E866FD5D713EC38F00009FCE1040186
:1018A000150E526F2AEC38F0CBD7060E036F026B81
:1018B000020E01D0030E006FC3D70251022BEA6A59
:1018C000040FE96E0D0EEA2201CDEFFF0251106EFA
:1018D000116A1134B5E210508008000E1154B0E2C4
:1018E00084CDFEF085CDFFF025EC34F00D01060E21
:1018F000036F016B0151106E116AD890115004E60C
:10190000800E105C000E11580DE20151EA6A040FBE
:10191000E96E0D0EEA22EFCFF9F0D3EC33F00D01B2
:10192000012BE8D7ECEC33F0F3CF84FDF4CF85FD49
:1019300013EC38F00009FCE103CD52F42AEC38F046
:101940000D01006B7DD7010C1FEC38F0000964E13C
:1019500080B861D02FEC39F006C001FD07C002FD50
:1019600008C003FD09C004FD80B855D02FEC39F044
:101970000D010151065C106E0D0102510758116EE8
:101980000D0103510858126E0D0104510958136ED0
:10199000D880900E1054010E1154000E1254000EF7
:1019A000135438E20301E16BE26B0301E06B70EC6E
:1019B00037F00301E36BB7EC37F0C3EC37F0040109
:1019C000DA0E586F4F0E596F04015A6B5CEC38F009
:1019D0008A828A848A862FEC39F00D010151065CD7
:1019E000106E0D0102510758116E0D010351085878
:1019F000126E0D0104510958136ED880200E105438
:101A0000030E1154000E1254000E135401E3E3D7D9
:101A1000FF0001D0A9D798D728EC38F00D01006F4E
:101A2000300E0D01005D08E33A0E0D01005D04E289
:101A30000D01005103D002D03A0E00D0120090DB0D
:101A4000300E0301125DE96EEA6AD890E936EA3693
:101A5000840EE926020EEA22EECF58F4EFCF59F4B5
:101A600004015A6B5CEC38F003011251300A01E1B9
:101A7000A0D0090A01E19BD0010A01E195D00F0A2B
:101A800001E18FD0010A52E0030A4BE0010A44E071
:101A9000070A3DE0010A21E0030A01E0120082DBAF
:101AA00068C2E6FF69C2E6FF96DB04018F0E566F3F
:101AB0000D0EDADA140E18DB000901E17BD072DBBF
:101AC000F7EC25F0E552E552F3CF68F2F4CF69F276
:101AD000F4CF59F2F3CF5AF212000401720E566F8E
:101AE000020EC2DA100E00DB0D018F5163E0100E02
:101AF000E66EE66A57DB720EE66E020EE66E50EC9C
:101B000032F0106E060EE15E1050B6EF10F00D01CF
:101B1000510EBB6F020E0ED00D015F0EBB6F020E99
:101B200009D00D015B0EBB6F020E04D00D01630ED8
:101B3000BB6F020EBC6F0301A30E0E6F0D0E0F6F75
:101B4000BBCD0CF3BCCD0DF37FDD0401A30E566FAE
:101B50000D0E8ADA140EC8DA0301B70E0A6F0D0EE5
:101B60000B6F03018F0E086F0D0E096F32DD000938
:101B70000BE10401430E586F6A0E34DB1FEC38F0A2
:101B80000009FCE028EF38F0BBCDE9FFBCCDEAFF4F
:101B9000B7CDEEFFB8CDEEFFB9CDEEFFBACDEEFF7B
:101BA0001200020167811200020167911200E9EF41
:101BB0000BF0E8DD12000401EC0E586F680E12DB2A
:101BC000C3DE0C01036F3A0E035D03E003CC12F396
:101BD00036DF300E0C01035DEEE1120013C3E9FFA6
:101BE00014C3EAFFD1DA0C01006FE85012E1020ED3
:101BF0000301EA6A1325E96E1451EA22C5DA0C01E1
:101C0000016FE850010A04E0010A03E18A7401D07F
:101C10008A760A0EE66EE66A890E106E6A0E0FDA92
:101C200013C3E9FF14C3EAFFEECFE6FFEFCFE6FFF1
:101C3000CBEF10F003011651220A01E18ED0010A08
:101C400001E18BD0020A01E17CD0010A6EE0370A83
:101C500060E0010A52E0190A44E0010A3DE0030A8B
:101C600037E0090A31E0110A2BE0010A25E0070AF2
:101C70001FE0010A19E0030A13E0010A0DE0110A4E
:101C800007E0010A01E0ADD08A50020B2DE127D018
:101C90008A50040B24E028D08A50080B20E024D07E
:101CA0008A50080B1CE020D08A50080B18E01CD08A
:101CB0008A50080B14E018D08A50080B10E014D09A
:101CC0008A50080B0CE010D08050100B08E00CD0AC
:101CD0008150010B04E008D08150010B05E1300E6A
:101CE00006D08150010B02E0310E01D0300E19C335
:101CF000E9FF1AC3EAFFEF6E74D01751181104E11F
:101D0000CF0E106E4F0E59DA91D96BE0A8D964E16D
:101D100068D01751181104E1BA0E106E4F0E4DDA4B
:101D200085D95FE09CD958E15CD01751181104E1C6
:101D30001B0EE66E030EC4D979D953E090D94CE15D
:101D400050D01751181104E11B0EE66E030EC2D9D4
:101D50006DD947E084D940E144D01751181138E1DA
:101D6000E9EC2FF000090DE1220E0301165D04E1FC
:101D7000B10E106E4F0E03D0AB0E106E4F0E1DDA6B
:101D800027D0AEEC16F006C093FD07C094FD08C046
:101D900095FD09C096FD83D9970E086F0D0E096F4A
:101DA00096EC17F0220E0301165D03E10401030E09
:101DB00002D00401060E166F04011B0E146F030EF1
:101DC000156F0401970E126F0D0E136F8AEC18F049
:101DD0002DD907E044D905E017C3F3FF18C3F4FF7A
:101DE0001200F368F4681200896A110E926E300EC8
:101DF0008A6E010E936EC00E8B6E900E946E8C6A7E
:101E0000956A8D6A966A200EAC6E900EAB6EAC84AD
:101E1000800EAF6EC26A0F0EC16EF19ED08EF28E32
:101E2000F28C200EC66E400EC76E12000201679142
:101E30000D01510E046F020E056F0301D86BD96BB3
:101E40000301D76B21EC37F02BEC37F00D01036F5A
:101E50004AEC37F0550E0D01035D1FE1010E030141
:101E6000D86FD96B0301D76B21EC37F00D01036BF1
:101E7000035183D910E22BEC37F0E66E0D0104CD4F
:101E8000E9FF05CDEAFF042B000E0523E552E750DC
:101E9000EF6E032BEDD74AEF37F0C2EF0BF00D01D9
:101EA000BD6BA2DF3DEC2DF0320E0401836F846B1D
:101EB000DDEC39F00301A80E976F680E986F0301EF
:101EC000010E37D9B00E976F680E986F0301020E9E
:101ED00030D9B80E976F680E986F0301030E29D999
:101EE000C00E976F680E986F0301040E22D9C80EBA
:101EF000976F680E986F0301050E1BD9D00E976F70
:101F0000680E986F0301060E966F1CEC2DF09A0E6A
:101F1000106E4F0E4CD98E0E106E4F0E70D9CEEC47
:101F20002CF0FA0E0401836F846BDDEC39F00401B0
:101F3000800E006F0B0E016F2B0E026F0D0E036FE4
:101F4000A5EC16F021EC39F042EC33F0100EE66E01
:101F5000E66A860E106E4F0E72D8720EE66E020E94
:101F6000E66E19D903D962DF80A825DE54EC35F07E
:101F700094EC1DF0D5EC23F02FEC39F002019851D0
:101F8000065C106E99510758116E9A510858126EDE
:101F90009B51BDD80DE32FEC39F006C098F207C075
:101FA00099F208C09AF209C09BF28A725AEC0BF0BF
:101FB0005EEC35F088EC1DF006EC23F0F5EC2DF02E
:101FC000FF0E0201825DD8E082690401D80E586FCD
:101FD000680E08D90301CC0E0E6F0D0EB9D804019E
:101FE000CC0E566F0D0E576F47EC38F0B9D880EC19
:101FF0002DF0C2D7EF50E66EE66AEDD80EC3E6FFCD
:102000000FC3E6FFF1EC32F0E552E552F350030165
:102010000E27F4500F230EC3E9FF0FC3EAFF0E2B68
:10202000000E0F232E0EEF6EF6EF10F00301CBD84B
:1020300019C3E9FF1AC3EAFFEF6EE3EF10F0116E68
:10204000126A10C0E6FFE66E12C0E6FF1200E66EEE
:10205000D8EC32F0136E050EE15E13501200172B10
:10206000000E1823E3EF10F0576F47EC38F004012F
:10207000D60E586F4F0EB6D80401120002CDE6FFFF
:1020800003CDE6FFF7EC25F0E552E552F350E66E9E
:102090000AC310F00BC311F00D010151120004012D
:1020A000B00E0E6FB90E0F6F1069116906C00AF4F9
:1020B00007C00BF408C00CF409C00DF404011200B1
:1020C000E66E6BC4E6FF6CC4E6FF6DC4E6FF6EC44B
:1020D000E6FF9BD0E66E67C4E6FF68C4E6FF69C40E
:1020E000E6FF6AC4E6FF91D0516F04018F0E4F6F77
:1020F0000D0E506FECEF37F02FEC39F006C087FD76
:1021000007C088FD08C089FD09C08AFD1200095872
:10211000136E320E105C000E1158000E1258000E95
:10212000135812000301EA6A1025E96E1151EA22E0
:102130001200966F1CEC2DF0030112000F01102409
:10214000E96E000E1120EA6EE552E750EF6E1200C4
:102150000F6F0301510E0C6F020E0D6F24EF0BF089
:102160000401E90E586F680EF2EF10F00301720ED1
:10217000106F020E116F9CEF0BF0106E116A310E92
:10218000105C000E11581200EE50EFCFEAFFE96E1E
:10219000EF50D00F12007BEC32F0136E070EE15EB1
:1021A000135012008F0EE66E0D0EE66E120047DF22
:1021B0006C0EE66E030E27EF10F041DF1B0EE66E8D
:1021C000030E27EF10F01751EA6A1B0FE96E030E9A
:1021D000EA22EF5012006CEC26F0E552E552E5528F
:1021E000E5521200596F5A6B5CEF38F00EC3E6FFF0
:1021F0000FC3E6FF0CC3E9FF0DC3EAFF12001FDFA8
:102200007C0EE66E030E27EF10F006EC27F0106E42
:08221000060EE15E1050120001
:082218008A989E962BCFC9FFA6
:102220009EA6FED79E96C96A9EA6FED79E96C96AAE
:102230009EA6FED7C9CF02FC9E968A880C01025149
:1022400012008A989E962CCFC9FF9EA6FED79E9616
:10225000C96A9EA6FED7C9CF02FC9E968A880C0149
:10226000025112008A989E96400E0F012D11C96EE0
:102270009EA6FED79E962ECFC9FF9EA6FED79E96FF
:102280008A8812008A989E96800E0F012F11C96EBF
:102290009EA6FED79E9630CFC9FF9EA6FED79E96DD
:1022A0008A8812008A989E96A00E0F013111C96E7D
:1022B0009EA6FED79E9632CFC9FF9EA6FED79E96BB
:1022C0008A8812000F01030EEFEC15F034CF30FFB7
:1022D00085EF16F01CEC16F035CF2EFF0F01140E13
:1022E0006BEC16F0010E2E6F0F01120E8AEC16F039
:1022F0000F010A0E32EC16F0000110B0F9D71CECF9
:1023000016F00F012E6B0F01120EE7EC15F00F0106
:10231000180E32EC16F0E8CF00FC0F01190E32EC6B
:1023200016F0E8CF01FC00CCF3FFF46E12001CECB9
:1023300016F036CF2EFF0F01140EE7EC15F037CF55
:102340002EFF0F01160EE7EC15F038CF2EFF0F0110
:10235000170E8AEC16F00F010A0E32EC16F000018F
:1023600010B0F9D712008A989E963A0EC96E9EA6B2
:10237000FED79E96C96A9EA6FED7C9CF02FC9E963E
:102380008A880C01025112008A989E963A0EC96EF4
:102390000D01EA6BEB6B0F013907000E3A5B9EA64D
:1023A000FED79E960F013B510D01EA5D0F013C5196
:1023B0000D01EB5910E2C96AEA2B000EEB230F0165
:1023C000392B3A239EA6FED7C95039CFE9FF3ACF21
:1023D000EAFFEF6EE6D78A88EACDF3FFEBCDF4FF94
:1023E00012008A989E967A0EC96E9EA6FED79E9679
:1023F0003DCFC9FF9EA6FED79E968A8812008A9876
:102400009E967A0EC96E9EA6FED7C9CF02FC9E96F6
:102410000F01405141110EE03ECFE9FF3FCFEAFFEF
:10242000EF50C96E3E2B000E3F234007415B9EA636
:10243000FED7EBD78A8812000F01010E356F4ADFF5
:10244000F350040B01E0010E12000F01425105E0B0
:1024500037EC16F0080A1EE0010C2451235D0AE156
:102460000F011F0E2C6FEDDE0001E850080B080A6B
:1024700011E0010C0C01010E036F070E035D09E270
:10248000035154EC16F0EF50010B01E0010C032B4B
:10249000F4D7000E12000F01435104E0E8DB01E124
:1024A000000CFF0C0C01010E036F070E035D10E220
:1024B000035154EC16F0EF50010B08E00351F4DB2C
:1024C000EF900351F1DBEF9203511200032BEDD794
:1024D000FF0C44CF23FF0F0144516FDBEECF10F010
:1024E000EFCF11F0010E1026000E11220E0E102655
:1024F000000E11221050452711504623020E77DBA3
:1025000045CF2EFF88DB46CF2EFF99EC16F045CF46
:102510002EFF9DEC16F046CF2EFFA1EF16F00F0117
:102520004751106E116A070E105C000E115805E23B
:102530004751BADBEF8047CF23FF1200140E0F0183
:10254000116A2725106E28511122105048250C01C0
:10255000006F11500F0149210C01016F00CC10F0E8
:10256000116E6FDB04E2080E005F100E015B75DB7D
:1025700000CC2EFF50DB01CC2EFFDBDB00CC2EFF8E
:10258000DCDB01CC2EFFA1EF16F079DB0F01190E79
:1025900021DBE8CFABFD0E0E2ADB0F010E0E1ADB9E
:1025A000E8CFADFD0F010F0E15DBE8CFAEFD67DB09
:1025B0000F01190E0FDB0D01AB510001105CE6E1BC
:1025C0000C0E15DB0F010C0E05DBE8CFABFD0F0188
:1025D0000D0E00DBE8CFACFD0D01AD51AB5DAE5192
:1025E000AC591BE2070E146E100E156E166A176AB0
:1025F000AB51AD5D186EAE51AC55196E1A6A1B6ABF
:102600001850145C106E19501558116E1A50165847
:10261000126E1B501758136E14D0AB51AD1908E150
:10262000AC51AE1905E1070EF36E100EF46E1200F8
:10263000AD51AB5D106EAC51AE55116E1006000E73
:10264000115A10C0F3FF11C0F4FF12000F012951FD
:1026500001E01200010E296F25CF04FC26CF05FCF6
:102660000C01045F000E055B04CC10F005CC11F0EA
:10267000E8DA04E2070E046F100E056F0F01400E3A
:1026800003DB0C0EB4DA04CC2EFF0F010C0E9FDA24
:1026900005CC2EFF0F010D0EE7EF15F00F01190EFF
:1026A000336F010E346F0EDE0F01190E2C6FC9DD72
:1026B000106E0001105002E1000E90D00F01295160
:1026C00003E1C4DF000E8AD025CF27FF26CF28FFE5
:1026D0000F01336B346BF6DD25CF2EFF0F012D6B11
:1026E000C1DD26CF2EFF0F01010E2D6FBBDD140EB5
:1026F0000F013B6F3C6B0F01000E396F0D0E3A6FEF
:1027000043DE12CDF4F113CDF5F1F3EC2EF0F3CF5F
:1027100012FDF4CF13FD00CD10F001CD11F0126ABF
:10272000136AD880070E1054100E1154000E125464
:10273000000E13541BE30D010D010051010B16E1B6
:102740000D010D010551800B11E10D010D01045129
:10275000100B0CE10D01EE0ED8800255050E03554D
:1027600005E30D010D010451800B01E1FF0000CDD7
:1027700025FF01CD26FF060EE66EE66A0C0EE66E1C
:102780000D0EE66E4ACFE9FF4BCFEAFFE9CF10F01E
:10279000EACF11F010C0E6FF11C0E6FF50EC32F0B6
:1027A000126E060EE15E12504CCFE9FF4DCFEAFFEC
:1027B000EF68080E0D01135D0DE10D01125104E0EB
:1027C000060E0D01125D06E14CCFE9FF4DCFEAFF89
:1027D00012CDEFFF0F01296B010E00D01200020E87
:1027E00081DA020E5CDA010E07DA030E58DAEECF58
:1027F00010F0EFCF11F00E0E1026000E1122105027
:102800005127115052232351D8D9020EE926000E28
:10281000EA2251CFEEFF52CFEDFF0F013D6BE1DD1C
:10282000060E0F01406F416B4ECF3EFF4FCF3FFF73
:10283000E6DD060E0F01406F416B0F01550E3E6F36
:10284000020E3F6FDCDD0F01080E3D6FCADD0F0188
:10285000505102E1000E01D0060E0F013D6FF1EF65
:1028600011F0040E3FDA040E1ADA010EC5D9050E76
:1028700016DA020EC1D9060E12DA020EE926000E91
:10288000EA22010EB9D9070EA2D923CF24FF0F01E6
:1028900023510ADAEF8222DA000110B22BDA07DACA
:1028A000050E0F012A5D4AE119DA0A0E0001101423
:1028B000FBE014DA000110A241D00F01080E8FD9FD
:1028C000CCD90F012C6BBDDC106EE8CFABFD0F0136
:1028D000010E80D9E8CFACFD0F01060E7BD9E8CF01
:1028E000ADFD0F01070E76D9E8CFAEFD0D01AD2B82
:1028F000000EAE23E8D9B66B100EB65D16E2EED927
:102900000001E850020B11E00D01B251200B0DE067
:10291000F1D9CDD9E3D90A0E00011014FBE00F0163
:10292000080E5DD9D0D9B62BE7D7ABCD2EFF73D922
:10293000ACCD2EFF0F01010E2D6F94DC12000F01A4
:10294000200E326F0F011E0E316FACDCE8D9000192
:1029500010A0FCD7D6D10F01040E41D9E0D9000157
:1029600010B4FCD70F011F0E35D9000110B6FAD7ED
:102970000F01200E44EF16F00F010C0E30D90F019D
:10298000356BA8DCF3CF01FDF4CF02FD020E0F0181
:10299000535D06E10D010251010B0F01536F0CD085
:1029A00053510D010291E8B0028101CD37FF02CDF4
:1029B00038FF0F01366BBBDC0F01020E336F346F33
:1029C00081DC0F01020E2B6F27DC0D01006F0F0160
:1029D00053510D010091E8B0008100CD2EFFADD91B
:1029E0000F01535102E0150E01D0120E0F012E6F90
:1029F0000F01040EECD885D10F01150E04D954CF68
:102A00002EFF0F01150EE3D82DEF16F00F01150E56
:102A1000FAD80F01150EDED8E8CF00FC1ED90C0144
:102A2000005112008A989E96C9689EA6FED79E966F
:102A30008A8812009E9673D9E8CF03FC080E0C0119
:102A40000315F9E1031D010BF6E1ECDF010E0401B2
:102A5000836F846BDDEC39F00C01036B070E035DB3
:102A600025E20351106E116A480E1102F3CF11F0E6
:102A7000020E1002F3501126480E1002F3CF10F090
:102A8000F4501126126A136A080E1026100E112235
:102A9000000E12221322035190D810C0EEFF11C075
:102AA000EDFF035101D9EF80032BD8D70F01236B22
:102AB000010E296F256B266B0F012E6B0F01080E7F
:102AC0000AD92E6B0F01090E06D9070E2E6F0F01C2
:102AD0000C0E29D90D0EFFD8070E2E6F0F010A0E0E
:102AE00022D90B0EF8D8080E2E6F0F01040E1BD939
:102AF000050E6DD80F01336B020E346F62EC11F0CE
:102B00000F010D0E2E6F87D80F01320E2E6F0F01A1
:102B1000020EE1D8400E2E6F0F01030EDCD83F0EDF
:102B20002E6F0F01090ED7D8120E2E6F0F01060E51
:102B3000D2D80C0E2E6F0F01070ECDD8EE0E2E6FD1
:102B40000F010A0EC8D8050E2E6F0F010B0E3FD8CD
:102B50000F01040E58D855C22EFF0F01040E37D8AE
:102B600056C22EFF0F01050E32D857C22EFFE5D8F0
:102B700058C22EFFE6D859C22EFF4DD85AC22EFF9A
:102B8000D8D80F01120E26D8E8CF2AFF0F01376BD5
:102B9000010E386F0F01100E366F97EC11F00F0118
:102BA000720E376F040E386F0F01140E366F97ECEC
:102BB00011F00F01536BE0DEA4D0050DF3CFE9FF58
:102BC000F4CFEAFF000EE9260F0EEA2212002D6F65
:102BD00032EF11F02C6F21EC11F0106E1200326FF9
:102BE0000F011F0E316F52EF11F0306F8ED00F01B9
:102BF000336F346B62EF11F0E926000EEA22EFCF5B
:102C00002EFF0F011200336F030E90D0040EE92641
:102C1000000EEA2212000F012D6B32EF11F0070EA9
:102C20000F013B6F3C6B0F01AF0E396F0D0E3A6F0A
:102C3000C4EC11F00D0112000F01140E336F020EDF
:102C400075D0126A136AD880070E1054100E1154F2
:102C5000000E1254000E135412000F01336B346B2C
:102C600062EF11F02B6F0CEC11F0106E12000F01DF
:102C70001F0E2C6F21EC11F0E850080B12000F0111
:102C8000190E336F010E52D0306F0F011E0E2F6FD1
:102C900042EF11F00F01100E2E6F0F01120097DF9F
:102CA0000F012351DDEF15F088DF06EF16F00F015D
:102CB0000A0E326F0F011C0E316F52EC11F00F0132
:102CC000080EF5EF15F0ADCD2EFFA5DFAECD2EFF32
:102CD00030D80FEF16F07BDF0F0112000F011C0E32
:102CE000EAEF15F084DF0F01235167DFEFCF2EFFEE
:102CF0000F0112000F01800E78DF0F01800EEFEF41
:102D000015F00F01040EF5EF15F00F011F0E2F6FD8
:102D100042EF11F05CDF0F010A0E03EF16F00F0116
:102D20001D0EEAEF15F053DF4AEF16F0346F62EF35
:102D300011F00F01010EE7EF15F00F01020EE7EFA2
:0A2D400015F00F01030EE7EF15F088
:062D4A0000C47BFF01C480
:102D50007CFF02C47DFF03C47EFF12007BCF06F020
:102D60007CCF07F07DCF08F07ECF09F0120004C4BD
:102D700010F005C411F0040E0D6E0E6A50DB04C095
:102D800010F005C011F0045005101FE104C412F04A
:102D900005C413F0640E0D6E0E6A41DB04C012F020
:102DA00005C013F00450051012E104C414F005C46A
:102DB00015F0900E0D6E010E0E6E31DB04C014F096
:102DC00005C015F00450051002E0000E01D0010E00
:102DD0000C01006FE850106E116AF36E11C0F4FF21
:102DE00012000D01006B016B026B036BD00E046FC0
:102DF000070E056F2EDBEECF10F0EFCF11F005516F
:102E00001118E8AE02D0113404D01050045D1150F6
:102E1000055920E204CD04F405CD05F4A8DF30DB2C
:102E200002E06E0E01D06D0E106E010E116E126A70
:102E3000136A11AE02D01268136810500D010027FA
:102E4000115001231250022313500323042B000EB0
:102E50000523D0D7046B056B55DB040EEB5005AF93
:102E600002D0D89003D0045D000E05592CE2F1DAAF
:102E7000EECF04F4EDCF05F47ADFF3CF11F0F4CF09
:102E800012F00C0E1202F3CF12F01102F3CF11F078
:102E9000F45012267E0E1126730E122211500D01CF
:102EA0000425F66E12500521F76E0800F5CF10F0DC
:102EB000000110500D010027000E012302230323FF
:102EC000042B0523C9D71EDB030EEB5064DA036F16
:102ED0000007000E015B025B035B19DBD8DA03CD50
:102EE00009F063EC39F002C000FD03C001FD04C02D
:102EF00002FD05C003FD06DB020EEB50066E076AFD
:102F0000086A096A100E0B6E0E0E0C6E1BDA010EAB
:102F1000EB50066E076A086A096A3C0E0B6E0C6A73
:102F200011DAEF5038DAB3DA096E120004010E51EB
:102F30000A270F510B2310510C2311510D230AC4E2
:102F400085FD0BC486FD0CC487FD0DC488FD37DAF2
:102F500006C085FD07C086FD08C087FD09C088FD45
:102F60000AC489FD0BC48AFD0CC48BFD0DC48CFD05
:102F700026DA30DADBDA9EEC38F00650E66E3BDA21
:102F8000020E8CDAD3DA6BDA9EEC38F023DA3C0EE0
:102F90004CDA0650E66E2FDAEE52E552E750EF6E4D
:102FA0005EDA3C0ECADAE552E750EF6E85CD06F0E8
:102FB00086CD07F087CD08F088CD09F0060E0626ED
:102FC000000E072208220922070EB7DA070E66DA7A
:102FD0000D01D00E8D6F070E8E6F2DDAF3CF10F02E
:102FE000F4CF11F0F350F41003E00D016E0E02D097
:102FF0000D016D0E896F010E8A6F8B6B8C6B8AAF22
:1030000002D08B698C69850EE96E0D0EEA6E030E97
:10301000EB508C19E8AE02D08C3508D08951EE5CAB
:103020008A51EE588B51EE588C51EE580CE38D2B93
:10303000000E8E238951855F8A51865B8B51875B99
:103040008C51885BCAD7800E88151CE08D07000E56
:103050008E5BF1D915DA02E06E0E01D06D0E106EA6
:10306000010E116E126A136A11AE02D01268136853
:1030700010500D01852711508623125087231350BD
:103080008823E1D7B8D9050E8DCDEBFF060E8ECD86
:10309000EBFFB1D9080E85CDEBFF090E86CDEBFF16
:1030A000CAD9F3CF8DFDF4CF8EFD0D018F6B906BE0
:1030B0002BD988511318E8AE02D0133408D0105021
:1030C000855D1150865912508759135088590CE369
:1030D0001BD91050855F1150865B1250875B1350CF
:1030E000885B8F2B9023E4D786D9040E8FCDEBFF1E
:1030F00085CD10F086CD11F087CD12F088CD13F07C
:10310000102A000E11221222132275D9030E10C0AC
:10311000EBFF12000D01856B866B040E865D01E3EB
:10312000C6D023D903E10D018507C1D01ED9060AF7
:1031300001E19FD0030A52E0010A4CE0070A28E0AF
:10314000010A0BE0030A01E0ACD092D9070EADD919
:103150006D0EE9260F0EB9D8A2D08AD9040EA5D9D2
:10316000550EE9260F0EB1D80D0185278551852B07
:10317000B2D9200E66D9852B9DD8030EE8D9A2D9E5
:10318000030EEB50090801E38CD00D01852B89D08B
:103190005CD904E291D9020EDAD903D098D9020E93
:1031A000A1D98BD836D904E287D9010ED0D903D062
:1031B0008ED9010E97D981D83A0EEF6E83D9EF5090
:1031C000106E0A0E105C03E277D9EF5061D07FD900
:1031D000EF5063D07CD914D9040E61D073D9040E9A
:1031E000EB50106E090E105C06E266D9040EEB502F
:1031F000010F68D808D06BD9040EEB50010F62D8CC
:10320000020E0D01852759D82F0EEF6E5BD9030EE4
:1032100099D904E251D9030E9AD903D058D9030E93
:1032200061D94BD82F0E0DD945D8EAD8020EE66EDB
:10323000E66A0D0185255BD90D0185510401136AEC
:103240001425126E1551132212C0E6FF13C0E6FFBB
:1032500050EC32F0146E060EE15E020E0D01852771
:103260000CD9200EEF6E0D01852935D9200EEF6E99
:1032700018D0EBD804E220D9020E69D903D027D99F
:10328000020E30D91AD8C5D805E216D9010EEB5076
:1032900019D807D01CD9010EEB5014D8020E0D011D
:1032A00085270BD8200EEF6E0D01862B36D7E5D87B
:1032B000EF6A12001CD962EF1AF00D018551852BBF
:1032C0006BEF1AF0E66EE66A2AD1EA22EECF10F032
:1032D000EFCF11F0126A10C0E6FF11C0E6FF12C076
:1032E000E6FF0D0185510401146A1425136E155172
:1032F000142213C0E6FF14C0E6FF7BEC32F0156E1B
:10330000070EE15E030E12008DCD14F08ECD15F088
:103310000C0E1502F3CF15F01402F3CF14F0F45095
:1033200015267E0E1426730E152214508F25F66E68
:1033300015509021F76E0800F5CF10F0116A126A4F
:10334000136A12000D6A0E6A63EC39F00D01005128
:103350000224006F01510320016F02510420026F0B
:1033600003510520036F82EF1AF004011651040D7A
:10337000F3CF10F0F4CF11F0960E1026730E112239
:103380000D0186510F011024F66E000E1120F76E0C
:103390000800F5501200106E116A126A136A000ECE
:1033A000E96E0D0EEA6EEE501024006FEE50112003
:1033B000016FEE501220026FEE5013201200A7D8BA
:1033C0000AC406F00BC407F00CC408F00DC409F0E1
:1033D0009BEF39F002C089FD03C08AFD04C08BFD5C
:1033E00005C08CFD02C006F003C007F004C008F061
:1033F00005C009F0120008C4E9FF09C4EAFF120081
:10340000050EE926000EEA22EECFE6FFEFCFE6FF3B
:1034100086D03A0EEF6E56D8010EA2EF1AF004C411
:1034200008F005C409F078EF38F00B6E0C6A0D6AED
:103430000E6A9EEF38F08DCD04F48ECD05F4B7EF13
:1034400016F0EF6E0D01855112003CD8020EA2EF6E
:103450001AF058D8050EE926000EEA22120089CD8E
:1034600006F08ACD07F08BCD08F08CCD09F0120064
:10347000030EE66EE66A62EF1AF085516BEF1AF002
:10348000F3CF14F0F4CF15F0F350F410120000CD88
:1034900006F001CD07F002CD08F01200E926000E7B
:1034A000EA22E552E750EF6E1200EB50E96EEA6A4D
:1034B000D890E936EA36120000DF300EC2DF852BE5
:1034C0005AEF19F012C4E9FF13C4EAFF12000D010C
:1034D00085515AEF19F00401EA6A1425E96E155175
:1034E000EA22120034D8020E0D01852712000401D1
:1034F000116A1425106E1551112210C0E6FF11C07B
:10350000E6FF120006C4E9FF07C4EAFF1200800EBE
:103510000B6E510E0C6E010E0D6E0E6A12006CECED
:1035200026F0E552E552E552E5521200100E0B6E00
:103530000E0E0C6E0D6A0E6A120077DF0250E66EF8
:10354000FBEF19F0EB50106E0A0E105C1200EB50FE
:0435500062EF19F01D
:0C35540006DBEE52EECFFCF0EDCFFDF0F8
:1035600012EC34F0FEDA070EEB50000901E177D0DF
:10357000F8DA05DB01E185D00D01B76BF2DA040E54
:10358000EB50080804E038DB02E1F31D6FE0E9DAF4
:10359000040EEB50080A34E00E0A1AE0030A0CE0AD
:1035A000060A58E1250E0D01B85D03E15DDB050E4D
:1035B00050D0010EB76F4ED0250E0D01B85D03E15E
:1035C000010EB76F44D0B8CDBAFD4EDB060E41D028
:1035D000B8CDB9FDB8CDF0F1BACDF1F1BBEC2EF01C
:1035E000E66EBFDA080EC2DAE552E750EF6E3CDB5A
:1035F000080EEF6EB6DA050EEB6A060EEB6A2AD0FD
:103600000301B80E196F0D0E1A6FABDA050EAEDAA4
:10361000EECF17F3EDCF18F3A4DA080EEB50030149
:10362000166F1AEC0EF004DB9CDA050EF3CFEBFFFD
:10363000060E11C0EBFF0D01010EB76F92DA050EF9
:1036400095DAFF0EEE1806E1FF0EED1803E10CDB34
:10365000030EEF6E0D01B7518BE010DB89D781DAD5
:103660008EDA0FE0C9DA0BE1F31D09E122EC34F048
:1036700078DAEF500201BA6FEEEC02F0010CFEDADC
:10368000EED722EC34F0D4DA6CDABDDA000C0D019E
:10369000866B876B886B856B030EE66EE66A320E6F
:1036A000106E6E0EA1DAB9C3E6FFBAC3E6FF94DA74
:1036B00008E1040E0301B927000EBA230D018A6B3D
:1036C00001D0020C6CDAEF50200802E1B6DAFAD72A
:1036D000E5DA200E0D01895D5EE089515CE00D0E9A
:1036E000895D59E00A0E895D56E0BDC3E9FFBEC39E
:1036F000EAFFEF50855D4FE28651020A15E0030AAA
:103700000DE0010A46E18551BEDAC8DA2F0E0D013F
:10371000895D28E05C0E895D3CE124D08551852BD4
:10372000B2DA0D01020E866FB9DA3F0E895D18E03C
:10373000260E895D15E02B0E895D04E1200E2FDA3F
:10374000EF6E27D02E0E895D08E1850506E175DA5A
:10375000B9C387FDBAC388FD1CD03D0E895D05E164
:103760001EDAEF6A010E866F14D02F0E895D03E01A
:103770005C0E895D0EE1010E0301116AB925106E20
:10378000BA5111220D01850501DA10C0EEFF11C0FA
:10379000EDFF53DA9DD703DAEF6A090E53DAEF6EC5
:1037A0008751881139E087CDE6FF88CDE6FF2DEC03
:1037B00033F0E552E552F3CF87FDF4CF88FD0D01DC
:1037C000980E8B6F6C0E8C6F896B8951106E116A1D
:1037D0000A0E105C000E11581FE2030EE66EE66A38
:1037E0008BCD10F08CCD11F0126A8BCDE6FF8CCD15
:1037F000E6FF12C0E6FF87CDE6FF88CDE6FFECD9F5
:1038000004E120DA89CDEFFF07D0040E0D018B27EC
:10381000000E8C23892BD9D70D01855125E1090E86
:10382000E66EE66A360E106E6E0EDED9BBC3E9FF99
:10383000BCC3EAFFEECFE6FFEFCFE6FF7BEC32F052
:10384000136E070EE15E1350BBC3E9FFBCC3EAFF72
:10385000EE50EFCFEAFFE96E090E88D9EF6A010E4C
:10386000F1D9EF6E0D01852BBDC3E9FFBEC3EAFFA1
:1038700085CDEFFF8A5112000301C1510A0DF3CF2C
:1038800081FDF4CF82FD990E0D018127030E822365
:10389000806B62D9BFD903E1E3D9EF6A12005CD92A
:1038A000030EEB50090A01E120D1080A01E10DD114
:1038B0000A0A01E1A9D0090A01E188D0020A01E05F
:1038C00022D14AD9AED901E11ED10D01010E806F7E
:1038D0007E6B7F6B0D01640E7E5D000E7F5914E2DE
:1038E0007ECDC8F27FCDC9F27E2B000E7F23000E65
:1038F0000201C8270D0EC9232FD9EF500201C76F4F
:1039000071EC04F00009E6E1000E0D017E25E96E80
:103910000D0E7F21EA6EEF6AABD9A2D9020EEF6ECF
:103920000D010B0E7B6F18D9090E20D9E9CFBFF31B
:10393000EACFC0F303017B0EBD6F0D0EBE6F030116
:10394000650EBB6F0D0EBC6F0301000EB96F0D0E3F
:10395000BA6F9DDE0D017D6FE85001E0D4D07B5140
:1039600001080EE27BCD15F30301650E136F0D0EFA
:10397000146FEEEC0DF0F0D8090EF8D8020EEF6ED1
:1039800065CDF7F066CDF8F046EC33F051D9E4D8C8
:103990003AD9E2D8EE52FF0EEE1808E1FF0EED180C
:1039A00005E1DAD8080EE2D8EF6A0AD0D5D8EE528F
:1039B000EE50ED1008E1D0D8080ED8D8010EEF6E09
:1039C0004FD9020E9FD04CD90B0E9CD06BD901E180
:1039D0009AD0C2D8080EEB50E96EEA6AD890E93660
:1039E000EA367D0EE926040EEA22EECF83FDEDCF06
:1039F00084FDDAD802E04DD9FCD7AED8EF500201F1
:103A0000BA6FEEEC02F06ED04DD901E17CD00D0121
:103A1000010E806FA1D8090EEB50020815E19CD869
:103A2000070EA4D8010EEF6E7C6B7C51106E116AEC
:103A3000840E105C000E11581BE27C51F76AA80F2F
:103A4000F66E6D0E04D9F1D787D8070E8FD8EF6ABE
:103A50007C6B7C51106E116A1F0E105C000E1158A9
:103A600007E27C51F76A880FF66E6D0EF0D8F1D739
:103A700073D8090EEB50140DF3CFF6FFF4CFF7FF18
:103A8000C00EF6266C0EF722F6CF83FDF7CF84FD2D
:103A90008BD802E0FED8FCD77C6B7C51106E116A8B
:103AA000040E105C000E115807E27C51F76A2D0FCE
:103AB000F66E6E0ECCD8F1D74FD8040E57D8030E41
:103AC000EF6E4AD853D8010E1DD046D8AAD801E0CF
:103AD000CFD881CDB7F382CDB8F33CDD000913E038
:103AE000B6EC33F0BDD8090E0DD036D893D80BE024
:103AF000D9D809E031D8EF500201B96FA9EC02F032
:103B0000AFD80A0EEF6E0D01805101E0C1D6120050
:103B10000C01066B030E065D06E206CCC1F3ACDEBB
:103B20000C01062BF7D712000C01006B030E005D91
:103B300012E2500E02019E6F9F6B95EC00F0E66E54
:103B40000C013FD8E552E750EF6E3BD8030E0ED87C
:103B5000EF6A002BEBD7120081CDE9FF82CDEAFF9F
:103B60001200B7C3E9FFB8C3EAFF1200E926000E4E
:103B7000EA221200EF500201BC6F6AEF03F0EF502F
:103B80000201BB6F4BEC03F000091200020D0301B0
:103B9000BB51F324E96EBC51F420EA6E1200B9C3A4
:103BA000E9FFBAC3EAFF12000D0183CDF6FF84CD11
:103BB000F7FF832B000E84230800F5CF7CFDF55022
:103BC000120000510A0DF3CFE9FFF4CFEAFF990E7E
:103BD000E926030EEA22120031EC32F0136E070ED2
:103BE000E15E135000091200116E126A10C0E6FF68
:103BF000E66E12C0E6FF1200BDEC33F00D01B86FA7
:103C00000001F21D1200010EF3CFEBFF020E11C0F6
:103C1000EBFF1200EF500201B86FA0EC02F00009B8
:103C20001200EF500201CA6FB2EC04F0000912005A
:103C3000F3CF10F0F4CF11F012000301B92B000EF6
:103C4000BA231200BFC3E9FFC0C3EAFF1200F72284
:103C50000800F5CFBDF280DF8DDF0D017C2B120057
:103C60007BDF030EB6EF1DF07CDF040EB6EF1DF018
:103C700073DFEF500201BE6FC5EF03F0B8CDBDF2A8
:103C800070DFBAEF1DF082DFB9C3EEFFBAC3EDFFFC
:103C900012007CCDBDF260DFBAEF1DF080DFEFCF08
:0A3CA00089FD120059DFBFEF1DF08F
:063CAA000D01800E226FE7
:103CB000000E236F216B040E215D44E2BADA0C0E74
:103CC000FADAEFCF11F0126A136A105011101210C5
:103CD000131032E1AEDA0C0ED9C0EBFF0D0EDAC0D4
:103CE000EBFF0001DB51DC1111E00A0EE66EE66A23
:103CF000DBC0E6FFDCC0E6FF9CDA22CD10F023CD6E
:103D000011F022CDE6FF23CDE6FFB1DA92DA0A0EFA
:103D1000DDC0EBFF0B0EDEC0EBFF8BDA0E0EEB6AA5
:103D20000F0EEB6A86DA100EEB6A110EEB6A21CDEC
:103D3000D8F00D0121511200160E2227000E232368
:103D4000212BB9D7FF0C0001DF515BDA0C0E63DACF
:103D5000EE6AED6ADF5155DA060E5DDAEE6AEE6A5A
:103D6000EE6AEE6ADF519FDAEF9012000001D8513F
:103D7000160DF3CF30FDF4CF31FD800E0D0130274D
:103D8000000E312394DAEE50ED101DE10F01010E0B
:103D9000436F4BEC12F0E66E42DA120E3CDAE5525B
:103DA000E750EF6E3CDA120EEB50FF0801E1000C19
:103DB0001C0E0F01456F466B32DA60DA30DA130EF3
:103DC000EB6A140EEB6AE0C03DFFF1EC11F027DA6C
:103DD000130E71DAEDCF11F0EE2AEF2268DA3CDA39
:103DE000105C1350115803E362DAEE2AEF225FDA17
:103DF000EECF32FDEDCF33FD0D01160E325D020E1A
:103E0000335901E301D8010C0F01010E426F25EC7B
:103E100012F00009F9E00001D851160DF3CF29FD89
:103E2000F4CF2AFD800E0D012927000E2A23FCD98C
:103E30000C0EF1D929DAF3CF21FDF4CF22FDF4D90C
:103E40000A0EE9D921DAF3CF23FDF4CF24FDECD912
:103E50000E0EE1D9EECF25FDEFCF26FD080E0D01A8
:103E60002527000E2623276B286B140E0F01456FA4
:103E7000466BDAD903DA25CD3BF426CD3CF40401B8
:103E8000110E3A6FD1D929CD38F42ACD39F43DEC51
:103E90002AF025CDF4F126CDF5F1F3EC2EF0F3CF99
:103EA00025FDF4CF26FD080E0F01406F416B0F0179
:103EB000210E3E6F0D0E3F6FFFEC11F031EC14F050
:103EC000B3D9120EA8D9EF68AFD90E0EEB6A0F0E58
:103ED000EB6A1200E1C0D8F0E2D9D880EE54000EAF
:103EE000ED5401E3000C010CDAD9EE50ED1001E1C4
:103EF000000CD851D8D9EF50010B05E0D851D3D9D7
:103F0000EF90080EAFD9B3EC11F0E2C0E9FFE3C0C7
:103F1000EAFFEF6EC4D9EE06EF5AD851D0D9EE5071
:103F2000ED1002E126EC13F0010CB9D9EE50ED10C2
:103F300002E026EC13F0B3D9EE6AED6A12000D012F
:103F40001869800E196F000E1A6F176B040E175D3B
:103F50005CE274D90C0E5FD976D9020E5CD97CD99B
:103F600010184CE11350111849E168D90A0E53D9C1
:103F70006AD972D9101840E1135011183DE15ED989
:103F8000100E49D9EECF14F0EFCF15F0166A176A6C
:103F900014501510161017102FE1E6C0E9FFE7C006
:103FA000EAFF060E88D9EECF11F0EECF12F0EFCF78
:103FB00013F044D9060E2FD9EE500001101808E175
:103FC000EE50111805E1EE50121802E1EE501318F0
:103FD00010E0E8C0E9FFE9C0EAFFE868EE180CE18C
:103FE000E868EE1809E1E868EE1806E1E868EE18FE
:103FF00003E10D011751120017CD18FD0D01160E2A
:104000001927000E1A23172BA1D7FF0E185D2AE0DF
:104010001851160DF3CF19FDF4CF1AFD800E192794
:10402000000E1A230A0EE66EE66AE6C0E6FFE7C057
:10403000E6FF04D919CD10F01ACD11F019CDE6FF25
:104040001ACDE6FF14D9E4C0E9FFE5C0EAFFEECFE0
:1040500010F0EFCF11F0F2D80A0E10C0EBFF0B0EEC
:1040600011C0EBFF0D0118511200080E0F013B6F3C
:104070003C6B0F01000E396F0D0E3A6FC4EC11F05E
:1040800000CDF4F101CDF5F1F3EC2EF0F3CF00FD0E
:10409000F4CF01FD02CDF4F103CDF5F1F3EC2EF0F8
:1040A000F3CF02FDF4CF03FD04CDF4F105CDF5F11E
:1040B000F3EC2EF0F3CF04FDF4CF05FD0D01080E57
:1040C000045F000E055B065107116FE006CDF4F1A9
:1040D00007CDF5F1F3EC2EF0F3CF06FDF4CF07FD9D
:1040E000EAC0E9FFEBC0EAFF060E95D8EECF09FD66
:1040F000EECF0AFDEECF0BFDEFCF0CFDCBD8EFCF0F
:104100000DFD010E88D8EFCF0EFDC4D8020E83D866
:10411000EFCF0FFDBFD8030E7ED8EFCF10FD0D01FE
:10412000116B110E126FEEC013FDEFC014FDEEC047
:10413000F4F1EFC0F5F1F3EC2EF0F3CF13FDF4CF73
:1041400014FD0C0E0101FC6FFD6B0101090EFA6FED
:104150000D0EFB6F27EC2FF0F3CF15FDF4CF16FDFE
:104160000D01151F161F060E7DD815CD3DFFF1EC74
:1041700011F0070E77D816CD3DFFF1EC11F00401D8
:104180003D6B3E6BB3EC2AF0EEC0FEF1EFC0FFF1E9
:104190009DEC2FF0F3CF15FDF4CF16FD0D01065168
:1041A000F31816E10751161913E1ECC0E8F0EDC061
:1041B000E9F0EAC0E6F0EBC0E7F00001000EE46FC2
:1041C0000D0EE56FBCDE0D01086FFF0E085D03E10B
:1041D00026EC13F0010C085172D804CDEEFF05CD8A
:1041E000EDFF085160D8EF80010C0C01006B040E4C
:1041F000005D06E200CCDFF0A6DD0C01002BF7D756
:104200001200160DF3CFE9FFF4CFEAFF800EE92686
:10421000000EEA221200E926000EEA22120030CD3A
:10422000E9FF31CDEAFF120029CDE9FF2ACDEAFFEF
:10423000120022CDE9FF23CDEAFF120019CDE9FFDC
:104240001ACDEAFF1200EECF10F0EFCF11F0E4C06C
:10425000E9FFE5C0EAFF1200EECF12F0EFCF13F056
:104260001250120004013D6F3E6BB3EF2AF050EC88
:1042700032F0126E060EE15E12501200120EEB507A
:104280000F01446F69EF12F0EECFF4F1EDCFF5F1CD
:10429000F3EF2EF0ECC0E9FFEDC0EAFF12000001E1
:1042A000D8515FEF21F0ADDF150E0BEF21F0B7DF36
:1042B0000E0E0BEF21F0AFDFEECF10F01200A1DFFA
:0642C000100E0BEF21F0CF
:0A42C600030EE66EE66A4C0E106E61
:1042D000740E9EDA4AC2E6FF4BC2E6FF80DA0EE1B8
:1042E000090EE66EE66A500E106E740E91DA4CC23C
:1042F000E6FF4DC2E6FF73DA01E1010C000C0D018F
:104300000A6B130E076F020E086F7DDAEF5020085C
:1043100004E1072B000E0823F8D707CD35F208CDAE
:1043200036F20201010E436F6EDAEFCF09FDEF5056
:1043300033E00D010A51010A16E0010A29E1200EBD
:10434000095D03E02C0E095D05E15DDAEF6A010EFF
:104350000A6F1ED00D0E095D03E00A0E095D18E11B
:1043600052DAEF6A15D0200E095D12E002014351C6
:10437000432BE96EEA6AD890E936EA36350EE9262B
:10438000020EEA2207CDEEFF08CDEDFF0D010A6B0C
:10439000072B000E0823C8D7120002010651030A9A
:1043A00018E0020A0FE0010A20E1020E065D02E1B8
:1043B000B6EC33F0FE0E0201025D06E031DA0201D6
:1043C000010E05D014DA11E10201030E086F066F29
:1043D000000C13DA0AE001C2B8F2A0EC02F0000906
:1043E00004E001C2B9F2A9EC02F0000C020106518E
:1043F000020A37E0030A26E0010A73E100B302D0A3
:10440000060E6DD0070E086F03C2B6F204C2B7F2F3
:104410000151280DF3CFE9FFF4CFEAFF000EE926A2
:10442000010EEA22EE52E9CFB4F2EACFB5F21FEC68
:1044300002F00201026FFE0E025D02E0010E0FD0DB
:104440000A0E4DD0D4D94DE00001F1514AE1CDEC36
:1044500033F0F3CF48F2F4CF49F20201020E066FB7
:10446000000C02C2CAF2B2EC04F000092FE0ACD991
:1044700048C2FEF049C2FFF025EC34F00201060EFE
:10448000C86F0C0EC96F02C2C7F271EC04F00009CC
:1044900005E006CCF9F0D3EC33F0F0D7ECEC33F0D8
:1044A000F3CF48F2F4CF49F202C2BEF2C5EC03F0FA
:1044B000A4D917E00201230EBD6F01C2BCF26AEC61
:1044C00003F001C2BAF2EEEC02F0000C90D909E15F
:1044D000ECEC33F0A5D90201FE0E026F090E086F55
:1044E000010C000C02014E51050A50E0060A4CE096
:1044F000070A33E0060A2FE0030A18E0010A50E138
:1045000000810093010E086F0A0EE66EE66A37C25C
:10451000E6FF38C2E6FF090EE66E020EE66EFFEC1D
:1045200032F0106E060EE15E1050010C00A111D0A9
:1045300037C24CF238C24DF20201090E4A6F020E28
:104540004B6FC1DE000904E002010083020E29D096
:104550000201060E26D0CDEF21F03FC2E6FF40C299
:10456000E6FFF7EC25F0E552E552F3CF04F241C245
:10457000E6FF42C2E6FFF7EC25F0E552E552F3CF45
:1045800003F202010B0E0DD0F6EF21F00B0E086FB7
:10459000FE0E025D07E002C2B9F2A9EC02F0010CC6
:1045A000050E086F010C0C01006B060EE76E00197A
:1045B000E8AE02D0E73402D0E750005D26E2040EF8
:1045C000E66EE66A00CCE9FFEA6AE9BEEA68D890DE
:1045D000E936EA36DC0EE926020EEA22EECF10F0CA
:1045E000EFCF11F0126A10C0E6FF11C0E6FF12C053
:1045F000E6FF4FC2E6FF50C2E6FFF1D803E10C012F
:10460000005112000C01002BD0D7060C01C2B8F2E9
:10461000A0EC02F0000908E10201346B070E076FFD
:10462000056B006B066B010C01C2CAF2B2EC04F020
:10463000000935E0C9D80201000EC86F0D0EC96F20
:1046400001C2C7F271EC04F000090FE0020134511D
:10465000342BEA6A130FE96E020EEA2200CDEFFF57
:104660001F0E345DE8E1346BE6D701C2BEF2C5EC43
:1046700003F00A0E0D01005D3FE102013451EA6AC8
:10468000130FE96E020EEA22EF6A346B38DE35C290
:104690004FF236C250F287DF0201076F2DD00201C0
:1046A00005512AE02FEC39F006C001FD07C002FDDC
:1046B00008C003FD09C004FD440EE96E020EEA6E57
:1046C000EE500D01065C016FEE500758026FEE5080
:1046D0000858036FEE500958046F500E015D460EE6
:1046E0000259000E0359000E045906E36DD8020169
:1046F000020E076F010E056F02010551010A36E037
:10470000050A04E0040A50E1086B5ED876D801E19E
:10471000010C08C2E9FFEA6AE9BEEA68D890E93606
:10472000EA36E80EE926020EEA22EECF05FDEDCFCD
:1047300006FD0D0105CDF6FF06CDF7FF052B000E9A
:1047400006230800F5CF00FDF55007E000CDBDF2CF
:1047500001C2BCF26AEC03F0ECD701C2BAF2EEEC93
:1047600002F002010C0E086F010E056F070E075DC7
:104770001BE007C24EF2B6DE00090FE00C0E02018C
:10478000085D03E0040E056F04D0020E075D01E131
:10479000056B070E076F066B010C0C0E0201085D1E
:1047A00003E0040E056FB2D7010C150E02019E6FD7
:1047B0009F6B95EC00F00201016F056B346B006B91
:1047C000140E036F046B12002FEC39F006C044F294
:1047D00007C045F208C046F209C047F2120031ECAA
:1047E00032F0136E070EE15E13500009120002C290
:1047F000B8F2A0EC02F00009120001C2BBF24BECCF
:1048000003F00009120007CDE9FF08CDEAFF12000E
:10481000116E126A10C0E6FFE66E12C0E6FF1200CB
:0C482000B6EC33F002C2B9F2A9EF02F0CE
:04482C00D6D9BED942
:10483000F3CFEEFF11C0EDFFD0D9020EE926000E36
:10484000EA22B4D9020EF3CFEBFF030E11C0EBFF47
:10485000C4D9C8D9ABD9060EF3CFEBFF070E11C0F0
:10486000EBFF12001C0E0F013B6F3C6B0F01000EA3
:10487000396F0D0E3A6FC4EC11F026EC13F0030102
:10488000000EF06F0D0EF16FD1DF0D01010E00195A
:1048900012E1015110E10451106E116A060E101858
:1048A0000AE1115008E10551126E136A040E121844
:1048B00001E1135001E0000C020E061905E1075159
:1048C00003E186D9EF6A0DD0010E061906E1075102
:1048D00004E1010E7DD9EF6E04D0020E79D9EF6E9E
:1048E000000C180EE96E0D0EEA6EEE500201511921
:1048F00028E1EE50521925E1EE50531922E1EE5015
:1049000054191FE11EE1F2C3E9FFF3C3EAFF08CD2A
:10491000EEFF09CDEEFF0ACDEEFF0BCDEEFF0CCD85
:10492000EEFF0DCDEEFFF2C3E9FFF3C3EAFF5AD964
:104930000ECDEEFF0FCDEEFF10CDEEFF11CDEEFF51
:10494000010C000C0F01010E436F4BEC12F00D0136
:104950001C6FFF0E1C5D01E1000C0F01456B466BE7
:104960001CCD44FF69EC12F0010E0D01006F016BCC
:10497000026B080E036F060E046F040E056F030131
:10498000F8050BE1010E0D01066F076B1269136943
:10499000146915691669176914D0020E0D01066FA6
:1049A000076BF6C3E9FFF7C3EAFFEECF12FDEECFC8
:1049B00013FDEECF14FDEECF15FDEECF16FDEFCFBC
:1049C00017FD55C208FD56C209FD57C20AFD58C25F
:1049D0000BFD59C20CFD5AC20DFD51C20EFD52C253
:1049E0000FFD53C210FD54C211FDECD80E51EE184C
:1049F000106E0F51EE18116E1051EE18126E11510B
:104A0000EE18136E02015B5110165C5111165D51C8
:104A100012165E511316105011101210131009E0E7
:104A20005FC218FD60C219FD61C21AFD62C21BFDA2
:104A300009D0C8D8EECF18FDEECF19FDEECF1AFD84
:104A4000EFCF1BFD0301000EF06F0D0EF16FEEDED8
:104A50001C0E0F01516F526B0F01060E506F0F01AC
:104A6000120E4E6F0D0E4F6FEFEC13F01C0E0F0178
:104A7000406F416B0F01000E3E6F0D0E3F6FFFEC5C
:104A800011F031EC14F0010C0301E55128E10301B0
:104A9000270EF46F0D0EF56F03011D0EF26F0D0E54
:104AA000F36FE0DE000929E00D01275115E11DCD6E
:104AB000E6F31ECDE7F31FCDE8F320CDE9F321CDDA
:104AC000EAF322CDEBF323CDECF324CDEDF325CDAA
:104AD000EEF326CDEFF3010C0301010EE56F0301A8
:104AE000F86B03011D0EF66F0D0EF76F2BDF00093B
:104AF00003E00301E56B010C000C010CF9C3E9FFB5
:104B0000FAC3EAFFEECF23FDEECF24FDEECF25FD65
:104B1000EFCF26FD0301010EF86F03011D0EF66FA6
:104B20000D0EF76FA2EF24F0FBC3E9FFFCC3EAFF11
:104B30000301EC51EE1808E1ED51EE1805E1EE51DC
:104B4000EE1802E1EF51EE1812E0EC0EE96E030EE2
:104B5000EA6EEE5002015F191BE1EE50601918E198
:104B6000EE50611915E1EE50621912E111E1FDC339
:104B7000E9FFFEC3EAFFE6C3EEFFE7C3EEFFE8C3CB
:104B8000EEFFE9C3EEFFEAC3EEFFEBC3EEFF010C5D
:104B9000000C0301E56BE669E769E869E969EA6920
:104BA000EB69EC6BED6BEE6BEF6B1200EECFF4F19B
:104BB000EDCFF5F1F3EC2EF0F3CF10F0F4CF11F0D0
:104BC000EDEF25F0F6C3E9FFF7C3EAFFF2EF25F0BA
:104BD000F4C3E9FFF5C3EAFF1200F0C3E9FFF1C334
:0E4BE000EAFF1200060EE926000EEA2212007D
:024BEE00FF0EB8
:104BF000E3CFEAFFE552FF0EE3CFE9FFE552E66AB5
:104C0000E66AD9CFE6FFDACFE6FFFC0EE124D96EE3
:104C1000FF0EE220DA6EE66AE66AE66A200EEF5CD4
:104C200006E0090EEF5C03E0EF6603D03FD0EE50E4
:104C3000F5D72D0EEF5C03E1FF0EE32A03D02B0E18
:104C4000EF5C01E1EE502F0EEF6424D03A0EEF60DE
:104C500021D0D890F90EE336FA0EE336FD0EDECF02
:104C6000E3FFFE0EDDCFE3FFD890F90EE336FA0E38
:104C7000E336D890F90EE336FA0EE336FD0EE35034
:104C8000DE26FE0EE350DD22300EEE5CDE26000E48
:104C9000DD22D9D7FF0EE3CFE8FFE85207E0F90E97
:104CA000E31EE32AFA0ED8B4E306E31EE552E5520A
:104CB000E552FF0EE3CFDAFFE552FF0EE3CFD9FF57
:104CC000E552E1CFE9FFE2CFEAFFED52ED52EECF40
:104CD000F3FFEFCFF4FF1200D9CFE6FFDACFE6FF04
:104CE000FA0EE3CFD9FFFB0EE3CFDAFFFD0EE3525E
:104CF00009E72D0EDE6EFC0EE31EE32AFD0ED8B48E
:104D0000E306E31EE652E652E652FD0EE124E76EAC
:104D1000FF0EE220E46EE652F70EE3CFE6FFF70E59
:104D2000E3CFE6FFDCEC26F0F90EE124E96EFF0E9E
:104D3000E220EA6ECCEC26F00AE1C9EC26F009E1AB
:104D4000CCEC26F008E1C9EC26F007E108D0D7EC5E
:104D500026F0D2EC26F0D7EC26F0D2EC26F0D7ECF9
:104D600026F0DE6AF90EE126FF0EE222FF0EE3CF07
:104D7000DAFFE552FF0EE3CFD9FFE552FC0EE12446
:104D8000E96EFF0EE220EA6EEECFF3FFEFCFF4FF05
:104D90001200EF380F0B1200EF500F0B02E1EE5232
:104DA000D8841200EF380F0B300FDE6E1200EE5079
:104DB0000F0B300FDE6E1200FC0EE3CFE9FFFD0E8D
:104DC000E3CFEAFF100EE66EEE6AEE6AEF6AD89065
:104DD000FD0EE336FE0EE336ED36ED36EF36FF0E12
:104DE000E30609E0FDEC26F0EE52FDEC26F0EE5273
:104DF000FDEC26F0EDD7E56E1200030EEF24E8B6C9
:104E0000EF6E300EEF24E8BEEF6E000CD9CFE6FF58
:104E1000DACFE6FFF80EE3CFD9FFF90EE3CFDAFFE2
:104E2000E652E652E652E652E652FB0EE124E76E07
:104E3000FF0EE220E46EE652F30EE3CFE6FFF30E40
:104E4000E3CFE6FFF30EE3CFE6FFF30EE3CFE6FF9B
:104E50008BEC27F0F50EE124E96EFF0EE220EA6EFE
:104E600078EC27F019E17BEC27F018E178EC27F0DB
:104E700017E17BEC27F016E178EC27F015E17BECED
:104E800027F014E178EC27F013E17BEC27F012E136
:104E900078EC27F011E112D081EC27F086EC27F0B6
:104EA00081EC27F086EC27F081EC27F086EC27F0E8
:104EB00081EC27F086EC27F081EC27F086EC27F0D8
:104EC000DE6AF50EE126FF0EE222FF0EE3CFDAFFE7
:104ED000E552FF0EE3CFD9FFE552FA0EE124E96E69
:104EE000FF0EE220EA6EEECFF3FFEFCFF4FF1200E9
:104EF000EF380F0B1200EF500F0B02E1EE52D88487
:104F00001200EF380F0B300FDE6E1200EE500F0B59
:104F1000300FDE6E1200FA0EE3CFE9FFFB0EE3CF97
:104F2000EAFF200EE66EEE6AEE6AEE6AEE6AEF6A5D
:104F3000D890FB0EE336FC0EE336FD0EE336FE0E94
:104F4000E336ED36ED36ED36ED36EF36FF0EE306A1
:104F50000FE0BAEC27F0EE52BAEC27F0EE52BAECC2
:104F600027F0EE52BAEC27F0EE52BAEC27F0E1D778
:104F7000E56E1200030EEF24E8B6EF6E300EEF245C
:064F8000E8BEEF6E000C1C
:0A4F860050494344454D3200040534
:104F9000062076332E37352E36000102034D696325
:104FA000726F6368697020544350002D2D3A2D2D87
:104FB000002D2D2F2D2D2F2D2D004A756C203330D7
:104FC00020323030372031303A30343A34390033FF
:104FD0002E37352E3600293A20000D0A42555454FA
:104FE0004F4E302068656C6420666F72206D6F7262
:104FF00065207468616E2034207365636F6E64731E
:105000002E2020566563746F7220636F6E66696729
:1050100020696E20454550524F4D20657261736581
:10502000640D0A0D0A000D0A526561647920746FDF
:1050300020646F776E6C6F6164204D504653206919
:105040006D616765202D2055736520586D6F64650F
:105050006D2070726F746F636F6C0D0A000D0A44DF
:10506000484350202620495020476C65616E696E88
:10507000672064697361626C65640D0A000D0A44FF
:10508000484350202620495020476C65616E696E68
:105090006720656E61626C65640D0A000D0A444EFE
:1050A0005320536572766572204164647265737330
:1050B0002028000D0A4E65746D61736B2028000D69
:1050C0000A4761746577617920416464726573731E
:1050D0002028000D0A4950204164647265737320D2
:1050E00028000D0A486F7374204E616D65202800FA
:1050F0000D0A53657269616C204E756D6265722090
:1051000028000D0A4E6F772072756E6E696E6720EB
:105110006170706C69636174696F6E2E2E2E0D0A5A
:10512000002D2D2F2D2D2F2D2D202D2D3A2D2D0005
:1051300052783D0054783D00323030204F6B0D0ADC
:10514000003432352043616E2774206372656174C8
:1051500065206461746120736F636B65742E2049F0
:105160006E637265617365204D41585F534F434BC9
:105170004554530D0A000D0A323236205472616EC6
:105180007366657220436F6D706C6574650D0A00FF
:1051900031323520446F6E650D0A003135302054B0
:1051A00072616E7366657272696E672064617461A4
:1051B0002E2E2E0D0A00353330204C6F67696E207D
:1051C00072657175697265640D0A00353032204E62
:1051D0006F7420696D706C656D656E7465640D0A21
:1051E00000353030200D0A00323231204279650D11
:1051F0000A00323330204C6F6767656420696E0D9A
:105200000A003333312050617373776F72642072F8
:10521000657175697265640D0A003232302052651D
:105220006164790D0A0041424F5200504F525400C0
:1052300053544F5200515549540050415353005557
:1052400053455200485454502F312E3020353033BE
:10525000200D0A0D0A5365727669636520556E61EB
:105260007661696C61626C650D0A00485454502F78
:10527000312E3020343034204E6F7420666F756EBE
:10528000640D0A0D0A4E6F7420666F756E640D0A08
:105290000053617400467269005468750057656474
:1052A00000547565004D6F6E0053756E0044656364
:1052B000004E6F76004F6374005365700041756750
:1052C000004A756C004A756E004D6179004170723C
:0D52D000004D617200466562004A616E008B
:0152DD0000D0
:0252DE0067D98E
:1052E000020E4DD9020EF3CFEBFF030E5CD9040E74
:1052F00046D9040EF3CFEBFF050E55D90A0E3FD960
:105300000A0EF3CFEBFF0B0E11C0EBFF1200140ED1
:105310000F013B6F3C6B0F01020E396F0D0E3A6FA0
:10532000C4EC11F0F00E0D010215400801E0000C74
:105330000F0E0215040DF350106E116A140E105E5C
:10534000000E115A10C01CFD1050280801E2000C7C
:105350001C5100080BE21C510F013B6F3C6B0F010D
:105360001D0E396F0D0E3A6FC4EC11F00CCD16FD09
:105370000DCD17FD0D010C6B0D6B140E0FD9020E28
:10538000FA6F0D0EFB6F27EC2FF0F3CF18FDF4CF63
:1053900019FD0D01181F191F1C51000810E21C51A6
:1053A000FDD81D0EFA6F0D0EFB6F27EC2FF0F3CF1B
:1053B0001AFDF4CF1BFD0D011A1F1B1F02D01A6B23
:1053C0001B6B040EEBD8180EFA6F0D0EFB6F27EC5B
:1053D0002FF0F3CF00FDF4CF01FD0D01F3501619AE
:1053E00002E10151171901E0000C0401020E2E6FB9
:1053F0000D0E2F6F74DF0401305131110CE030C4F9
:10540000E9FF31C4EAFF12CDEEFF13CDEEFF14CD5C
:10541000EEFF15CDEEFF32C4E9FF33C4EAFF060EFE
:10542000E926000EEA220ECDEEFF0FCDEEFF10CDE5
:10543000EEFF11CDEEFF34C4E9FF35C4EAFF0BCD1A
:10544000EFFF0D011C51126E136A1250045D106EB5
:1054500013500559116E140E105E000E115A36C409
:10546000E9FF37C4EAFF10C0EEFF11C0EDFF0401F1
:10547000672B682369236A23010C0401140E2D6F26
:105480000D01450EEA6FEB6B140E04013B250D0177
:10549000EC6F000E04013C210D01ED6F0401652B42
:1054A000000E662365C4EEFD66C4EFFD0D01F06BD2
:1054B000F16B640EF26F3AC4F3FDF46BF56B51C2FD
:1054C000F6FD52C2F7FD53C2F8FD54C2F9FD38C4CF
:1054D000E9FF39C4EAFF060EE926000EEA22EECF04
:1054E000FAFDEECFFBFDEECFFCFDEFCFFDFD04019D
:1054F000EA0E2E6F0D0E2F6FF2DE140E4FD8EA0E4D
:10550000FA6F0D0EFB6F27EC2FF0F3CFF4FDF4CF05
:10551000F5FD140E04013B250F01516F000E04012F
:105520003C210F01526F0F01506B38C4E9FF39C4A1
:10553000EAFF38C44EFF39C44FFFEFEC13F0140EEE
:105540000F01406F416B0F01EA0E3E6F0D0E3F6F72
:10555000FFEC11F004016B2B000E6C236D236E2306
:10556000F36AF46A120004012D513D250F01486FC2
:10557000000E04013E210F01496F9EEF12F0E92653
:10558000000EEA22EECFF4F1EDCFF5F1F3EC2EF0C0
:10559000F3CF10F0F4CF11F0D7EF2AF00101FC6F38
:1055A000FD6B0101120011C0EBFFD7EF2AF02EC4F2
:0855B000E9FF2FC4EAFF12001D
:0855B8000001200E50D90C0186
:1055C000006B100E005D19E2040174C4E9FF75C49C
:1055D000EAFF742B000E7523EFCF01FC0C0101399B
:1055E0000F0B410F00013BD90F0E0C010115410FAC
:1055F000000135D90C01002BE4D71BEF2CF004017E
:105600007651771111E10001210EE26F0D0EE36F6B
:1056100074EC1FF00D0121512107000926E0000163
:10562000220EE26F0D0EF3D70001210EE26F0D0E78
:10563000E36F74EC1FF00D0121512107000915E003
:1056400003D92239F00B236F2107FED823512211F1
:10565000E66E040176C4E9FF77C4EAFF762B000EFC
:105660007723E552E750EF6EE6D712000F017F5126
:10567000020A1BE0030A05E0010A01E012007F2B89
:105680001200890E0001DD6FDE6B0001DB6BDC6B4D
:105690000001D96FDA6B55EC1EF00401786FFF0E34
:1056A000785D01E112000F017F2B78C4E1F06AEC14
:1056B0001FF0000901E112000001060EE26F0D0E5D
:1056C000BED8050EE26F0D0EBAD8080EE26F0D0EB1
:1056D000B6D8070EE26F0D0EB2D80A0EE26F0D0EAD
:1056E000AED8090EE26F0D0EAAD80C0EE26F0D0EA9
:1056F000A6D80B0EE26F0D0EA2D80E0EE26F0D0EA5
:105700009ED80D0EE26F0D0E9AD8100EE26F0D0EA0
:1057100096D80F0EE26F0D0EE36F74EC1FF00D01C3
:1057200009CD10F00ACD11F00907000E0A5B1050E8
:10573000111001E17ED00401110E766F0D0E776F0E
:105740005EDF0001000EE26F0D0E79D8020EE26FEF
:105750000D0E75D8010EE26F0D0E71D8040EE26FBA
:105760000D0E6DD8030EE26F0D0EE36F74EC1FF09B
:105770000D01200E0119D3E10251D1E1010E0319EF
:10578000CEE10451CCE1720EE66E020EE66E110E11
:10579000E66E0D0EE66EB8EC32F0E552E552E552DB
:1057A000E5520009BCE178C4D8F00F01010E426F48
:1057B00025EC12F00009F7E00D01076B840E086F6D
:1057C00006CDE0F0B6EC1EF005CDE0F0B6EC1EF034
:1057D00008CDE0F0B6EC1EF007CDE0F0B6EC1EF020
:1057E0002AD829D83FD80401720E746F020E756F43
:1057F000E3DE21D80001200E32D834D81CD80001B5
:10580000060E2DD80001600E2AD815D851C2E0F03E
:10581000B6EC1EF052C2E0F0B6EC1EF053C2E0F05F
:10582000B6EC1EF054C2E0F0B6EC1EF004EC1FF033
:1058300076D795EF1FF00001E06BB6EF1EF0E36F37
:1058400074EC1FF0000112000001220EE26F0D0E39
:10585000E36F74EC1FF0410E0D01225F1200E06F48
:10586000B6EF1EF0E8DF0001010EF9DFE4DFE3DF51
:06587000E2DF1BEF2CF04B
:0A587600010E03018C178994030151
:105880008C51E8B08986E8A0899603018D390F0B09
:105890000F010F0BF36EF00E8C14F3108C6E0000E2
:1058A00000000000000089820A0EE66E1BEC3AF050
:1058B000E55289920A0EE66E1BEC3AF0E5520301BE
:1058C0008D510F010F0BF36EF00E8C14F3108C6ED4
:1058D000000000000000000089820A0EE66E1BEC4A
:1058E0003AF0E55289920A0EE66E1BEC3AF0E55268
:1058F000320EE66E1BEC3AF0E5521200020E030186
:105900008E5D0FE2100E8F5D0CE28E51F76A680F0C
:10591000F66E740EF7220800F5508F2580090301FA
:10592000C4D8120090C3E9FF91C3EAFFEFCF00FC97
:10593000EF5008E000CC8DF3C7D80301902B000E88
:105940009123F0D7120092C3F6FF93C3F7FF08002C
:10595000F5CF00FCF55008E000CC8DF3B5D803017D
:10596000922B000E9323EFD712000301010E9DD856
:10597000020E70EF2DF0020E0301945D0DE2B5D81A
:105980000C01006B100E005D07E20301200E8D6F0D
:105990009BD80C01002BF6D775EF2DF00D010F6B86
:1059A000020E0F5D1EE203018F6B0FCD8EF3A6DF9B
:1059B0000D010E6B100E0E5D12E20F517BD80E51D1
:1059C00088D8EFCF10FDEF5003E00D01105101D04A
:1059D000200E03018D6F78D80D010E2BEBD70F2B06
:1059E000DFD712000C01016B020E015D0FE2006BAC
:1059F000100E005D09E201515DD800516AD8200EF9
:105A0000EF6E0C01002BF4D7012BEED71200020E23
:105A10000301955D10E20C01006B100E005D0BE2BE
:105A20000301955147D80C01005153D8200EEF6E59
:105A30000C01002BF2D71200080E0301965D19E24B
:105A40009651080DF350400903012FD80C01006B4B
:105A5000080E005D0EE200510301F76A9725F66E0D
:105A60009851F7220800F5CF8DF32ED80C01002BAA
:105A7000EFD70301800E55EF2DF0B4DFC80E3BD8F1
:105A8000050E39D8960EE66E1BEC3AF0E55203018E
:105A9000200E0BD80301280E08D80301060E05D8E6
:105AA00064DF03010C0E55EF2DF08D6F03018C6B3D
