:020000040000FA
:06000000B2EF37F0120020
:0600180094EF0AF0120053
:06002A000A0073700000E3
:10003000FB030000010000004F700000D902000027
:10004000240000004B700000F203000004000000D8
:1000500041700000DF0300000A000000F66F00009E
:10006000600000004B000000694E0000FA03000031
:1000700001000000E66F0000CF0300001000000048
:10008000E46F0000F803000002000000E06F0000D1
:10009000EE03000004000000B66F00000003000043
:0400A0002A00000032
:0C00A4000AEC0AF0A5EC08F0F3CFEEFF28
:1000B00011C0EDFF0AEC0AF0020E41EC0AF0020E4C
:1000C000F3CFEBFF030E5FEC09F0040E97EC08F0A2
:1000D000E6EC08F0040E37EC0AF00AEC0AF0080E21
:1000E00097EC08F0E6EC08F0080E37EC0AF00AECA2
:1000F0000AF00E0E41EC0AF00E0EF3CFEBFF0F0EDE
:100100005FEC09F0100E41EC0AF0100EF3CFEBFF9C
:10011000110E5FEC09F0120E41EC0AF0120EF3CF53
:10012000EBFF130E11C0EBFF12000C01006B060E6B
:10013000005D42E20051280DF3CF01FCF4CF02FC38
:10014000000E0127010E022308EC09F0EF500A0807
:1001500031E108EC09F0EF6A08EC09F00B0E02C27D
:10016000EBFF0C0E03C2EBFF08EC09F00D0EEB6A7F
:100170000E0EEB6A08EC09F0EE524BEC0AF0ADEC17
:1001800009F074EC0AF0EF8074EC0AF0EF9608ECDA
:1001900009F055EC09F008E008EC09F002EC09F070
:1001A00008EC09F00FEC0AF074EC0AF0EF820C0195
:1001B00000511200002BBBD7FE0CC5EC08F055EC2B
:1001C00009F00BE0C5EC08F002EC09F0C5EC08F012
:1001D0000FEC0AF088EC0AF0EF82C5EC08F0EE5262
:1001E0004BEC0AF0ADEC09F0C5EC08F00D0EEB6A33
:1001F0000E0EEB6AC5EC08F064EC0AF0080B02E0A6
:10020000CFEC19F088EC0AF0EF96C5EC08F03AEC68
:100210000AF088EC0AF0EF98C5EC08F064EC0AF0FC
:10022000010B04E0C5EC08F0EF6A04D0C5EC08F05F
:100230000A0EEF6EC5EC08F0B2EF09F06AEC09F0B7
:10024000FDE0FF0E0201155D07E10001010ED66F12
:10025000A6EC19F00201156FFF0E155D01E1120009
:10026000140E43EC09F008C287FC09C288FC0AC2DC
:1002700089FC0BC28AFC0CC28BFC0DC28CFC0EC22A
:100280008DFC0FC28EFC10C28FFC11C290FC12C2FA
:1002900091FC13C292FC0C019391939393959397C5
:1002A00014C294FCF0EC19F0F3CF95FCF4CF96FC5B
:1002B0000C01400EF35C020EF45805E3400E956FFE
:1002C000020E966F0DD0360ED8809555000E9655BD
:1002D00005E2360E955F000E965B02D0956B966B2D
:1002E000976B986B996B9A6B0201870E006F0C0EDF
:1002F000016FD8DE140E02011627000E172314A377
:1003000010D0040E1627000E17230C01020E9B6F4F
:10031000040E9C6F020E9D6F400E9E6F9399938BFF
:1003200003D00C019389939B938D939F60C09FFC96
:1003300061C0A0FC62C0A1FC63C0A2FC06C2E9FFD0
:1003400007C2EAFF4BEC0AF0EECFA3FCEECFA4FC11
:10035000EECFA5FCEFCFA6FCA76B060EA86F16C2CA
:10036000A9FC17C2AAFC16C274FE17C275FE74EC73
:100370002BF0F3CFA9FCF4CFAAFC0C0E0E017C6F7E
:100380007D6B0E019F0E7A6F0C0E7B6FA8EC2BF02D
:10039000F3CF97FCF4CF98FC0C01971F981F97CCD4
:1003A00085FC98CC86FC16C2CBF317C2CCF30301B4
:1003B000060ECA6F06C2C8F307C2C9F303EC28F0E1
:1003C000140E0001ED6FEE6B0001870EEB6F0C0E4B
:1003D000EC6F70EC1BF0020114A30BD0040E0001B3
:1003E000ED6FEE6B00019B0EEB6F0C0EEC6F70EC83
:1003F0001BF0140E43EC09F016C27EFE17C27FFEFE
:100400001EEC2CF0F3CF85FCF4CF86FC240E43ECDD
:1004100009F086CCEAF06DEC1BF085CCEAF06DECCF
:100420001BF00001E46BE56B15C2E3F031EC1BF04F
:10043000F4EC1AF06AEC09F0FDE0F4EF1AF00C01AC
:100440000A6B076B060E075D14E20751280DF3CF08
:1004500008FCF4CF09FC000E0827010E0923C0ECAC
:1004600008F0EF500A0803E1010E0A6F02D0072BD3
:10047000E9D70A5101E1FE0C0301F82B000EF92324
:10048000C0EC08F00B0EF8C3EBFF0C0EF9C3EBFF4A
:10049000880EF85D130EF95903E3F869030EF96F3E
:1004A000C0EC08F0C6EC09F0EF90C0EC08F00D0EBF
:1004B0001AC2EBFF0E0E1BC2EBFF3EEC0AF0B7ECCC
:1004C00009F0C0EC08F01A0E97EC08F0ADEC09F05A
:1004D0000A0EE66EE66A18C2E6FF19C2E6FFC0EC35
:1004E00008F0CAEC08F04FEC09F00201020E146F9C
:1004F000C0EC08F019EC0AF03EEC0AF02CEC09F024
:10050000C0EC08F01DEC0AF0C0EC08F021EC0AF099
:10051000C0EC08F025EC09F0C0EC08F0010EEF6E1D
:100520003EEC0AF0B7EC09F0D4EC36F030EC0AF00F
:10053000C0EC08F01F0E37EC0AF00C010751120056
:1005400002011C51B6EC08F0EF50030801E0000C6A
:10055000010C02011D51280DF3CF00FBF4CF01FB6C
:10056000000E0B010027010E01231BEC09F0EF50D8
:1005700003080BE01BEC09F0EF50020806E000CB8B
:1005800004F201CB05F2DDEF00F01DC222F2FDD82E
:100590004FEC09F00201110E146F1BEC09F019EC7D
:1005A0000AF01BEC09F06BEC0AF02CEC09F01BECE8
:1005B00009F01DEC0AF01BEC09F021EC0AF01BEC31
:1005C00009F025EC09F01BEC09F06BEC0AF0B7EC34
:1005D00009F01BEC09F0040EEF6E120002011E512F
:1005E000280DF3CF00FBF4CF01FB000E0B01002719
:1005F000010E0123DCEC08F055EC09F001E1000CE0
:10060000DCEC08F064EC0AF0020B01E1000CDCEC1D
:1006100008F0100E97EC08F0EECF16F2EDCF17F2BF
:10062000DCEC08F00F0EEB500201156F0201180E02
:10063000146F19EC0AF0DCEC08F06BEC0AF02CEC0F
:1006400009F0DCEC08F01DEC0AF0DCEC08F021EC21
:100650000AF0DCEC08F025EC09F0DCEC08F0100EF8
:1006600077EC0AF0126A136ADCEC08F06BEC0AF023
:100670001050EE261150EE221250EE221350EE22B0
:10068000DCEC08F0C6EC09F0EF92DCEC08F0C6EC0C
:1006900009F0EF98010C02011F51B6EC08F0140E9E
:1006A00051EC0AF001E1000C1F51B6EC08F00F0EFE
:1006B00097EC08F0EF50FF0804E10001D56B84EFE0
:1006C00019F01F51B6EC08F064EC0AF0020B01E0DF
:1006D000010E120002012051280DF3CFBBFCF4CF14
:1006E000BCFC000E0C01BB27010EBC2320EC09F062
:1006F000140E51EC0AF001E1000C20EC09F055EC6D
:1007000009F01FE10001D66BA6EC19F0E66E20ECB3
:1007100009F00F0E97EC08F0E552E750EF6E20EC71
:1007200009F055EC09F001E1000C20EC09F0B2EC05
:1007300009F0280E0001E46FE56B20EC09F092EC63
:1007400009F020EC09F0C6EC09F0EF8821C2EAF0CC
:100750006DEC1BF020EC09F0140E97EC08F0EE069F
:10076000EF5A20EC09F0100E97EC08F0EE2AED227B
:10077000EECF10F0EDCF11F00A0E105C020E115802
:1007800003E320C21EF22ADF010C02012251280DD0
:10079000F3CF02FBF4CF03FB000E0B010227010E87
:1007A000032302CBE9FF03CBEAFF64EC0AF0080B5A
:1007B00001E1000CCFEC19F002CBE9FF03CBEAFF1B
:1007C000C6EC09F0EF96010C02012351280DF3CF7E
:1007D00089FCF4CF8AFC000E0C018927010E8A23C4
:1007E0000C0E0301CD6FCE6B79EC28F04BEC1BF0B7
:1007F000E840E8403F0B3C0B0C01856F0001E16BCA
:10080000E26B0FEC1BF04BEC1BF00F0B040DF3CF66
:1008100086FC020E0001E16FE26B0FEC1BF04BEC6B
:100820001BF00C01886F4BEC1BF00C01876F86519D
:1008300085250201136A2425126E255113220C010D
:100840001250875D106E13508859116E89CCE9FFE4
:100850008ACCEAFF120E10C0EBFF130E11C0EBFFA3
:100860008551020124250301CD6F000E02012521CF
:100870000301CE6F79EF28F002012651280DF3CF46
:1008800000FCF4CF01FC000E0C010027010E012337
:100890007DEC0AF064EC0AF0080B20E07DEC0AF035
:1008A00064EC0AF0040B0BE00201246B256B26C2FA
:1008B00023F28ADF7DEC0AF0C6EC09F0EF947DECC0
:1008C0000AF0C6EC09F0EF8829C2E8F02AC2E9F084
:1008D00027C2E6F028C2E7F04EEF1BF0F36AF46A95
:1008E000120002012B51280DF3CF8BFCF4CF8CFCAE
:1008F000000E0C018B27010E8C234AEC09F064ECEE
:100900000AF0080B2EE04AEC09F064EC0AF0040B44
:100910000BE00201246B256B2BC223F255DF4AEC5E
:1009200009F0C6EC09F0EF944AEC09F0120E51EC14
:100930000AF008E1CFEC19F04AEC09F0C6EC09F036
:10094000EF96000C4AEC09F0120E97EC08F0EE0658
:10095000EF5A4BEC1BF02CC2E9FF2DC2EAFFEF6E01
:10096000010C000C02012E51B6EC08F064EC0AF008
:10097000080B01E0010E12000C010F6B006B060E5C
:10098000005D01E3FED00051280DF3CF09FCF4CF48
:100990000AFC000E0927010E0A2382EC0AF0080B5C
:1009A00001E0ECD082EC0AF0100B01E0E7D0C8DBEC
:1009B000EF500A0801E1E2D0C3DBEF50000905E186
:1009C00082EC0AF0010B01E0D9D0D4EC36F006C07D
:1009D00005FC07C006FC08C007FC09C008FCB0DB2A
:1009E0001F0E7AEC0AF00C01065C016FEE500758FE
:1009F000026FEE500858036FEE500958046FA0DBE9
:100A0000230E95DB0151EE5C0251EE580351EE5876
:100A10000451EE5801E3B2D06AEC09F001E1120092
:100A200059EC09F08DDB1F0E37EC0AF089DB230E41
:100A30007EDBD890EF36010EEB36020EEB36030E5E
:100A4000EB367EDB1E0E73DBEF2A7ADBEF50090AF2
:100A500052E0010A49E00F0A55E0020A53E0030A96
:100A600051E0020A3DE0070A1AE0010A05E0030A24
:100A70004FE10C01020E44D025EC0AF003E30C0117
:100A8000120E3ED082EC0AF0010B03E059DBEF6A54
:100A90003FD00C01020E0F6F53DB010E2AD025EC64
:100AA0000AF010E34DDB55EC09F009E00001E46BBE
:100AB000E56B46DB92EC09F0F4EC1AF029D00C015E
:100AC000100E1ED03DDBF1DB05E03ADB9BDB38DBB3
:100AD0000FEC0AF00C01110E0F6F32DB040E09D07F
:100AE00025EC0AF00FE30AD00C01010E0F6F28DB92
:100AF000090EEF6E0DD025EC0AF004E30C01010E97
:100B00000F6F06D009CC04F20ACC05F2DDEC00F040
:100B10000C010F5133E00FA90CD012DB6BEC0AF083
:100B2000EECF0BFCEECF0CFCEECF0DFCEFCF0EFCAE
:100B30000FD006DB6BEC0AF0EFCF0BFCEE2AEFCF09
:100B40000CFCEE22EFCF0DFCEE22EFCF0EFCEF22DD
:100B5000A6DB0FCC14F2F4DA19EC0AF00BCC0CF291
:100B60000CCC0DF20DCC0EF20ECC0FF2E9DA1DEC2E
:100B70000AF0E6DA21EC0AF0E3DA67DB0C01002B7D
:100B8000FED612000C01FE0E296F286B060E285DA2
:100B900046E22851B0DB15DBEF500A083DE011DBDF
:100BA0000B0E4EEC0AF0020EC2DAC2DB35E1135036
:100BB000111832E106DBEF50000902E128CC29FCD4
:100BC00000DB0D0E4EEC0AF0B3DB26E113501118DA
:100BD00023E131C2E9FF32C2EAFF4BEC0AF0EECF6B
:100BE00014F0EECF15F0EECF16F0EFCF17F0E9DAF4
:100BF000EE524BEC0AF0EE50000114180DE1EE50ED
:100C000015180AE1EE50161807E1EE50171804E126
:100C100003E10C01285112000C01282BB7D7FE0E5E
:100C2000295D01E1FE0C295166DB0A0EE66EE66ADB
:100C300031C2E6FF32C2E6FFC4DAACDA12509CDB06
:100C40001DDBBFDA7CDBBDDAA1DBEF96BADA2DDB88
:100C500004E0B7DAD7DAB5DAE2DBB3DA97DBEF82B2
:100C60000C012951120002013351280DF3CF36FC3B
:100C7000F4CF37FC000E0C013627010E3723386BFA
:100C80005ADA1E0E54DAEF6A14DB55DA1F0EEFDB68
:100C900052DAF0DB76DB040B0FE0CFEC19F08BECD3
:100CA0000AF0010B02E0000E01D0010EE66E43DAFD
:100CB000E552E750EF6E120097DB0E0E38DAEECFFA
:100CC00014F0EFCF15F0166A176A4BDA080E7AECBB
:100CD0000AF00C012A5D186EEE502B59196EEE5079
:100CE0002C591A6EEE502D591B6E1850145C106E54
:100CF00019501558116E1A501658126E1B5017586D
:100D0000136E19DA100E13DAEECF1CF0EFCF1DF0D0
:100D10001E6A1F6A1C50105C266F1D501158276FE9
:100D20001E501258286F1F501358296F800E291516
:100D300006E001DA140EEB6A150EEB6A07D0FBD958
:100D4000140E26CCEBFF150E27CCEBFFCADB0108F7
:100D50001EE117DB020B05E1BADB100B01E116D136
:100D60001CD017DBA1DB81DADCDB06E1E4D9020E63
:100D7000EF6ECFEC19F029D0DED9030EEF6E100E16
:100D8000386F51DB02013851391164E19FD0A9DB82
:100D900000091FE19CDB020B03E10C01040E17D0DC
:100DA000F8DA41DB0A0EE66EE66A34C2E6FF35C2C7
:100DB000E6FFC1D9EFD91250D4D960DABCD9BFDA75
:100DC000BAD9020EEF6E01DB50DA0C01120E386F49
:100DD000BBD06ADBEECF2EFCEECF2FFCEECF30FC8B
:100DE000EFCF31FC92DBEECF32FCEECF33FCEECF17
:100DF00034FCEFCF35FCB5D9040E99D936DA0201AF
:100E000038510C012627020139510C012723000E0D
:100E100028232923E9DA040E6DDB2E1901E087D09F
:100E2000EE502F1901E083D0EE50301901E07FD051
:100E3000EE50311901E07BD001E079D052DB02089D
:100E40000BE16FDB43E0DBDA030EEF6E020138519A
:100E500039113CE02DDB78D0D2DAEF50030839E1CC
:100E600060DB0CE058DB020B09E165D91EDA06E015
:100E700062D9C8D960D9D3DA51DBEF8282DA010BAB
:100E800008E00C01110E386FA0DAAFD954D9090E61
:100E9000EF6E02013851391119E03DDB080B04E116
:100EA00007DB0C01388950D030DB32CCEEFF33CC7D
:100EB000EEFF34CCEEFF35CCEEFFF6DA2ECCEEFFB3
:100EC0002FCCEEFF30CCEEFF31CCEEFFCFEC19F0A3
:100ED0003BD007DB090804E1FADA100B35E020D03B
:100EE00000DB04080FE1F3DA010B06E0B3DA19DBEB
:100EF00017E121D9060E04D014DB26E01CD9050E1B
:100F0000EF6E22D0EEDA050805E1E1DA010B1CE014
:100F1000A1DA06D0E6DA060817E1D9DA100B14E0F8
:100F200036CC04F237CC05F2DDEC00F00DD0CFEC7E
:100F300019F00C01100E386F2ECC26FC2FCC27FC9C
:100F400030CC28FC31CC29FC0C0138511FE0A7D94A
:100F500038CC14F226CC10F227CC11F228CC12F2A5
:100F600029CC13F22ACC0CF22BCC0DF22CCC0EF2A5
:100F70002DCC0FF2F6D8B5D9F4D8020ED8D8B6D900
:100F800034C206F235C207F21EEC01F012003AC27A
:100F9000E9FF3BC2EAFF7FDAEECF14FCEECF15FC8F
:100FA000EECF16FCEFCF17FC3CC2E9FF3DC2EAFFD3
:100FB000EECF18FCEECF19FCEECF1AFCEFCF1BFCE6
:100FC0000C011C6B060E1D6F3EC21EFC3FC21FFCB7
:100FD0003EC274FE3FC275FE74EC2BF0F3CF1EFCD4
:100FE000F4CF1FFC0C0E0E017C6F7D6B0E01140EF6
:100FF0007A6F0C0E7B6FA8EC2BF0F3CF21FCF4CFB3
:1010000022FC0C01211F221F3EC27EFE3FC27FFE3A
:101010001EEC2CF0F3CF23FCF4CF24FC0C01F45095
:10102000215D57E12351225D54E10301CD6BCE6B6D
:1010300079EC28F0140E0001E86FE96B0001000E56
:10104000E66F0C0EE76F4EEC1BF00201000E006F16
:101050000C0E016F52EC00F058D9106E116A140E8C
:10106000105E000E115A10C025FC1050106E116A4F
:10107000E85002013E5D3E6F11503F593F6F140E24
:101080003E5F000E3F5B41D90301CD6FCE6B79EC23
:1010900028F03AC231F23BC232F20201000E2F6F49
:1010A0000C0E306F6FDD0C01206FFE0E205D11E025
:1010B0003EC238F23FC239F20201000E366F0C0E0A
:1010C000376F3AC234F23BC235F220CC33F2CBDD7B
:1010D000010CCFEC19F0010C0C01006B060E005D49
:1010E00025E20051280DF3CF01FCF4CF02FC000EE5
:1010F0000127010E022391D80A0EEF6EEFD9EF906F
:10110000EDD9EF82EBD9EF84E9D9EF98E7D9EF96E3
:1011100084D8CBD804E081D875D87FD880D97DD841
:10112000A9D97BD81FD90C01002BD8D71200E926EA
:10113000000EEA22120036CCE9FF37CCEAFF12009B
:1011400009CCE9FF0ACCEAFF1200EECF74FEEDCF26
:1011500075FE74EC2BF0F3CF10F0F4CF11F00AEF22
:101160000AF036C2E9FF37C2EAFF1200280DF3CFBA
:10117000E9FFF4CFEAFF000EE926010EEA22120091
:1011800008CCE9FF09CCEAFF120004C2E9FF05C25E
:10119000EAFF1200EE52E9CF10F0EACF11F0E9CFEA
:1011A000E6FFEACFE6FFF5EC2FF0126E060EE15EE9
:1011B000120006C0EEFF68D100CBE9FF01CBEAFFC9
:1011C000120026CCE9FF27CCEAFF1200EECF76FE14
:1011D000EECF77FEEECF78FEEFCF79FE79EC2BF0F5
:1011E00006C010F03DD90AEF0AF0EF2AEECF26FC38
:1011F000EF22EECF27FCEF22EECF28FCEF22EFCF3D
:1012000029FC12000F0EEB500001D76FC5EF19F04B
:1012100001CCE9FF02CCEAFF120001CCE9FF02CCCD
:10122000EAFF1200EECF10F2EECF11F2EECF12F283
:10123000EFCF13F2120000CBE9FF01CBEAFF12005F
:10124000BBCCE9FFBCCCEAFF1200EE52E9CF06F2BC
:10125000EACF07F21EEF01F0EECF0CF2EECF0DF267
:10126000EECF0EF2EFCF0FF21200EECF26FCEECF54
:1012700027FCEECF28FCEFCF29FC1200EECF10F0B8
:10128000EFCF11F012000001E46FE56B15C2E3F03F
:1012900031EF1BF08BCCE9FF8CCCEAFF120002018E
:1012A000166B176B0201156912000F0EEB50FF0849
:1012B0001200D4EC36F006C010F030EF0AF011C086
:1012C000EBFF0AEF0AF02C0EEE6E010EEE6EEE6AE8
:1012D000EE6A12000001010ED56F84EC19F00009CE
:1012E0001200EECF0AF2EDCF0BF21200EECF08F2B1
:1012F000EDCF09F21200280DF3CF26FCF4CF27FC26
:10130000000E2627010E272312000C010C51F00BB2
:10131000E842E842E842E842040DF350120010C0EF
:10132000EEFFB2D00F0EEB500001E36F31EF1BF078
:10133000EECF12F0EFCF13F01250101812000D0E76
:1013400010C0EBFF0E0E11C0EBFF1200140E10C008
:10135000EBFF150E11C0EBFF1200EE6AEE6AEE6AAB
:10136000EE6A1200100EEB6A110EEB6A1200EE2A02
:10137000EE22EE22EE2212002FC2E9FF30C2EAFF77
:101380001200EFDE0D0ED3DEEF501200270E97EFA6
:1013900008F038C214F039C215F0166A176AE1DE97
:1013A000040EA8D81424106EEE501520116EEE50C5
:1013B0001620126EEE501720136E102A000E112206
:1013C0001222132271D88FEF09F09FD8EFCF2AFC99
:1013D000EE2AEFCF2BFCEE22EFCF2CFCEE22EFCF4C
:1013E0002DFCEF2254EF0AF090D8EECF2AFCEECF7E
:1013F0002BFCEECF2CFCEFCF2DFCB1EF08F054D836
:1014000026CCEEFF27CCEEFF28CCEEFF29CCEEFF5A
:101410009BEF08F000C2E9FF01C2EAFF12000F0EC5
:1014200086DEEF6812009DDE0E0E61D884DEA6EF28
:1014300009F01A0E7CDE12EF09F00D0E78DE71EF66
:1014400009F00B0E74DE76EF09F07ADE1E0EEB501B
:10145000030812000C01100E386F26D8F5EF08F0C3
:1014600007C011F008C012F009C013F012005FDECF
:10147000D9EF08F0230E5BDE63EF09F081DE6BEF3E
:101480000AF055DEA5EF08F011C0EEFF12C0EEFF26
:1014900013C0EEFF1200060E97EF08F028D8BCEF3D
:1014A00009F028D8ED10120046DE1A0E97EF08F06A
:1014B00035D8EF8640DE120E38C2EBFF130E39C26C
:1014C000EBFF2CD8EF84120061DFEF501200CFEC5D
:1014D00019F0C1EF09F0160E97EF08F09EDEC6EF87
:1014E00009F029DEEF50120093DEC6EF09F01FDE8F
:1014F0003EEF09F01CDEEE50120000CCE9FF01CCFB
:10150000EAFF12001DDE64EF0AF015DE6BEF0AF051
:101510003CDEC6EF09F00FDE64EF0AF00CDEC6EF2A
:0815200009F02FDF100B12008F
:08152800D8CFE4FFE0CFE4FF9F
:10153000E46EDACFE4FFE2CFDAFFE9CFE4FFEACFEF
:10154000E4FFF6CFE4FFF7CFE4FFF5CFE4FFF3CFFE
:10155000E4FFF4CFE4FFFACFE4FF00EE00F0100E5A
:10156000E80403E3EECFE4FFFBD700EE10F0100E2B
:10157000E80403E3EECFE4FFFBD7E652DDEC36F000
:10158000E55200EE1FF0100EE80403E3E5CFEDFF97
:10159000FBD700EE0FF0100EE80403E3E5CFEDFFFC
:1015A000FBD7E5CFFAFFE5CFF4FFE5CFF3FFE5CFBB
:1015B000F5FFE5CFF7FFE5CFF6FFE5CFEAFFE5CF93
:1015C000E9FFE5CFDAFFE550E5CFE0FFE5CFD8FF53
:1015D00010000C01016B48C202FC49C203FC48C266
:1015E000E9FF49C2EAFFEFCF00FCEF5023E02E0EE7
:1015F0000C01005D13E1020148C2E9FF49C2EAFFA4
:10160000482B000E4923EF6A4AEC10F0012BAAEC9C
:1016100010F048C202FC49C203FC07D0300E005D46
:1016200003E30051390801E2000C0201482B000ECF
:101630004923D5D74AEC10F0AAEC10F0030E0C01A8
:10164000015D01E0000C010C02EC11F006EC10F061
:10165000010EE926000EEA2206EC10F0020EE92641
:10166000000EEA2206EC10F0030EE926000EEA2234
:10167000EF50E66EE66AF7EF10F00201D56B44EC2E
:101680002EF00201010ED56F44EC2EF0C00E106E4C
:101690004C0EE3EC10F0BC0E106E4C0E0BEC11F087
:1016A000AF0EE66E020E6CEC10F0BF0EE66E020E90
:1016B00076EF10F02FEC2EF00A0E0001925D32E270
:1016C0000201BC0E4E6F020EB4EC10F021EC11F0D2
:1016D00006C000FC07C001FC08C002FC09C003FCF6
:1016E0005BEC10F0040E986F0C0E996F09EC12F081
:1016F0006AEC2CF0000906E1AD0E106E4C0EE3EC26
:1017000010F014D00301070EA66F0301AC0EA46FF6
:10171000020EA56F0301040EA26F0C0EA36FFDEC69
:1017200012F004D01E0E925D04E2A7DF0001922B9E
:1017300001D0926B0BEF2EF00B01006B0F0E9EECA5
:1017400010F0EF6A50C2E6FF51C2E6FFD2EC30F073
:10175000E552E5520F0E0B01005D13E200519EECC5
:1017600010F0EF500BE10F0E0B01005D0AE200518B
:10177000002B9EEC10F0200EEF6EF5D70B01002B26
:10178000E9D712000C01600E016F000E026F030119
:10179000726B736B0301716B15EC35F00301550E21
:1017A000746F5CEC35F00C01006B0051C9EC10F06B
:1017B0000EE201CCE9FF02CCEAFF012B000E02236E
:1017C000EFCF74F35CEC35F00C01002BEED768EF33
:1017D00035F00C01866B006B72EC31F0F3CF84FCBA
:1017E000F4CF85FC88EC10F0D4EC36F006C08BFC0E
:1017F00007C08CFC08C08DFC09C08EFC870EE96E0A
:101800000C0EEA6EEE500C01065C106EEE5007589E
:10181000116EEE500858126EEE5093EC10F00CE37F
:1018200088EC10F0B8EC35F00009FCE10001150E71
:10183000F76FCFEC35F0917CC4EC35F00009D4E0C3
:101840000C01865101E07FD0C4EC35F00009F8E0CE
:10185000917CCDEC35F00C01016F0051030A2DE0B5
:10186000010A28E0030A21E0010502E1010E23D06C
:10187000040E015D10E1918C5BEC31F0B8EC35F0B9
:101880000009FCE10001060EF76FCFEC35F00C010A
:10189000010E866FD5D7B8EC35F00009FCE10001E8
:1018A000150EF76FCFEC35F0CBD7060E036F026B3A
:1018B000020E01D0030E006FC3D70251022BEA6A59
:1018C000040FE96E0C0EEA2201CCEFFF0251106EFC
:1018D000116A1134B5E210508008000E1154B0E2C4
:1018E00084CCFEF185CCFFF1CAEC31F00C01060E80
:1018F000036F016B0151106E116AD890115004E60C
:10190000800E105C000E11580DE20151EA6A040FBE
:10191000E96E0C0EEA22EFCFF9F178EC31F00C0110
:10192000012BE8D791EC31F0F3CF84FCF4CF85FCA8
:10193000B8EC35F00009FCE103CCF7F0CFEC35F062
:101940000C01006B7DD7010CC4EC35F0000964E19B
:1019500081B661D0D4EC36F006C001FC07C002FCB1
:1019600008C003FC09C004FC81B655D0D4EC36F0A5
:101970000C010151065C106E0C0102510758116EEA
:101980000C0103510858126E0C0104510958136ED2
:10199000D880900E1054010E1154000E1254000EF7
:1019A000135438E20301726B736B0301716B15EC16
:1019B00035F00301746B5CEC35F068EC35F0000138
:1019C000660EFD6F4B0EFE6F0001FF6B01EC36F0F3
:1019D000918091829184D4EC36F00C010151065C27
:1019E000106E0C0102510758116E0C01035108587A
:1019F000126E0C0104510958136ED880200E105439
:101A0000030E1154000E1254000E135401E3E3D7D9
:101A1000FF0001D0A9D798D7CDEC35F00C01006FAD
:101A2000300E0C01005D08E33A0E0C01005D04E28B
:101A30000C01005103D002D03A0E00D012009CDB02
:101A4000300E0201525DE96EEA6AD890E936EA3654
:101A5000930EE926000EEA22EECFFDF0EFCFFEF066
:101A60000001FF6B01EC36F002015251300A01E136
:101A7000A0D0090A01E19BD0010A01E195D00F0A2B
:101A800001E18FD0010A52E0030A4BE0010A44E071
:101A9000070A3DE0010A21E0030A01E012008EDBA3
:101AA00077C0E6FF78C0E6FFA2DB00018F0EFB6F78
:101AB0000C0EE6DA140E24DB000901E17BD07EDB9C
:101AC000BCEC23F0E552E552F3CF77F0F4CF78F099
:101AD000F4CF68F0F3CF69F012000001810EFB6FC4
:101AE000000ECEDA100E0CDB0C018F5163E0100EED
:101AF000E66EE66A63DB810EE66E000EE66EF5ECDE
:101B00002FF0106E060EE15E1050C2EF10F00C01C7
:101B1000600EBB6F000E0ED00C016E0EBB6F000E80
:101B200009D00C016A0EBB6F000E04D00C01720EBE
:101B3000BB6F000EBC6F0201A30E4E6F0C0E4F6FF9
:101B4000BBCC4CF2BCCC4DF27FDD0001A30EFB6F91
:101B50000C0E96DA140ED4DA0201B70E4A6F0C0E90
:101B60004B6F02018F0E486F0C0E496F32DD00097A
:101B70000BE100018D0EFD6F650E40DBC4EC35F00E
:101B80000009FCE0CDEF35F0BBCCE9FFBCCCEAFFAF
:101B9000B7CCEEFFB8CCEEFFB9CCEEFFBACCEEFF7F
:101BA0001200000176811200000176911200E9EF27
:101BB0000BF0E8DD12000001360EFD6F640E1EDB37
:101BC000C3DE0B01036F3A0E035D03E003CB52F259
:101BD00036DF300E0B01035DEEE1120053C2E9FF68
:101BE00054C2EAFFDDDA0B01006FE85012E1020E89
:101BF0000201EA6A5325E96E5451EA22D1DA0B0157
:101C0000016FE850010A04E0010A03E1917201D07A
:101C100091740A0EE66EE66AD30E106E650E1BDA3C
:101C200053C2E9FF54C2EAFFEECFE6FFEFCFE6FF73
:101C3000D7EF10F002015651220A01E18ED0010ABD
:101C400001E18BD0020A01E17CD0010A6EE0370A83
:101C500060E0010A52E0190A44E0010A3DE0030A8B
:101C600037E0090A31E0110A2BE0010A25E0070AF2
:101C70001FE0010A19E0030A13E0010A0DE0110A4E
:101C800007E0010A01E0ADD09150010B2DE127D012
:101C90009150020B24E028D09150040B20E024D076
:101CA0009150080B1CE020D09150100B18E01CD074
:101CB0009150200B14E018D09150400B10E014D03C
:101CC0009150800B0CE010D08150080B08E00CD034
:101CD0008150040B04E008D08150020B05E1300E66
:101CE00006D08150010B02E0310E01D0300E59C2F6
:101CF000E9FF5AC2EAFFEF6E74D05751581104E160
:101D00005B0E106E4B0E65DA9DD96BE0B4D964E1C1
:101D100068D05751581104E1460E106E4B0E59DA37
:101D200091D95FE0A8D958E15CD05751581104E12E
:101D30005B0EE66E020ED0D985D953E09CD94CE1FA
:101D400050D05751581104E15B0EE66E020ECED909
:101D500079D947E090D940E144D05751581138E142
:101D60006AEC2CF000090DE1220E0201565D04E13F
:101D70003D0E106E4B0E03D0370E106E4B0E29DA4F
:101D800027D021EC11F006C093FC07C094FC08C0DA
:101D900095FC09C096FC8FD9970E986F0C0E996F21
:101DA00009EC12F0220E0201565D03E10301030E5D
:101DB00002D00301060EA66F03015B0EA46F020E94
:101DC000A56F0301970EA26F0C0EA36FFDEC12F02E
:101DD00039D907E050D905E057C2F3FF58C2F4FFE4
:101DE0001200F368F4681200400E9B6E896A0C0EB4
:101DF000926E8A6A4F0E936EC00E8B6E900E946E2A
:101E0000880E8C6E956A8D6A966A030E8E6E976A3E
:101E10008F6E986A906A996A916A9A6A200EAC6E7F
:101E2000900EAB6EAC84860EAF6E010EC26E0D0EC0
:101E3000C16EF19ED08EF28EF28C210EC66E400ED7
:101E4000C76E1200000176910C01600E046F000E47
:101E5000056F0301696B6A6B0301686BC6EC34F0B4
:101E6000D0EC34F00C01036FEFEC34F0550E0C01A4
:101E7000035D1FE1010E0301696F6A6B0301686B6B
:101E8000C6EC34F00C01036B035183D910E2D0ECA3
:101E900034F0E66E0C0104CCE9FF05CCEAFF042B1C
:101EA000000E0523E552E750EF6E032BEDD7EFEF61
:101EB00034F0C2EF0BF00C01BD6B96DF7AEC2EF024
:101EC000320E0301F66FF76B82EC37F00201F20E6F
:101ED000D76F630ED86F0201010E37D9FA0ED76F94
:101EE000630ED86F0201020E30D9020ED76F640E56
:101EF000D86F0201030E29D90A0ED76F640ED86F6E
:101F00000201040E22D9120ED76F640ED86F02019F
:101F1000050E1BD91A0ED76F640ED86F0201060E7C
:101F2000D66F59EC2EF0260E106E4B0E4CD91A0EB1
:101F3000106E4B0E70D90BEC2EF0FA0E0301F66FFB
:101F4000F76B82EC37F00301800E906F0B0E916FF0
:101F50002B0E926F0D0E936F18EC11F0C6EC36F04D
:101F6000E7EC30F0100EE66EE66A100E106E4B0EC7
:101F700072D8810EE66E000EE66E19D903D962DFC3
:101F800081A619DEF9EC32F007EC18F09AEC21F09A
:101F9000D4EC36F00001A751065C106EA85107582A
:101FA000116EA9510858126EAA51BDD80DE3D4EC98
:101FB00036F006C0A7F007C0A8F008C0A9F009C015
:101FC000AAF091705AEC0BF003EC33F0FBEC17F035
:101FD000CBEC20F076EC2AF0FF0E0001915DD8E00A
:101FE00091690001220EFD6F640E08D90201CC0E2A
:101FF0004E6F0C0EB9D80001CC0EFB6F0C0EFC6FAF
:10200000ECEC35F0B9D801EC2AF0C2D7EF50E66E0F
:10201000E66AEDD84EC2E6FF4FC2E6FF96EC30F01E
:10202000E552E552F35002014E27F4504F234EC2C1
:10203000E9FF4FC2EAFF4E2B000E4F232E0EEF6E2C
:1020400002EF11F00201CBD859C2E9FF5AC2EAFFF0
:10205000EF6EEFEF10F0116E126A10C0E6FFE66E41
:1020600012C0E6FF1200E66E7DEC30F0136E050E36
:10207000E15E13501200572B000E5823EFEF10F0C3
:10208000FC6FECEC35F00001620EFD6F4B0EB6D824
:102090000001120002CCE6FF03CCE6FFBCEC23F00B
:1020A000E552E552F350E66E4AC210F04BC211F011
:1020B0000C01015112000301B00E9E6FB90E9F6F0B
:1020C000A069A16906C09AF307C09BF308C09CF3FE
:1020D00009C09DF303011200E66EE5C3E6FFE6C307
:1020E000E6FFE7C3E6FFE8C3E6FF9BD0E66EE1C389
:1020F000E6FFE2C3E6FFE3C3E6FFE4C3E6FF91D0F9
:10210000F66F00018F0EF46F0C0EF56F91EF35F046
:10211000D4EC36F006C087FC07C088FC08C089FCF8
:1021200009C08AFC12000958136E320E105C000EB2
:102130001158000E1258000E135812000201EA6ADC
:102140005025E96E5151EA221200D66F59EC2EF05B
:10215000020112000F011024E96E000E1120EA6E38
:10216000E552E750EF6E12004F6F0201600E4C6FA8
:10217000000E4D6F24EF0BF00001330EFD6F640E67
:10218000FEEF10F00201810E506F000E516F9CEFB8
:102190000BF0106E116A310E105C000E1158120017
:1021A000EE50EFCFEAFFE96EEF50D00F120020ECB7
:1021B00030F0136E070EE15E135012008F0EE66EC4
:1021C0000C0EE66E120047DFAC0EE66E020E33EF29
:1021D00010F041DF5B0EE66E020E33EF10F0575148
:1021E000EA6A5B0FE96E020EEA22EF50120031EC50
:1021F00024F0E552E552E552E5521200FE6FFF6B06
:1022000001EF36F04EC2E6FF4FC2E6FF4CC2E9FFD7
:102210004DC2EAFF12001FDFBC0EE66E020E33EF66
:1022200010F0CBEC24F0106E060EE15E10501200A0
:1022300090C326F391C327F392C328F393C329F3E2
:10224000120026C306F027C307F028C308F029C3ED
:1022500009F0120094C310F095C311F0040E0D6E36
:102260000E6A50DB04C010F005C011F004500510D8
:102270001FE194C312F095C313F0640E0D6E0E6A45
:1022800041DB04C012F005C013F00450051012E148
:1022900094C314F095C315F0900E0D6E010E0E6EE2
:1022A00031DB04C014F005C015F00450051002E045
:1022B000000E01D0010E0B01006FE850106E116A84
:1022C000F36E11C0F4FF12000C01006B016B026B86
:1022D000036BD00E046F070E056F2EDBEECF10F0F0
:1022E000EFCF11F005511118E8AE02D0113404D02F
:1022F0001050045D1150055920E204CC94F305CC34
:1023000095F3A8DF30DB02E06E0E01D06D0E106E8B
:10231000010E116E126A136A11AE02D012681368B0
:1023200010500C01002711500123125002231350AA
:102330000323042B000E0523D0D7046B056B55DB5C
:10234000040EEB5005AF02D0D89003D0045D000E10
:1023500005592CE2F1DAEECF94F3EDCF95F37ADF65
:10236000F3CF11F0F4CF12F00C0E1202F3CF12F0F3
:102370001102F3CF11F0F4501226C80E11266E0E82
:10238000122211500C010425F66E12500521F76E31
:102390000800F5CF10F0000110500C010027000ECE
:1023A000012302230323042B0523C9D71EDB030EBD
:1023B000EB5064DA036F0007000E015B025B035B06
:1023C00019DBD8DA03CC09F008EC37F002C000FCC6
:1023D00003C001FC04C002FC05C003FC06DB020EC6
:1023E000EB50066E076A086A096A100E0B6E0E0E35
:1023F0000C6E1BDA010EEB50066E076A086A096A5A
:102400003C0E0B6E0C6A11DAEF5038DAB3DA096E53
:10241000120003019E519A279F519B23A0519C2398
:10242000A1519D239AC385FC9BC386FC9CC387FC5A
:102430009DC388FC37DA06C085FC07C086FC08C04F
:1024400087FC09C088FC9AC389FC9BC38AFC9CC397
:102450008BFC9DC38CFC26DA30DADBDA43EC36F0F9
:102460000650E66E3BDA020E8CDAD3DA6BDA43EC16
:1024700036F023DA3C0E4CDA0650E66E2FDAEE52D6
:10248000E552E750EF6E5EDA3C0ECADAE552E750ED
:10249000EF6E85CC06F086CC07F087CC08F088CCB0
:1024A00009F0060E0626000E072208220922070E52
:1024B000B7DA070E66DA0C01D00E8D6F070E8E6F3D
:1024C0002DDAF3CF10F0F4CF11F0F350F41003E055
:1024D0000C016E0E02D00C016D0E896F010E8A6F19
:1024E0008B6B8C6B8AAF02D08B698C69850EE96E21
:1024F0000C0EEA6E030EEB508C19E8AE02D08C3550
:1025000008D08951EE5C8A51EE588B51EE588C51AF
:10251000EE580CE38D2B000E8E238951855F8A5176
:10252000865B8B51875B8C51885BCAD7800E881580
:102530001CE08D07000E8E5BF1D915DA02E06E0EFD
:1025400001D06D0E106E010E116E126A136A11AE7B
:1025500002D01268136810500C0185271150862391
:102560001250872313508823E1D7B8D9050E8DCC9C
:10257000EBFF060E8ECCEBFFB1D9080E85CCEBFF3E
:10258000090E86CCEBFFCAD9F3CF8DFCF4CF8EFCBD
:102590000C018F6B906B2BD988511318E8AE02D0C9
:1025A000133408D01050855D115086591250875948
:1025B000135088590CE31BD91050855F1150865B6E
:1025C0001250875B1350885B8F2B9023E4D786D9FA
:1025D000040E8FCCEBFF85CC10F086CC11F087CCAD
:1025E00012F088CC13F0102A000E112212221322AE
:1025F00075D9030E10C0EBFF12000C01856B866BC2
:10260000040E865D01E3C6D023D903E10C018507E2
:10261000C1D01ED9060A01E19FD0030A52E0010A87
:102620004CE0070A28E0010A0BE0030A01E0ACD005
:1026300092D9070EADD9180EE926030EB9D8A2D04B
:102640008AD9040EA5D9000EE926030EB1D80C01D3
:1026500085278551852BB2D9200E66D9852B9DD82B
:10266000030EE8D9A2D9030EEB50090801E38CD080
:102670000C01852B89D05CD904E291D9020EDAD9FC
:1026800003D098D9020EA1D98BD836D904E287D9C4
:10269000010ED0D903D08ED9010E97D981D83A0E28
:1026A000EF6E83D9EF50106E0A0E105C03E277D9FB
:1026B000EF5061D07FD9EF5063D07CD914D9040E8C
:1026C00061D073D9040EEB50106E090E105C06E257
:1026D00066D9040EEB50010F68D808D06BD9040EF0
:1026E000EB50010F62D8020E0C01852759D82F0E2E
:1026F000EF6E5BD9030E99D904E251D9030E9AD932
:1027000003D058D9030E61D94BD82F0E0DD945D817
:10271000EAD8020EE66EE66A0C0185255BD90C014B
:1027200085510301136AA425126EA551132212C00C
:10273000E6FF13C0E6FFF5EC2FF0146E060EE15E27
:10274000020E0C0185270CD9200EEF6E0C01852995
:1027500035D9200EEF6E18D0EBD804E220D9020E46
:1027600069D903D027D9020E30D91AD8C5D805E2C5
:1027700016D9010EEB5019D807D01CD9010EEB5019
:1027800014D8020E0C0185270BD8200EEF6E0C0119
:10279000862B36D7E5D8EF6A12001CD9D5EF14F096
:1027A0000C018551852BDEEF14F0E66EE66A2AD126
:1027B000EA22EECF10F0EFCF11F0126A10C0E6FF60
:1027C00011C0E6FF12C0E6FF0C0185510301146A37
:1027D000A425136EA551142213C0E6FF14C0E6FF12
:1027E00020EC30F0156E070EE15E030E12008DCC6A
:1027F00014F08ECC15F00C0E1502F3CF15F0140268
:10280000F3CF14F0F4501526C80E14266E0E1522C0
:1028100014508F25F66E15509021F76E0800F5CFF5
:1028200010F0116A126A136A12000D6A0E6A08EC3F
:1028300037F00C0100510224006F01510320016F99
:1028400002510420026F03510520036FF5EF14F0CD
:102850000301A651040DF3CF10F0F4CF11F0E00EF8
:1028600010266E0E11220C0186510F011024F66EF7
:10287000000E1120F76E0800F5501200106E116A5C
:10288000126A136A000EE96E0C0EEA6EEE50102406
:10289000006FEE501120016FEE501220026FEE50CB
:1028A00013201200A7D89AC306F09BC307F09CC35D
:1028B00008F09DC309F040EF37F002C089FC03C067
:1028C0008AFC04C08BFC05C08CFC02C006F003C06F
:1028D00007F004C008F005C009F0120098C3E9FF32
:1028E00099C3EAFF1200050EE926000EEA22EECF98
:1028F000E6FFEFCFE6FF86D03A0EEF6E56D8010E18
:1029000015EF15F094C308F095C309F01DEF36F0EC
:102910000B6E0C6A0D6A0E6A43EF36F08DCC94F3A1
:102920008ECC95F32AEF11F0EF6E0C018551120059
:102930003CD8020E15EF15F058D8050EE926000E0A
:10294000EA22120089CC06F08ACC07F08BCC08F082
:102950008CCC09F01200030EE66EE66AD5EF14F097
:102960008551DEEF14F0F3CF14F0F4CF15F0F350EF
:10297000F410120000CC06F001CC07F002CC08F0F5
:102980001200E926000EEA22E552E750EF6E12002F
:10299000EB50E96EEA6AD890E936EA36120000DFB9
:1029A000300EC2DF852BCDEF13F0A2C3E9FFA3C326
:1029B000EAFF12000C018551CDEF13F00301EA6A22
:1029C000A425E96EA551EA22120034D8020E0C01AA
:1029D000852712000301116AA425106EA55111224A
:1029E00010C0E6FF11C0E6FF120096C3E9FF97C3CF
:1029F000EAFF1200800E0B6E510E0C6E010E0D6E72
:102A00000E6A120031EC24F0E552E552E552E5522F
:102A10001200100E0B6E0E0E0C6E0D6A0E6A120076
:102A200077DF0250E66E6EEF14F0EB50106E0A0E78
:0A2A3000105C1200EB50D5EF13F01C
:062A3A0006DBEE52EECFB8
:102A4000FCF1EDCFFDF1B7EC31F0FEDA070EEB5003
:102A5000000901E177D0F8DA05DB01E185D00C014E
:102A6000B76BF2DA040EEB50080804E038DB02E141
:102A7000F31D6FE0E9DA040EEB50080A34E00E0AA9
:102A80001AE0030A0CE0060A58E1250E0C01B85DB5
:102A900003E15DDB050E50D0010EB76F4ED0250E61
:102AA0000C01B85D03E1010EB76F44D0B8CCBAFC9D
:102AB0004EDB060E41D0B8CCB9FCB8CC70FEBACC17
:102AC00071FE3CEC2BF0E66EBFDA080EC2DAE5527E
:102AD000E750EF6E3CDB080EEF6EB6DA050EEB6AE0
:102AE000060EEB6A2AD00201B80E596F0C0E5A6F0F
:102AF000ABDA050EAEDAEECF57F2EDCF58F2A4DA2C
:102B0000080EEB500201566F1AEC0EF004DB9CDA53
:102B1000050EF3CFEBFF060E11C0EBFF0C01010E0B
:102B2000B76F92DA050E95DAFF0EEE1806E1FF0E8A
:102B3000ED1803E10CDB030EEF6E0C01B7518BE0D7
:102B400010DB89D781DA8EDA0FE0C9DA0BE1F31DE9
:102B500009E1C7EC31F078DAEF5002011E6FEEECBC
:102B600002F0010CFEDAEED7C7EC31F0D4DA6CDA01
:102B7000BDDA000C0C01866B876B886B856B030ECE
:102B8000E66EE66A7C0E106E690EA1DA4AC3E6FFB5
:102B90004BC3E6FF94DA08E1040E03014A27000E56
:102BA0004B230C018A6B01D0020C6CDAEF50200829
:102BB00002E1B6DAFAD7E5DA200E0C01895D5EE0B3
:102BC00089515CE00D0E895D59E00A0E895D56E081
:102BD0004EC3E9FF4FC3EAFFEF50855D4FE28651D8
:102BE000020A15E0030A0DE0010A46E18551BEDA4A
:102BF000C8DA2F0E0C01895D28E05C0E895D3CE18E
:102C000024D08551852BB2DA0C01020E866FB9DA19
:102C10003F0E895D18E0260E895D15E02B0E895D5B
:102C200004E1200E2FDAEF6E27D02E0E895D08E129
:102C3000850506E175DA4AC387FC4BC388FC1CD0C6
:102C40003D0E895D05E11EDAEF6A010E866F14D034
:102C50002F0E895D03E05C0E895D0EE1010E03011C
:102C6000116A4A25106E4B5111220C01850501DABB
:102C700010C0EEFF11C0EDFF53DA9DD703DAEF6A03
:102C8000090E53DAEF6E8751881139E087CCE6FFE1
:102C900088CCE6FFD2EC30F0E552E552F3CF87FC6A
:102CA000F4CF88FC0C01E20E8B6F670E8C6F896B82
:102CB0008951106E116A0A0E105C000E11581FE245
:102CC000030EE66EE66A8BCC10F08CCC11F0126A23
:102CD0008BCCE6FF8CCCE6FF12C0E6FF87CCE6FF8C
:102CE00088CCE6FFECD904E120DA89CCEFFF07D0ED
:102CF000040E0C018B27000E8C23892BD9D70C01D5
:102D0000855125E1090EE66EE66A800E106E690EA9
:102D1000DED94CC3E9FF4DC3EAFFEECFE6FFEFCFAC
:102D2000E6FF20EC30F0136E070EE15E13504CC34B
:102D3000E9FF4DC3EAFFEE50EFCFEAFFE96E090E5F
:102D400088D9EF6A010EF1D9EF6E0C01852B4EC3C5
:102D5000E9FF4FC3EAFF85CCEFFF8A511200030160
:102D600052510A0DF3CF81FCF4CF82FC2A0E0C01E4
:102D70008127030E8223806B62D9BFD903E1E3D997
:102D8000EF6A12005CD9030EEB50090A01E120D171
:102D9000080A01E10DD10A0A01E1A9D0090A01E1FD
:102DA00088D0020A01E022D14AD9AED901E11ED170
:102DB0000C01010E806F7E6B7F6B0C01640E7E5DDB
:102DC000000E7F5914E27ECC2CF27FCC2DF27E2BAC
:102DD000000E7F23000E02012C270C0E2D232FD96D
:102DE000EF5002012B6F71EC04F00009E6E1000ED8
:102DF0000C017E25E96E0C0E7F21EA6EEF6AABD9DD
:102E0000A2D9020EEF6E0C010B0E7B6F18D9090EC2
:102E100020D9E9CF50F3EACF51F303017B0E4E6F77
:102E20000C0E4F6F0301650E4C6F0C0E4D6F0301BE
:102E3000000E4A6F0C0E4B6F9DDE0C017D6FE8504B
:102E400001E0D4D07B5101080EE27BCC55F20201A7
:102E5000650E536F0C0E546FEEEC0DF0F0D8090EAA
:102E6000F8D8020EEF6E65CCF7F166CCF8F1EBEC1A
:102E700030F051D9E4D83AD9E2D8EE52FF0EEE182C
:102E800008E1FF0EED1805E1DAD8080EE2D8EF6A86
:102E90000AD0D5D8EE52EE50ED1008E1D0D8080E89
:102EA000D8D8010EEF6E4FD9020E9FD04CD90B0E21
:102EB0009CD06BD901E19AD0C2D8080EEB50E96ED4
:102EC000EA6AD890E936EA36F20EE926030EEA22DB
:102ED000EECF83FCEDCF84FCDAD802E04DD9FCD7ED
:102EE000AED8EF5002011E6FEEEC02F06ED04DD95D
:102EF00001E17CD00C01010E806FA1D8090EEB50CE
:102F0000020815E19CD8070EA4D8010EEF6E7C6B69
:102F10007C51106E116A840E105C000E11581BE279
:102F20007C51F76AF20FF66E680E04D9F1D787D894
:102F3000070E8FD8EF6A7C6B7C51106E116A1F0EE2
:102F4000105C000E115807E27C51F76AD20FF66E42
:102F5000680EF0D8F1D773D8090EEB50140DF3CFEB
:102F6000F6FFF4CFF7FF0A0EF626680EF722F6CF2B
:102F700083FCF7CF84FC8BD802E0FED8FCD77C6BB7
:102F80007C51106E116A040E105C000E115807E29D
:102F90007C51F76A770FF66E690ECCD8F1D74FD80F
:102FA000040E57D8030EEF6E4AD853D8010E1DD029
:102FB00046D8AAD801E0CFD881CC48F382CC49F3D7
:102FC0003CDD000913E05BEC31F0BDD8090E0DD0FB
:102FD00036D893D80BE0D9D809E031D8EF500201A8
:102FE0001D6FA9EC02F0AFD80A0EEF6E0C018051F4
:102FF00001E0C1D612000B01066B030E065D06E26E
:1030000006CB52F3ACDE0B01062BF7D712000B01F7
:10301000006B030E005D12E2500E0201026F036BA3
:1030200095EC00F0E66E0B013FD8E552E750EF6EED
:103030003BD8030E0ED8EF6A002BEBD7120081CCE1
:10304000E9FF82CCEAFF120048C3E9FF49C3EAFF67
:103050001200E926000EEA221200EF500201206F52
:103060006AEF03F0EF5002011F6F4BEC03F0000911
:103070001200020D03014C51F324E96E4D51F4206E
:10308000EA6E12004AC3E9FF4BC3EAFF12000C01CB
:1030900083CCF6FF84CCF7FF832B000E842308003B
:1030A000F5CF7CFCF550120000510A0DF3CFE9FF7B
:1030B000F4CFEAFF2A0EE926030EEA221200D6EC2C
:1030C0002FF0136E070EE15E135000091200116E0F
:1030D000126A10C0E6FFE66E12C0E6FF120062EC54
:1030E00031F00C01B86F0101F21D1200010EF3CF97
:1030F000EBFF020E11C0EBFF1200EF5002011C6F3C
:10310000A0EC02F000091200EF5002012E6FB2ECA9
:1031100004F000091200F3CF10F0F4CF11F0120008
:1031200003014A2B000E4B23120050C3E9FF51C389
:10313000EAFF1200F7220800F5CF21F280DF8DDFD1
:103140000C017C2B12007BDF030E29EF18F07CDFD3
:10315000040E29EF18F073DFEF500201226FC5EF64
:1031600003F0B8CC21F270DF2DEF18F082DF4AC3F4
:10317000EEFF4BC3EDFF12007CCC21F260DF2DEFA0
:1031800018F080DFEFCF89FC120059DF32EF18F022
:1031900089908992929092920E01FE8B0E01FDA170
:1031A000FDD7010E0301F66FF76B82EC37F00B01D0
:1031B000026B070E0B01025D3EE20B010251106E25
:1031C000116A480E1102F3CF11F0020E1002F350F3
:1031D0001126480E1002F3CF10F0F4501126126A97
:1031E000136A080E1026100E1122000E1222000E75
:1031F00013220B010251050DF3CFE9FFF4CFEAFFD3
:10320000AB0EE926000EEA2210C0EEFF11C0EDFF62
:103210000B010251050DF3CFE9FFF4CFEAFFAB0E2E
:10322000E926000EEA22040EE926000EEA22EF80CB
:103230000B01022BBED70001CE6B0001010ED46F33
:103240000001D06BD16B0E01E86BE96B0E01070E2C
:10325000EC6F0E01100EED6F0E01070EEA6F100EEF
:10326000EB6F0E01080EE46F100EE56F0E010D0EF0
:10327000A06F00000E01320EA26F00000E01400E82
:10328000A36F00000E01120EA66F00000E010C0EBF
:10329000A76F00000E01EE0EAA6F00000E01050ED2
:1032A000AB6F000064C084FE000065C085FE0000B6
:1032B00066C082FE000067C083FE000068C080FE1A
:1032C000000069C081FE00000001F16B010EF26F89
:1032D0000001100EF06F32DA0001720EF16F040E71
:1032E000F26F0001140EF06F29DA0001F36B33DA8C
:1032F0000E01DF8512000001010EEF6F07DAF350B7
:10330000040B01E0010E12000001D55106E00E0190
:10331000DF51080B080A19E0010CCF51CE5D06E120
:103320000E01DF51080B080A10E0010C0B01010E21
:10333000026F070E025D08E202516CDAEF50010BDA
:1033400001E0010C022BF5D7000E12000001D6514E
:1033500006E00E01DF51080B01E1000CFF0C0B0130
:10336000010E026F070E025D0FE2025153DAEF50B9
:10337000010B08E002514EDAEF9002514BDAEF9266
:1033800002511200022BEED7FF0C0001D7510708A3
:1033900005E3D7513FDAEF80D7C0CEF0120000012D
:1033A000D45101E01200010ED46FD0C004FBD1C093
:1033B00005FB0B01045F000E055B04CB10F005CB91
:1033C00011F01CDA04E2070E046F100E056F0E01F7
:1033D000FE8D04CBECFE05CBEDFE0E01FC9D120034
:1033E000D9CEABFCEECEADFCEFCEAEFC0C01AB51BA
:1033F0000E01D95DF5E1ECCEABFCEDCEACFC0C01E1
:10340000AD51AB5DAE51AC5911E2070E146E100E0A
:10341000156EAB51AD5D186EAE51AC55196E1850AE
:10342000145C106E19501558116E14D0AB51AD19B3
:1034300008E1AC51AE1905E1070EF36E100EF46E03
:103440001200AD51AB5D106EAC51AE55116E100651
:10345000000E115A10C0F3FF11C0F4FF12000E014C
:10346000D95102E1000E85D00001D45103E197DF6C
:10347000000E7FD0D0C0D2F0D1C0D3F0D0C0E0FEDB
:10348000D1C0E1FE140E0001E86FE96B0001000EEF
:10349000E66F0C0EE76F02D912CC74FE13CC75FEEA
:1034A00074EC2BF0F3CF12FCF4CF13FC00CC10F033
:1034B00001CC11F0126A136AD880070E1054100E56
:1034C0001154000E1254000E13541BE30C010C0196
:1034D0000051010B16E10C010C010551800B11E1AB
:1034E0000C010C010451100B0CE10C01EE0ED88004
:1034F0000255050E035505E30C010C010451800B28
:1035000001E1FF0000CCD0F001CCD1F0060EE66E58
:10351000E66A0C0EE66E0C0EE66ED8C0E9FFD9C066
:10352000EAFFE9CF10F0EACF11F010C0E6FF11C0BA
:10353000E6FFF5EC2FF0126E060EE15E1250DAC0D7
:10354000E9FFDBC0EAFFEF68080E0C01135D0DE137
:103550000C01125104E0060E0C01125D06E1DAC006
:10356000E9FFDBC0EAFF12CCEFFF0001D46B010ED4
:1035700000D012000001CE5132D9EECFE2FEEDCFE5
:10358000E3FECE5151D90E0E1026000E112210501E
:10359000DF271150E02341D9DFC0EEFFE0C0EDFF8F
:1035A0000001EA6B9AD8060E0001ED6FEE6BDCC0ED
:1035B000EBF0DDC0ECF094D8060E0001ED6FEE6B81
:1035C0000001640EEB6F000EEC6F8AD80001080E4C
:1035D000EA6F83D80001DE5102E1000E01D0060E31
:1035E0000001EA6F6DEF1BF00001CE51F8D8EECF6D
:1035F000E4FEEDCFE5FE11D9EECFE6FEEDCFE7FE1E
:10360000CEC0CFF0CE5106D9EF820E01FCA304D07C
:10361000FC930E01DF8FDF9F0E01DF871200140E77
:103620000001116AD225106ED35111221050E125EC
:103630000B01006F11500001E2210B01016F00CB63
:1036400010F0116EDBD804E2080E005F100E015B73
:1036500000CBE0FE01CBE1FE00CBE2FE01CBE3FEBE
:103660001200E3C0CEF00001E351DED8010E1026B7
:10367000000E11220E0E1026000E11221050E4270B
:103680001150E523E4C0E0FEE5C0E1FEE4C0E2FE47
:10369000E5C0E3FE12000E01FA511200E8C000FB83
:1036A000E9C001FB0B0100CB10F001CB11F00007CA
:1036B000000E015B105011100BE00001E6C0E9FFA5
:1036C000E7C0EAFFE62B000EE723FACEEFFFEAD7CA
:1036D000E8C0F3FFE9C0F4FF1200EAC0FAFE1200EE
:1036E0000001EDC010F0EEC011F0ED07000EEE5B32
:1036F000105011100AE0EBC0E9FFECC0EAFFEB2B21
:10370000000EEC23EFCFFAFEEBD71200EFC0B4FEB1
:1037100000000E01010EB26F00000E018AB1FDD74C
:103720000E01B26B0000B8CE00FB0000B9CE01FB69
:1037300000CBF3FF01CBF4FF00D01200F0C0B4FEC9
:103740000000F1C0B6FE0000F2C0B7FE00000E019E
:103750008AB1FDD712000E01DF950E01DF9700013F
:10376000EF6BD4DFF3CF00FCF4CF01FC0001F35189
:103770000C010191E8B0018100CCF1F001CCF2F034
:103780000001F06BDBDFA2CE02FC0C010291000114
:10379000F35102E00C01028102CCA2FE0000000104
:1037A000F35102E0150E01D0120E0E01A46F0E01AE
:1037B000DF8512000E01DF950E01FDB5FDD70E016C
:1037C000DFB7FDD70E01FE9B12000E01FE8BE80E47
:1037D000E66EC0EC37F0E5520E01DF851200050DF4
:1037E000F3CFE9FFF4CFEAFFAB0EE926000EEA22A1
:1037F0001200040EE926000EEA221200126A136A71
:10380000D880070E1054100E1154000E1254000EE2
:1038100013541200E4DFF9EF1BF0CE51E0DF020E8B
:10382000E926000EEA221200DADFEECF10F0EFCF29
:0438300011F0120081
:0C3834000C01000E226F0E0E236F216BA2
:10384000040E215D44E2BADA0C0EFADAEFCF11F081
:10385000126A136A105011101210131032E1AEDA0E
:103860000C0E59CEEBFF0D0E5ACEEBFF0E015B5145
:103870005C1111E00A0EE66EE66A5BCEE6FF5CCEF6
:10388000E6FF9CDA22CC10F023CC11F022CCE6FF2C
:1038900023CCE6FFB1DA92DA0A0E5DCEEBFF0B0E17
:1038A0005ECEEBFF8BDA0E0EEB6A0F0EEB6A86DA5A
:1038B000100EEB6A110EEB6A21CC58FE0C0121515F
:1038C0001200160E2227000E2323212BB9D7FF0C3E
:1038D0000E015F515BDA0C0E63DAEE6AED6A5F513E
:1038E00055DA060E5DDAEE6AEE6AEE6AEE6A5F514E
:1038F0009FDAEF9012000E015851160DF3CF30FCF5
:10390000F4CF31FC000E0C0130270E0E312394DA77
:10391000EE50ED101DE10001010ED66FA6EC19F07E
:10392000E66E42DA120E3CDAE552E750EF6E3CDA10
:10393000120EEB50FF0801E1000C1C0E0001E46FB9
:10394000E56B32DA60DA30DA130EEB6A140EEB6AEA
:1039500060CEEAF06DEC1BF027DA130E71DAEDCFD2
:1039600011F0EE2AEF2268DA3CDA105C135011589D
:1039700003E362DAEE2AEF225FDAEECF32FCEDCF1C
:1039800033FC0C01160E325D020E335901E301D8EF
:10399000010C0001010ED56F84EC19F00009F9E06B
:1039A0000E015851160DF3CF29FCF4CF2AFC000E5E
:1039B0000C0129270E0E2A23FCD90C0EF1D929DA85
:1039C000F3CF21FCF4CF22FCF4D90A0EE9D921DA95
:1039D000F3CF23FCF4CF24FCECD90E0EE1D9EECFCB
:1039E00025FCEFCF26FC080E0C012527000E262310
:1039F000276B286B140E0001E46FE56BDAD903DA4C
:103A000025CCCBF326CCCCF30301110ECA6FD1D950
:103A100029CCC8F32ACCC9F303EC28F025CC74FEDA
:103A200026CC75FE74EC2BF0F3CF25FCF4CF26FCEE
:103A3000080E0001ED6FEE6B0001210EEB6F0C0E16
:103A4000EC6F70EC1BF0F4EC1AF0B3D9120EA8D99D
:103A5000EF68AFD90E0EEB6A0F0EEB6A120061CE63
:103A600058FEE2D9D880EE54000EED5401E3000C6C
:103A7000010CDAD9EE50ED1001E1000C5851D8D903
:103A8000EF50010B05E05851D3D9EF90080EAFD994
:103A90004BEC1BF062CEE9FF63CEEAFFEF6EC4D9B8
:103AA000EE06EF5A5851D0D9EE50ED1002E1CFECAE
:103AB00019F0010CB9D9EE50ED1002E0CFEC19F07D
:103AC000B3D9EE6AED6A12000C011869000E196F85
:103AD0000E0E1A6F176B040E175D5CE274D90C0E94
:103AE0005FD976D9020E5CD97CD910184CE11350FD
:103AF000111849E168D90A0E53D96AD972D9101838
:103B000040E1135011183DE15ED9100E49D9EECFB6
:103B100014F0EFCF15F0166A176A1450151016102E
:103B200017102FE166CEE9FF67CEEAFF060E88D9AF
:103B3000EECF11F0EECF12F0EFCF13F044D9060E16
:103B40002FD9EE500001101808E1EE50111805E1D0
:103B5000EE50121802E1EE50131810E068CEE9FFA3
:103B600069CEEAFFE868EE180CE1E868EE1809E1B2
:103B7000E868EE1806E1E868EE1803E10C01175159
:103B8000120017CC18FC0C01160E1927000E1A2370
:103B9000172BA1D7FF0E185D2AE01851160DF3CF91
:103BA00019FCF4CF1AFC000E19270E0E1A230A0E68
:103BB000E66EE66A66CEE6FF67CEE6FF04D919CC6C
:103BC00010F01ACC11F019CCE6FF1ACCE6FF14D98C
:103BD00064CEE9FF65CEEAFFEECF10F0EFCF11F033
:103BE000F2D80A0E10C0EBFF0B0E11C0EBFF0C0158
:103BF00018511200080E0001E86FE96B0001000E79
:103C0000E66F0C0EE76F4EEC1BF000CC74FE01CC9F
:103C100075FE74EC2BF0F3CF00FCF4CF01FC02CC6A
:103C200074FE03CC75FE74EC2BF0F3CF02FCF4CFE2
:103C300003FC04CC74FE05CC75FE74EC2BF0F3CFC2
:103C400004FCF4CF05FC0C01080E045F000E055BBC
:103C5000065107116FE006CC74FE07CC75FE74ECBC
:103C60002BF0F3CF06FCF4CF07FC6ACEE9FF6BCE56
:103C7000EAFF060E95D8EECF09FCEECF0AFCEECF98
:103C80000BFCEFCF0CFCCBD8EFCF0DFC010E88D88E
:103C9000EFCF0EFCC4D8020E83D8EFCF0FFCBFD8F5
:103CA000030E7ED8EFCF10FC0C01116B110E126FBA
:103CB0006ECE13FC6FCE14FC6ECE74FE6FCE75FE0E
:103CC00074EC2BF0F3CF13FCF4CF14FC0C0E0E01AC
:103CD0007C6F7D6B0E01090E7A6F0C0E7B6FA8EC6A
:103CE0002BF0F3CF15FCF4CF16FC0C01151F161F9B
:103CF000060E7DD815CCEAF06DEC1BF0070E77D8D8
:103D000016CCEAF06DEC1BF00301CD6BCE6B79ECB9
:103D100028F06ECE7EFE6FCE7FFE1EEC2CF0F3CF31
:103D200015FCF4CF16FC0C010651F31816E10751EF
:103D3000161913E16CCE68FE6DCE69FE6ACE66FE82
:103D40006BCE67FE0E01000E646F0C0E656FBCDE5D
:103D50000C01086FFF0E085D03E1CFEC19F0010CB8
:103D6000085172D804CCEEFF05CCEDFF085160D8A5
:103D7000EF80010C0B01006B040E005D06E200CB2E
:103D80005FFEA6DD0B01002BF7D71200160DF3CF57
:103D9000E9FFF4CFEAFF000EE9260E0EEA22120038
:103DA000E926000EEA22120030CCE9FF31CCEAFF0E
:103DB000120029CCE9FF2ACCEAFF120022CCE9FF4D
:103DC00023CCEAFF120019CCE9FF1ACCEAFF12005B
:103DD000EECF10F0EFCF11F064CEE9FF65CEEAFF31
:103DE0001200EECF12F0EFCF13F0125012000301C9
:103DF000CD6FCE6B79EF28F0F5EC2FF0126E060E3A
:103E0000E15E12501200120EEB500001E36F31EF31
:103E10001BF0EECF74FEEDCF75FE74EF2BF06CCE81
:103E2000E9FF6DCEEAFF12000E01585124EF1FF09A
:103E3000ADDF150ED0EF1EF0B7DF0E0ED0EF1EF087
:103E4000AFDFEECF10F01200A1DF100ED0EF1EF0AA
:103E5000030EE66EE66A960E106E6F0E9EDA4ACF7D
:103E6000E6FF4BCFE6FF80DA0EE1090EE66EE66A6A
:103E70009A0E106E6F0E91DA4CCFE6FF4DCFE6FF33
:103E800073DA01E1010C000C0C010A6B130E076FD1
:103E90000F0E086F7DDAEF50200804E1072B000EAB
:103EA0000823F8D707CC35FF08CC36FF0F01010EE9
:103EB000436F6EDAEFCF09FCEF5033E00C010A518B
:103EC000010A16E0010A29E1200E095D03E02C0E2B
:103ED000095D05E15DDAEF6A010E0A6F1ED00D0E75
:103EE000095D03E00A0E095D18E152DAEF6A15D0A8
:103EF000200E095D12E00F014351432BE96EEA6A7F
:103F0000D890E936EA36350EE9260F0EEA2207CCBC
:103F1000EEFF08CCEDFF0C010A6B072B000E082307
:103F2000C8D712000F010651030A18E0020A0FE079
:103F3000010A20E1020E065D02E15BEC31F0FE0EAB
:103F40000F01025D06E031DA0F01010E05D014DA2F
:103F500011E10F01030E086F066F000C13DA0AE07F
:103F600001CF1CF2A0EC02F0000904E001CF1DF229
:103F7000A9EC02F0000C0F010651020A37E0030A17
:103F800026E0010A73E100B302D0060E6DD0070EE1
:103F9000086F03CF1AF204CF1BF20151280DF3CFA3
:103FA000E9FFF4CFEAFF000EE926010EEA22EE5205
:103FB000E9CF18F2EACF19F21FEC02F00F01026FFD
:103FC000FE0E025D02E0010E0FD00A0E4DD0D4D9D4
:103FD0004DE00101F1514AE172EC31F0F3CF48FFBD
:103FE000F4CF49FF0F01020E066F000C02CF2EF234
:103FF000B2EC04F000092FE0ACD948CFFEF149CF74
:10400000FFF1CAEC31F00201060E2C6F0B0E2D6F82
:1040100002CF2BF271EC04F0000905E006CBF9F1B8
:1040200078EC31F0F0D791EC31F0F3CF48FFF4CFDA
:1040300049FF02CF22F2C5EC03F0A4D917E0020138
:10404000230E216F01CF20F26AEC03F001CF1EF2A4
:10405000EEEC02F0000C90D909E191EC31F0A5D919
:104060000F01FE0E026F090E086F010C000C0F010C
:104070004E51050A50E0060A4CE0070A33E0060AF2
:104080002FE0030A18E0010A50E100810093010EBD
:10409000086F0A0EE66EE66A37CFE6FF38CFE6FF16
:1040A000090EE66E0F0EE66EA4EC30F0106E060EF2
:1040B000E15E1050010C00A111D037CF4CFF38CF7A
:1040C0004DFF0F01090E4A6F0F0E4B6FC1DE000945
:1040D00004E00F010083020E29D00F01060E26D046
:1040E00092EF1FF03FCFE6FF40CFE6FFBCEC23F09E
:1040F000E552E552F3CF04FF41CFE6FF42CFE6FFA2
:10410000BCEC23F0E552E552F3CF03FF0F010B0E99
:104110000DD0BBEF1FF00B0E086FFE0E025D07E027
:1041200002CF1DF2A9EC02F0010C050E086F010C84
:104130000B01006B060EE76E0019E8AE02D0E73403
:1041400002D0E750005D26E2040EE66EE66A00CB80
:10415000E9FFEA6AE9BEEA68D890E936EA36D90E9C
:10416000E926020EEA22EECF10F0EFCF11F0126A2C
:1041700010C0E6FF11C0E6FF12C0E6FF4FCFE6FF1A
:1041800050CFE6FFF1D803E10B01005112000B0103
:10419000002BD0D7060C01CF1CF2A0EC02F00009D6
:1041A00008E10F01346B070E076F056B006B066BA0
:1041B000010C01CF2EF2B2EC04F0000935E0C9D8B1
:1041C0000201000E2C6F0C0E2D6F01CF2BF271EC43
:1041D00004F000090FE00F013451342BEA6A130F89
:1041E000E96E0F0EEA2200CCEFFF1F0E345DE8E10E
:1041F000346BE6D701CF22F2C5EC03F00A0E0C01B6
:10420000005D3FE10F013451EA6A130FE96E0F0EB2
:10421000EA22EF6A346B38DE35CF4FFF36CF50FFDE
:1042200087DF0F01076F2DD00F0105512AE0D4EC75
:1042300036F006C001FC07C002FC08C003FC09C040
:1042400004FC440EE96E0F0EEA6EEE500C01065CA3
:10425000016FEE500758026FEE500858036FEE5092
:104260000958046F500E015D460E0259000E0359A5
:10427000000E045906E36DD80F01020E076F010E00
:10428000056F0F010551010A36E0050A04E0040A32
:1042900050E1086B5ED876D801E1010C08CFE9FF48
:1042A000EA6AE9BEEA68D890E936EA36E50EE92618
:1042B000020EEA22EECF05FCEDCF06FC0C0105CC88
:1042C000F6FF06CCF7FF052B000E06230800F5CFFE
:1042D00000FCF55007E000CC21F201CF20F26AEC9F
:1042E00003F0ECD701CF1EF2EEEC02F00F010C0E42
:1042F000086F010E056F070E075D1BE007CF4EFF2D
:10430000B6DE00090FE00C0E0F01085D03E0040E9D
:10431000056F04D0020E075D01E1056B070E076F04
:10432000066B010C0C0E0F01085D03E0040E056F17
:10433000B2D7010C150E0201026F036B95EC00F071
:104340000F01016F056B346B006B140E036F046B70
:104350001200D4EC36F006C044FF07C045FF08C089
:1043600046FF09C047FF1200D6EC2FF0136E070E70
:10437000E15E13500009120002CF1CF2A0EC02F023
:104380000009120001CF1FF24BEC03F000091200EC
:1043900007CCE9FF08CCEAFF1200116E126A10C0C8
:1043A000E6FFE66E12C0E6FF12005BEC31F002CFD2
:0643B0001DF2A9EF02F06E
:0A43B600D6D9BED9F3CFEEFF11C037
:1043C000EDFFD0D9020EE926000EEA22B4D9020E82
:1043D000F3CFEBFF030E11C0EBFFC4D9C8D9ABD9A3
:1043E000060EF3CFEBFF070E11C0EBFF12001C0E01
:1043F0000001E86FE96B0001000EE66F0C0EE76F3D
:104400004EEC1BF0CFEC19F00301000E816F0C0E87
:10441000826FD1DF0C01010E001912E1015110E190
:104420000451106E116A060E10180AE1115008E1CD
:104430000551126E136A040E121801E1135001E0C7
:10444000000C020E061905E1075103E186D9EF6A57
:104450000DD0010E061906E1075104E1010E7DD9C8
:10446000EF6E04D0020E79D9EF6E000C180EE96ED3
:104470000C0EEA6EEE500001601928E1EE50611951
:1044800025E1EE50621922E1EE5063191FE11EE1B1
:1044900083C3E9FF84C3EAFF08CCEEFF09CCEEFF3B
:1044A0000ACCEEFF0BCCEEFF0CCCEEFF0DCCEEFFFA
:1044B00083C3E9FF84C3EAFF5AD90ECCEEFF0FCCC9
:1044C000EEFF10CCEEFF11CCEEFF010C000C000152
:1044D000010ED66FA6EC19F00C011C6FFF0E1C5DCF
:1044E00001E1000C0001E46BE56B1CCCE3F031EC66
:1044F0001BF0010E0C01006F016B026B080E036FC5
:10450000060E046F040E056F030189050BE1010E11
:104510000C01066F076B1269136914691569166936
:10452000176914D0020E0C01066F076B87C3E9FFF1
:1045300088C3EAFFEECF12FCEECF13FCEECF14FCE3
:10454000EECF15FCEECF16FCEFCF17FC64C008FCD5
:1045500065C009FC66C00AFC67C00BFC68C00CFCA7
:1045600069C00DFC60C00EFC61C00FFC62C010FC95
:1045700063C011FCECD80E51EE18106E0F51EE18FE
:10458000116E1051EE18126E1151EE18136E0001DB
:104590006A5110166B5111166C5112166D5113168B
:1045A000105011101210131009E06EC018FC6FC0EB
:1045B00019FC70C01AFC71C01BFC09D0C8D8EECF22
:1045C00018FCEECF19FCEECF1AFCEFCF1BFC030159
:1045D000000E816F0C0E826FEEDE1C0E0001DF6F8D
:1045E000E06B0001060EDE6F0001120EDC6F0C0E98
:1045F000DD6FBAEC1AF01C0E0001ED6FEE6B0001DE
:10460000000EEB6F0C0EEC6F70EC1BF0F4EC1AF07C
:10461000010C0301765128E10301270E856F0C0E72
:10462000866F03011D0E836F0C0E846FE0DE0009A0
:1046300029E00C01275115E11DCC77F31ECC78F34E
:104640001FCC79F320CC7AF321CC7BF322CC7CF302
:1046500023CC7DF324CC7EF325CC7FF326CC80F3D2
:10466000010C0301010E766F0301896B03011D0E1E
:10467000876F0C0E886F2BDF000903E00301766B58
:10468000010C000C010C8AC3E9FF8BC3EAFFEECFDB
:1046900023FCEECF24FCEECF25FCEFCF26FC03015C
:1046A000010E896F03011D0E876F0C0E886F67EF77
:1046B00022F08CC3E9FF8DC3EAFF03017D51EE18A0
:1046C00008E17E51EE1805E17F51EE1802E18051BC
:1046D000EE1812E07D0EE96E030EEA6EEE50000158
:1046E0006E191BE1EE506F1918E1EE50701915E1CB
:1046F000EE50711912E111E18EC3E9FF8FC3EAFF99
:1047000077C3EEFF78C3EEFF79C3EEFF7AC3EEFF07
:104710007BC3EEFF7CC3EEFF010C000C0301766B44
:104720007769786979697A697B697C697D6B7E6B69
:104730007F6B806B1200EECF74FEEDCF75FE74ECD4
:104740002BF0F3CF10F0F4CF11F0B2EF23F087C3CA
:10475000E9FF88C3EAFFB7EF23F085C3E9FF86C30B
:10476000EAFF120081C3E9FF82C3EAFF1200060ECE
:08477000E926000EEA22120006
:08477800FF0EE3CFEAFFE5525A
:10478000FF0EE3CFE9FFE552E66AE66AD9CFE6FF1E
:10479000DACFE6FFFC0EE124D96EFF0EE220DA6EDE
:1047A000E66AE66AE66A200EEF5C06E0090EEF5C58
:1047B00003E0EF6603D03FD0EE50F5D72D0EEF5C4F
:1047C00003E1FF0EE32A03D02B0EEF5C01E1EE5074
:1047D0002F0EEF6424D03A0EEF6021D0D890F90E5E
:1047E000E336FA0EE336FD0EDECFE3FFFE0EDDCF3D
:1047F000E3FFD890F90EE336FA0EE336D890F90EBF
:10480000E336FA0EE336FD0EE350DE26FE0EE350ED
:10481000DD22300EEE5CDE26000EDD22D9D7FF0E43
:10482000E3CFE8FFE85207E0F90EE31EE32AFA0EB1
:10483000D8B4E306E31EE552E552E552FF0EE3CF9E
:10484000DAFFE552FF0EE3CFD9FFE552E1CFE9FFF2
:10485000E2CFEAFFED52ED52EECFF3FFEFCFF4FFE0
:104860001200D9CFE6FFDACFE6FFFA0EE3CFD9FF89
:10487000FB0EE3CFDAFFFD0EE35209E72D0EDE6EED
:10488000FC0EE31EE32AFD0ED8B4E306E31EE65257
:10489000E652E652FD0EE124E76EFF0EE220E46EE2
:1048A000E652F70EE3CFE6FFF70EE3CFE6FFA1EC0B
:1048B00024F0F90EE124E96EFF0EE220EA6E91EC9D
:1048C00024F00AE18EEC24F009E191EC24F008E1F7
:1048D0008EEC24F007E108D09CEC24F097EC24F057
:1048E0009CEC24F097EC24F09CEC24F0DE6AF90EAA
:1048F000E126FF0EE222FF0EE3CFDAFFE552FF0EC4
:10490000E3CFD9FFE552FC0EE124E96EFF0EE22071
:10491000EA6EEECFF3FFEFCFF4FF1200EF380F0B8C
:104920001200EF500F0B02E1EE52D8841200EF3864
:104930000F0B300FDE6E1200EE500F0B300FDE6EDD
:104940001200FC0EE3CFE9FFFD0EE3CFEAFF100EED
:10495000E66EEE6AEE6AEF6AD890FD0EE336FE0E62
:10496000E336ED36ED36EF36FF0EE30609E0C2EC36
:1049700024F0EE52C2EC24F0EE52C2EC24F0EDD75B
:10498000E56E1200030EEF24E8B6EF6E300EEF2452
:10499000E8BEEF6E000CD9CFE6FFDACFE6FFF80EE7
:1049A000E3CFD9FFF90EE3CFDAFFE652E652E65243
:1049B000E652E652FB0EE124E76EFF0EE220E46EC3
:1049C000E652F30EE3CFE6FFF30EE3CFE6FFF30E7E
:1049D000E3CFE6FFF30EE3CFE6FF50EC25F0F50E54
:1049E000E124E96EFF0EE220EA6E3DEC25F019E1CC
:1049F00040EC25F018E13DEC25F017E140EC25F006
:104A000016E13DEC25F015E140EC25F014E13DEC1C
:104A100025F013E140EC25F012E13DEC25F011E129
:104A200012D046EC25F04BEC25F046EC25F04BEC93
:104A300025F046EC25F04BEC25F046EC25F04BEC50
:104A400025F046EC25F04BEC25F0DE6AF50EE1266C
:104A5000FF0EE222FF0EE3CFDAFFE552FF0EE3CFB7
:104A6000D9FFE552FA0EE124E96EFF0EE220EA6E6C
:104A7000EECFF3FFEFCFF4FF1200EF380F0B120071
:104A8000EF500F0B02E1EE52D8841200EF380F0BFB
:104A9000300FDE6E1200EE500F0B300FDE6E120084
:104AA000FA0EE3CFE9FFFB0EE3CFEAFF200EE66E3E
:104AB000EE6AEE6AEE6AEE6AEF6AD890FB0EE336B3
:104AC000FC0EE336FD0EE336FE0EE336ED36ED3634
:104AD000ED36ED36EF36FF0EE3060FE07FEC25F006
:104AE000EE527FEC25F0EE527FEC25F0EE527FEC9B
:104AF00025F0EE527FEC25F0E1D7E56E1200030EB3
:104B0000EF24E8B6EF6E300EEF24E8BEEF6E000C37
:104B10004D434850424F415244000405062076332D
:104B20002E37352E36000102034D6963726F6368BC
:104B3000697020544350002D2D3A2D2D002D2D2F1E
:104B40002D2D2F2D2D004A756C2033302032303022
:104B5000372031303A30353A313300332E37352E65
:104B60003600293A20000D0A425554544F4E302049
:104B700068656C6420666F72206D6F726520746862
:104B8000616E2034207365636F6E64732E2020562F
:104B90006563746F7220636F6E66696720696E204B
:104BA000454550524F4D206572617365640D0A0D85
:104BB0000A000D0A526561647920746F20646F7772
:104BC0006E6C6F6164204D50465320696D6167655E
:104BD000202D2055736520586D6F64656D207072AF
:104BE0006F746F636F6C0D0A000D0A4448435020C8
:104BF0002620495020476C65616E696E67206469A4
:104C00007361626C65640D0A000D0A4448435020CC
:104C10002620495020476C65616E696E6720656E7D
:104C200061626C65640D0A000D0A444E53205365A1
:104C30007276657220416464726573732028000D7A
:104C40000A4E65746D61736B2028000D0A4761740C
:104C50006577617920416464726573732028000D63
:104C60000A495020416464726573732028000D0A5C
:104C7000486F7374204E616D652028000D0A5365DE
:104C80007269616C204E756D6265722028000D0A94
:104C90004E6F772072756E6E696E67206170706CF2
:104CA00069636174696F6E2E2E2E0D0A002D2D2FF3
:104CB0002D2D2F2D2D202D2D3A2D2D0052783D00FC
:104CC00054783D00323030204F6B0D0A00343235BD
:104CD0002043616E2774206372656174652064618E
:104CE000746120736F636B65742E20496E63726507
:104CF000617365204D41585F534F434B4554530DED
:104D00000A000D0A323236205472616E7366657283
:104D100020436F6D706C6574650D0A00313235206B
:104D2000446F6E650D0A00313530205472616E7328
:104D300066657272696E6720646174612E2E2E0D35
:104D40000A00353330204C6F67696E2072657175CB
:104D5000697265640D0A00353032204E6F74206927
:104D60006D706C656D656E7465640D0A003530306C
:104D7000200D0A00323231204279650D0A003233AB
:104D800030204C6F6767656420696E0D0A0033330D
:104D9000312050617373776F726420726571756929
:104DA0007265640D0A003232302052656164790DFB
:104DB0000A0041424F5200504F52540053544F5238
:104DC000005155495400504153530055534552002A
:104DD000485454502F312E3020353033200D0A0DD9
:104DE0000A5365727669636520556E617661696CF8
:104DF00061626C650D0A00485454502F312E3020EA
:104E0000343034204E6F7420666F756E640D0A0D59
:104E10000A4E6F7420666F756E640D0A00536174DC
:104E200000467269005468750057656400547565E2
:104E3000004D6F6E0053756E00446563004E6F76D3
:104E4000004F63740053657000417567004A756CCC
:104E5000004A756E004D617900417072004D6172BB
:094E600000466562004A616E0023
:014E69000048
:064E6A0067D9020E4DD9CC
:104E7000020EF3CFEBFF030E5CD9040E46D9040EED
:104E8000F3CFEBFF050E55D90A0E3FD90A0EF3CF2B
:104E9000EBFF0B0E11C0EBFF1200140E0001E86FC8
:104EA000E96B0001020EE66F0C0EE76F4EEC1BF093
:104EB000F00E0C010215400801E0000C0F0E021567
:104EC000040DF350106E116A140E105E000E115A8C
:104ED00010C01CFC1050280801E2000C1C510008F6
:104EE0000BE21C510001E86FE96B00011D0EE66F3B
:104EF0000C0EE76F4EEC1BF00CCC16FC0DCC17FC27
:104F00000C010C6B0D6B140E0FD9020E7A6F0C0E88
:104F10007B6FA8EC2BF0F3CF18FCF4CF19FC0C013D
:104F2000181F191F1C51000810E21C51FDD81D0E3E
:104F30007A6F0C0E7B6FA8EC2BF0F3CF1AFCF4CF3A
:104F40001BFC0C011A1F1B1F02D01A6B1B6B040EDB
:104F5000EBD8180E7A6F0C0E7B6FA8EC2BF0F3CF0A
:104F600000FCF4CF01FC0C01F350161902E10151D1
:104F7000171901E0000C0301020EBE6F0C0EBF6F8B
:104F800074DF0301C051C1110CE0C0C3E9FFC1C30C
:104F9000EAFF12CCEEFF13CCEEFF14CCEEFF15CCE3
:104FA000EEFFC2C3E9FFC3C3EAFF060EE926000E07
:104FB000EA220ECCEEFF0FCCEEFF10CCEEFF11CCB0
:104FC000EEFFC4C3E9FFC5C3EAFF0BCCEFFF0C0142
:104FD0001C51126E136A1250045D106E1350055965
:104FE000116E140E105E000E115AC6C3E9FFC7C33E
:104FF000EAFF10C0EEFF11C0EDFF0301E12BE22339
:10500000E323E423010C0301140EBD6F0C01450ED4
:10501000EA6FEB6B140E0301CB250C01EC6F000E55
:105020000301CC210C01ED6F0301DF2B000EE02307
:10503000DFC3EEFCE0C3EFFC0C01F06BF16B640E20
:10504000F26FCAC3F3FCF46BF56B60C0F6FC61C091
:10505000F7FC62C0F8FC63C0F9FCC8C3E9FFC9C330
:10506000EAFF060EE926000EEA22EECFFAFCEECFAA
:10507000FBFCEECFFCFCEFCFFDFC0301EA0EBE6FA4
:105080000C0EBF6FF2DE140E4FD8EA0E7A6F0C0EC4
:105090007B6FA8EC2BF0F3CFF4FCF4CFF5FC140EEF
:1050A0000301CB250001DF6F000E0301CC210001BD
:1050B000E06F0001DE6BC8C3E9FFC9C3EAFFC8C3E4
:1050C000DCF0C9C3DDF0BAEC1AF0140E0001ED6F8C
:1050D000EE6B0001EA0EEB6F0C0EEC6F70EC1BF048
:1050E0000301E52B000EE623E723E823F36AF46AC5
:1050F00012000301BD51CD250001E16F000E030137
:10510000CE210001E26F0FEF1BF0E926000EEA222C
:10511000EECF74FEEDCF75FE74EC2BF0F3CF10F0F4
:10512000F4CF11F09DEF28F00E017C6F7D6B0E0126
:10513000120011C0EBFF9DEF28F0BEC3E9FFBFC313
:04514000EAFF120070
:0C5144000E01200E50D90B01006B100E64
:10515000005D19E20301E9C3E9FFEAC3EAFFE92BB5
:10516000000EEA23EFCF01FB0B0101390F0B410FBA
:105170000E013BD90F0E0B010115410F0E0135D960
:105180000B01002BE4D7E1EF29F00301EB51EC1107
:1051900011E10E01210E626F0C0E636F39EC1DF0F0
:1051A0000C0121512107000926E00E01220E626F39
:1051B0000C0EF3D70E01210E626F0C0E636F39ECEB
:1051C0001DF00C0121512107000915E003D92239F6
:1051D000F00B236F2107FED823512211E66E030145
:1051E000EBC3E9FFECC3EAFFEB2B000EEC23E55227
:1051F000E750EF6EE6D712000301FA51020A1BE0F6
:10520000030A05E0010A01E01200FA2B1200890EE0
:105210000E015D6F5E6B0E015B6B5C6B0E01596F77
:105220005A6B1AEC1CF00301ED6FFF0EED5D01E10E
:1052300012000301FA2BEDC361FE2FEC1DF00009F3
:1052400001E112000E01060E626F0C0EBED8050EB3
:10525000626F0C0EBAD8080E626F0C0EB6D8070E2D
:10526000626F0C0EB2D80A0E626F0C0EAED8090E29
:10527000626F0C0EAAD80C0E626F0C0EA6D80B0E25
:10528000626F0C0EA2D80E0E626F0C0E9ED80D0E21
:10529000626F0C0E9AD8100E626F0C0E96D80F0E1D
:1052A000626F0C0E636F39EC1DF00C0109CC10F02D
:1052B0000ACC11F00907000E0A5B1050111001E131
:1052C0007ED00301110EEB6F0C0EEC6F5EDF0E0152
:1052D000000E626F0C0E79D8020E626F0C0E75D83C
:1052E000010E626F0C0E71D8040E626F0C0E6DD839
:1052F000030E626F0C0E636F39EC1DF00C01200E73
:105300000119D3E10251D1E1010E0319CEE104519B
:10531000CCE1810EE66E000EE66E110EE66E0C0E0E
:10532000E66E5DEC30F0E552E552E552E5520009DB
:10533000BCE1EDC358FE0001010ED56F84EC19F0FD
:105340000009F7E00C01076B840E086F06CC60FEC5
:105350007BEC1CF005CC60FE7BEC1CF008CC60FE06
:105360007BEC1CF007CC60FE7BEC1CF02AD829D823
:105370003FD80301810EE96F000EEA6FE3DE21D80A
:105380000E01200E32D834D81CD80E01060E2DD8AE
:105390000E01600E2AD815D860C060FE7BEC1CF0B0
:1053A00061C060FE7BEC1CF062C060FE7BEC1CF018
:1053B00063C060FE7BEC1CF0C9EC1CF076D75AEFA2
:1053C0001DF00E01606B7BEF1CF0636F39EC1DF07C
:1053D0000E0112000E01220E626F0C0E636F39EC8B
:1053E0001DF0410E0C01225F1200606F7BEF1CF07C
:1053F000E8DF0E01010EF9DFE4DFE3DFE2DFE1EFDA
:0254000029F091
:0E5402000A0EE66EE66AE668010EE66E0C0E15
:10541000E66E43EC30F0106E050EE15E10500AD9D6
:10542000010E5B6F0C0E5C6F0E012C0E596F0B0E94
:105430005A6F1AEC1CF00C01006FFF0E005D01E1C9
:10544000120000CC58FEFDD8FCE00C010B6B0B5198
:10545000FFD805E20B51E5D80C010B2BF8D7FFD88C
:105460000C010B6B0C010B51C4D80C010B51CDD8A6
:105470000C010B2B060E0B5D04E00E012D0EF9D86E
:10548000F1D70E010D0EB2D80A0EB0D8440EAED828
:10549000480EACD8430EAAD8500EA8D82F0EA6D8C6
:1054A000500EA4D86F0EA2D8770EDFD8720E9ED8F9
:1054B000200EDBD8760ED9D86E0E98D8740E96D8FA
:1054C000200E94D86F0E92D8630E90D8630E8ED8AB
:1054D000750E8CD8720E8AD8720EC7D8640EC9D8D1
:1054E000C9EC1CF000CC5FFE68EF1CF00301FB511F
:1054F000030A01E17AD0010A30E0030A16E0010A4A
:1055000001E0120097D85B6B5C6B0E015F0E596F68
:10551000760E5A6F1AEC1CF00201FF6FFF0EFF5D52
:1055200001E112000301FB2B1200FFC261FE2FEC10
:105530001DF0000901E112000E01030E626F0B0E57
:10554000636F39EC1DF05AEC1DF0440E0B01035D46
:1055500001E012000301FB2B1200FFC258FE71D8BC
:1055600001E112000B01036B035172D805E20351F4
:1055700058D80B01032BF8D772D80B01036B0B0122
:10558000035137D80B01035140D80B01032B060EF2
:10559000035D04E00E012D0E6CD8F1D760D80A0E21
:1055A000E66EE66A7C0EE66E020EE66E0201FF51C2
:1055B000160DF3CFE9FFF4CFEAFF000EE9260E0E39
:1055C000EA22E9CF10F0EACF11F0E9CFE6FFEACF07
:1055D000E6FFF5EC2FF0126E060EE15E1250C9ECFC
:1055E0001CF00301010EFB6F1200120042D80E01E5
:1055F0001200EA6A640FE96E000EEA22EFCF72FE33
:1056000059EC2BF00E0139EF2BF0EA6A640FE96ECA
:10561000000EEA22EFCF73FE67EC2BF00E0139EF9C
:105620002BF0EA6A810FE96E000EEA22EFCF60FEEE
:105630007BEF1CF00E015F0E5D6F760E5E6F0E014C
:1056400012000001010ED56F84EC19F00009120060
:10565000106E116A0F0E105C000E115812000E0130
:105660000D0EC4DF0A0E39EF2BF0C0DF650EF6EF2A
:085670002AF0606F7BEF1CF0D3
:085678000E017151460802E227
:10568000200E715F7051460802E2200E705F71516A
:10569000390802E2370E01D0300E715F70513908BF
:1056A00002E2370E01D0300E705F7139F00B7011CD
:1056B00012000E0172390F0B726FE850090804E2F4
:1056C000410E7225F60F1200300E722512000F0ED9
:1056D0000E0173177351090804E2410E7325F60F8A
:1056E0001200300E7325120075CEF3FF74CEF4FF56
:1056F000120076CEACFC77CEADFC78CEAEFC79CE87
:10570000AFFC0C01AC0EB06F0C0EB16FB0CCE9FF6A
:10571000EA6E030EDAD8EF50E66E030ED0D8ABCCAB
:10572000EFFFC4D8020ED1D8010EC5D8EF50E66EF7
:10573000BDD8020EC4D8010EBED8ABCCEFFFACCCA6
:1057400006F0ADCC07F0AECC08F0AFCC09F01200FB
:105750000C01B36BB46BB56BB66B7CCEABFC7DCE82
:10576000ACFCD890AC33AB337ACEADFC7BCEAEFC88
:10577000ABCC10F0ACCC11F0AB07000EAC5B105012
:10578000111018E0ADCCE9FFAECCEAFF020EAD2758
:10579000000EAE23EECF10F0EFCF11F0000110504D
:1057A0000C01B327000111500C01B423000EB523E6
:1057B000B623DED70E017C51010B0EE0ADCCE9FF24
:1057C000AECCEAFFEFCF10F0000110500C01B32770
:1057D000000EB423B523B623B5CCB1FCB6CCB2FCD5
:1057E000B5CCABFCB6CCACFC0C01B151B2111BE09A
:1057F000B56BB66BB3CC10F0B4CC11F0126A136A6F
:10580000ABCC14F0ACCC15F0166A176A1050142407
:10581000B36F11501520B46F12501620B56F13508E
:105820001720B66FD9D7B3CC10F0B4CC11F0101E3E
:10583000111E10C0F3FF11C0F4FF12000C01010E85
:10584000AB6FAC6BAD6B0E017ECE10F07FCE11F066
:105850007E07000E7F5B1050111020E04BEC1BF018
:105860000C01AE6FAB510AE1AE51AC25AC6FAE513D
:10587000AC5D0DE2AD2B0BE1AC2B09D0AE51AD25EB
:10588000AD6FAE51AD5D03E2AC2B01E1AD2BAB5181
:1058900002E0000E01D0010EAB6FD5D70C01AD1D9B
:1058A000AD6FAC1DF36EADCCF4FF1200B0CCE9FFD0
:1058B000B1CCEAFF1200E926000EEA221200FBDF5B
:1058C000E552E750EF6E56EF2CF0F5DFEFCFABFC73
:0458D00056EF2CF073
:0C58D4000301D05112000301CF5102E18A
:1058E000010ECF6F12000301CF51070A01E1C5D0AD
:1058F000010A01E19AD0030A01E184D0010A63E0C0
:10590000070A49E0010A29E0030A1FE0010A01E051
:105910001200D05119E021EC11F00301D151065CC5
:10592000106ED2510758116ED3510858126ED451CF
:105930000958136EC00E105CA80E1158000E1258B4
:10594000000E135801E21200CF2B0301DB0E8A6F09
:10595000030E8B6F43EC23F0DCD00301D50E8E6F6A
:10596000030E8F6F0301DB0E8C6F030E8D6F59ECEE
:1059700023F000090EE1BCD8C80E1054000E1154DB
:10598000000E1254000E135401E3B1D00301CF07EF
:1059900012000301CF2B7B0E0E015D6F5E6B0E01BB
:1059A000D50E5B6F030E5C6F0E01B00E596F040EC7
:1059B0005A6F1AEC1CF00F015B6FFF0E5B5D01E18B
:1059C00012000301CF2B5BCF58FE0001010ED56FF3
:1059D00084EC19F0000901E112000E01230E606F42
:1059E0007BEC1CF00C01010E2F6F300E2F5D07E2D7
:1059F0000E01606B7BEC1CF00C012F2BF6D7C9EC71
:105A00001CF087D05BCF61FE2FEC1DF000090DE18B
:105A10006FD8E80E1054030E1154000E1254000EED
:105A2000135465E20301CF0712000C012F6B280EFF
:105A30002F5D0AE20E012B0E626F0C0E636F39ECC4
:105A40001DF00C012F2BF3D72F6B040E2F5D0DE2F1
:105A50002F510E01626F636B2B0E62270C0E6323B6
:105A600039EC1DF00C012F2BF0D75AEC1DF05BCF59
:105A70005FFE68EC1CF00301CF2B2BCC76FE2CCC08
:105A800077FE2DCC78FE2ECC79FE79EC2BF006C07B
:105A90002BFC07C02CFC08C02DFC09C02EFC0C01FF
:105AA0002EAF07D0C20E2C5F170E2D5BBC0E2E5BE7
:105AB00008D0820E2B27EC0E2C23E60E2D23430E4E
